{
	"MAAL Blockchain/RamzSwap/Core/WMAAL.sol": {
		"WMAAL": {
			"abi": [
				{
					"constant": true,
					"inputs": [],
					"name": "name",
					"outputs": [
						{
							"name": "",
							"type": "string"
						}
					],
					"payable": false,
					"stateMutability": "view",
					"type": "function"
				},
				{
					"constant": false,
					"inputs": [
						{
							"name": "guy",
							"type": "address"
						},
						{
							"name": "wad",
							"type": "uint256"
						}
					],
					"name": "approve",
					"outputs": [
						{
							"name": "",
							"type": "bool"
						}
					],
					"payable": false,
					"stateMutability": "nonpayable",
					"type": "function"
				},
				{
					"constant": true,
					"inputs": [],
					"name": "totalSupply",
					"outputs": [
						{
							"name": "",
							"type": "uint256"
						}
					],
					"payable": false,
					"stateMutability": "view",
					"type": "function"
				},
				{
					"constant": false,
					"inputs": [
						{
							"name": "src",
							"type": "address"
						},
						{
							"name": "dst",
							"type": "address"
						},
						{
							"name": "wad",
							"type": "uint256"
						}
					],
					"name": "transferFrom",
					"outputs": [
						{
							"name": "",
							"type": "bool"
						}
					],
					"payable": false,
					"stateMutability": "nonpayable",
					"type": "function"
				},
				{
					"constant": false,
					"inputs": [
						{
							"name": "wad",
							"type": "uint256"
						}
					],
					"name": "withdraw",
					"outputs": [],
					"payable": false,
					"stateMutability": "nonpayable",
					"type": "function"
				},
				{
					"constant": true,
					"inputs": [],
					"name": "decimals",
					"outputs": [
						{
							"name": "",
							"type": "uint8"
						}
					],
					"payable": false,
					"stateMutability": "view",
					"type": "function"
				},
				{
					"constant": true,
					"inputs": [
						{
							"name": "",
							"type": "address"
						}
					],
					"name": "balanceOf",
					"outputs": [
						{
							"name": "",
							"type": "uint256"
						}
					],
					"payable": false,
					"stateMutability": "view",
					"type": "function"
				},
				{
					"constant": true,
					"inputs": [],
					"name": "symbol",
					"outputs": [
						{
							"name": "",
							"type": "string"
						}
					],
					"payable": false,
					"stateMutability": "view",
					"type": "function"
				},
				{
					"constant": false,
					"inputs": [
						{
							"name": "dst",
							"type": "address"
						},
						{
							"name": "wad",
							"type": "uint256"
						}
					],
					"name": "transfer",
					"outputs": [
						{
							"name": "",
							"type": "bool"
						}
					],
					"payable": false,
					"stateMutability": "nonpayable",
					"type": "function"
				},
				{
					"constant": false,
					"inputs": [],
					"name": "deposit",
					"outputs": [],
					"payable": true,
					"stateMutability": "payable",
					"type": "function"
				},
				{
					"constant": true,
					"inputs": [
						{
							"name": "",
							"type": "address"
						},
						{
							"name": "",
							"type": "address"
						}
					],
					"name": "allowance",
					"outputs": [
						{
							"name": "",
							"type": "uint256"
						}
					],
					"payable": false,
					"stateMutability": "view",
					"type": "function"
				},
				{
					"payable": true,
					"stateMutability": "payable",
					"type": "fallback"
				},
				{
					"anonymous": false,
					"inputs": [
						{
							"indexed": true,
							"name": "src",
							"type": "address"
						},
						{
							"indexed": true,
							"name": "guy",
							"type": "address"
						},
						{
							"indexed": false,
							"name": "wad",
							"type": "uint256"
						}
					],
					"name": "Approval",
					"type": "event"
				},
				{
					"anonymous": false,
					"inputs": [
						{
							"indexed": true,
							"name": "src",
							"type": "address"
						},
						{
							"indexed": true,
							"name": "dst",
							"type": "address"
						},
						{
							"indexed": false,
							"name": "wad",
							"type": "uint256"
						}
					],
					"name": "Transfer",
					"type": "event"
				},
				{
					"anonymous": false,
					"inputs": [
						{
							"indexed": true,
							"name": "dst",
							"type": "address"
						},
						{
							"indexed": false,
							"name": "wad",
							"type": "uint256"
						}
					],
					"name": "Deposit",
					"type": "event"
				},
				{
					"anonymous": false,
					"inputs": [
						{
							"indexed": true,
							"name": "src",
							"type": "address"
						},
						{
							"indexed": false,
							"name": "wad",
							"type": "uint256"
						}
					],
					"name": "Withdrawal",
					"type": "event"
				}
			],
			"devdoc": {
				"methods": {}
			},
			"evm": {
				"assembly": "    /* \"MAAL Blockchain/RamzSwap/Core/WMAAL.sol\":50:89  string public name     = \"Wrapped MAAL\" */\n  0xc0\n    /* \"MAAL Blockchain/RamzSwap/Core/WMAAL.sol\":28:1894  contract WMAAL {\r... */\n  0x40\n    /* \"MAAL Blockchain/RamzSwap/Core/WMAAL.sol\":50:89  string public name     = \"Wrapped MAAL\" */\n  mstore\n  0xc\n    /* \"MAAL Blockchain/RamzSwap/Core/WMAAL.sol\":28:1894  contract WMAAL {\r... */\n  0x80\n    /* \"MAAL Blockchain/RamzSwap/Core/WMAAL.sol\":50:89  string public name     = \"Wrapped MAAL\" */\n  dup2\n  swap1\n  mstore\n  0x57726170706564204d41414c0000000000000000000000000000000000000000\n  0xa0\n  swap1\n  dup2\n  mstore\n  tag_1\n  swap2\n  0x0\n  swap2\n  swap1\n  jump\t// in(tag_2)\ntag_1:\n  pop\n    /* \"MAAL Blockchain/RamzSwap/Core/WMAAL.sol\":96:128  string public symbol   = \"WMAAL\" */\n  0x40\n  dup1\n  mload\n  dup1\n  dup3\n  add\n  swap1\n  swap2\n  mstore\n  0x5\n  dup1\n  dup3\n  mstore\n  0x574d41414c000000000000000000000000000000000000000000000000000000\n  0x20\n  swap1\n  swap3\n  add\n  swap2\n  dup3\n  mstore\n  tag_3\n  swap2\n  0x1\n  swap2\n  jump\t// in(tag_2)\ntag_3:\n  pop\n    /* \"MAAL Blockchain/RamzSwap/Core/WMAAL.sol\":135:162  uint8  public decimals = 18 */\n  0x2\n  dup1\n  sload\n  not(0xff)\n  and\n    /* \"MAAL Blockchain/RamzSwap/Core/WMAAL.sol\":160:162  18 */\n  0x12\n    /* \"MAAL Blockchain/RamzSwap/Core/WMAAL.sol\":135:162  uint8  public decimals = 18 */\n  or\n  swap1\n  sstore\n    /* \"MAAL Blockchain/RamzSwap/Core/WMAAL.sol\":28:1894  contract WMAAL {\r... */\n  callvalue\n    /* \"--CODEGEN--\":5:7   */\n  dup1\n  iszero\n  tag_4\n  jumpi\n    /* \"--CODEGEN--\":30:31   */\n  0x0\n    /* \"--CODEGEN--\":27:28   */\n  dup1\n    /* \"--CODEGEN--\":20:32   */\n  revert\n    /* \"--CODEGEN--\":5:7   */\ntag_4:\n    /* \"MAAL Blockchain/RamzSwap/Core/WMAAL.sol\":28:1894  contract WMAAL {\r... */\n  pop\n  jump(tag_5)\ntag_2:\n  dup3\n  dup1\n  sload\n  0x1\n  dup2\n  0x1\n  and\n  iszero\n  0x100\n  mul\n  sub\n  and\n  0x2\n  swap1\n  div\n  swap1\n  0x0\n  mstore\n  keccak256(0x0, 0x20)\n  swap1\n  0x1f\n  add\n  0x20\n  swap1\n  div\n  dup2\n  add\n  swap3\n  dup3\n  0x1f\n  lt\n  tag_7\n  jumpi\n  dup1\n  mload\n  not(0xff)\n  and\n  dup4\n  dup1\n  add\n  or\n  dup6\n  sstore\n  jump(tag_9)\ntag_7:\n  dup3\n  dup1\n  add\n  0x1\n  add\n  dup6\n  sstore\n  dup3\n  iszero\n  tag_9\n  jumpi\n  swap2\n  dup3\n  add\ntag_8:\n  dup3\n  dup2\n  gt\n  iszero\n  tag_9\n  jumpi\n  dup3\n  mload\n  dup3\n  sstore\n  swap2\n  0x20\n  add\n  swap2\n  swap1\n  0x1\n  add\n  swap1\n  jump(tag_8)\ntag_9:\n  pop\n  tag_10\n  swap3\n  swap2\n  pop\n  jump\t// in(tag_11)\ntag_10:\n  pop\n  swap1\n  jump\t// out\ntag_11:\n  tag_12\n  swap2\n  swap1\ntag_13:\n  dup1\n  dup3\n  gt\n  iszero\n  tag_10\n  jumpi\n  0x0\n  dup2\n  sstore\n  0x1\n  add\n  jump(tag_13)\ntag_12:\n  swap1\n  jump\t// out\ntag_5:\n  dataSize(sub_0)\n  dup1\n  dataOffset(sub_0)\n  0x0\n  codecopy\n  0x0\n  return\nstop\n\nsub_0: assembly {\n        /* \"MAAL Blockchain/RamzSwap/Core/WMAAL.sol\":28:1894  contract WMAAL {\r... */\n      mstore(0x40, 0x80)\n      jumpi(tag_1, lt(calldatasize, 0x4))\n      and(div(calldataload(0x0), 0x100000000000000000000000000000000000000000000000000000000), 0xffffffff)\n      0x6fdde03\n      dup2\n      eq\n      tag_2\n      jumpi\n      dup1\n      0x95ea7b3\n      eq\n      tag_3\n      jumpi\n      dup1\n      0x18160ddd\n      eq\n      tag_4\n      jumpi\n      dup1\n      0x23b872dd\n      eq\n      tag_5\n      jumpi\n      dup1\n      0x2e1a7d4d\n      eq\n      tag_6\n      jumpi\n      dup1\n      0x313ce567\n      eq\n      tag_7\n      jumpi\n      dup1\n      0x70a08231\n      eq\n      tag_8\n      jumpi\n      dup1\n      0x95d89b41\n      eq\n      tag_9\n      jumpi\n      dup1\n      0xa9059cbb\n      eq\n      tag_10\n      jumpi\n      dup1\n      0xd0e30db0\n      eq\n      tag_1\n      jumpi\n      dup1\n      0xdd62ed3e\n      eq\n      tag_12\n      jumpi\n    tag_1:\n        /* \"MAAL Blockchain/RamzSwap/Core/WMAAL.sol\":611:620  deposit() */\n      tag_15\n        /* \"MAAL Blockchain/RamzSwap/Core/WMAAL.sol\":611:618  deposit */\n      tag_16\n        /* \"MAAL Blockchain/RamzSwap/Core/WMAAL.sol\":611:620  deposit() */\n      jump\t// in\n    tag_15:\n        /* \"MAAL Blockchain/RamzSwap/Core/WMAAL.sol\":28:1894  contract WMAAL {\r... */\n      stop\n        /* \"MAAL Blockchain/RamzSwap/Core/WMAAL.sol\":50:89  string public name     = \"Wrapped MAAL\" */\n    tag_2:\n      callvalue\n        /* \"--CODEGEN--\":8:17   */\n      dup1\n        /* \"--CODEGEN--\":5:7   */\n      iszero\n      tag_17\n      jumpi\n        /* \"--CODEGEN--\":30:31   */\n      0x0\n        /* \"--CODEGEN--\":27:28   */\n      dup1\n        /* \"--CODEGEN--\":20:32   */\n      revert\n        /* \"--CODEGEN--\":5:7   */\n    tag_17:\n        /* \"MAAL Blockchain/RamzSwap/Core/WMAAL.sol\":50:89  string public name     = \"Wrapped MAAL\" */\n      pop\n      tag_18\n      jump(tag_19)\n    tag_18:\n      0x40\n      dup1\n      mload\n      0x20\n      dup1\n      dup3\n      mstore\n      dup4\n      mload\n      dup2\n      dup4\n      add\n      mstore\n      dup4\n      mload\n      swap2\n      swap3\n      dup4\n      swap3\n      swap1\n      dup4\n      add\n      swap2\n      dup6\n      add\n      swap1\n      dup1\n      dup4\n      dup4\n      0x0\n        /* \"--CODEGEN--\":8:108   */\n    tag_20:\n        /* \"--CODEGEN--\":33:36   */\n      dup4\n        /* \"--CODEGEN--\":30:31   */\n      dup2\n        /* \"--CODEGEN--\":27:37   */\n      lt\n        /* \"--CODEGEN--\":8:108   */\n      iszero\n      tag_21\n      jumpi\n        /* \"--CODEGEN--\":90:101   */\n      dup2\n      dup2\n      add\n        /* \"--CODEGEN--\":84:102   */\n      mload\n        /* \"--CODEGEN--\":71:82   */\n      dup4\n      dup3\n      add\n        /* \"--CODEGEN--\":64:103   */\n      mstore\n        /* \"--CODEGEN--\":52:54   */\n      0x20\n        /* \"--CODEGEN--\":45:55   */\n      add\n        /* \"--CODEGEN--\":8:108   */\n      jump(tag_20)\n    tag_21:\n        /* \"--CODEGEN--\":12:26   */\n      pop\n        /* \"MAAL Blockchain/RamzSwap/Core/WMAAL.sol\":50:89  string public name     = \"Wrapped MAAL\" */\n      pop\n      pop\n      pop\n      swap1\n      pop\n      swap1\n      dup2\n      add\n      swap1\n      0x1f\n      and\n      dup1\n      iszero\n      tag_23\n      jumpi\n      dup1\n      dup3\n      sub\n      dup1\n      mload\n      0x1\n      dup4\n      0x20\n      sub\n      0x100\n      exp\n      sub\n      not\n      and\n      dup2\n      mstore\n      0x20\n      add\n      swap2\n      pop\n    tag_23:\n      pop\n      swap3\n      pop\n      pop\n      pop\n      mload(0x40)\n      dup1\n      swap2\n      sub\n      swap1\n      return\n        /* \"MAAL Blockchain/RamzSwap/Core/WMAAL.sol\":1094:1275  function approve(address guy, uint wad) public returns (bool) {\r... */\n    tag_3:\n      callvalue\n        /* \"--CODEGEN--\":8:17   */\n      dup1\n        /* \"--CODEGEN--\":5:7   */\n      iszero\n      tag_24\n      jumpi\n        /* \"--CODEGEN--\":30:31   */\n      0x0\n        /* \"--CODEGEN--\":27:28   */\n      dup1\n        /* \"--CODEGEN--\":20:32   */\n      revert\n        /* \"--CODEGEN--\":5:7   */\n    tag_24:\n      pop\n        /* \"MAAL Blockchain/RamzSwap/Core/WMAAL.sol\":1094:1275  function approve(address guy, uint wad) public returns (bool) {\r... */\n      tag_25\n      and(calldataload(0x4), sub(exp(0x2, 0xa0), 0x1))\n      calldataload(0x24)\n      jump(tag_26)\n    tag_25:\n      0x40\n      dup1\n      mload\n      swap2\n      iszero\n      iszero\n      dup3\n      mstore\n      mload\n      swap1\n      dup2\n      swap1\n      sub\n      0x20\n      add\n      swap1\n      return\n        /* \"MAAL Blockchain/RamzSwap/Core/WMAAL.sol\":989:1086  function totalSupply() public view returns (uint) {\r... */\n    tag_4:\n      callvalue\n        /* \"--CODEGEN--\":8:17   */\n      dup1\n        /* \"--CODEGEN--\":5:7   */\n      iszero\n      tag_27\n      jumpi\n        /* \"--CODEGEN--\":30:31   */\n      0x0\n        /* \"--CODEGEN--\":27:28   */\n      dup1\n        /* \"--CODEGEN--\":20:32   */\n      revert\n        /* \"--CODEGEN--\":5:7   */\n    tag_27:\n        /* \"MAAL Blockchain/RamzSwap/Core/WMAAL.sol\":989:1086  function totalSupply() public view returns (uint) {\r... */\n      pop\n      tag_28\n      jump(tag_29)\n    tag_28:\n      0x40\n      dup1\n      mload\n      swap2\n      dup3\n      mstore\n      mload\n      swap1\n      dup2\n      swap1\n      sub\n      0x20\n      add\n      swap1\n      return\n        /* \"MAAL Blockchain/RamzSwap/Core/WMAAL.sol\":1414:1891  function transferFrom(address src, address dst, uint wad)\r... */\n    tag_5:\n      callvalue\n        /* \"--CODEGEN--\":8:17   */\n      dup1\n        /* \"--CODEGEN--\":5:7   */\n      iszero\n      tag_30\n      jumpi\n        /* \"--CODEGEN--\":30:31   */\n      0x0\n        /* \"--CODEGEN--\":27:28   */\n      dup1\n        /* \"--CODEGEN--\":20:32   */\n      revert\n        /* \"--CODEGEN--\":5:7   */\n    tag_30:\n      pop\n        /* \"MAAL Blockchain/RamzSwap/Core/WMAAL.sol\":1414:1891  function transferFrom(address src, address dst, uint wad)\r... */\n      tag_25\n      sub(exp(0x2, 0xa0), 0x1)\n      calldataload(0x4)\n      dup2\n      and\n      swap1\n      calldataload(0x24)\n      and\n      calldataload(0x44)\n      jump(tag_32)\n        /* \"MAAL Blockchain/RamzSwap/Core/WMAAL.sol\":773:981  function withdraw(uint wad) public {\r... */\n    tag_6:\n      callvalue\n        /* \"--CODEGEN--\":8:17   */\n      dup1\n        /* \"--CODEGEN--\":5:7   */\n      iszero\n      tag_33\n      jumpi\n        /* \"--CODEGEN--\":30:31   */\n      0x0\n        /* \"--CODEGEN--\":27:28   */\n      dup1\n        /* \"--CODEGEN--\":20:32   */\n      revert\n        /* \"--CODEGEN--\":5:7   */\n    tag_33:\n      pop\n        /* \"MAAL Blockchain/RamzSwap/Core/WMAAL.sol\":773:981  function withdraw(uint wad) public {\r... */\n      tag_15\n      calldataload(0x4)\n      jump(tag_35)\n        /* \"MAAL Blockchain/RamzSwap/Core/WMAAL.sol\":135:162  uint8  public decimals = 18 */\n    tag_7:\n      callvalue\n        /* \"--CODEGEN--\":8:17   */\n      dup1\n        /* \"--CODEGEN--\":5:7   */\n      iszero\n      tag_36\n      jumpi\n        /* \"--CODEGEN--\":30:31   */\n      0x0\n        /* \"--CODEGEN--\":27:28   */\n      dup1\n        /* \"--CODEGEN--\":20:32   */\n      revert\n        /* \"--CODEGEN--\":5:7   */\n    tag_36:\n        /* \"MAAL Blockchain/RamzSwap/Core/WMAAL.sol\":135:162  uint8  public decimals = 18 */\n      pop\n      tag_37\n      jump(tag_38)\n    tag_37:\n      0x40\n      dup1\n      mload\n      0xff\n      swap1\n      swap3\n      and\n      dup3\n      mstore\n      mload\n      swap1\n      dup2\n      swap1\n      sub\n      0x20\n      add\n      swap1\n      return\n        /* \"MAAL Blockchain/RamzSwap/Core/WMAAL.sol\":428:493  mapping (address => uint)                       public  balanceOf */\n    tag_8:\n      callvalue\n        /* \"--CODEGEN--\":8:17   */\n      dup1\n        /* \"--CODEGEN--\":5:7   */\n      iszero\n      tag_39\n      jumpi\n        /* \"--CODEGEN--\":30:31   */\n      0x0\n        /* \"--CODEGEN--\":27:28   */\n      dup1\n        /* \"--CODEGEN--\":20:32   */\n      revert\n        /* \"--CODEGEN--\":5:7   */\n    tag_39:\n      pop\n        /* \"MAAL Blockchain/RamzSwap/Core/WMAAL.sol\":428:493  mapping (address => uint)                       public  balanceOf */\n      tag_28\n      and(calldataload(0x4), sub(exp(0x2, 0xa0), 0x1))\n      jump(tag_41)\n        /* \"MAAL Blockchain/RamzSwap/Core/WMAAL.sol\":96:128  string public symbol   = \"WMAAL\" */\n    tag_9:\n      callvalue\n        /* \"--CODEGEN--\":8:17   */\n      dup1\n        /* \"--CODEGEN--\":5:7   */\n      iszero\n      tag_42\n      jumpi\n        /* \"--CODEGEN--\":30:31   */\n      0x0\n        /* \"--CODEGEN--\":27:28   */\n      dup1\n        /* \"--CODEGEN--\":20:32   */\n      revert\n        /* \"--CODEGEN--\":5:7   */\n    tag_42:\n        /* \"MAAL Blockchain/RamzSwap/Core/WMAAL.sol\":96:128  string public symbol   = \"WMAAL\" */\n      pop\n      tag_18\n      jump(tag_44)\n        /* \"MAAL Blockchain/RamzSwap/Core/WMAAL.sol\":1283:1406  function transfer(address dst, uint wad) public returns (bool) {\r... */\n    tag_10:\n      callvalue\n        /* \"--CODEGEN--\":8:17   */\n      dup1\n        /* \"--CODEGEN--\":5:7   */\n      iszero\n      tag_49\n      jumpi\n        /* \"--CODEGEN--\":30:31   */\n      0x0\n        /* \"--CODEGEN--\":27:28   */\n      dup1\n        /* \"--CODEGEN--\":20:32   */\n      revert\n        /* \"--CODEGEN--\":5:7   */\n    tag_49:\n      pop\n        /* \"MAAL Blockchain/RamzSwap/Core/WMAAL.sol\":1283:1406  function transfer(address dst, uint wad) public returns (bool) {\r... */\n      tag_25\n      and(calldataload(0x4), sub(exp(0x2, 0xa0), 0x1))\n      calldataload(0x24)\n      jump(tag_51)\n        /* \"MAAL Blockchain/RamzSwap/Core/WMAAL.sol\":500:565  mapping (address => mapping (address => uint))  public  allowance */\n    tag_12:\n      callvalue\n        /* \"--CODEGEN--\":8:17   */\n      dup1\n        /* \"--CODEGEN--\":5:7   */\n      iszero\n      tag_53\n      jumpi\n        /* \"--CODEGEN--\":30:31   */\n      0x0\n        /* \"--CODEGEN--\":27:28   */\n      dup1\n        /* \"--CODEGEN--\":20:32   */\n      revert\n        /* \"--CODEGEN--\":5:7   */\n    tag_53:\n      pop\n        /* \"MAAL Blockchain/RamzSwap/Core/WMAAL.sol\":500:565  mapping (address => mapping (address => uint))  public  allowance */\n      tag_28\n      sub(exp(0x2, 0xa0), 0x1)\n      calldataload(0x4)\n      dup2\n      and\n      swap1\n      calldataload(0x24)\n      and\n      jump(tag_55)\n        /* \"MAAL Blockchain/RamzSwap/Core/WMAAL.sol\":634:767  function deposit() public payable {\r... */\n    tag_16:\n        /* \"MAAL Blockchain/RamzSwap/Core/WMAAL.sol\":689:699  msg.sender */\n      caller\n        /* \"MAAL Blockchain/RamzSwap/Core/WMAAL.sol\":679:700  balanceOf[msg.sender] */\n      0x0\n      dup2\n      dup2\n      mstore\n        /* \"MAAL Blockchain/RamzSwap/Core/WMAAL.sol\":679:688  balanceOf */\n      0x3\n        /* \"MAAL Blockchain/RamzSwap/Core/WMAAL.sol\":679:700  balanceOf[msg.sender] */\n      0x20\n      swap1\n      dup2\n      mstore\n      0x40\n      swap2\n      dup3\n      swap1\n      keccak256\n        /* \"MAAL Blockchain/RamzSwap/Core/WMAAL.sol\":679:713  balanceOf[msg.sender] += msg.value */\n      dup1\n      sload\n        /* \"MAAL Blockchain/RamzSwap/Core/WMAAL.sol\":704:713  msg.value */\n      callvalue\n        /* \"MAAL Blockchain/RamzSwap/Core/WMAAL.sol\":679:713  balanceOf[msg.sender] += msg.value */\n      swap1\n      dup2\n      add\n      swap1\n      swap2\n      sstore\n        /* \"MAAL Blockchain/RamzSwap/Core/WMAAL.sol\":729:759  Deposit(msg.sender, msg.value) */\n      dup3\n      mload\n      swap1\n      dup2\n      mstore\n      swap2\n      mload\n      0xe1fffcc4923d04b559f4d29a8bfc6cda04eb5b0d3c460751c2402c5c5cc9109c\n      swap3\n      dup2\n      swap1\n      sub\n      swap1\n      swap2\n      add\n      swap1\n      log2\n        /* \"MAAL Blockchain/RamzSwap/Core/WMAAL.sol\":634:767  function deposit() public payable {\r... */\n      jump\t// out\n        /* \"MAAL Blockchain/RamzSwap/Core/WMAAL.sol\":50:89  string public name     = \"Wrapped MAAL\" */\n    tag_19:\n      0x0\n      dup1\n      sload\n      0x40\n      dup1\n      mload\n      0x20\n      0x2\n      0x1\n      dup6\n      and\n      iszero\n      0x100\n      mul\n      not(0x0)\n      add\n      swap1\n      swap5\n      and\n      swap4\n      swap1\n      swap4\n      div\n      0x1f\n      dup2\n      add\n      dup5\n      swap1\n      div\n      dup5\n      mul\n      dup3\n      add\n      dup5\n      add\n      swap1\n      swap3\n      mstore\n      dup2\n      dup2\n      mstore\n      swap3\n      swap2\n      dup4\n      add\n      dup3\n      dup3\n      dup1\n      iszero\n      tag_57\n      jumpi\n      dup1\n      0x1f\n      lt\n      tag_58\n      jumpi\n      0x100\n      dup1\n      dup4\n      sload\n      div\n      mul\n      dup4\n      mstore\n      swap2\n      0x20\n      add\n      swap2\n      jump(tag_57)\n    tag_58:\n      dup3\n      add\n      swap2\n      swap1\n      0x0\n      mstore\n      keccak256(0x0, 0x20)\n      swap1\n    tag_59:\n      dup2\n      sload\n      dup2\n      mstore\n      swap1\n      0x1\n      add\n      swap1\n      0x20\n      add\n      dup1\n      dup4\n      gt\n      tag_59\n      jumpi\n      dup3\n      swap1\n      sub\n      0x1f\n      and\n      dup3\n      add\n      swap2\n    tag_57:\n      pop\n      pop\n      pop\n      pop\n      pop\n      dup2\n      jump\t// out\n        /* \"MAAL Blockchain/RamzSwap/Core/WMAAL.sol\":1094:1275  function approve(address guy, uint wad) public returns (bool) {\r... */\n    tag_26:\n        /* \"MAAL Blockchain/RamzSwap/Core/WMAAL.sol\":1177:1187  msg.sender */\n      caller\n        /* \"MAAL Blockchain/RamzSwap/Core/WMAAL.sol\":1150:1154  bool */\n      0x0\n        /* \"MAAL Blockchain/RamzSwap/Core/WMAAL.sol\":1167:1188  allowance[msg.sender] */\n      dup2\n      dup2\n      mstore\n        /* \"MAAL Blockchain/RamzSwap/Core/WMAAL.sol\":1167:1176  allowance */\n      0x4\n        /* \"MAAL Blockchain/RamzSwap/Core/WMAAL.sol\":1167:1188  allowance[msg.sender] */\n      0x20\n      swap1\n      dup2\n      mstore\n      0x40\n      dup1\n      dup4\n      keccak256\n      sub(exp(0x2, 0xa0), 0x1)\n        /* \"MAAL Blockchain/RamzSwap/Core/WMAAL.sol\":1167:1193  allowance[msg.sender][guy] */\n      dup8\n      and\n      dup1\n      dup6\n      mstore\n      swap1\n      dup4\n      mstore\n      dup2\n      dup5\n      keccak256\n        /* \"MAAL Blockchain/RamzSwap/Core/WMAAL.sol\":1167:1199  allowance[msg.sender][guy] = wad */\n      dup7\n      swap1\n      sstore\n        /* \"MAAL Blockchain/RamzSwap/Core/WMAAL.sol\":1215:1245  Approval(msg.sender, guy, wad) */\n      dup2\n      mload\n      dup7\n      dup2\n      mstore\n      swap2\n      mload\n        /* \"MAAL Blockchain/RamzSwap/Core/WMAAL.sol\":1150:1154  bool */\n      swap4\n      swap5\n        /* \"MAAL Blockchain/RamzSwap/Core/WMAAL.sol\":1167:1193  allowance[msg.sender][guy] */\n      swap1\n      swap4\n        /* \"MAAL Blockchain/RamzSwap/Core/WMAAL.sol\":1177:1187  msg.sender */\n      swap1\n      swap3\n        /* \"MAAL Blockchain/RamzSwap/Core/WMAAL.sol\":1215:1245  Approval(msg.sender, guy, wad) */\n      0x8c5be1e5ebec7d5bd14f71427d1e84f3dd0314c0f7b2291e5b200ac8c7c3b925\n      swap3\n      dup3\n      swap1\n      sub\n      add\n      swap1\n      log3\n      pop\n        /* \"MAAL Blockchain/RamzSwap/Core/WMAAL.sol\":1263:1267  true */\n      0x1\n        /* \"MAAL Blockchain/RamzSwap/Core/WMAAL.sol\":1094:1275  function approve(address guy, uint wad) public returns (bool) {\r... */\n      swap3\n      swap2\n      pop\n      pop\n      jump\t// out\n        /* \"MAAL Blockchain/RamzSwap/Core/WMAAL.sol\":989:1086  function totalSupply() public view returns (uint) {\r... */\n    tag_29:\n        /* \"MAAL Blockchain/RamzSwap/Core/WMAAL.sol\":1065:1069  this */\n      address\n        /* \"MAAL Blockchain/RamzSwap/Core/WMAAL.sol\":1057:1078  address(this).balance */\n      balance\n        /* \"MAAL Blockchain/RamzSwap/Core/WMAAL.sol\":989:1086  function totalSupply() public view returns (uint) {\r... */\n      swap1\n      jump\t// out\n        /* \"MAAL Blockchain/RamzSwap/Core/WMAAL.sol\":1414:1891  function transferFrom(address src, address dst, uint wad)\r... */\n    tag_32:\n      sub(exp(0x2, 0xa0), 0x1)\n        /* \"MAAL Blockchain/RamzSwap/Core/WMAAL.sol\":1536:1550  balanceOf[src] */\n      dup4\n      and\n        /* \"MAAL Blockchain/RamzSwap/Core/WMAAL.sol\":1506:1510  bool */\n      0x0\n        /* \"MAAL Blockchain/RamzSwap/Core/WMAAL.sol\":1536:1550  balanceOf[src] */\n      swap1\n      dup2\n      mstore\n        /* \"MAAL Blockchain/RamzSwap/Core/WMAAL.sol\":1536:1545  balanceOf */\n      0x3\n        /* \"MAAL Blockchain/RamzSwap/Core/WMAAL.sol\":1536:1550  balanceOf[src] */\n      0x20\n      mstore\n      0x40\n      dup2\n      keccak256\n      sload\n        /* \"MAAL Blockchain/RamzSwap/Core/WMAAL.sol\":1536:1557  balanceOf[src] >= wad */\n      dup3\n      gt\n      iszero\n        /* \"MAAL Blockchain/RamzSwap/Core/WMAAL.sol\":1528:1558  require(balanceOf[src] >= wad) */\n      tag_63\n      jumpi\n      0x0\n      dup1\n      revert\n    tag_63:\n      sub(exp(0x2, 0xa0), 0x1)\n        /* \"MAAL Blockchain/RamzSwap/Core/WMAAL.sol\":1575:1592  src != msg.sender */\n      dup5\n      and\n        /* \"MAAL Blockchain/RamzSwap/Core/WMAAL.sol\":1582:1592  msg.sender */\n      caller\n        /* \"MAAL Blockchain/RamzSwap/Core/WMAAL.sol\":1575:1592  src != msg.sender */\n      eq\n      dup1\n      iszero\n      swap1\n        /* \"MAAL Blockchain/RamzSwap/Core/WMAAL.sol\":1575:1634  src != msg.sender && allowance[src][msg.sender] != uint(-1) */\n      tag_64\n      jumpi\n      pop\n      sub(exp(0x2, 0xa0), 0x1)\n        /* \"MAAL Blockchain/RamzSwap/Core/WMAAL.sol\":1596:1610  allowance[src] */\n      dup5\n      and\n      0x0\n      swap1\n      dup2\n      mstore\n        /* \"MAAL Blockchain/RamzSwap/Core/WMAAL.sol\":1596:1605  allowance */\n      0x4\n        /* \"MAAL Blockchain/RamzSwap/Core/WMAAL.sol\":1596:1610  allowance[src] */\n      0x20\n      swap1\n      dup2\n      mstore\n      0x40\n      dup1\n      dup4\n      keccak256\n        /* \"MAAL Blockchain/RamzSwap/Core/WMAAL.sol\":1611:1621  msg.sender */\n      caller\n        /* \"MAAL Blockchain/RamzSwap/Core/WMAAL.sol\":1596:1622  allowance[src][msg.sender] */\n      dup5\n      mstore\n      swap1\n      swap2\n      mstore\n      swap1\n      keccak256\n      sload\n      not(0x0)\n        /* \"MAAL Blockchain/RamzSwap/Core/WMAAL.sol\":1596:1634  allowance[src][msg.sender] != uint(-1) */\n      eq\n      iszero\n        /* \"MAAL Blockchain/RamzSwap/Core/WMAAL.sol\":1575:1634  src != msg.sender && allowance[src][msg.sender] != uint(-1) */\n    tag_64:\n        /* \"MAAL Blockchain/RamzSwap/Core/WMAAL.sol\":1571:1753  if (src != msg.sender && allowance[src][msg.sender] != uint(-1)) {\r... */\n      iszero\n      tag_65\n      jumpi\n      sub(exp(0x2, 0xa0), 0x1)\n        /* \"MAAL Blockchain/RamzSwap/Core/WMAAL.sol\":1659:1673  allowance[src] */\n      dup5\n      and\n      0x0\n      swap1\n      dup2\n      mstore\n        /* \"MAAL Blockchain/RamzSwap/Core/WMAAL.sol\":1659:1668  allowance */\n      0x4\n        /* \"MAAL Blockchain/RamzSwap/Core/WMAAL.sol\":1659:1673  allowance[src] */\n      0x20\n      swap1\n      dup2\n      mstore\n      0x40\n      dup1\n      dup4\n      keccak256\n        /* \"MAAL Blockchain/RamzSwap/Core/WMAAL.sol\":1674:1684  msg.sender */\n      caller\n        /* \"MAAL Blockchain/RamzSwap/Core/WMAAL.sol\":1659:1685  allowance[src][msg.sender] */\n      dup5\n      mstore\n      swap1\n      swap2\n      mstore\n      swap1\n      keccak256\n      sload\n        /* \"MAAL Blockchain/RamzSwap/Core/WMAAL.sol\":1659:1692  allowance[src][msg.sender] >= wad */\n      dup3\n      gt\n      iszero\n        /* \"MAAL Blockchain/RamzSwap/Core/WMAAL.sol\":1651:1693  require(allowance[src][msg.sender] >= wad) */\n      tag_66\n      jumpi\n      0x0\n      dup1\n      revert\n    tag_66:\n      sub(exp(0x2, 0xa0), 0x1)\n        /* \"MAAL Blockchain/RamzSwap/Core/WMAAL.sol\":1708:1722  allowance[src] */\n      dup5\n      and\n      0x0\n      swap1\n      dup2\n      mstore\n        /* \"MAAL Blockchain/RamzSwap/Core/WMAAL.sol\":1708:1717  allowance */\n      0x4\n        /* \"MAAL Blockchain/RamzSwap/Core/WMAAL.sol\":1708:1722  allowance[src] */\n      0x20\n      swap1\n      dup2\n      mstore\n      0x40\n      dup1\n      dup4\n      keccak256\n        /* \"MAAL Blockchain/RamzSwap/Core/WMAAL.sol\":1723:1733  msg.sender */\n      caller\n        /* \"MAAL Blockchain/RamzSwap/Core/WMAAL.sol\":1708:1734  allowance[src][msg.sender] */\n      dup5\n      mstore\n      swap1\n      swap2\n      mstore\n      swap1\n      keccak256\n        /* \"MAAL Blockchain/RamzSwap/Core/WMAAL.sol\":1708:1741  allowance[src][msg.sender] -= wad */\n      dup1\n      sload\n      dup4\n      swap1\n      sub\n      swap1\n      sstore\n        /* \"MAAL Blockchain/RamzSwap/Core/WMAAL.sol\":1571:1753  if (src != msg.sender && allowance[src][msg.sender] != uint(-1)) {\r... */\n    tag_65:\n      sub(exp(0x2, 0xa0), 0x1)\n        /* \"MAAL Blockchain/RamzSwap/Core/WMAAL.sol\":1765:1779  balanceOf[src] */\n      dup1\n      dup6\n      and\n      0x0\n      dup2\n      dup2\n      mstore\n        /* \"MAAL Blockchain/RamzSwap/Core/WMAAL.sol\":1765:1774  balanceOf */\n      0x3\n        /* \"MAAL Blockchain/RamzSwap/Core/WMAAL.sol\":1765:1779  balanceOf[src] */\n      0x20\n      swap1\n      dup2\n      mstore\n      0x40\n      dup1\n      dup4\n      keccak256\n        /* \"MAAL Blockchain/RamzSwap/Core/WMAAL.sol\":1765:1786  balanceOf[src] -= wad */\n      dup1\n      sload\n      dup9\n      swap1\n      sub\n      swap1\n      sstore\n        /* \"MAAL Blockchain/RamzSwap/Core/WMAAL.sol\":1797:1811  balanceOf[dst] */\n      swap4\n      dup8\n      and\n      dup1\n      dup4\n      mstore\n      swap2\n      dup5\n      swap1\n      keccak256\n        /* \"MAAL Blockchain/RamzSwap/Core/WMAAL.sol\":1797:1818  balanceOf[dst] += wad */\n      dup1\n      sload\n      dup8\n      add\n      swap1\n      sstore\n        /* \"MAAL Blockchain/RamzSwap/Core/WMAAL.sol\":1836:1859  Transfer(src, dst, wad) */\n      dup4\n      mload\n      dup7\n      dup2\n      mstore\n      swap4\n      mload\n        /* \"MAAL Blockchain/RamzSwap/Core/WMAAL.sol\":1797:1811  balanceOf[dst] */\n      swap2\n      swap4\n        /* \"MAAL Blockchain/RamzSwap/Core/WMAAL.sol\":1836:1859  Transfer(src, dst, wad) */\n      0xddf252ad1be2c89b69c2b068fc378daa952ba7f163c4a11628f55a4df523b3ef\n      swap3\n      swap1\n      dup2\n      swap1\n      sub\n      swap1\n      swap2\n      add\n      swap1\n      log3\n      pop\n        /* \"MAAL Blockchain/RamzSwap/Core/WMAAL.sol\":1879:1883  true */\n      0x1\n        /* \"MAAL Blockchain/RamzSwap/Core/WMAAL.sol\":1414:1891  function transferFrom(address src, address dst, uint wad)\r... */\n      swap4\n      swap3\n      pop\n      pop\n      pop\n      jump\t// out\n        /* \"MAAL Blockchain/RamzSwap/Core/WMAAL.sol\":773:981  function withdraw(uint wad) public {\r... */\n    tag_35:\n        /* \"MAAL Blockchain/RamzSwap/Core/WMAAL.sol\":837:847  msg.sender */\n      caller\n        /* \"MAAL Blockchain/RamzSwap/Core/WMAAL.sol\":827:848  balanceOf[msg.sender] */\n      0x0\n      swap1\n      dup2\n      mstore\n        /* \"MAAL Blockchain/RamzSwap/Core/WMAAL.sol\":827:836  balanceOf */\n      0x3\n        /* \"MAAL Blockchain/RamzSwap/Core/WMAAL.sol\":827:848  balanceOf[msg.sender] */\n      0x20\n      mstore\n      0x40\n      swap1\n      keccak256\n      sload\n        /* \"MAAL Blockchain/RamzSwap/Core/WMAAL.sol\":827:855  balanceOf[msg.sender] >= wad */\n      dup2\n      gt\n      iszero\n        /* \"MAAL Blockchain/RamzSwap/Core/WMAAL.sol\":819:856  require(balanceOf[msg.sender] >= wad) */\n      tag_68\n      jumpi\n      0x0\n      dup1\n      revert\n    tag_68:\n        /* \"MAAL Blockchain/RamzSwap/Core/WMAAL.sol\":877:887  msg.sender */\n      caller\n        /* \"MAAL Blockchain/RamzSwap/Core/WMAAL.sol\":867:888  balanceOf[msg.sender] */\n      0x0\n      dup2\n      dup2\n      mstore\n        /* \"MAAL Blockchain/RamzSwap/Core/WMAAL.sol\":867:876  balanceOf */\n      0x3\n        /* \"MAAL Blockchain/RamzSwap/Core/WMAAL.sol\":867:888  balanceOf[msg.sender] */\n      0x20\n      mstore\n      0x40\n      dup1\n      dup3\n      keccak256\n        /* \"MAAL Blockchain/RamzSwap/Core/WMAAL.sol\":867:895  balanceOf[msg.sender] -= wad */\n      dup1\n      sload\n      dup6\n      swap1\n      sub\n      swap1\n      sstore\n        /* \"MAAL Blockchain/RamzSwap/Core/WMAAL.sol\":906:930  msg.sender.transfer(wad) */\n      mload\n      dup4\n      iszero\n      0x8fc\n      mul\n      swap2\n        /* \"MAAL Blockchain/RamzSwap/Core/WMAAL.sol\":892:895  wad */\n      dup5\n      swap2\n        /* \"MAAL Blockchain/RamzSwap/Core/WMAAL.sol\":906:930  msg.sender.transfer(wad) */\n      swap1\n      dup2\n        /* \"MAAL Blockchain/RamzSwap/Core/WMAAL.sol\":867:888  balanceOf[msg.sender] */\n      dup2\n        /* \"MAAL Blockchain/RamzSwap/Core/WMAAL.sol\":906:930  msg.sender.transfer(wad) */\n      dup2\n        /* \"MAAL Blockchain/RamzSwap/Core/WMAAL.sol\":892:895  wad */\n      dup6\n        /* \"MAAL Blockchain/RamzSwap/Core/WMAAL.sol\":877:887  msg.sender */\n      dup9\n        /* \"MAAL Blockchain/RamzSwap/Core/WMAAL.sol\":906:930  msg.sender.transfer(wad) */\n      dup9\n      call\n      swap4\n      pop\n      pop\n      pop\n      pop\n      iszero\n        /* \"--CODEGEN--\":8:17   */\n      dup1\n        /* \"--CODEGEN--\":5:7   */\n      iszero\n      tag_69\n      jumpi\n        /* \"--CODEGEN--\":45:61   */\n      returndatasize\n        /* \"--CODEGEN--\":42:43   */\n      0x0\n        /* \"--CODEGEN--\":39:40   */\n      dup1\n        /* \"--CODEGEN--\":24:62   */\n      returndatacopy\n        /* \"--CODEGEN--\":77:93   */\n      returndatasize\n        /* \"--CODEGEN--\":74:75   */\n      0x0\n        /* \"--CODEGEN--\":67:94   */\n      revert\n        /* \"--CODEGEN--\":5:7   */\n    tag_69:\n      pop\n        /* \"MAAL Blockchain/RamzSwap/Core/WMAAL.sol\":946:973  Withdrawal(msg.sender, wad) */\n      0x40\n      dup1\n      mload\n      dup3\n      dup2\n      mstore\n      swap1\n      mload\n        /* \"MAAL Blockchain/RamzSwap/Core/WMAAL.sol\":957:967  msg.sender */\n      caller\n      swap2\n        /* \"MAAL Blockchain/RamzSwap/Core/WMAAL.sol\":946:973  Withdrawal(msg.sender, wad) */\n      0x7fcf532c15f0a6db0bd6d0e038bea71d30d808c7d98cb3bf7268a95bf5081b65\n      swap2\n      swap1\n      dup2\n      swap1\n      sub\n      0x20\n      add\n      swap1\n      log2\n        /* \"MAAL Blockchain/RamzSwap/Core/WMAAL.sol\":773:981  function withdraw(uint wad) public {\r... */\n      pop\n      jump\t// out\n        /* \"MAAL Blockchain/RamzSwap/Core/WMAAL.sol\":135:162  uint8  public decimals = 18 */\n    tag_38:\n      and(0xff, sload(0x2))\n      dup2\n      jump\t// out\n        /* \"MAAL Blockchain/RamzSwap/Core/WMAAL.sol\":428:493  mapping (address => uint)                       public  balanceOf */\n    tag_41:\n      mstore(0x20, 0x3)\n      0x0\n      swap1\n      dup2\n      mstore\n      0x40\n      swap1\n      keccak256\n      sload\n      dup2\n      jump\t// out\n        /* \"MAAL Blockchain/RamzSwap/Core/WMAAL.sol\":96:128  string public symbol   = \"WMAAL\" */\n    tag_44:\n      0x1\n      dup1\n      sload\n      0x40\n      dup1\n      mload\n      0x20\n      0x2\n      dup5\n      dup7\n      and\n      iszero\n      0x100\n      mul\n      not(0x0)\n      add\n      swap1\n      swap5\n      and\n      swap4\n      swap1\n      swap4\n      div\n      0x1f\n      dup2\n      add\n      dup5\n      swap1\n      div\n      dup5\n      mul\n      dup3\n      add\n      dup5\n      add\n      swap1\n      swap3\n      mstore\n      dup2\n      dup2\n      mstore\n      swap3\n      swap2\n      dup4\n      add\n      dup3\n      dup3\n      dup1\n      iszero\n      tag_57\n      jumpi\n      dup1\n      0x1f\n      lt\n      tag_58\n      jumpi\n      0x100\n      dup1\n      dup4\n      sload\n      div\n      mul\n      dup4\n      mstore\n      swap2\n      0x20\n      add\n      swap2\n      jump(tag_57)\n        /* \"MAAL Blockchain/RamzSwap/Core/WMAAL.sol\":1283:1406  function transfer(address dst, uint wad) public returns (bool) {\r... */\n    tag_51:\n        /* \"MAAL Blockchain/RamzSwap/Core/WMAAL.sol\":1340:1344  bool */\n      0x0\n        /* \"MAAL Blockchain/RamzSwap/Core/WMAAL.sol\":1364:1398  transferFrom(msg.sender, dst, wad) */\n      tag_74\n        /* \"MAAL Blockchain/RamzSwap/Core/WMAAL.sol\":1377:1387  msg.sender */\n      caller\n        /* \"MAAL Blockchain/RamzSwap/Core/WMAAL.sol\":1389:1392  dst */\n      dup5\n        /* \"MAAL Blockchain/RamzSwap/Core/WMAAL.sol\":1394:1397  wad */\n      dup5\n        /* \"MAAL Blockchain/RamzSwap/Core/WMAAL.sol\":1364:1376  transferFrom */\n      tag_32\n        /* \"MAAL Blockchain/RamzSwap/Core/WMAAL.sol\":1364:1398  transferFrom(msg.sender, dst, wad) */\n      jump\t// in\n    tag_74:\n        /* \"MAAL Blockchain/RamzSwap/Core/WMAAL.sol\":1357:1398  return transferFrom(msg.sender, dst, wad) */\n      swap4\n        /* \"MAAL Blockchain/RamzSwap/Core/WMAAL.sol\":1283:1406  function transfer(address dst, uint wad) public returns (bool) {\r... */\n      swap3\n      pop\n      pop\n      pop\n      jump\t// out\n        /* \"MAAL Blockchain/RamzSwap/Core/WMAAL.sol\":500:565  mapping (address => mapping (address => uint))  public  allowance */\n    tag_55:\n      0x4\n      0x20\n      swap1\n      dup2\n      mstore\n      0x0\n      swap3\n      dup4\n      mstore\n      0x40\n      dup1\n      dup5\n      keccak256\n      swap1\n      swap2\n      mstore\n      swap1\n      dup3\n      mstore\n      swap1\n      keccak256\n      sload\n      dup2\n      jump\t// out\n\n    auxdata: 0xa165627a7a7230582015e88f67d3204b0a2863596be1379772bd1c66f779463256a5beade0fac7f74c0029\n}\n",
				"bytecode": {
					"linkReferences": {},
					"object": "60c0604052600c60808190527f57726170706564204d41414c000000000000000000000000000000000000000060a090815261003e91600091906100a3565b506040805180820190915260058082527f574d41414c0000000000000000000000000000000000000000000000000000006020909201918252610083916001916100a3565b506002805460ff1916601217905534801561009d57600080fd5b5061013e565b828054600181600116156101000203166002900490600052602060002090601f016020900481019282601f106100e457805160ff1916838001178555610111565b82800160010185558215610111579182015b828111156101115782518255916020019190600101906100f6565b5061011d929150610121565b5090565b61013b91905b8082111561011d5760008155600101610127565b90565b6106728061014d6000396000f3006080604052600436106100ae5763ffffffff7c010000000000000000000000000000000000000000000000000000000060003504166306fdde0381146100b8578063095ea7b31461014257806318160ddd1461017a57806323b872dd146101a15780632e1a7d4d146101cb578063313ce567146101e357806370a082311461020e57806395d89b411461022f578063a9059cbb14610244578063d0e30db0146100ae578063dd62ed3e14610268575b6100b661028f565b005b3480156100c457600080fd5b506100cd6102de565b6040805160208082528351818301528351919283929083019185019080838360005b838110156101075781810151838201526020016100ef565b50505050905090810190601f1680156101345780820380516001836020036101000a031916815260200191505b509250505060405180910390f35b34801561014e57600080fd5b50610166600160a060020a036004351660243561036c565b604080519115158252519081900360200190f35b34801561018657600080fd5b5061018f6103d2565b60408051918252519081900360200190f35b3480156101ad57600080fd5b50610166600160a060020a03600435811690602435166044356103d7565b3480156101d757600080fd5b506100b660043561050b565b3480156101ef57600080fd5b506101f86105a0565b6040805160ff9092168252519081900360200190f35b34801561021a57600080fd5b5061018f600160a060020a03600435166105a9565b34801561023b57600080fd5b506100cd6105bb565b34801561025057600080fd5b50610166600160a060020a0360043516602435610615565b34801561027457600080fd5b5061018f600160a060020a0360043581169060243516610629565b33600081815260036020908152604091829020805434908101909155825190815291517fe1fffcc4923d04b559f4d29a8bfc6cda04eb5b0d3c460751c2402c5c5cc9109c9281900390910190a2565b6000805460408051602060026001851615610100026000190190941693909304601f810184900484028201840190925281815292918301828280156103645780601f1061033957610100808354040283529160200191610364565b820191906000526020600020905b81548152906001019060200180831161034757829003601f168201915b505050505081565b336000818152600460209081526040808320600160a060020a038716808552908352818420869055815186815291519394909390927f8c5be1e5ebec7d5bd14f71427d1e84f3dd0314c0f7b2291e5b200ac8c7c3b925928290030190a350600192915050565b303190565b600160a060020a0383166000908152600360205260408120548211156103fc57600080fd5b600160a060020a038416331480159061043a5750600160a060020a038416600090815260046020908152604080832033845290915290205460001914155b1561049a57600160a060020a038416600090815260046020908152604080832033845290915290205482111561046f57600080fd5b600160a060020a03841660009081526004602090815260408083203384529091529020805483900390555b600160a060020a03808516600081815260036020908152604080832080548890039055938716808352918490208054870190558351868152935191937fddf252ad1be2c89b69c2b068fc378daa952ba7f163c4a11628f55a4df523b3ef929081900390910190a35060019392505050565b3360009081526003602052604090205481111561052757600080fd5b33600081815260036020526040808220805485900390555183156108fc0291849190818181858888f19350505050158015610566573d6000803e3d6000fd5b5060408051828152905133917f7fcf532c15f0a6db0bd6d0e038bea71d30d808c7d98cb3bf7268a95bf5081b65919081900360200190a250565b60025460ff1681565b60036020526000908152604090205481565b60018054604080516020600284861615610100026000190190941693909304601f810184900484028201840190925281815292918301828280156103645780601f1061033957610100808354040283529160200191610364565b60006106223384846103d7565b9392505050565b6004602090815260009283526040808420909152908252902054815600a165627a7a7230582015e88f67d3204b0a2863596be1379772bd1c66f779463256a5beade0fac7f74c0029",
					"opcodes": "PUSH1 0xC0 PUSH1 0x40 MSTORE PUSH1 0xC PUSH1 0x80 DUP2 SWAP1 MSTORE PUSH32 0x57726170706564204D41414C0000000000000000000000000000000000000000 PUSH1 0xA0 SWAP1 DUP2 MSTORE PUSH2 0x3E SWAP2 PUSH1 0x0 SWAP2 SWAP1 PUSH2 0xA3 JUMP JUMPDEST POP PUSH1 0x40 DUP1 MLOAD DUP1 DUP3 ADD SWAP1 SWAP2 MSTORE PUSH1 0x5 DUP1 DUP3 MSTORE PUSH32 0x574D41414C000000000000000000000000000000000000000000000000000000 PUSH1 0x20 SWAP1 SWAP3 ADD SWAP2 DUP3 MSTORE PUSH2 0x83 SWAP2 PUSH1 0x1 SWAP2 PUSH2 0xA3 JUMP JUMPDEST POP PUSH1 0x2 DUP1 SLOAD PUSH1 0xFF NOT AND PUSH1 0x12 OR SWAP1 SSTORE CALLVALUE DUP1 ISZERO PUSH2 0x9D JUMPI PUSH1 0x0 DUP1 REVERT JUMPDEST POP PUSH2 0x13E JUMP JUMPDEST DUP3 DUP1 SLOAD PUSH1 0x1 DUP2 PUSH1 0x1 AND ISZERO PUSH2 0x100 MUL SUB AND PUSH1 0x2 SWAP1 DIV SWAP1 PUSH1 0x0 MSTORE PUSH1 0x20 PUSH1 0x0 KECCAK256 SWAP1 PUSH1 0x1F ADD PUSH1 0x20 SWAP1 DIV DUP2 ADD SWAP3 DUP3 PUSH1 0x1F LT PUSH2 0xE4 JUMPI DUP1 MLOAD PUSH1 0xFF NOT AND DUP4 DUP1 ADD OR DUP6 SSTORE PUSH2 0x111 JUMP JUMPDEST DUP3 DUP1 ADD PUSH1 0x1 ADD DUP6 SSTORE DUP3 ISZERO PUSH2 0x111 JUMPI SWAP2 DUP3 ADD JUMPDEST DUP3 DUP2 GT ISZERO PUSH2 0x111 JUMPI DUP3 MLOAD DUP3 SSTORE SWAP2 PUSH1 0x20 ADD SWAP2 SWAP1 PUSH1 0x1 ADD SWAP1 PUSH2 0xF6 JUMP JUMPDEST POP PUSH2 0x11D SWAP3 SWAP2 POP PUSH2 0x121 JUMP JUMPDEST POP SWAP1 JUMP JUMPDEST PUSH2 0x13B SWAP2 SWAP1 JUMPDEST DUP1 DUP3 GT ISZERO PUSH2 0x11D JUMPI PUSH1 0x0 DUP2 SSTORE PUSH1 0x1 ADD PUSH2 0x127 JUMP JUMPDEST SWAP1 JUMP JUMPDEST PUSH2 0x672 DUP1 PUSH2 0x14D PUSH1 0x0 CODECOPY PUSH1 0x0 RETURN STOP PUSH1 0x80 PUSH1 0x40 MSTORE PUSH1 0x4 CALLDATASIZE LT PUSH2 0xAE JUMPI PUSH4 0xFFFFFFFF PUSH29 0x100000000000000000000000000000000000000000000000000000000 PUSH1 0x0 CALLDATALOAD DIV AND PUSH4 0x6FDDE03 DUP2 EQ PUSH2 0xB8 JUMPI DUP1 PUSH4 0x95EA7B3 EQ PUSH2 0x142 JUMPI DUP1 PUSH4 0x18160DDD EQ PUSH2 0x17A JUMPI DUP1 PUSH4 0x23B872DD EQ PUSH2 0x1A1 JUMPI DUP1 PUSH4 0x2E1A7D4D EQ PUSH2 0x1CB JUMPI DUP1 PUSH4 0x313CE567 EQ PUSH2 0x1E3 JUMPI DUP1 PUSH4 0x70A08231 EQ PUSH2 0x20E JUMPI DUP1 PUSH4 0x95D89B41 EQ PUSH2 0x22F JUMPI DUP1 PUSH4 0xA9059CBB EQ PUSH2 0x244 JUMPI DUP1 PUSH4 0xD0E30DB0 EQ PUSH2 0xAE JUMPI DUP1 PUSH4 0xDD62ED3E EQ PUSH2 0x268 JUMPI JUMPDEST PUSH2 0xB6 PUSH2 0x28F JUMP JUMPDEST STOP JUMPDEST CALLVALUE DUP1 ISZERO PUSH2 0xC4 JUMPI PUSH1 0x0 DUP1 REVERT JUMPDEST POP PUSH2 0xCD PUSH2 0x2DE JUMP JUMPDEST PUSH1 0x40 DUP1 MLOAD PUSH1 0x20 DUP1 DUP3 MSTORE DUP4 MLOAD DUP2 DUP4 ADD MSTORE DUP4 MLOAD SWAP2 SWAP3 DUP4 SWAP3 SWAP1 DUP4 ADD SWAP2 DUP6 ADD SWAP1 DUP1 DUP4 DUP4 PUSH1 0x0 JUMPDEST DUP4 DUP2 LT ISZERO PUSH2 0x107 JUMPI DUP2 DUP2 ADD MLOAD DUP4 DUP3 ADD MSTORE PUSH1 0x20 ADD PUSH2 0xEF JUMP JUMPDEST POP POP POP POP SWAP1 POP SWAP1 DUP2 ADD SWAP1 PUSH1 0x1F AND DUP1 ISZERO PUSH2 0x134 JUMPI DUP1 DUP3 SUB DUP1 MLOAD PUSH1 0x1 DUP4 PUSH1 0x20 SUB PUSH2 0x100 EXP SUB NOT AND DUP2 MSTORE PUSH1 0x20 ADD SWAP2 POP JUMPDEST POP SWAP3 POP POP POP PUSH1 0x40 MLOAD DUP1 SWAP2 SUB SWAP1 RETURN JUMPDEST CALLVALUE DUP1 ISZERO PUSH2 0x14E JUMPI PUSH1 0x0 DUP1 REVERT JUMPDEST POP PUSH2 0x166 PUSH1 0x1 PUSH1 0xA0 PUSH1 0x2 EXP SUB PUSH1 0x4 CALLDATALOAD AND PUSH1 0x24 CALLDATALOAD PUSH2 0x36C JUMP JUMPDEST PUSH1 0x40 DUP1 MLOAD SWAP2 ISZERO ISZERO DUP3 MSTORE MLOAD SWAP1 DUP2 SWAP1 SUB PUSH1 0x20 ADD SWAP1 RETURN JUMPDEST CALLVALUE DUP1 ISZERO PUSH2 0x186 JUMPI PUSH1 0x0 DUP1 REVERT JUMPDEST POP PUSH2 0x18F PUSH2 0x3D2 JUMP JUMPDEST PUSH1 0x40 DUP1 MLOAD SWAP2 DUP3 MSTORE MLOAD SWAP1 DUP2 SWAP1 SUB PUSH1 0x20 ADD SWAP1 RETURN JUMPDEST CALLVALUE DUP1 ISZERO PUSH2 0x1AD JUMPI PUSH1 0x0 DUP1 REVERT JUMPDEST POP PUSH2 0x166 PUSH1 0x1 PUSH1 0xA0 PUSH1 0x2 EXP SUB PUSH1 0x4 CALLDATALOAD DUP2 AND SWAP1 PUSH1 0x24 CALLDATALOAD AND PUSH1 0x44 CALLDATALOAD PUSH2 0x3D7 JUMP JUMPDEST CALLVALUE DUP1 ISZERO PUSH2 0x1D7 JUMPI PUSH1 0x0 DUP1 REVERT JUMPDEST POP PUSH2 0xB6 PUSH1 0x4 CALLDATALOAD PUSH2 0x50B JUMP JUMPDEST CALLVALUE DUP1 ISZERO PUSH2 0x1EF JUMPI PUSH1 0x0 DUP1 REVERT JUMPDEST POP PUSH2 0x1F8 PUSH2 0x5A0 JUMP JUMPDEST PUSH1 0x40 DUP1 MLOAD PUSH1 0xFF SWAP1 SWAP3 AND DUP3 MSTORE MLOAD SWAP1 DUP2 SWAP1 SUB PUSH1 0x20 ADD SWAP1 RETURN JUMPDEST CALLVALUE DUP1 ISZERO PUSH2 0x21A JUMPI PUSH1 0x0 DUP1 REVERT JUMPDEST POP PUSH2 0x18F PUSH1 0x1 PUSH1 0xA0 PUSH1 0x2 EXP SUB PUSH1 0x4 CALLDATALOAD AND PUSH2 0x5A9 JUMP JUMPDEST CALLVALUE DUP1 ISZERO PUSH2 0x23B JUMPI PUSH1 0x0 DUP1 REVERT JUMPDEST POP PUSH2 0xCD PUSH2 0x5BB JUMP JUMPDEST CALLVALUE DUP1 ISZERO PUSH2 0x250 JUMPI PUSH1 0x0 DUP1 REVERT JUMPDEST POP PUSH2 0x166 PUSH1 0x1 PUSH1 0xA0 PUSH1 0x2 EXP SUB PUSH1 0x4 CALLDATALOAD AND PUSH1 0x24 CALLDATALOAD PUSH2 0x615 JUMP JUMPDEST CALLVALUE DUP1 ISZERO PUSH2 0x274 JUMPI PUSH1 0x0 DUP1 REVERT JUMPDEST POP PUSH2 0x18F PUSH1 0x1 PUSH1 0xA0 PUSH1 0x2 EXP SUB PUSH1 0x4 CALLDATALOAD DUP2 AND SWAP1 PUSH1 0x24 CALLDATALOAD AND PUSH2 0x629 JUMP JUMPDEST CALLER PUSH1 0x0 DUP2 DUP2 MSTORE PUSH1 0x3 PUSH1 0x20 SWAP1 DUP2 MSTORE PUSH1 0x40 SWAP2 DUP3 SWAP1 KECCAK256 DUP1 SLOAD CALLVALUE SWAP1 DUP2 ADD SWAP1 SWAP2 SSTORE DUP3 MLOAD SWAP1 DUP2 MSTORE SWAP2 MLOAD PUSH32 0xE1FFFCC4923D04B559F4D29A8BFC6CDA04EB5B0D3C460751C2402C5C5CC9109C SWAP3 DUP2 SWAP1 SUB SWAP1 SWAP2 ADD SWAP1 LOG2 JUMP JUMPDEST PUSH1 0x0 DUP1 SLOAD PUSH1 0x40 DUP1 MLOAD PUSH1 0x20 PUSH1 0x2 PUSH1 0x1 DUP6 AND ISZERO PUSH2 0x100 MUL PUSH1 0x0 NOT ADD SWAP1 SWAP5 AND SWAP4 SWAP1 SWAP4 DIV PUSH1 0x1F DUP2 ADD DUP5 SWAP1 DIV DUP5 MUL DUP3 ADD DUP5 ADD SWAP1 SWAP3 MSTORE DUP2 DUP2 MSTORE SWAP3 SWAP2 DUP4 ADD DUP3 DUP3 DUP1 ISZERO PUSH2 0x364 JUMPI DUP1 PUSH1 0x1F LT PUSH2 0x339 JUMPI PUSH2 0x100 DUP1 DUP4 SLOAD DIV MUL DUP4 MSTORE SWAP2 PUSH1 0x20 ADD SWAP2 PUSH2 0x364 JUMP JUMPDEST DUP3 ADD SWAP2 SWAP1 PUSH1 0x0 MSTORE PUSH1 0x20 PUSH1 0x0 KECCAK256 SWAP1 JUMPDEST DUP2 SLOAD DUP2 MSTORE SWAP1 PUSH1 0x1 ADD SWAP1 PUSH1 0x20 ADD DUP1 DUP4 GT PUSH2 0x347 JUMPI DUP3 SWAP1 SUB PUSH1 0x1F AND DUP3 ADD SWAP2 JUMPDEST POP POP POP POP POP DUP2 JUMP JUMPDEST CALLER PUSH1 0x0 DUP2 DUP2 MSTORE PUSH1 0x4 PUSH1 0x20 SWAP1 DUP2 MSTORE PUSH1 0x40 DUP1 DUP4 KECCAK256 PUSH1 0x1 PUSH1 0xA0 PUSH1 0x2 EXP SUB DUP8 AND DUP1 DUP6 MSTORE SWAP1 DUP4 MSTORE DUP2 DUP5 KECCAK256 DUP7 SWAP1 SSTORE DUP2 MLOAD DUP7 DUP2 MSTORE SWAP2 MLOAD SWAP4 SWAP5 SWAP1 SWAP4 SWAP1 SWAP3 PUSH32 0x8C5BE1E5EBEC7D5BD14F71427D1E84F3DD0314C0F7B2291E5B200AC8C7C3B925 SWAP3 DUP3 SWAP1 SUB ADD SWAP1 LOG3 POP PUSH1 0x1 SWAP3 SWAP2 POP POP JUMP JUMPDEST ADDRESS BALANCE SWAP1 JUMP JUMPDEST PUSH1 0x1 PUSH1 0xA0 PUSH1 0x2 EXP SUB DUP4 AND PUSH1 0x0 SWAP1 DUP2 MSTORE PUSH1 0x3 PUSH1 0x20 MSTORE PUSH1 0x40 DUP2 KECCAK256 SLOAD DUP3 GT ISZERO PUSH2 0x3FC JUMPI PUSH1 0x0 DUP1 REVERT JUMPDEST PUSH1 0x1 PUSH1 0xA0 PUSH1 0x2 EXP SUB DUP5 AND CALLER EQ DUP1 ISZERO SWAP1 PUSH2 0x43A JUMPI POP PUSH1 0x1 PUSH1 0xA0 PUSH1 0x2 EXP SUB DUP5 AND PUSH1 0x0 SWAP1 DUP2 MSTORE PUSH1 0x4 PUSH1 0x20 SWAP1 DUP2 MSTORE PUSH1 0x40 DUP1 DUP4 KECCAK256 CALLER DUP5 MSTORE SWAP1 SWAP2 MSTORE SWAP1 KECCAK256 SLOAD PUSH1 0x0 NOT EQ ISZERO JUMPDEST ISZERO PUSH2 0x49A JUMPI PUSH1 0x1 PUSH1 0xA0 PUSH1 0x2 EXP SUB DUP5 AND PUSH1 0x0 SWAP1 DUP2 MSTORE PUSH1 0x4 PUSH1 0x20 SWAP1 DUP2 MSTORE PUSH1 0x40 DUP1 DUP4 KECCAK256 CALLER DUP5 MSTORE SWAP1 SWAP2 MSTORE SWAP1 KECCAK256 SLOAD DUP3 GT ISZERO PUSH2 0x46F JUMPI PUSH1 0x0 DUP1 REVERT JUMPDEST PUSH1 0x1 PUSH1 0xA0 PUSH1 0x2 EXP SUB DUP5 AND PUSH1 0x0 SWAP1 DUP2 MSTORE PUSH1 0x4 PUSH1 0x20 SWAP1 DUP2 MSTORE PUSH1 0x40 DUP1 DUP4 KECCAK256 CALLER DUP5 MSTORE SWAP1 SWAP2 MSTORE SWAP1 KECCAK256 DUP1 SLOAD DUP4 SWAP1 SUB SWAP1 SSTORE JUMPDEST PUSH1 0x1 PUSH1 0xA0 PUSH1 0x2 EXP SUB DUP1 DUP6 AND PUSH1 0x0 DUP2 DUP2 MSTORE PUSH1 0x3 PUSH1 0x20 SWAP1 DUP2 MSTORE PUSH1 0x40 DUP1 DUP4 KECCAK256 DUP1 SLOAD DUP9 SWAP1 SUB SWAP1 SSTORE SWAP4 DUP8 AND DUP1 DUP4 MSTORE SWAP2 DUP5 SWAP1 KECCAK256 DUP1 SLOAD DUP8 ADD SWAP1 SSTORE DUP4 MLOAD DUP7 DUP2 MSTORE SWAP4 MLOAD SWAP2 SWAP4 PUSH32 0xDDF252AD1BE2C89B69C2B068FC378DAA952BA7F163C4A11628F55A4DF523B3EF SWAP3 SWAP1 DUP2 SWAP1 SUB SWAP1 SWAP2 ADD SWAP1 LOG3 POP PUSH1 0x1 SWAP4 SWAP3 POP POP POP JUMP JUMPDEST CALLER PUSH1 0x0 SWAP1 DUP2 MSTORE PUSH1 0x3 PUSH1 0x20 MSTORE PUSH1 0x40 SWAP1 KECCAK256 SLOAD DUP2 GT ISZERO PUSH2 0x527 JUMPI PUSH1 0x0 DUP1 REVERT JUMPDEST CALLER PUSH1 0x0 DUP2 DUP2 MSTORE PUSH1 0x3 PUSH1 0x20 MSTORE PUSH1 0x40 DUP1 DUP3 KECCAK256 DUP1 SLOAD DUP6 SWAP1 SUB SWAP1 SSTORE MLOAD DUP4 ISZERO PUSH2 0x8FC MUL SWAP2 DUP5 SWAP2 SWAP1 DUP2 DUP2 DUP2 DUP6 DUP9 DUP9 CALL SWAP4 POP POP POP POP ISZERO DUP1 ISZERO PUSH2 0x566 JUMPI RETURNDATASIZE PUSH1 0x0 DUP1 RETURNDATACOPY RETURNDATASIZE PUSH1 0x0 REVERT JUMPDEST POP PUSH1 0x40 DUP1 MLOAD DUP3 DUP2 MSTORE SWAP1 MLOAD CALLER SWAP2 PUSH32 0x7FCF532C15F0A6DB0BD6D0E038BEA71D30D808C7D98CB3BF7268A95BF5081B65 SWAP2 SWAP1 DUP2 SWAP1 SUB PUSH1 0x20 ADD SWAP1 LOG2 POP JUMP JUMPDEST PUSH1 0x2 SLOAD PUSH1 0xFF AND DUP2 JUMP JUMPDEST PUSH1 0x3 PUSH1 0x20 MSTORE PUSH1 0x0 SWAP1 DUP2 MSTORE PUSH1 0x40 SWAP1 KECCAK256 SLOAD DUP2 JUMP JUMPDEST PUSH1 0x1 DUP1 SLOAD PUSH1 0x40 DUP1 MLOAD PUSH1 0x20 PUSH1 0x2 DUP5 DUP7 AND ISZERO PUSH2 0x100 MUL PUSH1 0x0 NOT ADD SWAP1 SWAP5 AND SWAP4 SWAP1 SWAP4 DIV PUSH1 0x1F DUP2 ADD DUP5 SWAP1 DIV DUP5 MUL DUP3 ADD DUP5 ADD SWAP1 SWAP3 MSTORE DUP2 DUP2 MSTORE SWAP3 SWAP2 DUP4 ADD DUP3 DUP3 DUP1 ISZERO PUSH2 0x364 JUMPI DUP1 PUSH1 0x1F LT PUSH2 0x339 JUMPI PUSH2 0x100 DUP1 DUP4 SLOAD DIV MUL DUP4 MSTORE SWAP2 PUSH1 0x20 ADD SWAP2 PUSH2 0x364 JUMP JUMPDEST PUSH1 0x0 PUSH2 0x622 CALLER DUP5 DUP5 PUSH2 0x3D7 JUMP JUMPDEST SWAP4 SWAP3 POP POP POP JUMP JUMPDEST PUSH1 0x4 PUSH1 0x20 SWAP1 DUP2 MSTORE PUSH1 0x0 SWAP3 DUP4 MSTORE PUSH1 0x40 DUP1 DUP5 KECCAK256 SWAP1 SWAP2 MSTORE SWAP1 DUP3 MSTORE SWAP1 KECCAK256 SLOAD DUP2 JUMP STOP LOG1 PUSH6 0x627A7A723058 KECCAK256 ISZERO 0xe8 DUP16 PUSH8 0xD3204B0A2863596B 0xe1 CALLDATACOPY SWAP8 PUSH19 0xBD1C66F779463256A5BEADE0FAC7F74C002900 "
				},
				"gasEstimates": {
					"creation": {
						"codeDepositCost": "330000",
						"executionCost": "infinite",
						"totalCost": "infinite"
					},
					"external": {
						"": "22064",
						"allowance(address,address)": "838",
						"approve(address,uint256)": "22354",
						"balanceOf(address)": "663",
						"decimals()": "509",
						"deposit()": "22042",
						"name()": "infinite",
						"symbol()": "infinite",
						"totalSupply()": "627",
						"transfer(address,uint256)": "43472",
						"transferFrom(address,address,uint256)": "64636",
						"withdraw(uint256)": "infinite"
					}
				},
				"methodIdentifiers": {
					"allowance(address,address)": "dd62ed3e",
					"approve(address,uint256)": "095ea7b3",
					"balanceOf(address)": "70a08231",
					"decimals()": "313ce567",
					"deposit()": "d0e30db0",
					"name()": "06fdde03",
					"symbol()": "95d89b41",
					"totalSupply()": "18160ddd",
					"transfer(address,uint256)": "a9059cbb",
					"transferFrom(address,address,uint256)": "23b872dd",
					"withdraw(uint256)": "2e1a7d4d"
				}
			},
			"userdoc": {
				"methods": {}
			}
		}
	}
}