{
	"MAAL Blockchain/RamzSwap/Core/FlattenedFactory.sol": {
		"RamzSwapFactory": {
			"abi": [
				{
					"inputs": [
						{
							"internalType": "address",
							"name": "_feeToSetter",
							"type": "address"
						}
					],
					"payable": false,
					"stateMutability": "nonpayable",
					"type": "constructor"
				},
				{
					"anonymous": false,
					"inputs": [
						{
							"indexed": true,
							"internalType": "address",
							"name": "token0",
							"type": "address"
						},
						{
							"indexed": true,
							"internalType": "address",
							"name": "token1",
							"type": "address"
						},
						{
							"indexed": false,
							"internalType": "address",
							"name": "pair",
							"type": "address"
						},
						{
							"indexed": false,
							"internalType": "uint256",
							"name": "",
							"type": "uint256"
						}
					],
					"name": "PairCreated",
					"type": "event"
				},
				{
					"constant": true,
					"inputs": [],
					"name": "INIT_CODE_PAIR_HASH",
					"outputs": [
						{
							"internalType": "bytes32",
							"name": "",
							"type": "bytes32"
						}
					],
					"payable": false,
					"stateMutability": "view",
					"type": "function"
				},
				{
					"constant": true,
					"inputs": [
						{
							"internalType": "uint256",
							"name": "",
							"type": "uint256"
						}
					],
					"name": "allPairs",
					"outputs": [
						{
							"internalType": "address",
							"name": "",
							"type": "address"
						}
					],
					"payable": false,
					"stateMutability": "view",
					"type": "function"
				},
				{
					"constant": true,
					"inputs": [],
					"name": "allPairsLength",
					"outputs": [
						{
							"internalType": "uint256",
							"name": "",
							"type": "uint256"
						}
					],
					"payable": false,
					"stateMutability": "view",
					"type": "function"
				},
				{
					"constant": false,
					"inputs": [
						{
							"internalType": "address",
							"name": "tokenA",
							"type": "address"
						},
						{
							"internalType": "address",
							"name": "tokenB",
							"type": "address"
						}
					],
					"name": "createPair",
					"outputs": [
						{
							"internalType": "address",
							"name": "pair",
							"type": "address"
						}
					],
					"payable": false,
					"stateMutability": "nonpayable",
					"type": "function"
				},
				{
					"constant": true,
					"inputs": [],
					"name": "feeTo",
					"outputs": [
						{
							"internalType": "address",
							"name": "",
							"type": "address"
						}
					],
					"payable": false,
					"stateMutability": "view",
					"type": "function"
				},
				{
					"constant": true,
					"inputs": [],
					"name": "feeToSetter",
					"outputs": [
						{
							"internalType": "address",
							"name": "",
							"type": "address"
						}
					],
					"payable": false,
					"stateMutability": "view",
					"type": "function"
				},
				{
					"constant": true,
					"inputs": [
						{
							"internalType": "address",
							"name": "",
							"type": "address"
						},
						{
							"internalType": "address",
							"name": "",
							"type": "address"
						}
					],
					"name": "getPair",
					"outputs": [
						{
							"internalType": "address",
							"name": "",
							"type": "address"
						}
					],
					"payable": false,
					"stateMutability": "view",
					"type": "function"
				},
				{
					"constant": false,
					"inputs": [
						{
							"internalType": "address",
							"name": "_feeTo",
							"type": "address"
						}
					],
					"name": "setFeeTo",
					"outputs": [],
					"payable": false,
					"stateMutability": "nonpayable",
					"type": "function"
				},
				{
					"constant": false,
					"inputs": [
						{
							"internalType": "address",
							"name": "_feeToSetter",
							"type": "address"
						}
					],
					"name": "setFeeToSetter",
					"outputs": [],
					"payable": false,
					"stateMutability": "nonpayable",
					"type": "function"
				}
			],
			"devdoc": {
				"methods": {}
			},
			"evm": {
				"assembly": "    /* \"MAAL Blockchain/RamzSwap/Core/FlattenedFactory.sol\":20052:21965  contract RamzSwapFactory is IRamzSwapFactory {\r... */\n  mstore(0x40, 0x80)\n    /* \"MAAL Blockchain/RamzSwap/Core/FlattenedFactory.sol\":20478:20564  constructor(address _feeToSetter) public {\r... */\n  callvalue\n    /* \"--CODEGEN--\":8:17   */\n  dup1\n    /* \"--CODEGEN--\":5:7   */\n  iszero\n  tag_1\n  jumpi\n    /* \"--CODEGEN--\":30:31   */\n  0x00\n    /* \"--CODEGEN--\":27:28   */\n  dup1\n    /* \"--CODEGEN--\":20:32   */\n  revert\n    /* \"--CODEGEN--\":5:7   */\ntag_1:\n    /* \"MAAL Blockchain/RamzSwap/Core/FlattenedFactory.sol\":20478:20564  constructor(address _feeToSetter) public {\r... */\n  pop\n  mload(0x40)\n  sub(codesize, bytecodeSize)\n  dup1\n  bytecodeSize\n  dup4\n  codecopy\n  dup2\n  dup2\n  add\n  0x40\n  mstore\n    /* \"--CODEGEN--\":13:15   */\n  0x20\n    /* \"--CODEGEN--\":8:11   */\n  dup2\n    /* \"--CODEGEN--\":5:16   */\n  lt\n    /* \"--CODEGEN--\":2:4   */\n  iszero\n  tag_2\n  jumpi\n    /* \"--CODEGEN--\":29:30   */\n  0x00\n    /* \"--CODEGEN--\":26:27   */\n  dup1\n    /* \"--CODEGEN--\":19:31   */\n  revert\n    /* \"--CODEGEN--\":2:4   */\ntag_2:\n  pop\n    /* \"MAAL Blockchain/RamzSwap/Core/FlattenedFactory.sol\":20478:20564  constructor(address _feeToSetter) public {\r... */\n  mload\n    /* \"MAAL Blockchain/RamzSwap/Core/FlattenedFactory.sol\":20530:20541  feeToSetter */\n  0x01\n    /* \"MAAL Blockchain/RamzSwap/Core/FlattenedFactory.sol\":20530:20556  feeToSetter = _feeToSetter */\n  dup1\n  sload\n  not(sub(shl(0xa0, 0x01), 0x01))\n  and\n  sub(shl(0xa0, 0x01), 0x01)\n  swap1\n  swap3\n  and\n  swap2\n  swap1\n  swap2\n  or\n  swap1\n  sstore\n    /* \"MAAL Blockchain/RamzSwap/Core/FlattenedFactory.sol\":20052:21965  contract RamzSwapFactory is IRamzSwapFactory {\r... */\n  dataSize(sub_0)\n  dup1\n  dataOffset(sub_0)\n  0x00\n  codecopy\n  0x00\n  return\nstop\n\nsub_0: assembly {\n        /* \"MAAL Blockchain/RamzSwap/Core/FlattenedFactory.sol\":20052:21965  contract RamzSwapFactory is IRamzSwapFactory {\r... */\n      mstore(0x40, 0x80)\n      callvalue\n        /* \"--CODEGEN--\":8:17   */\n      dup1\n        /* \"--CODEGEN--\":5:7   */\n      iszero\n      tag_1\n      jumpi\n        /* \"--CODEGEN--\":30:31   */\n      0x00\n        /* \"--CODEGEN--\":27:28   */\n      dup1\n        /* \"--CODEGEN--\":20:32   */\n      revert\n        /* \"--CODEGEN--\":5:7   */\n    tag_1:\n        /* \"MAAL Blockchain/RamzSwap/Core/FlattenedFactory.sol\":20052:21965  contract RamzSwapFactory is IRamzSwapFactory {\r... */\n      pop\n      jumpi(tag_2, lt(calldatasize, 0x04))\n      shr(0xe0, calldataload(0x00))\n      dup1\n      0x5855a25a\n      gt\n      tag_12\n      jumpi\n      dup1\n      0x5855a25a\n      eq\n      tag_7\n      jumpi\n      dup1\n      0xa2e74af6\n      eq\n      tag_8\n      jumpi\n      dup1\n      0xc9c65396\n      eq\n      tag_9\n      jumpi\n      dup1\n      0xe6a43905\n      eq\n      tag_10\n      jumpi\n      dup1\n      0xf46901ed\n      eq\n      tag_11\n      jumpi\n      jump(tag_2)\n    tag_12:\n      dup1\n      0x017e7e58\n      eq\n      tag_3\n      jumpi\n      dup1\n      0x094b7415\n      eq\n      tag_4\n      jumpi\n      dup1\n      0x1e3dd18b\n      eq\n      tag_5\n      jumpi\n      dup1\n      0x574f2ba3\n      eq\n      tag_6\n      jumpi\n    tag_2:\n      0x00\n      dup1\n      revert\n        /* \"MAAL Blockchain/RamzSwap/Core/FlattenedFactory.sol\":20104:20124  address public feeTo */\n    tag_3:\n      tag_13\n      tag_14\n      jump\t// in\n    tag_13:\n      0x40\n      dup1\n      mload\n      sub(shl(0xa0, 0x01), 0x01)\n      swap1\n      swap3\n      and\n      dup3\n      mstore\n      mload\n      swap1\n      dup2\n      swap1\n      sub\n      0x20\n      add\n      swap1\n      return\n        /* \"MAAL Blockchain/RamzSwap/Core/FlattenedFactory.sol\":20131:20157  address public feeToSetter */\n    tag_4:\n      tag_13\n      tag_16\n      jump\t// in\n        /* \"MAAL Blockchain/RamzSwap/Core/FlattenedFactory.sol\":20350:20375  address[] public allPairs */\n    tag_5:\n      tag_13\n      0x04\n      dup1\n      calldatasize\n      sub\n        /* \"--CODEGEN--\":13:15   */\n      0x20\n        /* \"--CODEGEN--\":8:11   */\n      dup2\n        /* \"--CODEGEN--\":5:16   */\n      lt\n        /* \"--CODEGEN--\":2:4   */\n      iszero\n      tag_18\n      jumpi\n        /* \"--CODEGEN--\":29:30   */\n      0x00\n        /* \"--CODEGEN--\":26:27   */\n      dup1\n        /* \"--CODEGEN--\":19:31   */\n      revert\n        /* \"--CODEGEN--\":2:4   */\n    tag_18:\n      pop\n        /* \"MAAL Blockchain/RamzSwap/Core/FlattenedFactory.sol\":20350:20375  address[] public allPairs */\n      calldataload\n      tag_19\n      jump\t// in\n        /* \"MAAL Blockchain/RamzSwap/Core/FlattenedFactory.sol\":20572:20668  function allPairsLength() external view returns (uint) {\r... */\n    tag_6:\n      tag_20\n      tag_21\n      jump\t// in\n    tag_20:\n      0x40\n      dup1\n      mload\n      swap2\n      dup3\n      mstore\n      mload\n      swap1\n      dup2\n      swap1\n      sub\n      0x20\n      add\n      swap1\n      return\n        /* \"MAAL Blockchain/RamzSwap/Core/FlattenedFactory.sol\":20166:20272  bytes32 public constant INIT_CODE_PAIR_HASH = keccak256(abi.encodePacked(type(RamzSwapPair).creationCode)) */\n    tag_7:\n      tag_20\n      tag_23\n      jump\t// in\n        /* \"MAAL Blockchain/RamzSwap/Core/FlattenedFactory.sol\":21794:21962  function setFeeToSetter(address _feeToSetter) external {\r... */\n    tag_8:\n      tag_24\n      0x04\n      dup1\n      calldatasize\n      sub\n        /* \"--CODEGEN--\":13:15   */\n      0x20\n        /* \"--CODEGEN--\":8:11   */\n      dup2\n        /* \"--CODEGEN--\":5:16   */\n      lt\n        /* \"--CODEGEN--\":2:4   */\n      iszero\n      tag_25\n      jumpi\n        /* \"--CODEGEN--\":29:30   */\n      0x00\n        /* \"--CODEGEN--\":26:27   */\n      dup1\n        /* \"--CODEGEN--\":19:31   */\n      revert\n        /* \"--CODEGEN--\":2:4   */\n    tag_25:\n      pop\n        /* \"MAAL Blockchain/RamzSwap/Core/FlattenedFactory.sol\":21794:21962  function setFeeToSetter(address _feeToSetter) external {\r... */\n      calldataload\n      sub(shl(0xa0, 0x01), 0x01)\n      and\n      tag_26\n      jump\t// in\n    tag_24:\n      stop\n        /* \"MAAL Blockchain/RamzSwap/Core/FlattenedFactory.sol\":20676:21634  function createPair(address tokenA, address tokenB) external returns (address pair) {\r... */\n    tag_9:\n      tag_13\n      0x04\n      dup1\n      calldatasize\n      sub\n        /* \"--CODEGEN--\":13:15   */\n      0x40\n        /* \"--CODEGEN--\":8:11   */\n      dup2\n        /* \"--CODEGEN--\":5:16   */\n      lt\n        /* \"--CODEGEN--\":2:4   */\n      iszero\n      tag_28\n      jumpi\n        /* \"--CODEGEN--\":29:30   */\n      0x00\n        /* \"--CODEGEN--\":26:27   */\n      dup1\n        /* \"--CODEGEN--\":19:31   */\n      revert\n        /* \"--CODEGEN--\":2:4   */\n    tag_28:\n      pop\n      sub(shl(0xa0, 0x01), 0x01)\n        /* \"MAAL Blockchain/RamzSwap/Core/FlattenedFactory.sol\":20676:21634  function createPair(address tokenA, address tokenB) external returns (address pair) {\r... */\n      dup2\n      calldataload\n      dup2\n      and\n      swap2\n      0x20\n      add\n      calldataload\n      and\n      tag_29\n      jump\t// in\n        /* \"MAAL Blockchain/RamzSwap/Core/FlattenedFactory.sol\":20281:20343  mapping(address => mapping(address => address)) public getPair */\n    tag_10:\n      tag_13\n      0x04\n      dup1\n      calldatasize\n      sub\n        /* \"--CODEGEN--\":13:15   */\n      0x40\n        /* \"--CODEGEN--\":8:11   */\n      dup2\n        /* \"--CODEGEN--\":5:16   */\n      lt\n        /* \"--CODEGEN--\":2:4   */\n      iszero\n      tag_31\n      jumpi\n        /* \"--CODEGEN--\":29:30   */\n      0x00\n        /* \"--CODEGEN--\":26:27   */\n      dup1\n        /* \"--CODEGEN--\":19:31   */\n      revert\n        /* \"--CODEGEN--\":2:4   */\n    tag_31:\n      pop\n      sub(shl(0xa0, 0x01), 0x01)\n        /* \"MAAL Blockchain/RamzSwap/Core/FlattenedFactory.sol\":20281:20343  mapping(address => mapping(address => address)) public getPair */\n      dup2\n      calldataload\n      dup2\n      and\n      swap2\n      0x20\n      add\n      calldataload\n      and\n      tag_32\n      jump\t// in\n        /* \"MAAL Blockchain/RamzSwap/Core/FlattenedFactory.sol\":21642:21786  function setFeeTo(address _feeTo) external {\r... */\n    tag_11:\n      tag_24\n      0x04\n      dup1\n      calldatasize\n      sub\n        /* \"--CODEGEN--\":13:15   */\n      0x20\n        /* \"--CODEGEN--\":8:11   */\n      dup2\n        /* \"--CODEGEN--\":5:16   */\n      lt\n        /* \"--CODEGEN--\":2:4   */\n      iszero\n      tag_34\n      jumpi\n        /* \"--CODEGEN--\":29:30   */\n      0x00\n        /* \"--CODEGEN--\":26:27   */\n      dup1\n        /* \"--CODEGEN--\":19:31   */\n      revert\n        /* \"--CODEGEN--\":2:4   */\n    tag_34:\n      pop\n        /* \"MAAL Blockchain/RamzSwap/Core/FlattenedFactory.sol\":21642:21786  function setFeeTo(address _feeTo) external {\r... */\n      calldataload\n      sub(shl(0xa0, 0x01), 0x01)\n      and\n      tag_35\n      jump\t// in\n        /* \"MAAL Blockchain/RamzSwap/Core/FlattenedFactory.sol\":20104:20124  address public feeTo */\n    tag_14:\n      and(sub(shl(0xa0, 0x01), 0x01), sload(0x00))\n      dup2\n      jump\t// out\n        /* \"MAAL Blockchain/RamzSwap/Core/FlattenedFactory.sol\":20131:20157  address public feeToSetter */\n    tag_16:\n      and(sub(shl(0xa0, 0x01), 0x01), sload(0x01))\n      dup2\n      jump\t// out\n        /* \"MAAL Blockchain/RamzSwap/Core/FlattenedFactory.sol\":20350:20375  address[] public allPairs */\n    tag_19:\n      0x03\n      dup2\n      dup2\n      sload\n      dup2\n      lt\n      tag_36\n      jumpi\n      invalid\n    tag_36:\n      0x00\n      swap2\n      dup3\n      mstore\n      0x20\n      swap1\n      swap2\n      keccak256\n      add\n      sload\n      sub(shl(0xa0, 0x01), 0x01)\n      and\n      swap1\n      pop\n      dup2\n      jump\t// out\n        /* \"MAAL Blockchain/RamzSwap/Core/FlattenedFactory.sol\":20572:20668  function allPairsLength() external view returns (uint) {\r... */\n    tag_21:\n        /* \"MAAL Blockchain/RamzSwap/Core/FlattenedFactory.sol\":20645:20653  allPairs */\n      0x03\n        /* \"MAAL Blockchain/RamzSwap/Core/FlattenedFactory.sol\":20645:20660  allPairs.length */\n      sload\n        /* \"MAAL Blockchain/RamzSwap/Core/FlattenedFactory.sol\":20572:20668  function allPairsLength() external view returns (uint) {\r... */\n      swap1\n      jump\t// out\n        /* \"MAAL Blockchain/RamzSwap/Core/FlattenedFactory.sol\":20166:20272  bytes32 public constant INIT_CODE_PAIR_HASH = keccak256(abi.encodePacked(type(RamzSwapPair).creationCode)) */\n    tag_23:\n        /* \"MAAL Blockchain/RamzSwap/Core/FlattenedFactory.sol\":20239:20270  type(RamzSwapPair).creationCode */\n      mload(0x40)\n      tag_39\n      0x20\n      dup3\n      add\n      tag_40\n      jump\t// in\n    tag_39:\n        /* \"--CODEGEN--\":41:45   */\n      0x20\n        /* \"--CODEGEN--\":34:39   */\n      dup3\n        /* \"--CODEGEN--\":30:46   */\n      add\n        /* \"--CODEGEN--\":25:28   */\n      dup2\n        /* \"--CODEGEN--\":21:47   */\n      sub\n        /* \"--CODEGEN--\":14:19   */\n      dup3\n        /* \"--CODEGEN--\":7:48   */\n      mstore\n        /* \"--CODEGEN--\":87:89   */\n      0x1f\n        /* \"--CODEGEN--\":83:90   */\n      not\n        /* \"--CODEGEN--\":78:80   */\n      0x1f\n        /* \"--CODEGEN--\":73:76   */\n      dup3\n        /* \"--CODEGEN--\":69:81   */\n      add\n        /* \"--CODEGEN--\":65:91   */\n      and\n        /* \"--CODEGEN--\":61:63   */\n      0x40\n        /* \"--CODEGEN--\":54:92   */\n      mstore\n        /* \"MAAL Blockchain/RamzSwap/Core/FlattenedFactory.sol\":20239:20270  type(RamzSwapPair).creationCode */\n      pop\n        /* \"MAAL Blockchain/RamzSwap/Core/FlattenedFactory.sol\":20222:20271  abi.encodePacked(type(RamzSwapPair).creationCode) */\n      add(0x20, mload(0x40))\n      dup1\n      dup3\n      dup1\n      mload\n      swap1\n      0x20\n      add\n      swap1\n      dup1\n      dup4\n      dup4\n        /* \"--CODEGEN--\":36:189   */\n    tag_41:\n        /* \"--CODEGEN--\":66:68   */\n      0x20\n        /* \"--CODEGEN--\":61:64   */\n      dup4\n        /* \"--CODEGEN--\":58:69   */\n      lt\n        /* \"--CODEGEN--\":36:189   */\n      tag_43\n      jumpi\n        /* \"--CODEGEN--\":176:186   */\n      dup1\n      mload\n        /* \"--CODEGEN--\":164:187   */\n      dup3\n      mstore\n      not(0x1f)\n        /* \"--CODEGEN--\":139:151   */\n      swap1\n      swap3\n      add\n      swap2\n        /* \"--CODEGEN--\":98:100   */\n      0x20\n        /* \"--CODEGEN--\":89:101   */\n      swap2\n      dup3\n      add\n      swap2\n        /* \"--CODEGEN--\":114:126   */\n      add\n        /* \"--CODEGEN--\":36:189   */\n      jump(tag_41)\n    tag_43:\n        /* \"--CODEGEN--\":274:275   */\n      0x01\n        /* \"--CODEGEN--\":267:270   */\n      dup4\n        /* \"--CODEGEN--\":263:265   */\n      0x20\n        /* \"--CODEGEN--\":259:271   */\n      sub\n        /* \"--CODEGEN--\":254:257   */\n      0x0100\n        /* \"--CODEGEN--\":250:272   */\n      exp\n        /* \"--CODEGEN--\":246:276   */\n      sub\n        /* \"--CODEGEN--\":315:319   */\n      dup1\n        /* \"--CODEGEN--\":311:320   */\n      not\n        /* \"--CODEGEN--\":305:308   */\n      dup3\n        /* \"--CODEGEN--\":299:309   */\n      mload\n        /* \"--CODEGEN--\":295:321   */\n      and\n        /* \"--CODEGEN--\":356:360   */\n      dup2\n        /* \"--CODEGEN--\":350:353   */\n      dup5\n        /* \"--CODEGEN--\":344:354   */\n      mload\n        /* \"--CODEGEN--\":340:361   */\n      and\n        /* \"--CODEGEN--\":389:396   */\n      dup1\n        /* \"--CODEGEN--\":380:387   */\n      dup3\n        /* \"--CODEGEN--\":377:397   */\n      or\n        /* \"--CODEGEN--\":372:375   */\n      dup6\n        /* \"--CODEGEN--\":365:398   */\n      mstore\n        /* \"--CODEGEN--\":3:402   */\n      pop\n      pop\n      pop\n        /* \"MAAL Blockchain/RamzSwap/Core/FlattenedFactory.sol\":20222:20271  abi.encodePacked(type(RamzSwapPair).creationCode) */\n      pop\n      pop\n      pop\n      swap1\n      pop\n      add\n      swap2\n      pop\n      pop\n      mload(0x40)\n        /* \"--CODEGEN--\":49:53   */\n      0x20\n        /* \"--CODEGEN--\":39:46   */\n      dup2\n        /* \"--CODEGEN--\":30:37   */\n      dup4\n        /* \"--CODEGEN--\":26:47   */\n      sub\n        /* \"--CODEGEN--\":22:54   */\n      sub\n        /* \"--CODEGEN--\":13:20   */\n      dup2\n        /* \"--CODEGEN--\":6:55   */\n      mstore\n        /* \"MAAL Blockchain/RamzSwap/Core/FlattenedFactory.sol\":20222:20271  abi.encodePacked(type(RamzSwapPair).creationCode) */\n      swap1\n      0x40\n      mstore\n        /* \"MAAL Blockchain/RamzSwap/Core/FlattenedFactory.sol\":20212:20272  keccak256(abi.encodePacked(type(RamzSwapPair).creationCode)) */\n      dup1\n      mload\n      swap1\n      0x20\n      add\n      keccak256\n        /* \"MAAL Blockchain/RamzSwap/Core/FlattenedFactory.sol\":20166:20272  bytes32 public constant INIT_CODE_PAIR_HASH = keccak256(abi.encodePacked(type(RamzSwapPair).creationCode)) */\n      dup2\n      jump\t// out\n        /* \"MAAL Blockchain/RamzSwap/Core/FlattenedFactory.sol\":21794:21962  function setFeeToSetter(address _feeToSetter) external {\r... */\n    tag_26:\n        /* \"MAAL Blockchain/RamzSwap/Core/FlattenedFactory.sol\":21882:21893  feeToSetter */\n      and(sub(shl(0xa0, 0x01), 0x01), sload(0x01))\n        /* \"MAAL Blockchain/RamzSwap/Core/FlattenedFactory.sol\":21868:21878  msg.sender */\n      caller\n        /* \"MAAL Blockchain/RamzSwap/Core/FlattenedFactory.sol\":21868:21893  msg.sender == feeToSetter */\n      eq\n        /* \"MAAL Blockchain/RamzSwap/Core/FlattenedFactory.sol\":21860:21917  require(msg.sender == feeToSetter, 'RamzSwap: FORBIDDEN') */\n      tag_45\n      jumpi\n      0x40\n      dup1\n      mload\n      shl(0xe5, 0x461bcd)\n      dup2\n      mstore\n      0x20\n      0x04\n      dup3\n      add\n      mstore\n      0x13\n      0x24\n      dup3\n      add\n      mstore\n      shl(0x69, 0x2930b6bd29bbb0b81d102327a92124a22222a7)\n      0x44\n      dup3\n      add\n      mstore\n      swap1\n      mload\n      swap1\n      dup2\n      swap1\n      sub\n      0x64\n      add\n      swap1\n      revert\n    tag_45:\n        /* \"MAAL Blockchain/RamzSwap/Core/FlattenedFactory.sol\":21928:21939  feeToSetter */\n      0x01\n        /* \"MAAL Blockchain/RamzSwap/Core/FlattenedFactory.sol\":21928:21954  feeToSetter = _feeToSetter */\n      dup1\n      sload\n      not(sub(shl(0xa0, 0x01), 0x01))\n      and\n      sub(shl(0xa0, 0x01), 0x01)\n      swap3\n      swap1\n      swap3\n      and\n      swap2\n      swap1\n      swap2\n      or\n      swap1\n      sstore\n        /* \"MAAL Blockchain/RamzSwap/Core/FlattenedFactory.sol\":21794:21962  function setFeeToSetter(address _feeToSetter) external {\r... */\n      jump\t// out\n        /* \"MAAL Blockchain/RamzSwap/Core/FlattenedFactory.sol\":20676:21634  function createPair(address tokenA, address tokenB) external returns (address pair) {\r... */\n    tag_29:\n        /* \"MAAL Blockchain/RamzSwap/Core/FlattenedFactory.sol\":20746:20758  address pair */\n      0x00\n        /* \"MAAL Blockchain/RamzSwap/Core/FlattenedFactory.sol\":20789:20795  tokenB */\n      dup2\n      sub(shl(0xa0, 0x01), 0x01)\n        /* \"MAAL Blockchain/RamzSwap/Core/FlattenedFactory.sol\":20779:20795  tokenA != tokenB */\n      and\n        /* \"MAAL Blockchain/RamzSwap/Core/FlattenedFactory.sol\":20779:20785  tokenA */\n      dup4\n      sub(shl(0xa0, 0x01), 0x01)\n        /* \"MAAL Blockchain/RamzSwap/Core/FlattenedFactory.sol\":20779:20795  tokenA != tokenB */\n      and\n      eq\n      iszero\n        /* \"MAAL Blockchain/RamzSwap/Core/FlattenedFactory.sol\":20771:20829  require(tokenA != tokenB, 'RamzSwap: IDENTICAL_ADDRESSES') */\n      tag_47\n      jumpi\n      0x40\n      dup1\n      mload\n      shl(0xe5, 0x461bcd)\n      dup2\n      mstore\n      0x20\n      0x04\n      dup3\n      add\n      mstore\n      0x1d\n      0x24\n      dup3\n      add\n      mstore\n      0x52616d7a537761703a204944454e544943414c5f414444524553534553000000\n      0x44\n      dup3\n      add\n      mstore\n      swap1\n      mload\n      swap1\n      dup2\n      swap1\n      sub\n      0x64\n      add\n      swap1\n      revert\n    tag_47:\n        /* \"MAAL Blockchain/RamzSwap/Core/FlattenedFactory.sol\":20841:20855  address token0 */\n      0x00\n        /* \"MAAL Blockchain/RamzSwap/Core/FlattenedFactory.sol\":20857:20871  address token1 */\n      dup1\n        /* \"MAAL Blockchain/RamzSwap/Core/FlattenedFactory.sol\":20884:20890  tokenB */\n      dup4\n      sub(shl(0xa0, 0x01), 0x01)\n        /* \"MAAL Blockchain/RamzSwap/Core/FlattenedFactory.sol\":20875:20890  tokenA < tokenB */\n      and\n        /* \"MAAL Blockchain/RamzSwap/Core/FlattenedFactory.sol\":20875:20881  tokenA */\n      dup6\n      sub(shl(0xa0, 0x01), 0x01)\n        /* \"MAAL Blockchain/RamzSwap/Core/FlattenedFactory.sol\":20875:20890  tokenA < tokenB */\n      and\n      lt\n        /* \"MAAL Blockchain/RamzSwap/Core/FlattenedFactory.sol\":20875:20928  tokenA < tokenB ? (tokenA, tokenB) : (tokenB, tokenA) */\n      tag_48\n      jumpi\n        /* \"MAAL Blockchain/RamzSwap/Core/FlattenedFactory.sol\":20913:20919  tokenB */\n      dup4\n        /* \"MAAL Blockchain/RamzSwap/Core/FlattenedFactory.sol\":20921:20927  tokenA */\n      dup6\n        /* \"MAAL Blockchain/RamzSwap/Core/FlattenedFactory.sol\":20875:20928  tokenA < tokenB ? (tokenA, tokenB) : (tokenB, tokenA) */\n      jump(tag_49)\n    tag_48:\n        /* \"MAAL Blockchain/RamzSwap/Core/FlattenedFactory.sol\":20894:20900  tokenA */\n      dup5\n        /* \"MAAL Blockchain/RamzSwap/Core/FlattenedFactory.sol\":20902:20908  tokenB */\n      dup5\n        /* \"MAAL Blockchain/RamzSwap/Core/FlattenedFactory.sol\":20875:20928  tokenA < tokenB ? (tokenA, tokenB) : (tokenB, tokenA) */\n    tag_49:\n        /* \"MAAL Blockchain/RamzSwap/Core/FlattenedFactory.sol\":20840:20928  (address token0, address token1) = tokenA < tokenB ? (tokenA, tokenB) : (tokenB, tokenA) */\n      swap1\n      swap3\n      pop\n      swap1\n      pop\n      sub(shl(0xa0, 0x01), 0x01)\n        /* \"MAAL Blockchain/RamzSwap/Core/FlattenedFactory.sol\":20947:20967  token0 != address(0) */\n      dup3\n      and\n        /* \"MAAL Blockchain/RamzSwap/Core/FlattenedFactory.sol\":20939:20994  require(token0 != address(0), 'RamzSwap: ZERO_ADDRESS') */\n      tag_50\n      jumpi\n      0x40\n      dup1\n      mload\n      shl(0xe5, 0x461bcd)\n      dup2\n      mstore\n      0x20\n      0x04\n      dup3\n      add\n      mstore\n      0x16\n      0x24\n      dup3\n      add\n      mstore\n      shl(0x50, 0x52616d7a537761703a205a45524f5f41444452455353)\n      0x44\n      dup3\n      add\n      mstore\n      swap1\n      mload\n      swap1\n      dup2\n      swap1\n      sub\n      0x64\n      add\n      swap1\n      revert\n    tag_50:\n      sub(shl(0xa0, 0x01), 0x01)\n        /* \"MAAL Blockchain/RamzSwap/Core/FlattenedFactory.sol\":21013:21028  getPair[token0] */\n      dup3\n      dup2\n      and\n        /* \"MAAL Blockchain/RamzSwap/Core/FlattenedFactory.sol\":21048:21049  0 */\n      0x00\n        /* \"MAAL Blockchain/RamzSwap/Core/FlattenedFactory.sol\":21013:21028  getPair[token0] */\n      swap1\n      dup2\n      mstore\n        /* \"MAAL Blockchain/RamzSwap/Core/FlattenedFactory.sol\":21013:21020  getPair */\n      0x02\n        /* \"MAAL Blockchain/RamzSwap/Core/FlattenedFactory.sol\":21013:21028  getPair[token0] */\n      0x20\n      swap1\n      dup2\n      mstore\n      0x40\n      dup1\n      dup4\n      keccak256\n        /* \"MAAL Blockchain/RamzSwap/Core/FlattenedFactory.sol\":21013:21036  getPair[token0][token1] */\n      dup6\n      dup6\n      and\n      dup5\n      mstore\n      swap1\n      swap2\n      mstore\n      swap1\n      keccak256\n      sload\n      and\n        /* \"MAAL Blockchain/RamzSwap/Core/FlattenedFactory.sol\":21013:21050  getPair[token0][token1] == address(0) */\n      iszero\n        /* \"MAAL Blockchain/RamzSwap/Core/FlattenedFactory.sol\":21005:21076  require(getPair[token0][token1] == address(0), 'RamzSwap: PAIR_EXISTS') */\n      tag_51\n      jumpi\n      0x40\n      dup1\n      mload\n      shl(0xe5, 0x461bcd)\n      dup2\n      mstore\n      0x20\n      0x04\n      dup3\n      add\n      mstore\n      0x15\n      0x24\n      dup3\n      add\n      mstore\n      shl(0x58, 0x52616d7a537761703a20504149525f455849535453)\n      0x44\n      dup3\n      add\n      mstore\n      swap1\n      mload\n      swap1\n      dup2\n      swap1\n      sub\n      0x64\n      add\n      swap1\n      revert\n    tag_51:\n        /* \"MAAL Blockchain/RamzSwap/Core/FlattenedFactory.sol\":21117:21138  bytes memory bytecode */\n      0x60\n        /* \"MAAL Blockchain/RamzSwap/Core/FlattenedFactory.sol\":21141:21172  type(RamzSwapPair).creationCode */\n      mload(0x40)\n      dup1\n      0x20\n      add\n      tag_52\n      swap1\n      tag_40\n      jump\t// in\n    tag_52:\n        /* \"--CODEGEN--\":41:45   */\n      0x20\n        /* \"--CODEGEN--\":34:39   */\n      dup3\n        /* \"--CODEGEN--\":30:46   */\n      add\n        /* \"--CODEGEN--\":25:28   */\n      dup2\n        /* \"--CODEGEN--\":21:47   */\n      sub\n        /* \"--CODEGEN--\":14:19   */\n      dup3\n        /* \"--CODEGEN--\":7:48   */\n      mstore\n        /* \"--CODEGEN--\":87:89   */\n      0x1f\n        /* \"--CODEGEN--\":83:90   */\n      not\n        /* \"--CODEGEN--\":78:80   */\n      0x1f\n        /* \"--CODEGEN--\":73:76   */\n      dup3\n        /* \"--CODEGEN--\":69:81   */\n      add\n        /* \"--CODEGEN--\":65:91   */\n      and\n        /* \"--CODEGEN--\":61:63   */\n      0x40\n        /* \"--CODEGEN--\":54:92   */\n      mstore\n        /* \"MAAL Blockchain/RamzSwap/Core/FlattenedFactory.sol\":21141:21172  type(RamzSwapPair).creationCode */\n      pop\n        /* \"MAAL Blockchain/RamzSwap/Core/FlattenedFactory.sol\":21117:21172  bytes memory bytecode = type(RamzSwapPair).creationCode */\n      swap1\n      pop\n        /* \"MAAL Blockchain/RamzSwap/Core/FlattenedFactory.sol\":21183:21195  bytes32 salt */\n      0x00\n        /* \"MAAL Blockchain/RamzSwap/Core/FlattenedFactory.sol\":21225:21231  token0 */\n      dup4\n        /* \"MAAL Blockchain/RamzSwap/Core/FlattenedFactory.sol\":21233:21239  token1 */\n      dup4\n        /* \"MAAL Blockchain/RamzSwap/Core/FlattenedFactory.sol\":21208:21240  abi.encodePacked(token0, token1) */\n      add(0x20, mload(0x40))\n      dup1\n      dup4\n      sub(shl(0xa0, 0x01), 0x01)\n      and\n      sub(shl(0xa0, 0x01), 0x01)\n      and\n      0x60\n      shl\n      dup2\n      mstore\n      0x14\n      add\n      dup3\n      sub(shl(0xa0, 0x01), 0x01)\n      and\n      sub(shl(0xa0, 0x01), 0x01)\n      and\n      0x60\n      shl\n      dup2\n      mstore\n      0x14\n      add\n      swap3\n      pop\n      pop\n      pop\n      mload(0x40)\n        /* \"--CODEGEN--\":49:53   */\n      0x20\n        /* \"--CODEGEN--\":39:46   */\n      dup2\n        /* \"--CODEGEN--\":30:37   */\n      dup4\n        /* \"--CODEGEN--\":26:47   */\n      sub\n        /* \"--CODEGEN--\":22:54   */\n      sub\n        /* \"--CODEGEN--\":13:20   */\n      dup2\n        /* \"--CODEGEN--\":6:55   */\n      mstore\n        /* \"MAAL Blockchain/RamzSwap/Core/FlattenedFactory.sol\":21208:21240  abi.encodePacked(token0, token1) */\n      swap1\n      0x40\n      mstore\n        /* \"MAAL Blockchain/RamzSwap/Core/FlattenedFactory.sol\":21198:21241  keccak256(abi.encodePacked(token0, token1)) */\n      dup1\n      mload\n      swap1\n      0x20\n      add\n      keccak256\n        /* \"MAAL Blockchain/RamzSwap/Core/FlattenedFactory.sol\":21183:21241  bytes32 salt = keccak256(abi.encodePacked(token0, token1)) */\n      swap1\n      pop\n        /* \"MAAL Blockchain/RamzSwap/Core/FlattenedFactory.sol\":21331:21335  salt */\n      dup1\n        /* \"MAAL Blockchain/RamzSwap/Core/FlattenedFactory.sol\":21320:21328  bytecode */\n      dup3\n        /* \"MAAL Blockchain/RamzSwap/Core/FlattenedFactory.sol\":21314:21329  mload(bytecode) */\n      mload\n        /* \"MAAL Blockchain/RamzSwap/Core/FlattenedFactory.sol\":21309:21311  32 */\n      0x20\n        /* \"MAAL Blockchain/RamzSwap/Core/FlattenedFactory.sol\":21299:21307  bytecode */\n      dup5\n        /* \"MAAL Blockchain/RamzSwap/Core/FlattenedFactory.sol\":21295:21312  add(bytecode, 32) */\n      add\n        /* \"MAAL Blockchain/RamzSwap/Core/FlattenedFactory.sol\":21292:21293  0 */\n      0x00\n        /* \"MAAL Blockchain/RamzSwap/Core/FlattenedFactory.sol\":21284:21336  create2(0, add(bytecode, 32), mload(bytecode), salt) */\n      create2\n        /* \"MAAL Blockchain/RamzSwap/Core/FlattenedFactory.sol\":21357:21403  IRamzSwapPair(pair).initialize(token0, token1) */\n      0x40\n      dup1\n      mload\n      shl(0xe0, 0x485cc955)\n      dup2\n      mstore\n      sub(shl(0xa0, 0x01), 0x01)\n      dup8\n      dup2\n      and\n      0x04\n      dup4\n      add\n      mstore\n      dup7\n      dup2\n      and\n      0x24\n      dup4\n      add\n      mstore\n      swap2\n      mload\n        /* \"MAAL Blockchain/RamzSwap/Core/FlattenedFactory.sol\":21276:21336  pair := create2(0, add(bytecode, 32), mload(bytecode), salt) */\n      swap3\n      swap8\n      pop\n        /* \"MAAL Blockchain/RamzSwap/Core/FlattenedFactory.sol\":21357:21387  IRamzSwapPair(pair).initialize */\n      swap1\n      dup8\n      and\n      swap2\n      0x485cc955\n      swap2\n        /* \"MAAL Blockchain/RamzSwap/Core/FlattenedFactory.sol\":21357:21403  IRamzSwapPair(pair).initialize(token0, token1) */\n      0x44\n      dup1\n      dup3\n      add\n      swap3\n      0x00\n      swap3\n      swap1\n      swap2\n      swap1\n      dup3\n      swap1\n      sub\n      add\n      dup2\n      dup4\n        /* \"MAAL Blockchain/RamzSwap/Core/FlattenedFactory.sol\":21357:21387  IRamzSwapPair(pair).initialize */\n      dup8\n        /* \"MAAL Blockchain/RamzSwap/Core/FlattenedFactory.sol\":21357:21403  IRamzSwapPair(pair).initialize(token0, token1) */\n      dup1\n      extcodesize\n      iszero\n        /* \"--CODEGEN--\":5:7   */\n      dup1\n      iszero\n      tag_53\n      jumpi\n        /* \"--CODEGEN--\":30:31   */\n      0x00\n        /* \"--CODEGEN--\":27:28   */\n      dup1\n        /* \"--CODEGEN--\":20:32   */\n      revert\n        /* \"--CODEGEN--\":5:7   */\n    tag_53:\n        /* \"MAAL Blockchain/RamzSwap/Core/FlattenedFactory.sol\":21357:21403  IRamzSwapPair(pair).initialize(token0, token1) */\n      pop\n      gas\n      call\n      iszero\n        /* \"--CODEGEN--\":8:17   */\n      dup1\n        /* \"--CODEGEN--\":5:7   */\n      iszero\n      tag_54\n      jumpi\n        /* \"--CODEGEN--\":45:61   */\n      returndatasize\n        /* \"--CODEGEN--\":42:43   */\n      0x00\n        /* \"--CODEGEN--\":39:40   */\n      dup1\n        /* \"--CODEGEN--\":24:62   */\n      returndatacopy\n        /* \"--CODEGEN--\":77:93   */\n      returndatasize\n        /* \"--CODEGEN--\":74:75   */\n      0x00\n        /* \"--CODEGEN--\":67:94   */\n      revert\n        /* \"--CODEGEN--\":5:7   */\n    tag_54:\n      pop\n      pop\n      pop\n      pop\n      sub(shl(0xa0, 0x01), 0x01)\n        /* \"MAAL Blockchain/RamzSwap/Core/FlattenedFactory.sol\":21414:21429  getPair[token0] */\n      dup5\n      dup2\n      and\n      0x00\n      dup2\n      dup2\n      mstore\n        /* \"MAAL Blockchain/RamzSwap/Core/FlattenedFactory.sol\":21414:21421  getPair */\n      0x02\n        /* \"MAAL Blockchain/RamzSwap/Core/FlattenedFactory.sol\":21414:21429  getPair[token0] */\n      0x20\n      dup2\n      dup2\n      mstore\n      0x40\n      dup1\n      dup5\n      keccak256\n        /* \"MAAL Blockchain/RamzSwap/Core/FlattenedFactory.sol\":21414:21437  getPair[token0][token1] */\n      dup10\n      dup8\n      and\n      dup1\n      dup7\n      mstore\n      swap1\n      dup4\n      mstore\n      dup2\n      dup6\n      keccak256\n        /* \"MAAL Blockchain/RamzSwap/Core/FlattenedFactory.sol\":21414:21444  getPair[token0][token1] = pair */\n      dup1\n      sload\n      swap8\n      dup14\n      and\n      not(sub(shl(0xa0, 0x01), 0x01))\n      swap9\n      dup10\n      and\n      dup2\n      or\n      swap1\n      swap2\n      sstore\n        /* \"MAAL Blockchain/RamzSwap/Core/FlattenedFactory.sol\":21455:21470  getPair[token1] */\n      swap4\n      dup4\n      mstore\n      dup2\n      dup6\n      keccak256\n        /* \"MAAL Blockchain/RamzSwap/Core/FlattenedFactory.sol\":21455:21478  getPair[token1][token0] */\n      dup7\n      dup7\n      mstore\n      dup4\n      mstore\n      dup2\n      dup6\n      keccak256\n        /* \"MAAL Blockchain/RamzSwap/Core/FlattenedFactory.sol\":21455:21485  getPair[token1][token0] = pair */\n      dup1\n      sload\n      dup9\n      and\n      dup6\n      or\n      swap1\n      sstore\n        /* \"MAAL Blockchain/RamzSwap/Core/FlattenedFactory.sol\":21541:21549  allPairs */\n      0x03\n        /* \"--CODEGEN--\":27:37   */\n      dup1\n      sload\n      0x01\n        /* \"--CODEGEN--\":23:41   */\n      dup2\n      add\n        /* \"--CODEGEN--\":45:68   */\n      dup3\n      sstore\n        /* \"MAAL Blockchain/RamzSwap/Core/FlattenedFactory.sol\":21541:21560  allPairs.push(pair) */\n      swap6\n      dup2\n      swap1\n      mstore\n      0xc2575a0e9e593c00f959f8c92f12db2869c3395a3b0502d05e2516446f71f85b\n      swap1\n      swap6\n      add\n      dup1\n      sload\n      swap1\n      swap8\n      and\n      dup5\n      or\n      swap1\n      swap7\n      sstore\n        /* \"MAAL Blockchain/RamzSwap/Core/FlattenedFactory.sol\":21610:21625  allPairs.length */\n      swap3\n      sload\n        /* \"MAAL Blockchain/RamzSwap/Core/FlattenedFactory.sol\":21576:21626  PairCreated(token0, token1, pair, allPairs.length) */\n      dup4\n      mload\n      swap3\n      dup4\n      mstore\n      swap1\n      dup3\n      add\n      mstore\n      dup2\n      mload\n      0x0d3648bd0f6ba80134a33ba9275ac585d9d315f0ad8355cddefde31afa28d0e9\n      swap3\n      swap2\n      dup2\n      swap1\n      sub\n      swap1\n      swap2\n      add\n      swap1\n      log3\n        /* \"MAAL Blockchain/RamzSwap/Core/FlattenedFactory.sol\":20676:21634  function createPair(address tokenA, address tokenB) external returns (address pair) {\r... */\n      pop\n      pop\n      pop\n      pop\n      swap3\n      swap2\n      pop\n      pop\n      jump\t// out\n        /* \"MAAL Blockchain/RamzSwap/Core/FlattenedFactory.sol\":20281:20343  mapping(address => mapping(address => address)) public getPair */\n    tag_32:\n      0x02\n      0x20\n      swap1\n      dup2\n      mstore\n      0x00\n      swap3\n      dup4\n      mstore\n      0x40\n      dup1\n      dup5\n      keccak256\n      swap1\n      swap2\n      mstore\n      swap1\n      dup3\n      mstore\n      swap1\n      keccak256\n      sload\n      sub(shl(0xa0, 0x01), 0x01)\n      and\n      dup2\n      jump\t// out\n        /* \"MAAL Blockchain/RamzSwap/Core/FlattenedFactory.sol\":21642:21786  function setFeeTo(address _feeTo) external {\r... */\n    tag_35:\n        /* \"MAAL Blockchain/RamzSwap/Core/FlattenedFactory.sol\":21718:21729  feeToSetter */\n      and(sub(shl(0xa0, 0x01), 0x01), sload(0x01))\n        /* \"MAAL Blockchain/RamzSwap/Core/FlattenedFactory.sol\":21704:21714  msg.sender */\n      caller\n        /* \"MAAL Blockchain/RamzSwap/Core/FlattenedFactory.sol\":21704:21729  msg.sender == feeToSetter */\n      eq\n        /* \"MAAL Blockchain/RamzSwap/Core/FlattenedFactory.sol\":21696:21753  require(msg.sender == feeToSetter, 'RamzSwap: FORBIDDEN') */\n      tag_57\n      jumpi\n      0x40\n      dup1\n      mload\n      shl(0xe5, 0x461bcd)\n      dup2\n      mstore\n      0x20\n      0x04\n      dup3\n      add\n      mstore\n      0x13\n      0x24\n      dup3\n      add\n      mstore\n      shl(0x69, 0x2930b6bd29bbb0b81d102327a92124a22222a7)\n      0x44\n      dup3\n      add\n      mstore\n      swap1\n      mload\n      swap1\n      dup2\n      swap1\n      sub\n      0x64\n      add\n      swap1\n      revert\n    tag_57:\n        /* \"MAAL Blockchain/RamzSwap/Core/FlattenedFactory.sol\":21764:21769  feeTo */\n      0x00\n        /* \"MAAL Blockchain/RamzSwap/Core/FlattenedFactory.sol\":21764:21778  feeTo = _feeTo */\n      dup1\n      sload\n      not(sub(shl(0xa0, 0x01), 0x01))\n      and\n      sub(shl(0xa0, 0x01), 0x01)\n      swap3\n      swap1\n      swap3\n      and\n      swap2\n      swap1\n      swap2\n      or\n      swap1\n      sstore\n        /* \"MAAL Blockchain/RamzSwap/Core/FlattenedFactory.sol\":21642:21786  function setFeeTo(address _feeTo) external {\r... */\n      jump\t// out\n        /* \"MAAL Blockchain/RamzSwap/Core/FlattenedFactory.sol\":20052:21965  contract RamzSwapFactory is IRamzSwapFactory {\r... */\n    tag_40:\n      dataSize(sub_0)\n      dup1\n      dataOffset(sub_0)\n      dup4\n      codecopy\n      add\n      swap1\n      jump\t// out\n    stop\n\n    sub_0: assembly {\n            /* \"MAAL Blockchain/RamzSwap/Core/FlattenedFactory.sol\":10365:20048  contract RamzSwapPair is IRamzSwapPair, RamzSwapMAAL20 {\r... */\n          mstore(0x40, 0x80)\n            /* \"MAAL Blockchain/RamzSwap/Core/FlattenedFactory.sol\":11232:11233  1 */\n          0x01\n            /* \"MAAL Blockchain/RamzSwap/Core/FlattenedFactory.sol\":11208:11233  uint private unlocked = 1 */\n          0x0c\n          sstore\n            /* \"MAAL Blockchain/RamzSwap/Core/FlattenedFactory.sol\":12317:12377  constructor() public {\r... */\n          callvalue\n            /* \"--CODEGEN--\":8:17   */\n          dup1\n            /* \"--CODEGEN--\":5:7   */\n          iszero\n          tag_1\n          jumpi\n            /* \"--CODEGEN--\":30:31   */\n          0x00\n            /* \"--CODEGEN--\":27:28   */\n          dup1\n            /* \"--CODEGEN--\":20:32   */\n          revert\n            /* \"--CODEGEN--\":5:7   */\n        tag_1:\n          pop\n            /* \"MAAL Blockchain/RamzSwap/Core/FlattenedFactory.sol\":7966:8061  keccak256('EIP712Domain(string name,string version,uint256 chainId,address verifyingContract)') */\n          mload(0x40)\n            /* \"MAAL Blockchain/RamzSwap/Core/FlattenedFactory.sol\":7866:7873  chainid */\n          chainid\n          swap1\n            /* \"MAAL Blockchain/RamzSwap/Core/FlattenedFactory.sol\":7966:8061  keccak256('EIP712Domain(string name,string version,uint256 chainId,address verifyingContract)') */\n          dup1\n          0x52\n          data_8b73c3c69bb8fe3d512ecc4cf759cc79239f7b179b0ffacaa9a75d522b39400f\n          dup3\n          codecopy\n          0x40\n          dup1\n          mload\n          swap2\n          dup3\n          swap1\n          sub\n          0x52\n          add\n          dup3\n          keccak256\n            /* \"MAAL Blockchain/RamzSwap/Core/FlattenedFactory.sol\":8096:8100  name */\n          dup3\n          dup3\n          add\n          dup3\n          mstore\n          0x08\n          dup4\n          mstore\n          shl(0xc4, 0x052616d7a5377617)\n          0x20\n          swap4\n          dup5\n          add\n          mstore\n            /* \"MAAL Blockchain/RamzSwap/Core/FlattenedFactory.sol\":8131:8141  bytes('1') */\n          dup2\n          mload\n          dup1\n          dup4\n          add\n          dup4\n          mstore\n          0x01\n          dup2\n          mstore\n          shl(0xf8, 0x31)\n          swap1\n          dup5\n          add\n          mstore\n            /* \"MAAL Blockchain/RamzSwap/Core/FlattenedFactory.sol\":7937:8215  abi.encode(\r... */\n          dup2\n          mload\n          dup1\n          dup5\n          add\n          swap2\n          swap1\n          swap2\n          mstore\n            /* \"MAAL Blockchain/RamzSwap/Core/FlattenedFactory.sol\":8080:8102  keccak256(bytes(name)) */\n          0x0fdad714b9ded567f809e1228e3c4209948d0b55cf816b97124955a286699019\n            /* \"MAAL Blockchain/RamzSwap/Core/FlattenedFactory.sol\":7937:8215  abi.encode(\r... */\n          dup2\n          dup4\n          add\n          mstore\n            /* \"MAAL Blockchain/RamzSwap/Core/FlattenedFactory.sol\":8121:8142  keccak256(bytes('1')) */\n          0xc89efdaa54c0f20c7adf612882df0950f5a951637e0307cdcb4c672f298b8bc6\n            /* \"MAAL Blockchain/RamzSwap/Core/FlattenedFactory.sol\":7937:8215  abi.encode(\r... */\n          0x60\n          dup3\n          add\n          mstore\n          0x80\n          dup2\n          add\n          swap5\n          swap1\n          swap5\n          mstore\n            /* \"MAAL Blockchain/RamzSwap/Core/FlattenedFactory.sol\":8195:8199  this */\n          address\n            /* \"MAAL Blockchain/RamzSwap/Core/FlattenedFactory.sol\":7937:8215  abi.encode(\r... */\n          0xa0\n          dup1\n          dup7\n          add\n          swap2\n          swap1\n          swap2\n          mstore\n          dup2\n          mload\n            /* \"--CODEGEN--\":26:47   */\n          dup1\n          dup7\n          sub\n            /* \"--CODEGEN--\":22:54   */\n          swap1\n          swap2\n          add\n            /* \"--CODEGEN--\":6:55   */\n          dup2\n          mstore\n            /* \"MAAL Blockchain/RamzSwap/Core/FlattenedFactory.sol\":7937:8215  abi.encode(\r... */\n          0xc0\n          swap1\n          swap5\n          add\n          swap1\n          mstore\n            /* \"MAAL Blockchain/RamzSwap/Core/FlattenedFactory.sol\":7913:8226  keccak256(\r... */\n          dup3\n          mload\n          swap3\n          add\n          swap2\n          swap1\n          swap2\n          keccak256\n            /* \"MAAL Blockchain/RamzSwap/Core/FlattenedFactory.sol\":7894:7910  DOMAIN_SEPARATOR */\n          0x03\n            /* \"MAAL Blockchain/RamzSwap/Core/FlattenedFactory.sol\":7894:8226  DOMAIN_SEPARATOR = keccak256(\r... */\n          sstore\n          pop\n            /* \"MAAL Blockchain/RamzSwap/Core/FlattenedFactory.sol\":12349:12356  factory */\n          0x05\n            /* \"MAAL Blockchain/RamzSwap/Core/FlattenedFactory.sol\":12349:12369  factory = msg.sender */\n          dup1\n          sload\n          not(sub(shl(0xa0, 0x01), 0x01))\n          and\n            /* \"MAAL Blockchain/RamzSwap/Core/FlattenedFactory.sol\":12359:12369  msg.sender */\n          caller\n            /* \"MAAL Blockchain/RamzSwap/Core/FlattenedFactory.sol\":12349:12369  factory = msg.sender */\n          or\n          swap1\n          sstore\n          0x2264\n          dup1\n            /* \"MAAL Blockchain/RamzSwap/Core/FlattenedFactory.sol\":10365:20048  contract RamzSwapPair is IRamzSwapPair, RamzSwapMAAL20 {\r... */\n          dataOffset(sub_0)\n          0x00\n          codecopy\n          0x00\n          return\n        stop\n        data_8b73c3c69bb8fe3d512ecc4cf759cc79239f7b179b0ffacaa9a75d522b39400f 454950373132446f6d61696e28737472696e67206e616d652c737472696e672076657273696f6e2c75696e7432353620636861696e49642c6164647265737320766572696679696e67436f6e747261637429\n\n        sub_0: assembly {\n                /* \"MAAL Blockchain/RamzSwap/Core/FlattenedFactory.sol\":10365:20048  contract RamzSwapPair is IRamzSwapPair, RamzSwapMAAL20 {\r... */\n              mstore(0x40, 0x80)\n              callvalue\n                /* \"--CODEGEN--\":8:17   */\n              dup1\n                /* \"--CODEGEN--\":5:7   */\n              iszero\n              tag_1\n              jumpi\n                /* \"--CODEGEN--\":30:31   */\n              0x00\n                /* \"--CODEGEN--\":27:28   */\n              dup1\n                /* \"--CODEGEN--\":20:32   */\n              revert\n                /* \"--CODEGEN--\":5:7   */\n            tag_1:\n                /* \"MAAL Blockchain/RamzSwap/Core/FlattenedFactory.sol\":10365:20048  contract RamzSwapPair is IRamzSwapPair, RamzSwapMAAL20 {\r... */\n              pop\n              jumpi(tag_2, lt(calldatasize, 0x04))\n              shr(0xe0, calldataload(0x00))\n              dup1\n              0x6a627842\n              gt\n              tag_30\n              jumpi\n              dup1\n              0xba9a7a56\n              gt\n              tag_31\n              jumpi\n              dup1\n              0xd21220a7\n              gt\n              tag_32\n              jumpi\n              dup1\n              0xd21220a7\n              eq\n              tag_26\n              jumpi\n              dup1\n              0xd505accf\n              eq\n              tag_27\n              jumpi\n              dup1\n              0xdd62ed3e\n              eq\n              tag_28\n              jumpi\n              dup1\n              0xfff6cae9\n              eq\n              tag_29\n              jumpi\n              jump(tag_2)\n            tag_32:\n              dup1\n              0xba9a7a56\n              eq\n              tag_23\n              jumpi\n              dup1\n              0xbc25cf77\n              eq\n              tag_24\n              jumpi\n              dup1\n              0xc45a0155\n              eq\n              tag_25\n              jumpi\n              jump(tag_2)\n            tag_31:\n              dup1\n              0x7ecebe00\n              gt\n              tag_33\n              jumpi\n              dup1\n              0x7ecebe00\n              eq\n              tag_19\n              jumpi\n              dup1\n              0x89afcb44\n              eq\n              tag_20\n              jumpi\n              dup1\n              0x95d89b41\n              eq\n              tag_21\n              jumpi\n              dup1\n              0xa9059cbb\n              eq\n              tag_22\n              jumpi\n              jump(tag_2)\n            tag_33:\n              dup1\n              0x6a627842\n              eq\n              tag_16\n              jumpi\n              dup1\n              0x70a08231\n              eq\n              tag_17\n              jumpi\n              dup1\n              0x7464fc3d\n              eq\n              tag_18\n              jumpi\n              jump(tag_2)\n            tag_30:\n              dup1\n              0x23b872dd\n              gt\n              tag_34\n              jumpi\n              dup1\n              0x3644e515\n              gt\n              tag_35\n              jumpi\n              dup1\n              0x3644e515\n              eq\n              tag_12\n              jumpi\n              dup1\n              0x485cc955\n              eq\n              tag_13\n              jumpi\n              dup1\n              0x5909c0d5\n              eq\n              tag_14\n              jumpi\n              dup1\n              0x5a3d5493\n              eq\n              tag_15\n              jumpi\n              jump(tag_2)\n            tag_35:\n              dup1\n              0x23b872dd\n              eq\n              tag_9\n              jumpi\n              dup1\n              0x30adf81f\n              eq\n              tag_10\n              jumpi\n              dup1\n              0x313ce567\n              eq\n              tag_11\n              jumpi\n              jump(tag_2)\n            tag_34:\n              dup1\n              0x022c0d9f\n              eq\n              tag_3\n              jumpi\n              dup1\n              0x06fdde03\n              eq\n              tag_4\n              jumpi\n              dup1\n              0x0902f1ac\n              eq\n              tag_5\n              jumpi\n              dup1\n              0x095ea7b3\n              eq\n              tag_6\n              jumpi\n              dup1\n              0x0dfe1681\n              eq\n              tag_7\n              jumpi\n              dup1\n              0x18160ddd\n              eq\n              tag_8\n              jumpi\n            tag_2:\n              0x00\n              dup1\n              revert\n                /* \"MAAL Blockchain/RamzSwap/Core/FlattenedFactory.sol\":17567:19451  function swap(uint amount0Out, uint amount1Out, address to, bytes calldata data) external lock {\r... */\n            tag_3:\n              tag_36\n              0x04\n              dup1\n              calldatasize\n              sub\n                /* \"--CODEGEN--\":13:16   */\n              0x80\n                /* \"--CODEGEN--\":8:11   */\n              dup2\n                /* \"--CODEGEN--\":5:17   */\n              lt\n                /* \"--CODEGEN--\":2:4   */\n              iszero\n              tag_37\n              jumpi\n                /* \"--CODEGEN--\":30:31   */\n              0x00\n                /* \"--CODEGEN--\":27:28   */\n              dup1\n                /* \"--CODEGEN--\":20:32   */\n              revert\n                /* \"--CODEGEN--\":2:4   */\n            tag_37:\n                /* \"MAAL Blockchain/RamzSwap/Core/FlattenedFactory.sol\":17567:19451  function swap(uint amount0Out, uint amount1Out, address to, bytes calldata data) external lock {\r... */\n              dup2\n              calldataload\n              swap2\n              0x20\n              dup2\n              add\n              calldataload\n              swap2\n              0x40\n              dup3\n              add\n              calldataload\n              sub(shl(0xa0, 0x01), 0x01)\n              and\n              swap2\n              swap1\n              dup2\n              add\n              swap1\n              0x80\n              dup2\n              add\n              0x60\n              dup3\n              add\n              calldataload\n                /* \"--CODEGEN--\":21:32   */\n              0x0100000000\n                /* \"--CODEGEN--\":5:33   */\n              dup2\n              gt\n                /* \"--CODEGEN--\":2:4   */\n              iszero\n              tag_38\n              jumpi\n                /* \"--CODEGEN--\":46:47   */\n              0x00\n                /* \"--CODEGEN--\":43:44   */\n              dup1\n                /* \"--CODEGEN--\":36:48   */\n              revert\n                /* \"--CODEGEN--\":2:4   */\n            tag_38:\n                /* \"MAAL Blockchain/RamzSwap/Core/FlattenedFactory.sol\":17567:19451  function swap(uint amount0Out, uint amount1Out, address to, bytes calldata data) external lock {\r... */\n              dup3\n              add\n                /* \"--CODEGEN--\":35:44   */\n              dup4\n                /* \"--CODEGEN--\":28:32   */\n              0x20\n                /* \"--CODEGEN--\":12:26   */\n              dup3\n                /* \"--CODEGEN--\":8:33   */\n              add\n                /* \"--CODEGEN--\":5:45   */\n              gt\n                /* \"--CODEGEN--\":2:4   */\n              iszero\n              tag_39\n              jumpi\n                /* \"--CODEGEN--\":58:59   */\n              0x00\n                /* \"--CODEGEN--\":55:56   */\n              dup1\n                /* \"--CODEGEN--\":48:60   */\n              revert\n                /* \"--CODEGEN--\":2:4   */\n            tag_39:\n                /* \"MAAL Blockchain/RamzSwap/Core/FlattenedFactory.sol\":17567:19451  function swap(uint amount0Out, uint amount1Out, address to, bytes calldata data) external lock {\r... */\n              dup1\n              calldataload\n              swap1\n              0x20\n              add\n              swap2\n                /* \"--CODEGEN--\":100:109   */\n              dup5\n                /* \"--CODEGEN--\":95:96   */\n              0x01\n                /* \"--CODEGEN--\":81:93   */\n              dup4\n                /* \"--CODEGEN--\":77:97   */\n              mul\n                /* \"--CODEGEN--\":67:75   */\n              dup5\n                /* \"--CODEGEN--\":63:98   */\n              add\n                /* \"--CODEGEN--\":60:110   */\n              gt\n                /* \"--CODEGEN--\":39:50   */\n              0x0100000000\n                /* \"--CODEGEN--\":25:37   */\n              dup4\n                /* \"--CODEGEN--\":22:51   */\n              gt\n                /* \"--CODEGEN--\":11:118   */\n              or\n                /* \"--CODEGEN--\":8:10   */\n              iszero\n              tag_40\n              jumpi\n                /* \"--CODEGEN--\":131:132   */\n              0x00\n                /* \"--CODEGEN--\":128:129   */\n              dup1\n                /* \"--CODEGEN--\":121:133   */\n              revert\n                /* \"--CODEGEN--\":8:10   */\n            tag_40:\n              pop\n                /* \"MAAL Blockchain/RamzSwap/Core/FlattenedFactory.sol\":17567:19451  function swap(uint amount0Out, uint amount1Out, address to, bytes calldata data) external lock {\r... */\n              swap1\n              swap3\n              pop\n              swap1\n              pop\n              tag_41\n              jump\t// in\n            tag_36:\n              stop\n                /* \"MAAL Blockchain/RamzSwap/Core/FlattenedFactory.sol\":7031:7071  string public constant name = 'RamzSwap' */\n            tag_4:\n              tag_42\n              tag_43\n              jump\t// in\n            tag_42:\n              0x40\n              dup1\n              mload\n              0x20\n              dup1\n              dup3\n              mstore\n              dup4\n              mload\n              dup2\n              dup4\n              add\n              mstore\n              dup4\n              mload\n              swap2\n              swap3\n              dup4\n              swap3\n              swap1\n              dup4\n              add\n              swap2\n              dup6\n              add\n              swap1\n              dup1\n              dup4\n              dup4\n              0x00\n                /* \"--CODEGEN--\":8:108   */\n            tag_44:\n                /* \"--CODEGEN--\":33:36   */\n              dup4\n                /* \"--CODEGEN--\":30:31   */\n              dup2\n                /* \"--CODEGEN--\":27:37   */\n              lt\n                /* \"--CODEGEN--\":8:108   */\n              iszero\n              tag_46\n              jumpi\n                /* \"--CODEGEN--\":90:101   */\n              dup2\n              dup2\n              add\n                /* \"--CODEGEN--\":84:102   */\n              mload\n                /* \"--CODEGEN--\":71:82   */\n              dup4\n              dup3\n              add\n                /* \"--CODEGEN--\":64:103   */\n              mstore\n                /* \"--CODEGEN--\":52:54   */\n              0x20\n                /* \"--CODEGEN--\":45:55   */\n              add\n                /* \"--CODEGEN--\":8:108   */\n              jump(tag_44)\n            tag_46:\n                /* \"--CODEGEN--\":12:26   */\n              pop\n                /* \"MAAL Blockchain/RamzSwap/Core/FlattenedFactory.sol\":7031:7071  string public constant name = 'RamzSwap' */\n              pop\n              pop\n              pop\n              swap1\n              pop\n              swap1\n              dup2\n              add\n              swap1\n              0x1f\n              and\n              dup1\n              iszero\n              tag_47\n              jumpi\n              dup1\n              dup3\n              sub\n              dup1\n              mload\n              0x01\n              dup4\n              0x20\n              sub\n              0x0100\n              exp\n              sub\n              not\n              and\n              dup2\n              mstore\n              0x20\n              add\n              swap2\n              pop\n            tag_47:\n              pop\n              swap3\n              pop\n              pop\n              pop\n              mload(0x40)\n              dup1\n              swap2\n              sub\n              swap1\n              return\n                /* \"MAAL Blockchain/RamzSwap/Core/FlattenedFactory.sol\":11383:11614  function getReserves() public view returns (uint112 _reserve0, uint112 _reserve1, uint32 _blockTimestampLast) {\r... */\n            tag_5:\n              tag_48\n              tag_49\n              jump\t// in\n            tag_48:\n              0x40\n              dup1\n              mload\n              sub(shl(0x70, 0x01), 0x01)\n              swap5\n              dup6\n              and\n              dup2\n              mstore\n              swap3\n              swap1\n              swap4\n              and\n              0x20\n              dup4\n              add\n              mstore\n              0xffffffff\n              and\n              dup2\n              dup4\n              add\n              mstore\n              swap1\n              mload\n              swap1\n              dup2\n              swap1\n              sub\n              0x60\n              add\n              swap1\n              return\n                /* \"MAAL Blockchain/RamzSwap/Core/FlattenedFactory.sol\":9073:9220  function approve(address spender, uint value) external returns (bool) {\r... */\n            tag_6:\n              tag_50\n              0x04\n              dup1\n              calldatasize\n              sub\n                /* \"--CODEGEN--\":13:15   */\n              0x40\n                /* \"--CODEGEN--\":8:11   */\n              dup2\n                /* \"--CODEGEN--\":5:16   */\n              lt\n                /* \"--CODEGEN--\":2:4   */\n              iszero\n              tag_51\n              jumpi\n                /* \"--CODEGEN--\":29:30   */\n              0x00\n                /* \"--CODEGEN--\":26:27   */\n              dup1\n                /* \"--CODEGEN--\":19:31   */\n              revert\n                /* \"--CODEGEN--\":2:4   */\n            tag_51:\n              pop\n                /* \"MAAL Blockchain/RamzSwap/Core/FlattenedFactory.sol\":9073:9220  function approve(address spender, uint value) external returns (bool) {\r... */\n              dup1\n              calldataload\n              sub(shl(0xa0, 0x01), 0x01)\n              and\n              swap1\n              0x20\n              add\n              calldataload\n              tag_52\n              jump\t// in\n            tag_50:\n              0x40\n              dup1\n              mload\n              swap2\n              iszero\n              iszero\n              dup3\n              mstore\n              mload\n              swap1\n              dup2\n              swap1\n              sub\n              0x20\n              add\n              swap1\n              return\n                /* \"MAAL Blockchain/RamzSwap/Core/FlattenedFactory.sol\":10673:10694  address public token0 */\n            tag_7:\n              tag_53\n              tag_54\n              jump\t// in\n            tag_53:\n              0x40\n              dup1\n              mload\n              0x01\n              dup1\n              0xa0\n              shl\n              sub\n              swap1\n              swap3\n              and\n              dup3\n              mstore\n              mload\n              swap1\n              dup2\n              swap1\n              sub\n              0x20\n              add\n              swap1\n              return\n                /* \"MAAL Blockchain/RamzSwap/Core/FlattenedFactory.sol\":7164:7188  uint  public totalSupply */\n            tag_8:\n              tag_55\n              tag_56\n              jump\t// in\n            tag_55:\n              0x40\n              dup1\n              mload\n              swap2\n              dup3\n              mstore\n              mload\n              swap1\n              dup2\n              swap1\n              sub\n              0x20\n              add\n              swap1\n              return\n                /* \"MAAL Blockchain/RamzSwap/Core/FlattenedFactory.sol\":9375:9676  function transferFrom(address from, address to, uint value) external returns (bool) {\r... */\n            tag_9:\n              tag_50\n              0x04\n              dup1\n              calldatasize\n              sub\n                /* \"--CODEGEN--\":13:15   */\n              0x60\n                /* \"--CODEGEN--\":8:11   */\n              dup2\n                /* \"--CODEGEN--\":5:16   */\n              lt\n                /* \"--CODEGEN--\":2:4   */\n              iszero\n              tag_58\n              jumpi\n                /* \"--CODEGEN--\":29:30   */\n              0x00\n                /* \"--CODEGEN--\":26:27   */\n              dup1\n                /* \"--CODEGEN--\":19:31   */\n              revert\n                /* \"--CODEGEN--\":2:4   */\n            tag_58:\n              pop\n              sub(shl(0xa0, 0x01), 0x01)\n                /* \"MAAL Blockchain/RamzSwap/Core/FlattenedFactory.sol\":9375:9676  function transferFrom(address from, address to, uint value) external returns (bool) {\r... */\n              dup2\n              calldataload\n              dup2\n              and\n              swap2\n              0x20\n              dup2\n              add\n              calldataload\n              swap1\n              swap2\n              and\n              swap1\n              0x40\n              add\n              calldataload\n              tag_59\n              jump\t// in\n                /* \"MAAL Blockchain/RamzSwap/Core/FlattenedFactory.sol\":7456:7564  bytes32 public constant PERMIT_TYPEHASH = 0x6e71edae12b1b97f4d1f60370fef10105fa2faae0126114a169c64845d6126c9 */\n            tag_10:\n              tag_55\n              tag_61\n              jump\t// in\n                /* \"MAAL Blockchain/RamzSwap/Core/FlattenedFactory.sol\":7122:7157  uint8 public constant decimals = 18 */\n            tag_11:\n              tag_62\n              tag_63\n              jump\t// in\n            tag_62:\n              0x40\n              dup1\n              mload\n              0xff\n              swap1\n              swap3\n              and\n              dup3\n              mstore\n              mload\n              swap1\n              dup2\n              swap1\n              sub\n              0x20\n              add\n              swap1\n              return\n                /* \"MAAL Blockchain/RamzSwap/Core/FlattenedFactory.sol\":7313:7344  bytes32 public DOMAIN_SEPARATOR */\n            tag_12:\n              tag_55\n              tag_65\n              jump\t// in\n                /* \"MAAL Blockchain/RamzSwap/Core/FlattenedFactory.sol\":12442:12651  function initialize(address _token0, address _token1) external {\r... */\n            tag_13:\n              tag_36\n              0x04\n              dup1\n              calldatasize\n              sub\n                /* \"--CODEGEN--\":13:15   */\n              0x40\n                /* \"--CODEGEN--\":8:11   */\n              dup2\n                /* \"--CODEGEN--\":5:16   */\n              lt\n                /* \"--CODEGEN--\":2:4   */\n              iszero\n              tag_67\n              jumpi\n                /* \"--CODEGEN--\":29:30   */\n              0x00\n                /* \"--CODEGEN--\":26:27   */\n              dup1\n                /* \"--CODEGEN--\":19:31   */\n              revert\n                /* \"--CODEGEN--\":2:4   */\n            tag_67:\n              pop\n              sub(shl(0xa0, 0x01), 0x01)\n                /* \"MAAL Blockchain/RamzSwap/Core/FlattenedFactory.sol\":12442:12651  function initialize(address _token0, address _token1) external {\r... */\n              dup2\n              calldataload\n              dup2\n              and\n              swap2\n              0x20\n              add\n              calldataload\n              and\n              tag_68\n              jump\t// in\n                /* \"MAAL Blockchain/RamzSwap/Core/FlattenedFactory.sol\":11024:11056  uint public price0CumulativeLast */\n            tag_14:\n              tag_55\n              tag_70\n              jump\t// in\n                /* \"MAAL Blockchain/RamzSwap/Core/FlattenedFactory.sol\":11063:11095  uint public price1CumulativeLast */\n            tag_15:\n              tag_55\n              tag_72\n              jump\t// in\n                /* \"MAAL Blockchain/RamzSwap/Core/FlattenedFactory.sol\":14633:15874  function mint(address to) external lock returns (uint liquidity) {\r... */\n            tag_16:\n              tag_55\n              0x04\n              dup1\n              calldatasize\n              sub\n                /* \"--CODEGEN--\":13:15   */\n              0x20\n                /* \"--CODEGEN--\":8:11   */\n              dup2\n                /* \"--CODEGEN--\":5:16   */\n              lt\n                /* \"--CODEGEN--\":2:4   */\n              iszero\n              tag_74\n              jumpi\n                /* \"--CODEGEN--\":29:30   */\n              0x00\n                /* \"--CODEGEN--\":26:27   */\n              dup1\n                /* \"--CODEGEN--\":19:31   */\n              revert\n                /* \"--CODEGEN--\":2:4   */\n            tag_74:\n              pop\n                /* \"MAAL Blockchain/RamzSwap/Core/FlattenedFactory.sol\":14633:15874  function mint(address to) external lock returns (uint liquidity) {\r... */\n              calldataload\n              sub(shl(0xa0, 0x01), 0x01)\n              and\n              tag_75\n              jump\t// in\n                /* \"MAAL Blockchain/RamzSwap/Core/FlattenedFactory.sol\":7195:7236  mapping(address => uint) public balanceOf */\n            tag_17:\n              tag_55\n              0x04\n              dup1\n              calldatasize\n              sub\n                /* \"--CODEGEN--\":13:15   */\n              0x20\n                /* \"--CODEGEN--\":8:11   */\n              dup2\n                /* \"--CODEGEN--\":5:16   */\n              lt\n                /* \"--CODEGEN--\":2:4   */\n              iszero\n              tag_77\n              jumpi\n                /* \"--CODEGEN--\":29:30   */\n              0x00\n                /* \"--CODEGEN--\":26:27   */\n              dup1\n                /* \"--CODEGEN--\":19:31   */\n              revert\n                /* \"--CODEGEN--\":2:4   */\n            tag_77:\n              pop\n                /* \"MAAL Blockchain/RamzSwap/Core/FlattenedFactory.sol\":7195:7236  mapping(address => uint) public balanceOf */\n              calldataload\n              sub(shl(0xa0, 0x01), 0x01)\n              and\n              tag_78\n              jump\t// in\n                /* \"MAAL Blockchain/RamzSwap/Core/FlattenedFactory.sol\":11102:11119  uint public kLast */\n            tag_18:\n              tag_55\n              tag_80\n              jump\t// in\n                /* \"MAAL Blockchain/RamzSwap/Core/FlattenedFactory.sol\":7571:7609  mapping(address => uint) public nonces */\n            tag_19:\n              tag_55\n              0x04\n              dup1\n              calldatasize\n              sub\n                /* \"--CODEGEN--\":13:15   */\n              0x20\n                /* \"--CODEGEN--\":8:11   */\n              dup2\n                /* \"--CODEGEN--\":5:16   */\n              lt\n                /* \"--CODEGEN--\":2:4   */\n              iszero\n              tag_82\n              jumpi\n                /* \"--CODEGEN--\":29:30   */\n              0x00\n                /* \"--CODEGEN--\":26:27   */\n              dup1\n                /* \"--CODEGEN--\":19:31   */\n              revert\n                /* \"--CODEGEN--\":2:4   */\n            tag_82:\n              pop\n                /* \"MAAL Blockchain/RamzSwap/Core/FlattenedFactory.sol\":7571:7609  mapping(address => uint) public nonces */\n              calldataload\n              sub(shl(0xa0, 0x01), 0x01)\n              and\n              tag_83\n              jump\t// in\n                /* \"MAAL Blockchain/RamzSwap/Core/FlattenedFactory.sol\":15986:17455  function burn(address to) external lock returns (uint amount0, uint amount1) {\r... */\n            tag_20:\n              tag_84\n              0x04\n              dup1\n              calldatasize\n              sub\n                /* \"--CODEGEN--\":13:15   */\n              0x20\n                /* \"--CODEGEN--\":8:11   */\n              dup2\n                /* \"--CODEGEN--\":5:16   */\n              lt\n                /* \"--CODEGEN--\":2:4   */\n              iszero\n              tag_85\n              jumpi\n                /* \"--CODEGEN--\":29:30   */\n              0x00\n                /* \"--CODEGEN--\":26:27   */\n              dup1\n                /* \"--CODEGEN--\":19:31   */\n              revert\n                /* \"--CODEGEN--\":2:4   */\n            tag_85:\n              pop\n                /* \"MAAL Blockchain/RamzSwap/Core/FlattenedFactory.sol\":15986:17455  function burn(address to) external lock returns (uint amount0, uint amount1) {\r... */\n              calldataload\n              sub(shl(0xa0, 0x01), 0x01)\n              and\n              tag_86\n              jump\t// in\n            tag_84:\n              0x40\n              dup1\n              mload\n              swap3\n              dup4\n              mstore\n              0x20\n              dup4\n              add\n              swap2\n              swap1\n              swap2\n              mstore\n              dup1\n              mload\n              swap2\n              dup3\n              swap1\n              sub\n              add\n              swap1\n              return\n                /* \"MAAL Blockchain/RamzSwap/Core/FlattenedFactory.sol\":7078:7115  string public constant symbol = 'RMZ' */\n            tag_21:\n              tag_42\n              tag_88\n              jump\t// in\n                /* \"MAAL Blockchain/RamzSwap/Core/FlattenedFactory.sol\":9228:9367  function transfer(address to, uint value) external returns (bool) {\r... */\n            tag_22:\n              tag_50\n              0x04\n              dup1\n              calldatasize\n              sub\n                /* \"--CODEGEN--\":13:15   */\n              0x40\n                /* \"--CODEGEN--\":8:11   */\n              dup2\n                /* \"--CODEGEN--\":5:16   */\n              lt\n                /* \"--CODEGEN--\":2:4   */\n              iszero\n              tag_94\n              jumpi\n                /* \"--CODEGEN--\":29:30   */\n              0x00\n                /* \"--CODEGEN--\":26:27   */\n              dup1\n                /* \"--CODEGEN--\":19:31   */\n              revert\n                /* \"--CODEGEN--\":2:4   */\n            tag_94:\n              pop\n                /* \"MAAL Blockchain/RamzSwap/Core/FlattenedFactory.sol\":9228:9367  function transfer(address to, uint value) external returns (bool) {\r... */\n              dup1\n              calldataload\n              sub(shl(0xa0, 0x01), 0x01)\n              and\n              swap1\n              0x20\n              add\n              calldataload\n              tag_95\n              jump\t// in\n                /* \"MAAL Blockchain/RamzSwap/Core/FlattenedFactory.sol\":10494:10540  uint public constant MINIMUM_LIQUIDITY = 10**3 */\n            tag_23:\n              tag_55\n              tag_97\n              jump\t// in\n                /* \"MAAL Blockchain/RamzSwap/Core/FlattenedFactory.sol\":19500:19836  function skim(address to) external lock {\r... */\n            tag_24:\n              tag_36\n              0x04\n              dup1\n              calldatasize\n              sub\n                /* \"--CODEGEN--\":13:15   */\n              0x20\n                /* \"--CODEGEN--\":8:11   */\n              dup2\n                /* \"--CODEGEN--\":5:16   */\n              lt\n                /* \"--CODEGEN--\":2:4   */\n              iszero\n              tag_99\n              jumpi\n                /* \"--CODEGEN--\":29:30   */\n              0x00\n                /* \"--CODEGEN--\":26:27   */\n              dup1\n                /* \"--CODEGEN--\":19:31   */\n              revert\n                /* \"--CODEGEN--\":2:4   */\n            tag_99:\n              pop\n                /* \"MAAL Blockchain/RamzSwap/Core/FlattenedFactory.sol\":19500:19836  function skim(address to) external lock {\r... */\n              calldataload\n              sub(shl(0xa0, 0x01), 0x01)\n              and\n              tag_100\n              jump\t// in\n                /* \"MAAL Blockchain/RamzSwap/Core/FlattenedFactory.sol\":10644:10666  address public factory */\n            tag_25:\n              tag_53\n              tag_102\n              jump\t// in\n                /* \"MAAL Blockchain/RamzSwap/Core/FlattenedFactory.sol\":10701:10722  address public token1 */\n            tag_26:\n              tag_53\n              tag_104\n              jump\t// in\n                /* \"MAAL Blockchain/RamzSwap/Core/FlattenedFactory.sol\":9684:10358  function permit(address owner, address spender, uint value, uint deadline, uint8 v, bytes32 r, bytes32 s) external {\r... */\n            tag_27:\n              tag_36\n              0x04\n              dup1\n              calldatasize\n              sub\n                /* \"--CODEGEN--\":13:16   */\n              0xe0\n                /* \"--CODEGEN--\":8:11   */\n              dup2\n                /* \"--CODEGEN--\":5:17   */\n              lt\n                /* \"--CODEGEN--\":2:4   */\n              iszero\n              tag_106\n              jumpi\n                /* \"--CODEGEN--\":30:31   */\n              0x00\n                /* \"--CODEGEN--\":27:28   */\n              dup1\n                /* \"--CODEGEN--\":20:32   */\n              revert\n                /* \"--CODEGEN--\":2:4   */\n            tag_106:\n              pop\n              sub(shl(0xa0, 0x01), 0x01)\n                /* \"MAAL Blockchain/RamzSwap/Core/FlattenedFactory.sol\":9684:10358  function permit(address owner, address spender, uint value, uint deadline, uint8 v, bytes32 r, bytes32 s) external {\r... */\n              dup2\n              calldataload\n              dup2\n              and\n              swap2\n              0x20\n              dup2\n              add\n              calldataload\n              swap1\n              swap2\n              and\n              swap1\n              0x40\n              dup2\n              add\n              calldataload\n              swap1\n              0x60\n              dup2\n              add\n              calldataload\n              swap1\n              0xff\n              0x80\n              dup3\n              add\n              calldataload\n              and\n              swap1\n              0xa0\n              dup2\n              add\n              calldataload\n              swap1\n              0xc0\n              add\n              calldataload\n              tag_107\n              jump\t// in\n                /* \"MAAL Blockchain/RamzSwap/Core/FlattenedFactory.sol\":7243:7304  mapping(address => mapping(address => uint)) public allowance */\n            tag_28:\n              tag_55\n              0x04\n              dup1\n              calldatasize\n              sub\n                /* \"--CODEGEN--\":13:15   */\n              0x40\n                /* \"--CODEGEN--\":8:11   */\n              dup2\n                /* \"--CODEGEN--\":5:16   */\n              lt\n                /* \"--CODEGEN--\":2:4   */\n              iszero\n              tag_109\n              jumpi\n                /* \"--CODEGEN--\":29:30   */\n              0x00\n                /* \"--CODEGEN--\":26:27   */\n              dup1\n                /* \"--CODEGEN--\":19:31   */\n              revert\n                /* \"--CODEGEN--\":2:4   */\n            tag_109:\n              pop\n              sub(shl(0xa0, 0x01), 0x01)\n                /* \"MAAL Blockchain/RamzSwap/Core/FlattenedFactory.sol\":7243:7304  mapping(address => mapping(address => uint)) public allowance */\n              dup2\n              calldataload\n              dup2\n              and\n              swap2\n              0x20\n              add\n              calldataload\n              and\n              tag_110\n              jump\t// in\n                /* \"MAAL Blockchain/RamzSwap/Core/FlattenedFactory.sol\":19885:20045  function sync() external lock {\r... */\n            tag_29:\n              tag_36\n              tag_112\n              jump\t// in\n                /* \"MAAL Blockchain/RamzSwap/Core/FlattenedFactory.sol\":17567:19451  function swap(uint amount0Out, uint amount1Out, address to, bytes calldata data) external lock {\r... */\n            tag_41:\n                /* \"MAAL Blockchain/RamzSwap/Core/FlattenedFactory.sol\":11275:11283  unlocked */\n              sload(0x0c)\n                /* \"MAAL Blockchain/RamzSwap/Core/FlattenedFactory.sol\":11287:11288  1 */\n              0x01\n                /* \"MAAL Blockchain/RamzSwap/Core/FlattenedFactory.sol\":11275:11288  unlocked == 1 */\n              eq\n                /* \"MAAL Blockchain/RamzSwap/Core/FlattenedFactory.sol\":11267:11309  require(unlocked == 1, 'RamzSwap: LOCKED') */\n              tag_114\n              jumpi\n              0x40\n              dup1\n              mload\n              shl(0xe5, 0x461bcd)\n              dup2\n              mstore\n              0x20\n              0x04\n              dup3\n              add\n              mstore\n              0x10\n              0x24\n              dup3\n              add\n              mstore\n              shl(0x82, 0x14985b5e94ddd85c0e881313d0d2d151)\n              0x44\n              dup3\n              add\n              mstore\n              swap1\n              mload\n              swap1\n              dup2\n              swap1\n              sub\n              0x64\n              add\n              swap1\n              revert\n            tag_114:\n                /* \"MAAL Blockchain/RamzSwap/Core/FlattenedFactory.sol\":11331:11332  0 */\n              0x00\n                /* \"MAAL Blockchain/RamzSwap/Core/FlattenedFactory.sol\":11320:11328  unlocked */\n              0x0c\n                /* \"MAAL Blockchain/RamzSwap/Core/FlattenedFactory.sol\":11320:11332  unlocked = 0 */\n              sstore\n                /* \"MAAL Blockchain/RamzSwap/Core/FlattenedFactory.sol\":17681:17695  amount0Out > 0 */\n              dup5\n              iszero\n              iszero\n              dup1\n                /* \"MAAL Blockchain/RamzSwap/Core/FlattenedFactory.sol\":17681:17713  amount0Out > 0 || amount1Out > 0 */\n              tag_116\n              jumpi\n              pop\n                /* \"MAAL Blockchain/RamzSwap/Core/FlattenedFactory.sol\":17712:17713  0 */\n              0x00\n                /* \"MAAL Blockchain/RamzSwap/Core/FlattenedFactory.sol\":17699:17709  amount1Out */\n              dup5\n                /* \"MAAL Blockchain/RamzSwap/Core/FlattenedFactory.sol\":17699:17713  amount1Out > 0 */\n              gt\n                /* \"MAAL Blockchain/RamzSwap/Core/FlattenedFactory.sol\":17681:17713  amount0Out > 0 || amount1Out > 0 */\n            tag_116:\n                /* \"MAAL Blockchain/RamzSwap/Core/FlattenedFactory.sol\":17673:17754  require(amount0Out > 0 || amount1Out > 0, 'RamzSwap: INSUFFICIENT_OUTPUT_AMOUNT') */\n              tag_117\n              jumpi\n              mload(0x40)\n              shl(0xe5, 0x461bcd)\n              dup2\n              mstore\n              0x04\n              add\n              dup1\n              dup1\n              0x20\n              add\n              dup3\n              dup2\n              sub\n              dup3\n              mstore\n              0x24\n              dup2\n              mstore\n              0x20\n              add\n              dup1\n              data_1eb94293c4a4d5674559e3ad3f859618f3acd1a153b8eb64c8afa2f321bcad53\n              0x24\n              swap2\n              codecopy\n              0x40\n              add\n              swap2\n              pop\n              pop\n              mload(0x40)\n              dup1\n              swap2\n              sub\n              swap1\n              revert\n            tag_117:\n                /* \"MAAL Blockchain/RamzSwap/Core/FlattenedFactory.sol\":17766:17783  uint112 _reserve0 */\n              0x00\n                /* \"MAAL Blockchain/RamzSwap/Core/FlattenedFactory.sol\":17785:17802  uint112 _reserve1 */\n              dup1\n                /* \"MAAL Blockchain/RamzSwap/Core/FlattenedFactory.sol\":17807:17820  getReserves() */\n              tag_118\n                /* \"MAAL Blockchain/RamzSwap/Core/FlattenedFactory.sol\":17807:17818  getReserves */\n              tag_49\n                /* \"MAAL Blockchain/RamzSwap/Core/FlattenedFactory.sol\":17807:17820  getReserves() */\n              jump\t// in\n            tag_118:\n              pop\n                /* \"MAAL Blockchain/RamzSwap/Core/FlattenedFactory.sol\":17765:17820  (uint112 _reserve0, uint112 _reserve1,) = getReserves() */\n              swap1\n              swap3\n              pop\n              swap1\n              pop\n              sub(shl(0x70, 0x01), 0x01)\n                /* \"MAAL Blockchain/RamzSwap/Core/FlattenedFactory.sol\":17854:17876  amount0Out < _reserve0 */\n              dup3\n              and\n              dup8\n              lt\n                /* \"MAAL Blockchain/RamzSwap/Core/FlattenedFactory.sol\":17854:17902  amount0Out < _reserve0 && amount1Out < _reserve1 */\n              dup1\n              iszero\n              tag_119\n              jumpi\n              pop\n              sub(shl(0x70, 0x01), 0x01)\n                /* \"MAAL Blockchain/RamzSwap/Core/FlattenedFactory.sol\":17880:17902  amount1Out < _reserve1 */\n              dup2\n              and\n              dup7\n              lt\n                /* \"MAAL Blockchain/RamzSwap/Core/FlattenedFactory.sol\":17854:17902  amount0Out < _reserve0 && amount1Out < _reserve1 */\n            tag_119:\n                /* \"MAAL Blockchain/RamzSwap/Core/FlattenedFactory.sol\":17846:17939  require(amount0Out < _reserve0 && amount1Out < _reserve1, 'RamzSwap: INSUFFICIENT_LIQUIDITY') */\n              tag_120\n              jumpi\n              0x40\n              dup1\n              mload\n              shl(0xe5, 0x461bcd)\n              dup2\n              mstore\n              0x20\n              0x04\n              dup3\n              add\n              dup2\n              swap1\n              mstore\n              0x24\n              dup3\n              add\n              mstore\n              0x52616d7a537761703a20494e53554646494349454e545f4c4951554944495459\n              0x44\n              dup3\n              add\n              mstore\n              swap1\n              mload\n              swap1\n              dup2\n              swap1\n              sub\n              0x64\n              add\n              swap1\n              revert\n            tag_120:\n                /* \"MAAL Blockchain/RamzSwap/Core/FlattenedFactory.sol\":18084:18090  token0 */\n              sload(0x06)\n                /* \"MAAL Blockchain/RamzSwap/Core/FlattenedFactory.sol\":18119:18125  token1 */\n              sload(0x07)\n                /* \"MAAL Blockchain/RamzSwap/Core/FlattenedFactory.sol\":17952:17965  uint balance0 */\n              0x00\n              swap2\n              dup3\n              swap2\n              sub(shl(0xa0, 0x01), 0x01)\n                /* \"MAAL Blockchain/RamzSwap/Core/FlattenedFactory.sol\":18084:18090  token0 */\n              swap2\n              dup3\n              and\n              swap2\n                /* \"MAAL Blockchain/RamzSwap/Core/FlattenedFactory.sol\":18119:18125  token1 */\n              swap1\n              dup2\n              and\n              swap1\n                /* \"MAAL Blockchain/RamzSwap/Core/FlattenedFactory.sol\":18144:18157  to != _token0 */\n              dup10\n              and\n              dup3\n              eq\n              dup1\n              iszero\n              swap1\n                /* \"MAAL Blockchain/RamzSwap/Core/FlattenedFactory.sol\":18144:18174  to != _token0 && to != _token1 */\n              tag_121\n              jumpi\n              pop\n              sub(shl(0xa0, 0x01), 0x01)\n                /* \"MAAL Blockchain/RamzSwap/Core/FlattenedFactory.sol\":18161:18174  to != _token1 */\n              dup10\n              dup2\n              and\n              swap1\n              dup3\n              and\n              eq\n              iszero\n                /* \"MAAL Blockchain/RamzSwap/Core/FlattenedFactory.sol\":18144:18174  to != _token0 && to != _token1 */\n            tag_121:\n                /* \"MAAL Blockchain/RamzSwap/Core/FlattenedFactory.sol\":18136:18199  require(to != _token0 && to != _token1, 'RamzSwap: INVALID_TO') */\n              tag_122\n              jumpi\n              0x40\n              dup1\n              mload\n              shl(0xe5, 0x461bcd)\n              dup2\n              mstore\n              0x20\n              0x04\n              dup3\n              add\n              mstore\n              0x14\n              0x24\n              dup3\n              add\n              mstore\n              shl(0x60, 0x52616d7a537761703a20494e56414c49445f544f)\n              0x44\n              dup3\n              add\n              mstore\n              swap1\n              mload\n              swap1\n              dup2\n              swap1\n              sub\n              0x64\n              add\n              swap1\n              revert\n            tag_122:\n                /* \"MAAL Blockchain/RamzSwap/Core/FlattenedFactory.sol\":18214:18228  amount0Out > 0 */\n              dup11\n              iszero\n                /* \"MAAL Blockchain/RamzSwap/Core/FlattenedFactory.sol\":18210:18268  if (amount0Out > 0) _safeTransfer(_token0, to, amount0Out) */\n              tag_124\n              jumpi\n                /* \"MAAL Blockchain/RamzSwap/Core/FlattenedFactory.sol\":18230:18268  _safeTransfer(_token0, to, amount0Out) */\n              tag_124\n                /* \"MAAL Blockchain/RamzSwap/Core/FlattenedFactory.sol\":18244:18251  _token0 */\n              dup3\n                /* \"MAAL Blockchain/RamzSwap/Core/FlattenedFactory.sol\":18253:18255  to */\n              dup11\n                /* \"MAAL Blockchain/RamzSwap/Core/FlattenedFactory.sol\":18257:18267  amount0Out */\n              dup14\n                /* \"MAAL Blockchain/RamzSwap/Core/FlattenedFactory.sol\":18230:18243  _safeTransfer */\n              tag_125\n                /* \"MAAL Blockchain/RamzSwap/Core/FlattenedFactory.sol\":18230:18268  _safeTransfer(_token0, to, amount0Out) */\n              jump\t// in\n            tag_124:\n                /* \"MAAL Blockchain/RamzSwap/Core/FlattenedFactory.sol\":18317:18331  amount1Out > 0 */\n              dup10\n              iszero\n                /* \"MAAL Blockchain/RamzSwap/Core/FlattenedFactory.sol\":18313:18371  if (amount1Out > 0) _safeTransfer(_token1, to, amount1Out) */\n              tag_127\n              jumpi\n                /* \"MAAL Blockchain/RamzSwap/Core/FlattenedFactory.sol\":18333:18371  _safeTransfer(_token1, to, amount1Out) */\n              tag_127\n                /* \"MAAL Blockchain/RamzSwap/Core/FlattenedFactory.sol\":18347:18354  _token1 */\n              dup2\n                /* \"MAAL Blockchain/RamzSwap/Core/FlattenedFactory.sol\":18356:18358  to */\n              dup11\n                /* \"MAAL Blockchain/RamzSwap/Core/FlattenedFactory.sol\":18360:18370  amount1Out */\n              dup13\n                /* \"MAAL Blockchain/RamzSwap/Core/FlattenedFactory.sol\":18333:18346  _safeTransfer */\n              tag_125\n                /* \"MAAL Blockchain/RamzSwap/Core/FlattenedFactory.sol\":18333:18371  _safeTransfer(_token1, to, amount1Out) */\n              jump\t// in\n            tag_127:\n                /* \"MAAL Blockchain/RamzSwap/Core/FlattenedFactory.sol\":18420:18435  data.length > 0 */\n              dup7\n              iszero\n                /* \"MAAL Blockchain/RamzSwap/Core/FlattenedFactory.sol\":18416:18511  if (data.length > 0) IRamzSwapCallee(to).ramzSwapCall(msg.sender, amount0Out, amount1Out, data) */\n              tag_128\n              jumpi\n                /* \"MAAL Blockchain/RamzSwap/Core/FlattenedFactory.sol\":18453:18455  to */\n              dup9\n              0x01\n              dup1\n              0xa0\n              shl\n              sub\n                /* \"MAAL Blockchain/RamzSwap/Core/FlattenedFactory.sol\":18437:18469  IRamzSwapCallee(to).ramzSwapCall */\n              and\n              0xb66bf2ea\n                /* \"MAAL Blockchain/RamzSwap/Core/FlattenedFactory.sol\":18470:18480  msg.sender */\n              caller\n                /* \"MAAL Blockchain/RamzSwap/Core/FlattenedFactory.sol\":18482:18492  amount0Out */\n              dup14\n                /* \"MAAL Blockchain/RamzSwap/Core/FlattenedFactory.sol\":18494:18504  amount1Out */\n              dup14\n                /* \"MAAL Blockchain/RamzSwap/Core/FlattenedFactory.sol\":18506:18510  data */\n              dup13\n              dup13\n                /* \"MAAL Blockchain/RamzSwap/Core/FlattenedFactory.sol\":18437:18511  IRamzSwapCallee(to).ramzSwapCall(msg.sender, amount0Out, amount1Out, data) */\n              mload(0x40)\n              dup7\n              0xffffffff\n              and\n              0xe0\n              shl\n              dup2\n              mstore\n              0x04\n              add\n              dup1\n              dup7\n              0x01\n              dup1\n              0xa0\n              shl\n              sub\n              and\n              0x01\n              dup1\n              0xa0\n              shl\n              sub\n              and\n              dup2\n              mstore\n              0x20\n              add\n              dup6\n              dup2\n              mstore\n              0x20\n              add\n              dup5\n              dup2\n              mstore\n              0x20\n              add\n              dup1\n              0x20\n              add\n              dup3\n              dup2\n              sub\n              dup3\n              mstore\n              dup5\n              dup5\n              dup3\n              dup2\n              dup2\n              mstore\n              0x20\n              add\n              swap3\n              pop\n                /* \"--CODEGEN--\":30:33   */\n              dup1\n                /* \"--CODEGEN--\":22:28   */\n              dup3\n                /* \"--CODEGEN--\":14:20   */\n              dup5\n                /* \"--CODEGEN--\":1:34   */\n              calldatacopy\n                /* \"--CODEGEN--\":99:100   */\n              0x00\n                /* \"--CODEGEN--\":93:96   */\n              dup2\n                /* \"--CODEGEN--\":85:91   */\n              dup5\n                /* \"--CODEGEN--\":81:97   */\n              add\n                /* \"--CODEGEN--\":74:101   */\n              mstore\n                /* \"--CODEGEN--\":137:141   */\n              0x1f\n                /* \"--CODEGEN--\":133:142   */\n              not\n                /* \"--CODEGEN--\":126:130   */\n              0x1f\n                /* \"--CODEGEN--\":121:124   */\n              dup3\n                /* \"--CODEGEN--\":117:131   */\n              add\n                /* \"--CODEGEN--\":113:143   */\n              and\n                /* \"--CODEGEN--\":106:143   */\n              swap1\n              pop\n                /* \"--CODEGEN--\":169:172   */\n              dup1\n                /* \"--CODEGEN--\":161:167   */\n              dup4\n                /* \"--CODEGEN--\":157:173   */\n              add\n                /* \"--CODEGEN--\":147:173   */\n              swap3\n              pop\n                /* \"MAAL Blockchain/RamzSwap/Core/FlattenedFactory.sol\":18437:18511  IRamzSwapCallee(to).ramzSwapCall(msg.sender, amount0Out, amount1Out, data) */\n              pop\n              pop\n              swap7\n              pop\n              pop\n              pop\n              pop\n              pop\n              pop\n              pop\n              0x00\n              mload(0x40)\n              dup1\n              dup4\n              sub\n              dup2\n              0x00\n              dup8\n              dup1\n              extcodesize\n              iszero\n                /* \"--CODEGEN--\":8:17   */\n              dup1\n                /* \"--CODEGEN--\":5:7   */\n              iszero\n              tag_129\n              jumpi\n                /* \"--CODEGEN--\":30:31   */\n              0x00\n                /* \"--CODEGEN--\":27:28   */\n              dup1\n                /* \"--CODEGEN--\":20:32   */\n              revert\n                /* \"--CODEGEN--\":5:7   */\n            tag_129:\n                /* \"MAAL Blockchain/RamzSwap/Core/FlattenedFactory.sol\":18437:18511  IRamzSwapCallee(to).ramzSwapCall(msg.sender, amount0Out, amount1Out, data) */\n              pop\n              gas\n              call\n              iszero\n                /* \"--CODEGEN--\":8:17   */\n              dup1\n                /* \"--CODEGEN--\":5:7   */\n              iszero\n              tag_130\n              jumpi\n                /* \"--CODEGEN--\":45:61   */\n              returndatasize\n                /* \"--CODEGEN--\":42:43   */\n              0x00\n                /* \"--CODEGEN--\":39:40   */\n              dup1\n                /* \"--CODEGEN--\":24:62   */\n              returndatacopy\n                /* \"--CODEGEN--\":77:93   */\n              returndatasize\n                /* \"--CODEGEN--\":74:75   */\n              0x00\n                /* \"--CODEGEN--\":67:94   */\n              revert\n                /* \"--CODEGEN--\":5:7   */\n            tag_130:\n                /* \"MAAL Blockchain/RamzSwap/Core/FlattenedFactory.sol\":18437:18511  IRamzSwapCallee(to).ramzSwapCall(msg.sender, amount0Out, amount1Out, data) */\n              pop\n              pop\n              pop\n              pop\n                /* \"MAAL Blockchain/RamzSwap/Core/FlattenedFactory.sol\":18416:18511  if (data.length > 0) IRamzSwapCallee(to).ramzSwapCall(msg.sender, amount0Out, amount1Out, data) */\n            tag_128:\n                /* \"MAAL Blockchain/RamzSwap/Core/FlattenedFactory.sol\":18533:18574  IMAAL20(_token0).balanceOf(address(this)) */\n              0x40\n              dup1\n              mload\n              shl(0xe0, 0x70a08231)\n              dup2\n              mstore\n                /* \"MAAL Blockchain/RamzSwap/Core/FlattenedFactory.sol\":18568:18572  this */\n              address\n                /* \"MAAL Blockchain/RamzSwap/Core/FlattenedFactory.sol\":18533:18574  IMAAL20(_token0).balanceOf(address(this)) */\n              0x04\n              dup3\n              add\n              mstore\n              swap1\n              mload\n              sub(shl(0xa0, 0x01), 0x01)\n                /* \"MAAL Blockchain/RamzSwap/Core/FlattenedFactory.sol\":18533:18559  IMAAL20(_token0).balanceOf */\n              dup5\n              and\n              swap2\n              0x70a08231\n              swap2\n                /* \"MAAL Blockchain/RamzSwap/Core/FlattenedFactory.sol\":18533:18574  IMAAL20(_token0).balanceOf(address(this)) */\n              0x24\n              dup1\n              dup4\n              add\n              swap3\n              0x20\n              swap3\n              swap2\n              swap1\n              dup3\n              swap1\n              sub\n              add\n              dup2\n                /* \"MAAL Blockchain/RamzSwap/Core/FlattenedFactory.sol\":18533:18559  IMAAL20(_token0).balanceOf */\n              dup7\n                /* \"MAAL Blockchain/RamzSwap/Core/FlattenedFactory.sol\":18533:18574  IMAAL20(_token0).balanceOf(address(this)) */\n              dup1\n              extcodesize\n              iszero\n                /* \"--CODEGEN--\":5:7   */\n              dup1\n              iszero\n              tag_131\n              jumpi\n                /* \"--CODEGEN--\":30:31   */\n              0x00\n                /* \"--CODEGEN--\":27:28   */\n              dup1\n                /* \"--CODEGEN--\":20:32   */\n              revert\n                /* \"--CODEGEN--\":5:7   */\n            tag_131:\n                /* \"MAAL Blockchain/RamzSwap/Core/FlattenedFactory.sol\":18533:18574  IMAAL20(_token0).balanceOf(address(this)) */\n              pop\n              gas\n              staticcall\n              iszero\n                /* \"--CODEGEN--\":8:17   */\n              dup1\n                /* \"--CODEGEN--\":5:7   */\n              iszero\n              tag_132\n              jumpi\n                /* \"--CODEGEN--\":45:61   */\n              returndatasize\n                /* \"--CODEGEN--\":42:43   */\n              0x00\n                /* \"--CODEGEN--\":39:40   */\n              dup1\n                /* \"--CODEGEN--\":24:62   */\n              returndatacopy\n                /* \"--CODEGEN--\":77:93   */\n              returndatasize\n                /* \"--CODEGEN--\":74:75   */\n              0x00\n                /* \"--CODEGEN--\":67:94   */\n              revert\n                /* \"--CODEGEN--\":5:7   */\n            tag_132:\n                /* \"MAAL Blockchain/RamzSwap/Core/FlattenedFactory.sol\":18533:18574  IMAAL20(_token0).balanceOf(address(this)) */\n              pop\n              pop\n              pop\n              pop\n              mload(0x40)\n              returndatasize\n                /* \"--CODEGEN--\":13:15   */\n              0x20\n                /* \"--CODEGEN--\":8:11   */\n              dup2\n                /* \"--CODEGEN--\":5:16   */\n              lt\n                /* \"--CODEGEN--\":2:4   */\n              iszero\n              tag_133\n              jumpi\n                /* \"--CODEGEN--\":29:30   */\n              0x00\n                /* \"--CODEGEN--\":26:27   */\n              dup1\n                /* \"--CODEGEN--\":19:31   */\n              revert\n                /* \"--CODEGEN--\":2:4   */\n            tag_133:\n              pop\n                /* \"MAAL Blockchain/RamzSwap/Core/FlattenedFactory.sol\":18533:18574  IMAAL20(_token0).balanceOf(address(this)) */\n              mload\n                /* \"MAAL Blockchain/RamzSwap/Core/FlattenedFactory.sol\":18596:18637  IMAAL20(_token1).balanceOf(address(this)) */\n              0x40\n              dup1\n              mload\n              shl(0xe0, 0x70a08231)\n              dup2\n              mstore\n                /* \"MAAL Blockchain/RamzSwap/Core/FlattenedFactory.sol\":18631:18635  this */\n              address\n                /* \"MAAL Blockchain/RamzSwap/Core/FlattenedFactory.sol\":18596:18637  IMAAL20(_token1).balanceOf(address(this)) */\n              0x04\n              dup3\n              add\n              mstore\n              swap1\n              mload\n                /* \"MAAL Blockchain/RamzSwap/Core/FlattenedFactory.sol\":18533:18574  IMAAL20(_token0).balanceOf(address(this)) */\n              swap2\n              swap6\n              pop\n              sub(shl(0xa0, 0x01), 0x01)\n                /* \"MAAL Blockchain/RamzSwap/Core/FlattenedFactory.sol\":18596:18622  IMAAL20(_token1).balanceOf */\n              dup4\n              and\n              swap2\n              0x70a08231\n              swap2\n                /* \"MAAL Blockchain/RamzSwap/Core/FlattenedFactory.sol\":18596:18637  IMAAL20(_token1).balanceOf(address(this)) */\n              0x24\n              dup1\n              dup3\n              add\n              swap3\n                /* \"MAAL Blockchain/RamzSwap/Core/FlattenedFactory.sol\":18533:18574  IMAAL20(_token0).balanceOf(address(this)) */\n              0x20\n              swap3\n                /* \"MAAL Blockchain/RamzSwap/Core/FlattenedFactory.sol\":18596:18637  IMAAL20(_token1).balanceOf(address(this)) */\n              swap1\n              swap2\n              swap1\n              dup3\n              swap1\n              sub\n              add\n              dup2\n                /* \"MAAL Blockchain/RamzSwap/Core/FlattenedFactory.sol\":18596:18622  IMAAL20(_token1).balanceOf */\n              dup7\n                /* \"MAAL Blockchain/RamzSwap/Core/FlattenedFactory.sol\":18596:18637  IMAAL20(_token1).balanceOf(address(this)) */\n              dup1\n              extcodesize\n              iszero\n                /* \"--CODEGEN--\":5:7   */\n              dup1\n              iszero\n              tag_134\n              jumpi\n                /* \"--CODEGEN--\":30:31   */\n              0x00\n                /* \"--CODEGEN--\":27:28   */\n              dup1\n                /* \"--CODEGEN--\":20:32   */\n              revert\n                /* \"--CODEGEN--\":5:7   */\n            tag_134:\n                /* \"MAAL Blockchain/RamzSwap/Core/FlattenedFactory.sol\":18596:18637  IMAAL20(_token1).balanceOf(address(this)) */\n              pop\n              gas\n              staticcall\n              iszero\n                /* \"--CODEGEN--\":8:17   */\n              dup1\n                /* \"--CODEGEN--\":5:7   */\n              iszero\n              tag_135\n              jumpi\n                /* \"--CODEGEN--\":45:61   */\n              returndatasize\n                /* \"--CODEGEN--\":42:43   */\n              0x00\n                /* \"--CODEGEN--\":39:40   */\n              dup1\n                /* \"--CODEGEN--\":24:62   */\n              returndatacopy\n                /* \"--CODEGEN--\":77:93   */\n              returndatasize\n                /* \"--CODEGEN--\":74:75   */\n              0x00\n                /* \"--CODEGEN--\":67:94   */\n              revert\n                /* \"--CODEGEN--\":5:7   */\n            tag_135:\n                /* \"MAAL Blockchain/RamzSwap/Core/FlattenedFactory.sol\":18596:18637  IMAAL20(_token1).balanceOf(address(this)) */\n              pop\n              pop\n              pop\n              pop\n              mload(0x40)\n              returndatasize\n                /* \"--CODEGEN--\":13:15   */\n              0x20\n                /* \"--CODEGEN--\":8:11   */\n              dup2\n                /* \"--CODEGEN--\":5:16   */\n              lt\n                /* \"--CODEGEN--\":2:4   */\n              iszero\n              tag_136\n              jumpi\n                /* \"--CODEGEN--\":29:30   */\n              0x00\n                /* \"--CODEGEN--\":26:27   */\n              dup1\n                /* \"--CODEGEN--\":19:31   */\n              revert\n                /* \"--CODEGEN--\":2:4   */\n            tag_136:\n              pop\n                /* \"MAAL Blockchain/RamzSwap/Core/FlattenedFactory.sol\":18596:18637  IMAAL20(_token1).balanceOf(address(this)) */\n              mload\n              swap3\n              pop\n                /* \"MAAL Blockchain/RamzSwap/Core/FlattenedFactory.sol\":18659:18673  uint amount0In */\n              0x00\n              swap2\n              pop\n              pop\n              sub(shl(0x70, 0x01), 0x01)\n                /* \"MAAL Blockchain/RamzSwap/Core/FlattenedFactory.sol\":18687:18709  _reserve0 - amount0Out */\n              dup6\n              and\n              dup11\n              swap1\n              sub\n                /* \"MAAL Blockchain/RamzSwap/Core/FlattenedFactory.sol\":18676:18709  balance0 > _reserve0 - amount0Out */\n              dup4\n              gt\n                /* \"MAAL Blockchain/RamzSwap/Core/FlattenedFactory.sol\":18676:18751  balance0 > _reserve0 - amount0Out ? balance0 - (_reserve0 - amount0Out) : 0 */\n              tag_137\n              jumpi\n                /* \"MAAL Blockchain/RamzSwap/Core/FlattenedFactory.sol\":18750:18751  0 */\n              0x00\n                /* \"MAAL Blockchain/RamzSwap/Core/FlattenedFactory.sol\":18676:18751  balance0 > _reserve0 - amount0Out ? balance0 - (_reserve0 - amount0Out) : 0 */\n              jump(tag_138)\n            tag_137:\n              sub(shl(0x70, 0x01), 0x01)\n                /* \"MAAL Blockchain/RamzSwap/Core/FlattenedFactory.sol\":18724:18746  _reserve0 - amount0Out */\n              dup6\n              and\n              dup11\n              swap1\n              sub\n                /* \"MAAL Blockchain/RamzSwap/Core/FlattenedFactory.sol\":18712:18747  balance0 - (_reserve0 - amount0Out) */\n              dup4\n              sub\n                /* \"MAAL Blockchain/RamzSwap/Core/FlattenedFactory.sol\":18676:18751  balance0 > _reserve0 - amount0Out ? balance0 - (_reserve0 - amount0Out) : 0 */\n            tag_138:\n                /* \"MAAL Blockchain/RamzSwap/Core/FlattenedFactory.sol\":18659:18751  uint amount0In = balance0 > _reserve0 - amount0Out ? balance0 - (_reserve0 - amount0Out) : 0 */\n              swap1\n              pop\n                /* \"MAAL Blockchain/RamzSwap/Core/FlattenedFactory.sol\":18762:18776  uint amount1In */\n              0x00\n              sub(shl(0x70, 0x01), 0x01)\n                /* \"MAAL Blockchain/RamzSwap/Core/FlattenedFactory.sol\":18790:18812  _reserve1 - amount1Out */\n              dup6\n              and\n              dup11\n              swap1\n              sub\n                /* \"MAAL Blockchain/RamzSwap/Core/FlattenedFactory.sol\":18779:18812  balance1 > _reserve1 - amount1Out */\n              dup4\n              gt\n                /* \"MAAL Blockchain/RamzSwap/Core/FlattenedFactory.sol\":18779:18854  balance1 > _reserve1 - amount1Out ? balance1 - (_reserve1 - amount1Out) : 0 */\n              tag_139\n              jumpi\n                /* \"MAAL Blockchain/RamzSwap/Core/FlattenedFactory.sol\":18853:18854  0 */\n              0x00\n                /* \"MAAL Blockchain/RamzSwap/Core/FlattenedFactory.sol\":18779:18854  balance1 > _reserve1 - amount1Out ? balance1 - (_reserve1 - amount1Out) : 0 */\n              jump(tag_140)\n            tag_139:\n              sub(shl(0x70, 0x01), 0x01)\n                /* \"MAAL Blockchain/RamzSwap/Core/FlattenedFactory.sol\":18827:18849  _reserve1 - amount1Out */\n              dup6\n              and\n              dup11\n              swap1\n              sub\n                /* \"MAAL Blockchain/RamzSwap/Core/FlattenedFactory.sol\":18815:18850  balance1 - (_reserve1 - amount1Out) */\n              dup4\n              sub\n                /* \"MAAL Blockchain/RamzSwap/Core/FlattenedFactory.sol\":18779:18854  balance1 > _reserve1 - amount1Out ? balance1 - (_reserve1 - amount1Out) : 0 */\n            tag_140:\n                /* \"MAAL Blockchain/RamzSwap/Core/FlattenedFactory.sol\":18762:18854  uint amount1In = balance1 > _reserve1 - amount1Out ? balance1 - (_reserve1 - amount1Out) : 0 */\n              swap1\n              pop\n                /* \"MAAL Blockchain/RamzSwap/Core/FlattenedFactory.sol\":18885:18886  0 */\n              0x00\n                /* \"MAAL Blockchain/RamzSwap/Core/FlattenedFactory.sol\":18873:18882  amount0In */\n              dup3\n                /* \"MAAL Blockchain/RamzSwap/Core/FlattenedFactory.sol\":18873:18886  amount0In > 0 */\n              gt\n                /* \"MAAL Blockchain/RamzSwap/Core/FlattenedFactory.sol\":18873:18903  amount0In > 0 || amount1In > 0 */\n              dup1\n              tag_141\n              jumpi\n              pop\n                /* \"MAAL Blockchain/RamzSwap/Core/FlattenedFactory.sol\":18902:18903  0 */\n              0x00\n                /* \"MAAL Blockchain/RamzSwap/Core/FlattenedFactory.sol\":18890:18899  amount1In */\n              dup2\n                /* \"MAAL Blockchain/RamzSwap/Core/FlattenedFactory.sol\":18890:18903  amount1In > 0 */\n              gt\n                /* \"MAAL Blockchain/RamzSwap/Core/FlattenedFactory.sol\":18873:18903  amount0In > 0 || amount1In > 0 */\n            tag_141:\n                /* \"MAAL Blockchain/RamzSwap/Core/FlattenedFactory.sol\":18865:18943  require(amount0In > 0 || amount1In > 0, 'RamzSwap: INSUFFICIENT_INPUT_AMOUNT') */\n              tag_142\n              jumpi\n              mload(0x40)\n              shl(0xe5, 0x461bcd)\n              dup2\n              mstore\n              0x04\n              add\n              dup1\n              dup1\n              0x20\n              add\n              dup3\n              dup2\n              sub\n              dup3\n              mstore\n              0x23\n              dup2\n              mstore\n              0x20\n              add\n              dup1\n              data_3bd6b098c4c374111b4a092599b3fc3e18787fa69d92c90b514698058bc80e7d\n              0x23\n              swap2\n              codecopy\n              0x40\n              add\n              swap2\n              pop\n              pop\n              mload(0x40)\n              dup1\n              swap2\n              sub\n              swap1\n              revert\n            tag_142:\n                /* \"MAAL Blockchain/RamzSwap/Core/FlattenedFactory.sol\":19029:19050  uint balance0Adjusted */\n              0x00\n                /* \"MAAL Blockchain/RamzSwap/Core/FlattenedFactory.sol\":19053:19093  balance0.mul(1000).sub(amount0In.mul(3)) */\n              tag_143\n                /* \"MAAL Blockchain/RamzSwap/Core/FlattenedFactory.sol\":19076:19092  amount0In.mul(3) */\n              tag_144\n                /* \"MAAL Blockchain/RamzSwap/Core/FlattenedFactory.sol\":19076:19085  amount0In */\n              dup5\n                /* \"MAAL Blockchain/RamzSwap/Core/FlattenedFactory.sol\":19090:19091  3 */\n              0x03\n                /* \"MAAL Blockchain/RamzSwap/Core/FlattenedFactory.sol\":19076:19092  amount0In.mul(3) */\n              0xffffffff\n                /* \"MAAL Blockchain/RamzSwap/Core/FlattenedFactory.sol\":19076:19089  amount0In.mul */\n              tag_145\n                /* \"MAAL Blockchain/RamzSwap/Core/FlattenedFactory.sol\":19076:19092  amount0In.mul(3) */\n              and\n              jump\t// in\n            tag_144:\n                /* \"MAAL Blockchain/RamzSwap/Core/FlattenedFactory.sol\":19053:19071  balance0.mul(1000) */\n              tag_146\n                /* \"MAAL Blockchain/RamzSwap/Core/FlattenedFactory.sol\":19053:19061  balance0 */\n              dup8\n                /* \"MAAL Blockchain/RamzSwap/Core/FlattenedFactory.sol\":19066:19070  1000 */\n              0x03e8\n                /* \"MAAL Blockchain/RamzSwap/Core/FlattenedFactory.sol\":19053:19071  balance0.mul(1000) */\n              0xffffffff\n                /* \"MAAL Blockchain/RamzSwap/Core/FlattenedFactory.sol\":19053:19065  balance0.mul */\n              tag_145\n                /* \"MAAL Blockchain/RamzSwap/Core/FlattenedFactory.sol\":19053:19071  balance0.mul(1000) */\n              and\n              jump\t// in\n            tag_146:\n                /* \"MAAL Blockchain/RamzSwap/Core/FlattenedFactory.sol\":19053:19075  balance0.mul(1000).sub */\n              swap1\n                /* \"MAAL Blockchain/RamzSwap/Core/FlattenedFactory.sol\":19053:19093  balance0.mul(1000).sub(amount0In.mul(3)) */\n              0xffffffff\n                /* \"MAAL Blockchain/RamzSwap/Core/FlattenedFactory.sol\":19053:19075  balance0.mul(1000).sub */\n              tag_147\n                /* \"MAAL Blockchain/RamzSwap/Core/FlattenedFactory.sol\":19053:19093  balance0.mul(1000).sub(amount0In.mul(3)) */\n              and\n              jump\t// in\n            tag_143:\n                /* \"MAAL Blockchain/RamzSwap/Core/FlattenedFactory.sol\":19029:19093  uint balance0Adjusted = balance0.mul(1000).sub(amount0In.mul(3)) */\n              swap1\n              pop\n                /* \"MAAL Blockchain/RamzSwap/Core/FlattenedFactory.sol\":19104:19125  uint balance1Adjusted */\n              0x00\n                /* \"MAAL Blockchain/RamzSwap/Core/FlattenedFactory.sol\":19128:19168  balance1.mul(1000).sub(amount1In.mul(3)) */\n              tag_148\n                /* \"MAAL Blockchain/RamzSwap/Core/FlattenedFactory.sol\":19151:19167  amount1In.mul(3) */\n              tag_144\n                /* \"MAAL Blockchain/RamzSwap/Core/FlattenedFactory.sol\":19151:19160  amount1In */\n              dup5\n                /* \"MAAL Blockchain/RamzSwap/Core/FlattenedFactory.sol\":19165:19166  3 */\n              0x03\n                /* \"MAAL Blockchain/RamzSwap/Core/FlattenedFactory.sol\":19151:19167  amount1In.mul(3) */\n              0xffffffff\n                /* \"MAAL Blockchain/RamzSwap/Core/FlattenedFactory.sol\":19151:19164  amount1In.mul */\n              tag_145\n                /* \"MAAL Blockchain/RamzSwap/Core/FlattenedFactory.sol\":19151:19167  amount1In.mul(3) */\n              and\n              jump\t// in\n                /* \"MAAL Blockchain/RamzSwap/Core/FlattenedFactory.sol\":19128:19168  balance1.mul(1000).sub(amount1In.mul(3)) */\n            tag_148:\n                /* \"MAAL Blockchain/RamzSwap/Core/FlattenedFactory.sol\":19104:19168  uint balance1Adjusted = balance1.mul(1000).sub(amount1In.mul(3)) */\n              swap1\n              pop\n                /* \"MAAL Blockchain/RamzSwap/Core/FlattenedFactory.sol\":19229:19272  uint(_reserve0).mul(_reserve1).mul(1000**2) */\n              tag_151\n                /* \"MAAL Blockchain/RamzSwap/Core/FlattenedFactory.sol\":19264:19271  1000**2 */\n              0x0f4240\n                /* \"MAAL Blockchain/RamzSwap/Core/FlattenedFactory.sol\":19229:19259  uint(_reserve0).mul(_reserve1) */\n              tag_152\n              sub(shl(0x70, 0x01), 0x01)\n                /* \"MAAL Blockchain/RamzSwap/Core/FlattenedFactory.sol\":19229:19244  uint(_reserve0) */\n              dup12\n              dup2\n              and\n              swap1\n                /* \"MAAL Blockchain/RamzSwap/Core/FlattenedFactory.sol\":19229:19259  uint(_reserve0).mul(_reserve1) */\n              dup12\n              and\n                /* \"MAAL Blockchain/RamzSwap/Core/FlattenedFactory.sol\":19229:19248  uint(_reserve0).mul */\n              tag_145\n                /* \"MAAL Blockchain/RamzSwap/Core/FlattenedFactory.sol\":19229:19259  uint(_reserve0).mul(_reserve1) */\n              jump\t// in\n            tag_152:\n                /* \"MAAL Blockchain/RamzSwap/Core/FlattenedFactory.sol\":19229:19263  uint(_reserve0).mul(_reserve1).mul */\n              swap1\n                /* \"MAAL Blockchain/RamzSwap/Core/FlattenedFactory.sol\":19229:19272  uint(_reserve0).mul(_reserve1).mul(1000**2) */\n              0xffffffff\n                /* \"MAAL Blockchain/RamzSwap/Core/FlattenedFactory.sol\":19229:19263  uint(_reserve0).mul(_reserve1).mul */\n              tag_145\n                /* \"MAAL Blockchain/RamzSwap/Core/FlattenedFactory.sol\":19229:19272  uint(_reserve0).mul(_reserve1).mul(1000**2) */\n              and\n              jump\t// in\n            tag_151:\n                /* \"MAAL Blockchain/RamzSwap/Core/FlattenedFactory.sol\":19187:19225  balance0Adjusted.mul(balance1Adjusted) */\n              tag_153\n                /* \"MAAL Blockchain/RamzSwap/Core/FlattenedFactory.sol\":19187:19203  balance0Adjusted */\n              dup4\n                /* \"MAAL Blockchain/RamzSwap/Core/FlattenedFactory.sol\":19208:19224  balance1Adjusted */\n              dup4\n                /* \"MAAL Blockchain/RamzSwap/Core/FlattenedFactory.sol\":19187:19225  balance0Adjusted.mul(balance1Adjusted) */\n              0xffffffff\n                /* \"MAAL Blockchain/RamzSwap/Core/FlattenedFactory.sol\":19187:19207  balance0Adjusted.mul */\n              tag_145\n                /* \"MAAL Blockchain/RamzSwap/Core/FlattenedFactory.sol\":19187:19225  balance0Adjusted.mul(balance1Adjusted) */\n              and\n              jump\t// in\n            tag_153:\n                /* \"MAAL Blockchain/RamzSwap/Core/FlattenedFactory.sol\":19187:19272  balance0Adjusted.mul(balance1Adjusted) >= uint(_reserve0).mul(_reserve1).mul(1000**2) */\n              lt\n              iszero\n                /* \"MAAL Blockchain/RamzSwap/Core/FlattenedFactory.sol\":19179:19288  require(balance0Adjusted.mul(balance1Adjusted) >= uint(_reserve0).mul(_reserve1).mul(1000**2), 'RamzSwap: K') */\n              tag_154\n              jumpi\n              0x40\n              dup1\n              mload\n              shl(0xe5, 0x461bcd)\n              dup2\n              mstore\n              0x20\n              0x04\n              dup3\n              add\n              mstore\n              0x0b\n              0x24\n              dup3\n              add\n              mstore\n              shl(0xa8, 0x52616d7a537761703a204b)\n              0x44\n              dup3\n              add\n              mstore\n              swap1\n              mload\n              swap1\n              dup2\n              swap1\n              sub\n              0x64\n              add\n              swap1\n              revert\n            tag_154:\n                /* \"MAAL Blockchain/RamzSwap/Core/FlattenedFactory.sol\":11343:11344  _ */\n              pop\n              pop\n                /* \"MAAL Blockchain/RamzSwap/Core/FlattenedFactory.sol\":19312:19361  _update(balance0, balance1, _reserve0, _reserve1) */\n              tag_155\n                /* \"MAAL Blockchain/RamzSwap/Core/FlattenedFactory.sol\":19320:19328  balance0 */\n              dup5\n                /* \"MAAL Blockchain/RamzSwap/Core/FlattenedFactory.sol\":19330:19338  balance1 */\n              dup5\n                /* \"MAAL Blockchain/RamzSwap/Core/FlattenedFactory.sol\":19340:19349  _reserve0 */\n              dup9\n                /* \"MAAL Blockchain/RamzSwap/Core/FlattenedFactory.sol\":19351:19360  _reserve1 */\n              dup9\n                /* \"MAAL Blockchain/RamzSwap/Core/FlattenedFactory.sol\":19312:19319  _update */\n              tag_156\n                /* \"MAAL Blockchain/RamzSwap/Core/FlattenedFactory.sol\":19312:19361  _update(balance0, balance1, _reserve0, _reserve1) */\n              jump\t// in\n            tag_155:\n                /* \"MAAL Blockchain/RamzSwap/Core/FlattenedFactory.sol\":19377:19443  Swap(msg.sender, amount0In, amount1In, amount0Out, amount1Out, to) */\n              0x40\n              dup1\n              mload\n              dup4\n              dup2\n              mstore\n              0x20\n              dup2\n              add\n              dup4\n              swap1\n              mstore\n              dup1\n              dup3\n              add\n              dup14\n              swap1\n              mstore\n              0x60\n              dup2\n              add\n              dup13\n              swap1\n              mstore\n              swap1\n              mload\n              sub(shl(0xa0, 0x01), 0x01)\n              dup12\n              and\n              swap2\n                /* \"MAAL Blockchain/RamzSwap/Core/FlattenedFactory.sol\":19382:19392  msg.sender */\n              caller\n              swap2\n                /* \"MAAL Blockchain/RamzSwap/Core/FlattenedFactory.sol\":19377:19443  Swap(msg.sender, amount0In, amount1In, amount0Out, amount1Out, to) */\n              0xd78ad95fa46c994b6551d0da85fc275fe613ce37657fb8d5e3d130840159d822\n              swap2\n              dup2\n              swap1\n              sub\n              0x80\n              add\n              swap1\n              log3\n              pop\n              pop\n                /* \"MAAL Blockchain/RamzSwap/Core/FlattenedFactory.sol\":11366:11367  1 */\n              0x01\n                /* \"MAAL Blockchain/RamzSwap/Core/FlattenedFactory.sol\":11355:11363  unlocked */\n              0x0c\n                /* \"MAAL Blockchain/RamzSwap/Core/FlattenedFactory.sol\":11355:11367  unlocked = 1 */\n              sstore\n              pop\n              pop\n              pop\n              pop\n              pop\n              pop\n              pop\n              pop\n              pop\n                /* \"MAAL Blockchain/RamzSwap/Core/FlattenedFactory.sol\":17567:19451  function swap(uint amount0Out, uint amount1Out, address to, bytes calldata data) external lock {\r... */\n              jump\t// out\n                /* \"MAAL Blockchain/RamzSwap/Core/FlattenedFactory.sol\":7031:7071  string public constant name = 'RamzSwap' */\n            tag_43:\n              0x40\n              dup1\n              mload\n              dup1\n              dup3\n              add\n              swap1\n              swap2\n              mstore\n              0x08\n              dup2\n              mstore\n              shl(0xc4, 0x052616d7a5377617)\n              0x20\n              dup3\n              add\n              mstore\n              dup2\n              jump\t// out\n                /* \"MAAL Blockchain/RamzSwap/Core/FlattenedFactory.sol\":11383:11614  function getReserves() public view returns (uint112 _reserve0, uint112 _reserve1, uint32 _blockTimestampLast) {\r... */\n            tag_49:\n                /* \"MAAL Blockchain/RamzSwap/Core/FlattenedFactory.sol\":11516:11524  reserve0 */\n              sload(0x08)\n              sub(shl(0x70, 0x01), 0x01)\n              dup1\n              dup3\n              and\n              swap3\n              shl(0x70, 0x01)\n                /* \"MAAL Blockchain/RamzSwap/Core/FlattenedFactory.sol\":11547:11555  reserve1 */\n              dup4\n              div\n              swap1\n              swap2\n              and\n              swap2\n              shl(0xe0, 0x01)\n                /* \"MAAL Blockchain/RamzSwap/Core/FlattenedFactory.sol\":11588:11606  blockTimestampLast */\n              swap1\n              div\n              0xffffffff\n              and\n              swap1\n                /* \"MAAL Blockchain/RamzSwap/Core/FlattenedFactory.sol\":11383:11614  function getReserves() public view returns (uint112 _reserve0, uint112 _reserve1, uint32 _blockTimestampLast) {\r... */\n              jump\t// out\n                /* \"MAAL Blockchain/RamzSwap/Core/FlattenedFactory.sol\":9073:9220  function approve(address spender, uint value) external returns (bool) {\r... */\n            tag_52:\n                /* \"MAAL Blockchain/RamzSwap/Core/FlattenedFactory.sol\":9137:9141  bool */\n              0x00\n                /* \"MAAL Blockchain/RamzSwap/Core/FlattenedFactory.sol\":9154:9190  _approve(msg.sender, spender, value) */\n              tag_159\n                /* \"MAAL Blockchain/RamzSwap/Core/FlattenedFactory.sol\":9163:9173  msg.sender */\n              caller\n                /* \"MAAL Blockchain/RamzSwap/Core/FlattenedFactory.sol\":9175:9182  spender */\n              dup5\n                /* \"MAAL Blockchain/RamzSwap/Core/FlattenedFactory.sol\":9184:9189  value */\n              dup5\n                /* \"MAAL Blockchain/RamzSwap/Core/FlattenedFactory.sol\":9154:9162  _approve */\n              tag_160\n                /* \"MAAL Blockchain/RamzSwap/Core/FlattenedFactory.sol\":9154:9190  _approve(msg.sender, spender, value) */\n              jump\t// in\n            tag_159:\n              pop\n                /* \"MAAL Blockchain/RamzSwap/Core/FlattenedFactory.sol\":9208:9212  true */\n              0x01\n                /* \"MAAL Blockchain/RamzSwap/Core/FlattenedFactory.sol\":9073:9220  function approve(address spender, uint value) external returns (bool) {\r... */\n            tag_158:\n              swap3\n              swap2\n              pop\n              pop\n              jump\t// out\n                /* \"MAAL Blockchain/RamzSwap/Core/FlattenedFactory.sol\":10673:10694  address public token0 */\n            tag_54:\n              and(sub(shl(0xa0, 0x01), 0x01), sload(0x06))\n              dup2\n              jump\t// out\n                /* \"MAAL Blockchain/RamzSwap/Core/FlattenedFactory.sol\":7164:7188  uint  public totalSupply */\n            tag_56:\n              sload(0x00)\n              dup2\n              jump\t// out\n                /* \"MAAL Blockchain/RamzSwap/Core/FlattenedFactory.sol\":9375:9676  function transferFrom(address from, address to, uint value) external returns (bool) {\r... */\n            tag_59:\n              sub(shl(0xa0, 0x01), 0x01)\n                /* \"MAAL Blockchain/RamzSwap/Core/FlattenedFactory.sol\":9474:9489  allowance[from] */\n              dup4\n              and\n                /* \"MAAL Blockchain/RamzSwap/Core/FlattenedFactory.sol\":9453:9457  bool */\n              0x00\n                /* \"MAAL Blockchain/RamzSwap/Core/FlattenedFactory.sol\":9474:9489  allowance[from] */\n              swap1\n              dup2\n              mstore\n                /* \"MAAL Blockchain/RamzSwap/Core/FlattenedFactory.sol\":9474:9483  allowance */\n              0x02\n                /* \"MAAL Blockchain/RamzSwap/Core/FlattenedFactory.sol\":9474:9489  allowance[from] */\n              0x20\n              swap1\n              dup2\n              mstore\n              0x40\n              dup1\n              dup4\n              keccak256\n                /* \"MAAL Blockchain/RamzSwap/Core/FlattenedFactory.sol\":9490:9500  msg.sender */\n              caller\n                /* \"MAAL Blockchain/RamzSwap/Core/FlattenedFactory.sol\":9474:9501  allowance[from][msg.sender] */\n              dup5\n              mstore\n              swap1\n              swap2\n              mstore\n              dup2\n              keccak256\n              sload\n              not(0x00)\n                /* \"MAAL Blockchain/RamzSwap/Core/FlattenedFactory.sol\":9474:9513  allowance[from][msg.sender] != uint(-1) */\n              eq\n                /* \"MAAL Blockchain/RamzSwap/Core/FlattenedFactory.sol\":9470:9610  if (allowance[from][msg.sender] != uint(-1)) {\r... */\n              tag_162\n              jumpi\n              sub(shl(0xa0, 0x01), 0x01)\n                /* \"MAAL Blockchain/RamzSwap/Core/FlattenedFactory.sol\":9560:9575  allowance[from] */\n              dup5\n              and\n              0x00\n              swap1\n              dup2\n              mstore\n                /* \"MAAL Blockchain/RamzSwap/Core/FlattenedFactory.sol\":9560:9569  allowance */\n              0x02\n                /* \"MAAL Blockchain/RamzSwap/Core/FlattenedFactory.sol\":9560:9575  allowance[from] */\n              0x20\n              swap1\n              dup2\n              mstore\n              0x40\n              dup1\n              dup4\n              keccak256\n                /* \"MAAL Blockchain/RamzSwap/Core/FlattenedFactory.sol\":9576:9586  msg.sender */\n              caller\n                /* \"MAAL Blockchain/RamzSwap/Core/FlattenedFactory.sol\":9560:9587  allowance[from][msg.sender] */\n              dup5\n              mstore\n              swap1\n              swap2\n              mstore\n              swap1\n              keccak256\n              sload\n                /* \"MAAL Blockchain/RamzSwap/Core/FlattenedFactory.sol\":9560:9598  allowance[from][msg.sender].sub(value) */\n              tag_163\n              swap1\n                /* \"MAAL Blockchain/RamzSwap/Core/FlattenedFactory.sol\":9592:9597  value */\n              dup4\n                /* \"MAAL Blockchain/RamzSwap/Core/FlattenedFactory.sol\":9560:9591  allowance[from][msg.sender].sub */\n              tag_147\n                /* \"MAAL Blockchain/RamzSwap/Core/FlattenedFactory.sol\":9560:9598  allowance[from][msg.sender].sub(value) */\n              jump\t// in\n            tag_163:\n              sub(shl(0xa0, 0x01), 0x01)\n                /* \"MAAL Blockchain/RamzSwap/Core/FlattenedFactory.sol\":9530:9545  allowance[from] */\n              dup6\n              and\n              0x00\n              swap1\n              dup2\n              mstore\n                /* \"MAAL Blockchain/RamzSwap/Core/FlattenedFactory.sol\":9530:9539  allowance */\n              0x02\n                /* \"MAAL Blockchain/RamzSwap/Core/FlattenedFactory.sol\":9530:9545  allowance[from] */\n              0x20\n              swap1\n              dup2\n              mstore\n              0x40\n              dup1\n              dup4\n              keccak256\n                /* \"MAAL Blockchain/RamzSwap/Core/FlattenedFactory.sol\":9546:9556  msg.sender */\n              caller\n                /* \"MAAL Blockchain/RamzSwap/Core/FlattenedFactory.sol\":9530:9557  allowance[from][msg.sender] */\n              dup5\n              mstore\n              swap1\n              swap2\n              mstore\n              swap1\n              keccak256\n                /* \"MAAL Blockchain/RamzSwap/Core/FlattenedFactory.sol\":9530:9598  allowance[from][msg.sender] = allowance[from][msg.sender].sub(value) */\n              sstore\n                /* \"MAAL Blockchain/RamzSwap/Core/FlattenedFactory.sol\":9470:9610  if (allowance[from][msg.sender] != uint(-1)) {\r... */\n            tag_162:\n                /* \"MAAL Blockchain/RamzSwap/Core/FlattenedFactory.sol\":9620:9646  _transfer(from, to, value) */\n              tag_164\n                /* \"MAAL Blockchain/RamzSwap/Core/FlattenedFactory.sol\":9630:9634  from */\n              dup5\n                /* \"MAAL Blockchain/RamzSwap/Core/FlattenedFactory.sol\":9636:9638  to */\n              dup5\n                /* \"MAAL Blockchain/RamzSwap/Core/FlattenedFactory.sol\":9640:9645  value */\n              dup5\n                /* \"MAAL Blockchain/RamzSwap/Core/FlattenedFactory.sol\":9620:9629  _transfer */\n              tag_165\n                /* \"MAAL Blockchain/RamzSwap/Core/FlattenedFactory.sol\":9620:9646  _transfer(from, to, value) */\n              jump\t// in\n            tag_164:\n              pop\n                /* \"MAAL Blockchain/RamzSwap/Core/FlattenedFactory.sol\":9664:9668  true */\n              0x01\n                /* \"MAAL Blockchain/RamzSwap/Core/FlattenedFactory.sol\":9375:9676  function transferFrom(address from, address to, uint value) external returns (bool) {\r... */\n              swap4\n              swap3\n              pop\n              pop\n              pop\n              jump\t// out\n                /* \"MAAL Blockchain/RamzSwap/Core/FlattenedFactory.sol\":7456:7564  bytes32 public constant PERMIT_TYPEHASH = 0x6e71edae12b1b97f4d1f60370fef10105fa2faae0126114a169c64845d6126c9 */\n            tag_61:\n                /* \"MAAL Blockchain/RamzSwap/Core/FlattenedFactory.sol\":7498:7564  0x6e71edae12b1b97f4d1f60370fef10105fa2faae0126114a169c64845d6126c9 */\n              0x6e71edae12b1b97f4d1f60370fef10105fa2faae0126114a169c64845d6126c9\n                /* \"MAAL Blockchain/RamzSwap/Core/FlattenedFactory.sol\":7456:7564  bytes32 public constant PERMIT_TYPEHASH = 0x6e71edae12b1b97f4d1f60370fef10105fa2faae0126114a169c64845d6126c9 */\n              dup2\n              jump\t// out\n                /* \"MAAL Blockchain/RamzSwap/Core/FlattenedFactory.sol\":7122:7157  uint8 public constant decimals = 18 */\n            tag_63:\n                /* \"MAAL Blockchain/RamzSwap/Core/FlattenedFactory.sol\":7155:7157  18 */\n              0x12\n                /* \"MAAL Blockchain/RamzSwap/Core/FlattenedFactory.sol\":7122:7157  uint8 public constant decimals = 18 */\n              dup2\n              jump\t// out\n                /* \"MAAL Blockchain/RamzSwap/Core/FlattenedFactory.sol\":7313:7344  bytes32 public DOMAIN_SEPARATOR */\n            tag_65:\n              sload(0x03)\n              dup2\n              jump\t// out\n                /* \"MAAL Blockchain/RamzSwap/Core/FlattenedFactory.sol\":12442:12651  function initialize(address _token0, address _token1) external {\r... */\n            tag_68:\n                /* \"MAAL Blockchain/RamzSwap/Core/FlattenedFactory.sol\":12538:12545  factory */\n              and(sub(shl(0xa0, 0x01), 0x01), sload(0x05))\n                /* \"MAAL Blockchain/RamzSwap/Core/FlattenedFactory.sol\":12524:12534  msg.sender */\n              caller\n                /* \"MAAL Blockchain/RamzSwap/Core/FlattenedFactory.sol\":12524:12545  msg.sender == factory */\n              eq\n                /* \"MAAL Blockchain/RamzSwap/Core/FlattenedFactory.sol\":12516:12569  require(msg.sender == factory, 'RamzSwap: FORBIDDEN') */\n              tag_167\n              jumpi\n              0x40\n              dup1\n              mload\n              shl(0xe5, 0x461bcd)\n              dup2\n              mstore\n              0x20\n              0x04\n              dup3\n              add\n              mstore\n              0x13\n              0x24\n              dup3\n              add\n              mstore\n              shl(0x69, 0x2930b6bd29bbb0b81d102327a92124a22222a7)\n              0x44\n              dup3\n              add\n              mstore\n              swap1\n              mload\n              swap1\n              dup2\n              swap1\n              sub\n              0x64\n              add\n              swap1\n              revert\n            tag_167:\n                /* \"MAAL Blockchain/RamzSwap/Core/FlattenedFactory.sol\":12600:12606  token0 */\n              0x06\n                /* \"MAAL Blockchain/RamzSwap/Core/FlattenedFactory.sol\":12600:12616  token0 = _token0 */\n              dup1\n              sload\n              sub(shl(0xa0, 0x01), 0x01)\n              swap4\n              dup5\n              and\n              not(sub(shl(0xa0, 0x01), 0x01))\n              swap2\n              dup3\n              and\n              or\n              swap1\n              swap2\n              sstore\n                /* \"MAAL Blockchain/RamzSwap/Core/FlattenedFactory.sol\":12627:12633  token1 */\n              0x07\n                /* \"MAAL Blockchain/RamzSwap/Core/FlattenedFactory.sol\":12627:12643  token1 = _token1 */\n              dup1\n              sload\n              swap3\n              swap1\n              swap4\n              and\n              swap2\n              and\n              or\n              swap1\n              sstore\n                /* \"MAAL Blockchain/RamzSwap/Core/FlattenedFactory.sol\":12442:12651  function initialize(address _token0, address _token1) external {\r... */\n              jump\t// out\n                /* \"MAAL Blockchain/RamzSwap/Core/FlattenedFactory.sol\":11024:11056  uint public price0CumulativeLast */\n            tag_70:\n              sload(0x09)\n              dup2\n              jump\t// out\n                /* \"MAAL Blockchain/RamzSwap/Core/FlattenedFactory.sol\":11063:11095  uint public price1CumulativeLast */\n            tag_72:\n              sload(0x0a)\n              dup2\n              jump\t// out\n                /* \"MAAL Blockchain/RamzSwap/Core/FlattenedFactory.sol\":14633:15874  function mint(address to) external lock returns (uint liquidity) {\r... */\n            tag_75:\n                /* \"MAAL Blockchain/RamzSwap/Core/FlattenedFactory.sol\":14682:14696  uint liquidity */\n              0x00\n                /* \"MAAL Blockchain/RamzSwap/Core/FlattenedFactory.sol\":11275:11283  unlocked */\n              sload(0x0c)\n                /* \"MAAL Blockchain/RamzSwap/Core/FlattenedFactory.sol\":11287:11288  1 */\n              0x01\n                /* \"MAAL Blockchain/RamzSwap/Core/FlattenedFactory.sol\":11275:11288  unlocked == 1 */\n              eq\n                /* \"MAAL Blockchain/RamzSwap/Core/FlattenedFactory.sol\":11267:11309  require(unlocked == 1, 'RamzSwap: LOCKED') */\n              tag_169\n              jumpi\n              0x40\n              dup1\n              mload\n              shl(0xe5, 0x461bcd)\n              dup2\n              mstore\n              0x20\n              0x04\n              dup3\n              add\n              mstore\n              0x10\n              0x24\n              dup3\n              add\n              mstore\n              shl(0x82, 0x14985b5e94ddd85c0e881313d0d2d151)\n              0x44\n              dup3\n              add\n              mstore\n              swap1\n              mload\n              swap1\n              dup2\n              swap1\n              sub\n              0x64\n              add\n              swap1\n              revert\n            tag_169:\n                /* \"MAAL Blockchain/RamzSwap/Core/FlattenedFactory.sol\":11331:11332  0 */\n              0x00\n                /* \"MAAL Blockchain/RamzSwap/Core/FlattenedFactory.sol\":11320:11328  unlocked */\n              0x0c\n                /* \"MAAL Blockchain/RamzSwap/Core/FlattenedFactory.sol\":11320:11332  unlocked = 0 */\n              dup2\n              swap1\n              sstore\n                /* \"MAAL Blockchain/RamzSwap/Core/FlattenedFactory.sol\":11331:11332  0 */\n              dup1\n                /* \"MAAL Blockchain/RamzSwap/Core/FlattenedFactory.sol\":14751:14764  getReserves() */\n              tag_171\n                /* \"MAAL Blockchain/RamzSwap/Core/FlattenedFactory.sol\":14751:14762  getReserves */\n              tag_49\n                /* \"MAAL Blockchain/RamzSwap/Core/FlattenedFactory.sol\":14751:14764  getReserves() */\n              jump\t// in\n            tag_171:\n              pop\n                /* \"MAAL Blockchain/RamzSwap/Core/FlattenedFactory.sol\":14814:14820  token0 */\n              sload(0x06)\n                /* \"MAAL Blockchain/RamzSwap/Core/FlattenedFactory.sol\":14806:14846  IMAAL20(token0).balanceOf(address(this)) */\n              0x40\n              dup1\n              mload\n              shl(0xe0, 0x70a08231)\n              dup2\n              mstore\n                /* \"MAAL Blockchain/RamzSwap/Core/FlattenedFactory.sol\":14840:14844  this */\n              address\n                /* \"MAAL Blockchain/RamzSwap/Core/FlattenedFactory.sol\":14806:14846  IMAAL20(token0).balanceOf(address(this)) */\n              0x04\n              dup3\n              add\n              mstore\n              swap1\n              mload\n                /* \"MAAL Blockchain/RamzSwap/Core/FlattenedFactory.sol\":14709:14764  (uint112 _reserve0, uint112 _reserve1,) = getReserves() */\n              swap4\n              swap6\n              pop\n              swap2\n              swap4\n              pop\n              0x00\n              swap3\n              sub(shl(0xa0, 0x01), 0x01)\n                /* \"MAAL Blockchain/RamzSwap/Core/FlattenedFactory.sol\":14814:14820  token0 */\n              swap1\n              swap2\n              and\n              swap2\n              0x70a08231\n              swap2\n                /* \"MAAL Blockchain/RamzSwap/Core/FlattenedFactory.sol\":14806:14846  IMAAL20(token0).balanceOf(address(this)) */\n              0x24\n              dup1\n              dup4\n              add\n              swap3\n              0x20\n              swap3\n              swap2\n              swap1\n              dup3\n              swap1\n              sub\n              add\n              dup2\n                /* \"MAAL Blockchain/RamzSwap/Core/FlattenedFactory.sol\":14814:14820  token0 */\n              dup7\n                /* \"MAAL Blockchain/RamzSwap/Core/FlattenedFactory.sol\":14806:14846  IMAAL20(token0).balanceOf(address(this)) */\n              dup1\n              extcodesize\n              iszero\n                /* \"--CODEGEN--\":5:7   */\n              dup1\n              iszero\n              tag_172\n              jumpi\n                /* \"--CODEGEN--\":30:31   */\n              0x00\n                /* \"--CODEGEN--\":27:28   */\n              dup1\n                /* \"--CODEGEN--\":20:32   */\n              revert\n                /* \"--CODEGEN--\":5:7   */\n            tag_172:\n                /* \"MAAL Blockchain/RamzSwap/Core/FlattenedFactory.sol\":14806:14846  IMAAL20(token0).balanceOf(address(this)) */\n              pop\n              gas\n              staticcall\n              iszero\n                /* \"--CODEGEN--\":8:17   */\n              dup1\n                /* \"--CODEGEN--\":5:7   */\n              iszero\n              tag_173\n              jumpi\n                /* \"--CODEGEN--\":45:61   */\n              returndatasize\n                /* \"--CODEGEN--\":42:43   */\n              0x00\n                /* \"--CODEGEN--\":39:40   */\n              dup1\n                /* \"--CODEGEN--\":24:62   */\n              returndatacopy\n                /* \"--CODEGEN--\":77:93   */\n              returndatasize\n                /* \"--CODEGEN--\":74:75   */\n              0x00\n                /* \"--CODEGEN--\":67:94   */\n              revert\n                /* \"--CODEGEN--\":5:7   */\n            tag_173:\n                /* \"MAAL Blockchain/RamzSwap/Core/FlattenedFactory.sol\":14806:14846  IMAAL20(token0).balanceOf(address(this)) */\n              pop\n              pop\n              pop\n              pop\n              mload(0x40)\n              returndatasize\n                /* \"--CODEGEN--\":13:15   */\n              0x20\n                /* \"--CODEGEN--\":8:11   */\n              dup2\n                /* \"--CODEGEN--\":5:16   */\n              lt\n                /* \"--CODEGEN--\":2:4   */\n              iszero\n              tag_174\n              jumpi\n                /* \"--CODEGEN--\":29:30   */\n              0x00\n                /* \"--CODEGEN--\":26:27   */\n              dup1\n                /* \"--CODEGEN--\":19:31   */\n              revert\n                /* \"--CODEGEN--\":2:4   */\n            tag_174:\n              pop\n                /* \"MAAL Blockchain/RamzSwap/Core/FlattenedFactory.sol\":14806:14846  IMAAL20(token0).balanceOf(address(this)) */\n              mload\n                /* \"MAAL Blockchain/RamzSwap/Core/FlattenedFactory.sol\":14881:14887  token1 */\n              sload(0x07)\n                /* \"MAAL Blockchain/RamzSwap/Core/FlattenedFactory.sol\":14873:14913  IMAAL20(token1).balanceOf(address(this)) */\n              0x40\n              dup1\n              mload\n              shl(0xe0, 0x70a08231)\n              dup2\n              mstore\n                /* \"MAAL Blockchain/RamzSwap/Core/FlattenedFactory.sol\":14907:14911  this */\n              address\n                /* \"MAAL Blockchain/RamzSwap/Core/FlattenedFactory.sol\":14873:14913  IMAAL20(token1).balanceOf(address(this)) */\n              0x04\n              dup3\n              add\n              mstore\n              swap1\n              mload\n                /* \"MAAL Blockchain/RamzSwap/Core/FlattenedFactory.sol\":14806:14846  IMAAL20(token0).balanceOf(address(this)) */\n              swap3\n              swap4\n              pop\n              0x00\n              swap3\n              sub(shl(0xa0, 0x01), 0x01)\n                /* \"MAAL Blockchain/RamzSwap/Core/FlattenedFactory.sol\":14881:14887  token1 */\n              swap1\n              swap3\n              and\n              swap2\n              0x70a08231\n              swap2\n                /* \"MAAL Blockchain/RamzSwap/Core/FlattenedFactory.sol\":14873:14913  IMAAL20(token1).balanceOf(address(this)) */\n              0x24\n              dup1\n              dup3\n              add\n              swap3\n                /* \"MAAL Blockchain/RamzSwap/Core/FlattenedFactory.sol\":14806:14846  IMAAL20(token0).balanceOf(address(this)) */\n              0x20\n              swap3\n                /* \"MAAL Blockchain/RamzSwap/Core/FlattenedFactory.sol\":14873:14913  IMAAL20(token1).balanceOf(address(this)) */\n              swap1\n              swap2\n              swap1\n              dup3\n              swap1\n              sub\n              add\n              dup2\n                /* \"MAAL Blockchain/RamzSwap/Core/FlattenedFactory.sol\":14881:14887  token1 */\n              dup7\n                /* \"MAAL Blockchain/RamzSwap/Core/FlattenedFactory.sol\":14873:14913  IMAAL20(token1).balanceOf(address(this)) */\n              dup1\n              extcodesize\n              iszero\n                /* \"--CODEGEN--\":5:7   */\n              dup1\n              iszero\n              tag_175\n              jumpi\n                /* \"--CODEGEN--\":30:31   */\n              0x00\n                /* \"--CODEGEN--\":27:28   */\n              dup1\n                /* \"--CODEGEN--\":20:32   */\n              revert\n                /* \"--CODEGEN--\":5:7   */\n            tag_175:\n                /* \"MAAL Blockchain/RamzSwap/Core/FlattenedFactory.sol\":14873:14913  IMAAL20(token1).balanceOf(address(this)) */\n              pop\n              gas\n              staticcall\n              iszero\n                /* \"--CODEGEN--\":8:17   */\n              dup1\n                /* \"--CODEGEN--\":5:7   */\n              iszero\n              tag_176\n              jumpi\n                /* \"--CODEGEN--\":45:61   */\n              returndatasize\n                /* \"--CODEGEN--\":42:43   */\n              0x00\n                /* \"--CODEGEN--\":39:40   */\n              dup1\n                /* \"--CODEGEN--\":24:62   */\n              returndatacopy\n                /* \"--CODEGEN--\":77:93   */\n              returndatasize\n                /* \"--CODEGEN--\":74:75   */\n              0x00\n                /* \"--CODEGEN--\":67:94   */\n              revert\n                /* \"--CODEGEN--\":5:7   */\n            tag_176:\n                /* \"MAAL Blockchain/RamzSwap/Core/FlattenedFactory.sol\":14873:14913  IMAAL20(token1).balanceOf(address(this)) */\n              pop\n              pop\n              pop\n              pop\n              mload(0x40)\n              returndatasize\n                /* \"--CODEGEN--\":13:15   */\n              0x20\n                /* \"--CODEGEN--\":8:11   */\n              dup2\n                /* \"--CODEGEN--\":5:16   */\n              lt\n                /* \"--CODEGEN--\":2:4   */\n              iszero\n              tag_177\n              jumpi\n                /* \"--CODEGEN--\":29:30   */\n              0x00\n                /* \"--CODEGEN--\":26:27   */\n              dup1\n                /* \"--CODEGEN--\":19:31   */\n              revert\n                /* \"--CODEGEN--\":2:4   */\n            tag_177:\n              pop\n                /* \"MAAL Blockchain/RamzSwap/Core/FlattenedFactory.sol\":14873:14913  IMAAL20(token1).balanceOf(address(this)) */\n              mload\n              swap1\n              pop\n                /* \"MAAL Blockchain/RamzSwap/Core/FlattenedFactory.sol\":14924:14936  uint amount0 */\n              0x00\n                /* \"MAAL Blockchain/RamzSwap/Core/FlattenedFactory.sol\":14939:14962  balance0.sub(_reserve0) */\n              tag_178\n                /* \"MAAL Blockchain/RamzSwap/Core/FlattenedFactory.sol\":14939:14947  balance0 */\n              dup4\n              sub(shl(0x70, 0x01), 0x01)\n                /* \"MAAL Blockchain/RamzSwap/Core/FlattenedFactory.sol\":14939:14962  balance0.sub(_reserve0) */\n              dup8\n              and\n                /* \"MAAL Blockchain/RamzSwap/Core/FlattenedFactory.sol\":14939:14951  balance0.sub */\n              tag_147\n                /* \"MAAL Blockchain/RamzSwap/Core/FlattenedFactory.sol\":14939:14962  balance0.sub(_reserve0) */\n              jump\t// in\n            tag_178:\n                /* \"MAAL Blockchain/RamzSwap/Core/FlattenedFactory.sol\":14924:14962  uint amount0 = balance0.sub(_reserve0) */\n              swap1\n              pop\n                /* \"MAAL Blockchain/RamzSwap/Core/FlattenedFactory.sol\":14973:14985  uint amount1 */\n              0x00\n                /* \"MAAL Blockchain/RamzSwap/Core/FlattenedFactory.sol\":14988:15011  balance1.sub(_reserve1) */\n              tag_179\n                /* \"MAAL Blockchain/RamzSwap/Core/FlattenedFactory.sol\":14988:14996  balance1 */\n              dup4\n              sub(shl(0x70, 0x01), 0x01)\n                /* \"MAAL Blockchain/RamzSwap/Core/FlattenedFactory.sol\":14988:15011  balance1.sub(_reserve1) */\n              dup8\n              and\n                /* \"MAAL Blockchain/RamzSwap/Core/FlattenedFactory.sol\":14988:15000  balance1.sub */\n              tag_147\n                /* \"MAAL Blockchain/RamzSwap/Core/FlattenedFactory.sol\":14988:15011  balance1.sub(_reserve1) */\n              jump\t// in\n            tag_179:\n                /* \"MAAL Blockchain/RamzSwap/Core/FlattenedFactory.sol\":14973:15011  uint amount1 = balance1.sub(_reserve1) */\n              swap1\n              pop\n                /* \"MAAL Blockchain/RamzSwap/Core/FlattenedFactory.sol\":15024:15034  bool feeOn */\n              0x00\n                /* \"MAAL Blockchain/RamzSwap/Core/FlattenedFactory.sol\":15037:15067  _mintFee(_reserve0, _reserve1) */\n              tag_180\n                /* \"MAAL Blockchain/RamzSwap/Core/FlattenedFactory.sol\":15046:15055  _reserve0 */\n              dup8\n                /* \"MAAL Blockchain/RamzSwap/Core/FlattenedFactory.sol\":15057:15066  _reserve1 */\n              dup8\n                /* \"MAAL Blockchain/RamzSwap/Core/FlattenedFactory.sol\":15037:15045  _mintFee */\n              tag_181\n                /* \"MAAL Blockchain/RamzSwap/Core/FlattenedFactory.sol\":15037:15067  _mintFee(_reserve0, _reserve1) */\n              jump\t// in\n            tag_180:\n                /* \"MAAL Blockchain/RamzSwap/Core/FlattenedFactory.sol\":15078:15095  uint _totalSupply */\n              0x00\n                /* \"MAAL Blockchain/RamzSwap/Core/FlattenedFactory.sol\":15098:15109  totalSupply */\n              sload\n                /* \"MAAL Blockchain/RamzSwap/Core/FlattenedFactory.sol\":15024:15067  bool feeOn = _mintFee(_reserve0, _reserve1) */\n              swap1\n              swap2\n              pop\n                /* \"MAAL Blockchain/RamzSwap/Core/FlattenedFactory.sol\":15202:15219  _totalSupply == 0 */\n              dup1\n                /* \"MAAL Blockchain/RamzSwap/Core/FlattenedFactory.sol\":15198:15550  if (_totalSupply == 0) {\r... */\n              tag_182\n              jumpi\n                /* \"MAAL Blockchain/RamzSwap/Core/FlattenedFactory.sol\":15248:15302  Math.sqrt(amount0.mul(amount1)).sub(MINIMUM_LIQUIDITY) */\n              tag_183\n                /* \"MAAL Blockchain/RamzSwap/Core/FlattenedFactory.sol\":10535:10540  10**3 */\n              0x03e8\n                /* \"MAAL Blockchain/RamzSwap/Core/FlattenedFactory.sol\":15248:15279  Math.sqrt(amount0.mul(amount1)) */\n              tag_146\n                /* \"MAAL Blockchain/RamzSwap/Core/FlattenedFactory.sol\":15258:15278  amount0.mul(amount1) */\n              tag_185\n                /* \"MAAL Blockchain/RamzSwap/Core/FlattenedFactory.sol\":15258:15265  amount0 */\n              dup8\n                /* \"MAAL Blockchain/RamzSwap/Core/FlattenedFactory.sol\":15270:15277  amount1 */\n              dup8\n                /* \"MAAL Blockchain/RamzSwap/Core/FlattenedFactory.sol\":15258:15278  amount0.mul(amount1) */\n              0xffffffff\n                /* \"MAAL Blockchain/RamzSwap/Core/FlattenedFactory.sol\":15258:15269  amount0.mul */\n              tag_145\n                /* \"MAAL Blockchain/RamzSwap/Core/FlattenedFactory.sol\":15258:15278  amount0.mul(amount1) */\n              and\n              jump\t// in\n            tag_185:\n                /* \"MAAL Blockchain/RamzSwap/Core/FlattenedFactory.sol\":15248:15257  Math.sqrt */\n              tag_186\n                /* \"MAAL Blockchain/RamzSwap/Core/FlattenedFactory.sol\":15248:15279  Math.sqrt(amount0.mul(amount1)) */\n              jump\t// in\n                /* \"MAAL Blockchain/RamzSwap/Core/FlattenedFactory.sol\":15248:15302  Math.sqrt(amount0.mul(amount1)).sub(MINIMUM_LIQUIDITY) */\n            tag_183:\n                /* \"MAAL Blockchain/RamzSwap/Core/FlattenedFactory.sol\":15236:15302  liquidity = Math.sqrt(amount0.mul(amount1)).sub(MINIMUM_LIQUIDITY) */\n              swap9\n              pop\n                /* \"MAAL Blockchain/RamzSwap/Core/FlattenedFactory.sol\":15316:15352  _mint(address(0), MINIMUM_LIQUIDITY) */\n              tag_187\n                /* \"MAAL Blockchain/RamzSwap/Core/FlattenedFactory.sol\":15330:15331  0 */\n              0x00\n                /* \"MAAL Blockchain/RamzSwap/Core/FlattenedFactory.sol\":10535:10540  10**3 */\n              0x03e8\n                /* \"MAAL Blockchain/RamzSwap/Core/FlattenedFactory.sol\":15316:15321  _mint */\n              tag_188\n                /* \"MAAL Blockchain/RamzSwap/Core/FlattenedFactory.sol\":15316:15352  _mint(address(0), MINIMUM_LIQUIDITY) */\n              jump\t// in\n            tag_187:\n                /* \"MAAL Blockchain/RamzSwap/Core/FlattenedFactory.sol\":15198:15550  if (_totalSupply == 0) {\r... */\n              jump(tag_189)\n            tag_182:\n                /* \"MAAL Blockchain/RamzSwap/Core/FlattenedFactory.sol\":15452:15538  Math.min(amount0.mul(_totalSupply) / _reserve0, amount1.mul(_totalSupply) / _reserve1) */\n              tag_190\n              sub(shl(0x70, 0x01), 0x01)\n                /* \"MAAL Blockchain/RamzSwap/Core/FlattenedFactory.sol\":15461:15498  amount0.mul(_totalSupply) / _reserve0 */\n              dup10\n              and\n                /* \"MAAL Blockchain/RamzSwap/Core/FlattenedFactory.sol\":15461:15486  amount0.mul(_totalSupply) */\n              tag_191\n                /* \"MAAL Blockchain/RamzSwap/Core/FlattenedFactory.sol\":15461:15468  amount0 */\n              dup7\n                /* \"MAAL Blockchain/RamzSwap/Core/FlattenedFactory.sol\":15473:15485  _totalSupply */\n              dup5\n                /* \"MAAL Blockchain/RamzSwap/Core/FlattenedFactory.sol\":15461:15472  amount0.mul */\n              tag_145\n                /* \"MAAL Blockchain/RamzSwap/Core/FlattenedFactory.sol\":15461:15486  amount0.mul(_totalSupply) */\n              jump\t// in\n            tag_191:\n                /* \"MAAL Blockchain/RamzSwap/Core/FlattenedFactory.sol\":15461:15498  amount0.mul(_totalSupply) / _reserve0 */\n              dup2\n              tag_192\n              jumpi\n              invalid\n            tag_192:\n              div\n              sub(shl(0x70, 0x01), 0x01)\n                /* \"MAAL Blockchain/RamzSwap/Core/FlattenedFactory.sol\":15500:15537  amount1.mul(_totalSupply) / _reserve1 */\n              dup10\n              and\n                /* \"MAAL Blockchain/RamzSwap/Core/FlattenedFactory.sol\":15500:15525  amount1.mul(_totalSupply) */\n              tag_193\n                /* \"MAAL Blockchain/RamzSwap/Core/FlattenedFactory.sol\":15500:15507  amount1 */\n              dup7\n                /* \"MAAL Blockchain/RamzSwap/Core/FlattenedFactory.sol\":15512:15524  _totalSupply */\n              dup6\n                /* \"MAAL Blockchain/RamzSwap/Core/FlattenedFactory.sol\":15500:15511  amount1.mul */\n              tag_145\n                /* \"MAAL Blockchain/RamzSwap/Core/FlattenedFactory.sol\":15500:15525  amount1.mul(_totalSupply) */\n              jump\t// in\n            tag_193:\n                /* \"MAAL Blockchain/RamzSwap/Core/FlattenedFactory.sol\":15500:15537  amount1.mul(_totalSupply) / _reserve1 */\n              dup2\n              tag_194\n              jumpi\n              invalid\n            tag_194:\n              div\n                /* \"MAAL Blockchain/RamzSwap/Core/FlattenedFactory.sol\":15452:15460  Math.min */\n              tag_195\n                /* \"MAAL Blockchain/RamzSwap/Core/FlattenedFactory.sol\":15452:15538  Math.min(amount0.mul(_totalSupply) / _reserve0, amount1.mul(_totalSupply) / _reserve1) */\n              jump\t// in\n            tag_190:\n                /* \"MAAL Blockchain/RamzSwap/Core/FlattenedFactory.sol\":15440:15538  liquidity = Math.min(amount0.mul(_totalSupply) / _reserve0, amount1.mul(_totalSupply) / _reserve1) */\n              swap9\n              pop\n                /* \"MAAL Blockchain/RamzSwap/Core/FlattenedFactory.sol\":15198:15550  if (_totalSupply == 0) {\r... */\n            tag_189:\n                /* \"MAAL Blockchain/RamzSwap/Core/FlattenedFactory.sol\":15580:15581  0 */\n              0x00\n                /* \"MAAL Blockchain/RamzSwap/Core/FlattenedFactory.sol\":15568:15577  liquidity */\n              dup10\n                /* \"MAAL Blockchain/RamzSwap/Core/FlattenedFactory.sol\":15568:15581  liquidity > 0 */\n              gt\n                /* \"MAAL Blockchain/RamzSwap/Core/FlattenedFactory.sol\":15560:15625  require(liquidity > 0, 'RamzSwap: INSUFFICIENT_LIQUIDITY_MINTED') */\n              tag_196\n              jumpi\n              mload(0x40)\n              shl(0xe5, 0x461bcd)\n              dup2\n              mstore\n              0x04\n              add\n              dup1\n              dup1\n              0x20\n              add\n              dup3\n              dup2\n              sub\n              dup3\n              mstore\n              0x27\n              dup2\n              mstore\n              0x20\n              add\n              dup1\n              data_277c3e2f1dcc54da905f7856762c87b5d64ceb92f76273e040b34904c30c8540\n              0x27\n              swap2\n              codecopy\n              0x40\n              add\n              swap2\n              pop\n              pop\n              mload(0x40)\n              dup1\n              swap2\n              sub\n              swap1\n              revert\n            tag_196:\n                /* \"MAAL Blockchain/RamzSwap/Core/FlattenedFactory.sol\":15636:15656  _mint(to, liquidity) */\n              tag_197\n                /* \"MAAL Blockchain/RamzSwap/Core/FlattenedFactory.sol\":15642:15644  to */\n              dup11\n                /* \"MAAL Blockchain/RamzSwap/Core/FlattenedFactory.sol\":15646:15655  liquidity */\n              dup11\n                /* \"MAAL Blockchain/RamzSwap/Core/FlattenedFactory.sol\":15636:15641  _mint */\n              tag_188\n                /* \"MAAL Blockchain/RamzSwap/Core/FlattenedFactory.sol\":15636:15656  _mint(to, liquidity) */\n              jump\t// in\n            tag_197:\n                /* \"MAAL Blockchain/RamzSwap/Core/FlattenedFactory.sol\":15669:15718  _update(balance0, balance1, _reserve0, _reserve1) */\n              tag_198\n                /* \"MAAL Blockchain/RamzSwap/Core/FlattenedFactory.sol\":15677:15685  balance0 */\n              dup7\n                /* \"MAAL Blockchain/RamzSwap/Core/FlattenedFactory.sol\":15687:15695  balance1 */\n              dup7\n                /* \"MAAL Blockchain/RamzSwap/Core/FlattenedFactory.sol\":15697:15706  _reserve0 */\n              dup11\n                /* \"MAAL Blockchain/RamzSwap/Core/FlattenedFactory.sol\":15708:15717  _reserve1 */\n              dup11\n                /* \"MAAL Blockchain/RamzSwap/Core/FlattenedFactory.sol\":15669:15676  _update */\n              tag_156\n                /* \"MAAL Blockchain/RamzSwap/Core/FlattenedFactory.sol\":15669:15718  _update(balance0, balance1, _reserve0, _reserve1) */\n              jump\t// in\n            tag_198:\n                /* \"MAAL Blockchain/RamzSwap/Core/FlattenedFactory.sol\":15733:15738  feeOn */\n              dup2\n                /* \"MAAL Blockchain/RamzSwap/Core/FlattenedFactory.sol\":15729:15776  if (feeOn) kLast = uint(reserve0).mul(reserve1) */\n              iszero\n              tag_199\n              jumpi\n                /* \"MAAL Blockchain/RamzSwap/Core/FlattenedFactory.sol\":15767:15775  reserve1 */\n              sload(0x08)\n                /* \"MAAL Blockchain/RamzSwap/Core/FlattenedFactory.sol\":15748:15776  uint(reserve0).mul(reserve1) */\n              tag_200\n              swap1\n              sub(shl(0x70, 0x01), 0x01)\n                /* \"MAAL Blockchain/RamzSwap/Core/FlattenedFactory.sol\":15753:15761  reserve0 */\n              dup1\n              dup3\n              and\n              swap2\n              shl(0x70, 0x01)\n                /* \"MAAL Blockchain/RamzSwap/Core/FlattenedFactory.sol\":15767:15775  reserve1 */\n              swap1\n              div\n              and\n                /* \"MAAL Blockchain/RamzSwap/Core/FlattenedFactory.sol\":15748:15766  uint(reserve0).mul */\n              tag_145\n                /* \"MAAL Blockchain/RamzSwap/Core/FlattenedFactory.sol\":15748:15776  uint(reserve0).mul(reserve1) */\n              jump\t// in\n            tag_200:\n                /* \"MAAL Blockchain/RamzSwap/Core/FlattenedFactory.sol\":15740:15745  kLast */\n              0x0b\n                /* \"MAAL Blockchain/RamzSwap/Core/FlattenedFactory.sol\":15740:15776  kLast = uint(reserve0).mul(reserve1) */\n              sstore\n                /* \"MAAL Blockchain/RamzSwap/Core/FlattenedFactory.sol\":15729:15776  if (feeOn) kLast = uint(reserve0).mul(reserve1) */\n            tag_199:\n                /* \"MAAL Blockchain/RamzSwap/Core/FlattenedFactory.sol\":15832:15866  Mint(msg.sender, amount0, amount1) */\n              0x40\n              dup1\n              mload\n              dup6\n              dup2\n              mstore\n              0x20\n              dup2\n              add\n              dup6\n              swap1\n              mstore\n              dup2\n              mload\n                /* \"MAAL Blockchain/RamzSwap/Core/FlattenedFactory.sol\":15837:15847  msg.sender */\n              caller\n              swap3\n                /* \"MAAL Blockchain/RamzSwap/Core/FlattenedFactory.sol\":15832:15866  Mint(msg.sender, amount0, amount1) */\n              0x4c209b5fc8ad50758f13e2e1088ba56a560dff690a1c6fef26394f4c03821c4f\n              swap3\n              dup3\n              swap1\n              sub\n              add\n              swap1\n              log2\n              pop\n              pop\n                /* \"MAAL Blockchain/RamzSwap/Core/FlattenedFactory.sol\":11366:11367  1 */\n              0x01\n                /* \"MAAL Blockchain/RamzSwap/Core/FlattenedFactory.sol\":11355:11363  unlocked */\n              0x0c\n                /* \"MAAL Blockchain/RamzSwap/Core/FlattenedFactory.sol\":11355:11367  unlocked = 1 */\n              sstore\n              pop\n                /* \"MAAL Blockchain/RamzSwap/Core/FlattenedFactory.sol\":14633:15874  function mint(address to) external lock returns (uint liquidity) {\r... */\n              swap5\n              swap7\n              swap6\n              pop\n              pop\n              pop\n              pop\n              pop\n              pop\n              jump\t// out\n                /* \"MAAL Blockchain/RamzSwap/Core/FlattenedFactory.sol\":7195:7236  mapping(address => uint) public balanceOf */\n            tag_78:\n              mstore(0x20, 0x01)\n              0x00\n              swap1\n              dup2\n              mstore\n              0x40\n              swap1\n              keccak256\n              sload\n              dup2\n              jump\t// out\n                /* \"MAAL Blockchain/RamzSwap/Core/FlattenedFactory.sol\":11102:11119  uint public kLast */\n            tag_80:\n              sload(0x0b)\n              dup2\n              jump\t// out\n                /* \"MAAL Blockchain/RamzSwap/Core/FlattenedFactory.sol\":7571:7609  mapping(address => uint) public nonces */\n            tag_83:\n              mstore(0x20, 0x04)\n              0x00\n              swap1\n              dup2\n              mstore\n              0x40\n              swap1\n              keccak256\n              sload\n              dup2\n              jump\t// out\n                /* \"MAAL Blockchain/RamzSwap/Core/FlattenedFactory.sol\":15986:17455  function burn(address to) external lock returns (uint amount0, uint amount1) {\r... */\n            tag_86:\n                /* \"MAAL Blockchain/RamzSwap/Core/FlattenedFactory.sol\":16035:16047  uint amount0 */\n              0x00\n                /* \"MAAL Blockchain/RamzSwap/Core/FlattenedFactory.sol\":16049:16061  uint amount1 */\n              dup1\n                /* \"MAAL Blockchain/RamzSwap/Core/FlattenedFactory.sol\":11275:11283  unlocked */\n              sload(0x0c)\n                /* \"MAAL Blockchain/RamzSwap/Core/FlattenedFactory.sol\":11287:11288  1 */\n              0x01\n                /* \"MAAL Blockchain/RamzSwap/Core/FlattenedFactory.sol\":11275:11288  unlocked == 1 */\n              eq\n                /* \"MAAL Blockchain/RamzSwap/Core/FlattenedFactory.sol\":11267:11309  require(unlocked == 1, 'RamzSwap: LOCKED') */\n              tag_202\n              jumpi\n              0x40\n              dup1\n              mload\n              shl(0xe5, 0x461bcd)\n              dup2\n              mstore\n              0x20\n              0x04\n              dup3\n              add\n              mstore\n              0x10\n              0x24\n              dup3\n              add\n              mstore\n              shl(0x82, 0x14985b5e94ddd85c0e881313d0d2d151)\n              0x44\n              dup3\n              add\n              mstore\n              swap1\n              mload\n              swap1\n              dup2\n              swap1\n              sub\n              0x64\n              add\n              swap1\n              revert\n            tag_202:\n                /* \"MAAL Blockchain/RamzSwap/Core/FlattenedFactory.sol\":11331:11332  0 */\n              0x00\n                /* \"MAAL Blockchain/RamzSwap/Core/FlattenedFactory.sol\":11320:11328  unlocked */\n              0x0c\n                /* \"MAAL Blockchain/RamzSwap/Core/FlattenedFactory.sol\":11320:11332  unlocked = 0 */\n              dup2\n              swap1\n              sstore\n                /* \"MAAL Blockchain/RamzSwap/Core/FlattenedFactory.sol\":11331:11332  0 */\n              dup1\n                /* \"MAAL Blockchain/RamzSwap/Core/FlattenedFactory.sol\":16116:16129  getReserves() */\n              tag_204\n                /* \"MAAL Blockchain/RamzSwap/Core/FlattenedFactory.sol\":16116:16127  getReserves */\n              tag_49\n                /* \"MAAL Blockchain/RamzSwap/Core/FlattenedFactory.sol\":16116:16129  getReserves() */\n              jump\t// in\n            tag_204:\n              pop\n                /* \"MAAL Blockchain/RamzSwap/Core/FlattenedFactory.sol\":16173:16179  token0 */\n              sload(0x06)\n                /* \"MAAL Blockchain/RamzSwap/Core/FlattenedFactory.sol\":16254:16260  token1 */\n              sload(0x07)\n                /* \"MAAL Blockchain/RamzSwap/Core/FlattenedFactory.sol\":16333:16374  IMAAL20(_token0).balanceOf(address(this)) */\n              0x40\n              dup1\n              mload\n              shl(0xe0, 0x70a08231)\n              dup2\n              mstore\n                /* \"MAAL Blockchain/RamzSwap/Core/FlattenedFactory.sol\":16368:16372  this */\n              address\n                /* \"MAAL Blockchain/RamzSwap/Core/FlattenedFactory.sol\":16333:16374  IMAAL20(_token0).balanceOf(address(this)) */\n              0x04\n              dup3\n              add\n              mstore\n              swap1\n              mload\n                /* \"MAAL Blockchain/RamzSwap/Core/FlattenedFactory.sol\":16074:16129  (uint112 _reserve0, uint112 _reserve1,) = getReserves() */\n              swap5\n              swap7\n              pop\n              swap3\n              swap5\n              pop\n              sub(shl(0xa0, 0x01), 0x01)\n                /* \"MAAL Blockchain/RamzSwap/Core/FlattenedFactory.sol\":16173:16179  token0 */\n              swap2\n              dup3\n              and\n              swap4\n                /* \"MAAL Blockchain/RamzSwap/Core/FlattenedFactory.sol\":16254:16260  token1 */\n              swap2\n              and\n              swap2\n              0x00\n              swap2\n                /* \"MAAL Blockchain/RamzSwap/Core/FlattenedFactory.sol\":16173:16179  token0 */\n              dup5\n              swap2\n              0x70a08231\n              swap2\n                /* \"MAAL Blockchain/RamzSwap/Core/FlattenedFactory.sol\":16333:16374  IMAAL20(_token0).balanceOf(address(this)) */\n              0x24\n              dup1\n              dup4\n              add\n              swap3\n              0x20\n              swap3\n              swap2\n              swap1\n              dup3\n              swap1\n              sub\n              add\n              dup2\n                /* \"MAAL Blockchain/RamzSwap/Core/FlattenedFactory.sol\":16173:16179  token0 */\n              dup7\n                /* \"MAAL Blockchain/RamzSwap/Core/FlattenedFactory.sol\":16333:16374  IMAAL20(_token0).balanceOf(address(this)) */\n              dup1\n              extcodesize\n              iszero\n                /* \"--CODEGEN--\":5:7   */\n              dup1\n              iszero\n              tag_205\n              jumpi\n                /* \"--CODEGEN--\":30:31   */\n              0x00\n                /* \"--CODEGEN--\":27:28   */\n              dup1\n                /* \"--CODEGEN--\":20:32   */\n              revert\n                /* \"--CODEGEN--\":5:7   */\n            tag_205:\n                /* \"MAAL Blockchain/RamzSwap/Core/FlattenedFactory.sol\":16333:16374  IMAAL20(_token0).balanceOf(address(this)) */\n              pop\n              gas\n              staticcall\n              iszero\n                /* \"--CODEGEN--\":8:17   */\n              dup1\n                /* \"--CODEGEN--\":5:7   */\n              iszero\n              tag_206\n              jumpi\n                /* \"--CODEGEN--\":45:61   */\n              returndatasize\n                /* \"--CODEGEN--\":42:43   */\n              0x00\n                /* \"--CODEGEN--\":39:40   */\n              dup1\n                /* \"--CODEGEN--\":24:62   */\n              returndatacopy\n                /* \"--CODEGEN--\":77:93   */\n              returndatasize\n                /* \"--CODEGEN--\":74:75   */\n              0x00\n                /* \"--CODEGEN--\":67:94   */\n              revert\n                /* \"--CODEGEN--\":5:7   */\n            tag_206:\n                /* \"MAAL Blockchain/RamzSwap/Core/FlattenedFactory.sol\":16333:16374  IMAAL20(_token0).balanceOf(address(this)) */\n              pop\n              pop\n              pop\n              pop\n              mload(0x40)\n              returndatasize\n                /* \"--CODEGEN--\":13:15   */\n              0x20\n                /* \"--CODEGEN--\":8:11   */\n              dup2\n                /* \"--CODEGEN--\":5:16   */\n              lt\n                /* \"--CODEGEN--\":2:4   */\n              iszero\n              tag_207\n              jumpi\n                /* \"--CODEGEN--\":29:30   */\n              0x00\n                /* \"--CODEGEN--\":26:27   */\n              dup1\n                /* \"--CODEGEN--\":19:31   */\n              revert\n                /* \"--CODEGEN--\":2:4   */\n            tag_207:\n              pop\n                /* \"MAAL Blockchain/RamzSwap/Core/FlattenedFactory.sol\":16333:16374  IMAAL20(_token0).balanceOf(address(this)) */\n              mload\n                /* \"MAAL Blockchain/RamzSwap/Core/FlattenedFactory.sol\":16401:16442  IMAAL20(_token1).balanceOf(address(this)) */\n              0x40\n              dup1\n              mload\n              shl(0xe0, 0x70a08231)\n              dup2\n              mstore\n                /* \"MAAL Blockchain/RamzSwap/Core/FlattenedFactory.sol\":16436:16440  this */\n              address\n                /* \"MAAL Blockchain/RamzSwap/Core/FlattenedFactory.sol\":16401:16442  IMAAL20(_token1).balanceOf(address(this)) */\n              0x04\n              dup3\n              add\n              mstore\n              swap1\n              mload\n                /* \"MAAL Blockchain/RamzSwap/Core/FlattenedFactory.sol\":16333:16374  IMAAL20(_token0).balanceOf(address(this)) */\n              swap2\n              swap3\n              pop\n              0x00\n              swap2\n              sub(shl(0xa0, 0x01), 0x01)\n                /* \"MAAL Blockchain/RamzSwap/Core/FlattenedFactory.sol\":16401:16427  IMAAL20(_token1).balanceOf */\n              dup6\n              and\n              swap2\n              0x70a08231\n              swap2\n                /* \"MAAL Blockchain/RamzSwap/Core/FlattenedFactory.sol\":16401:16442  IMAAL20(_token1).balanceOf(address(this)) */\n              0x24\n              dup1\n              dup4\n              add\n              swap3\n                /* \"MAAL Blockchain/RamzSwap/Core/FlattenedFactory.sol\":16333:16374  IMAAL20(_token0).balanceOf(address(this)) */\n              0x20\n              swap3\n                /* \"MAAL Blockchain/RamzSwap/Core/FlattenedFactory.sol\":16401:16442  IMAAL20(_token1).balanceOf(address(this)) */\n              swap2\n              swap1\n              dup3\n              swap1\n              sub\n              add\n              dup2\n                /* \"MAAL Blockchain/RamzSwap/Core/FlattenedFactory.sol\":16401:16427  IMAAL20(_token1).balanceOf */\n              dup7\n                /* \"MAAL Blockchain/RamzSwap/Core/FlattenedFactory.sol\":16401:16442  IMAAL20(_token1).balanceOf(address(this)) */\n              dup1\n              extcodesize\n              iszero\n                /* \"--CODEGEN--\":5:7   */\n              dup1\n              iszero\n              tag_208\n              jumpi\n                /* \"--CODEGEN--\":30:31   */\n              0x00\n                /* \"--CODEGEN--\":27:28   */\n              dup1\n                /* \"--CODEGEN--\":20:32   */\n              revert\n                /* \"--CODEGEN--\":5:7   */\n            tag_208:\n                /* \"MAAL Blockchain/RamzSwap/Core/FlattenedFactory.sol\":16401:16442  IMAAL20(_token1).balanceOf(address(this)) */\n              pop\n              gas\n              staticcall\n              iszero\n                /* \"--CODEGEN--\":8:17   */\n              dup1\n                /* \"--CODEGEN--\":5:7   */\n              iszero\n              tag_209\n              jumpi\n                /* \"--CODEGEN--\":45:61   */\n              returndatasize\n                /* \"--CODEGEN--\":42:43   */\n              0x00\n                /* \"--CODEGEN--\":39:40   */\n              dup1\n                /* \"--CODEGEN--\":24:62   */\n              returndatacopy\n                /* \"--CODEGEN--\":77:93   */\n              returndatasize\n                /* \"--CODEGEN--\":74:75   */\n              0x00\n                /* \"--CODEGEN--\":67:94   */\n              revert\n                /* \"--CODEGEN--\":5:7   */\n            tag_209:\n                /* \"MAAL Blockchain/RamzSwap/Core/FlattenedFactory.sol\":16401:16442  IMAAL20(_token1).balanceOf(address(this)) */\n              pop\n              pop\n              pop\n              pop\n              mload(0x40)\n              returndatasize\n                /* \"--CODEGEN--\":13:15   */\n              0x20\n                /* \"--CODEGEN--\":8:11   */\n              dup2\n                /* \"--CODEGEN--\":5:16   */\n              lt\n                /* \"--CODEGEN--\":2:4   */\n              iszero\n              tag_210\n              jumpi\n                /* \"--CODEGEN--\":29:30   */\n              0x00\n                /* \"--CODEGEN--\":26:27   */\n              dup1\n                /* \"--CODEGEN--\":19:31   */\n              revert\n                /* \"--CODEGEN--\":2:4   */\n            tag_210:\n              pop\n                /* \"MAAL Blockchain/RamzSwap/Core/FlattenedFactory.sol\":16401:16442  IMAAL20(_token1).balanceOf(address(this)) */\n              mload\n                /* \"MAAL Blockchain/RamzSwap/Core/FlattenedFactory.sol\":16488:16492  this */\n              address\n                /* \"MAAL Blockchain/RamzSwap/Core/FlattenedFactory.sol\":16453:16467  uint liquidity */\n              0x00\n                /* \"MAAL Blockchain/RamzSwap/Core/FlattenedFactory.sol\":16470:16494  balanceOf[address(this)] */\n              swap1\n              dup2\n              mstore\n                /* \"MAAL Blockchain/RamzSwap/Core/FlattenedFactory.sol\":16470:16479  balanceOf */\n              0x01\n                /* \"MAAL Blockchain/RamzSwap/Core/FlattenedFactory.sol\":16401:16442  IMAAL20(_token1).balanceOf(address(this)) */\n              0x20\n                /* \"MAAL Blockchain/RamzSwap/Core/FlattenedFactory.sol\":16470:16494  balanceOf[address(this)] */\n              mstore\n              0x40\n              dup2\n              keccak256\n              sload\n                /* \"MAAL Blockchain/RamzSwap/Core/FlattenedFactory.sol\":16401:16442  IMAAL20(_token1).balanceOf(address(this)) */\n              swap2\n              swap3\n              pop\n                /* \"MAAL Blockchain/RamzSwap/Core/FlattenedFactory.sol\":16520:16550  _mintFee(_reserve0, _reserve1) */\n              tag_211\n                /* \"MAAL Blockchain/RamzSwap/Core/FlattenedFactory.sol\":16529:16538  _reserve0 */\n              dup9\n                /* \"MAAL Blockchain/RamzSwap/Core/FlattenedFactory.sol\":16540:16549  _reserve1 */\n              dup9\n                /* \"MAAL Blockchain/RamzSwap/Core/FlattenedFactory.sol\":16520:16528  _mintFee */\n              tag_181\n                /* \"MAAL Blockchain/RamzSwap/Core/FlattenedFactory.sol\":16520:16550  _mintFee(_reserve0, _reserve1) */\n              jump\t// in\n            tag_211:\n                /* \"MAAL Blockchain/RamzSwap/Core/FlattenedFactory.sol\":16561:16578  uint _totalSupply */\n              0x00\n                /* \"MAAL Blockchain/RamzSwap/Core/FlattenedFactory.sol\":16581:16592  totalSupply */\n              sload\n                /* \"MAAL Blockchain/RamzSwap/Core/FlattenedFactory.sol\":16507:16550  bool feeOn = _mintFee(_reserve0, _reserve1) */\n              swap1\n              swap2\n              pop\n                /* \"MAAL Blockchain/RamzSwap/Core/FlattenedFactory.sol\":16581:16592  totalSupply */\n              dup1\n                /* \"MAAL Blockchain/RamzSwap/Core/FlattenedFactory.sol\":16691:16714  liquidity.mul(balance0) */\n              tag_212\n                /* \"MAAL Blockchain/RamzSwap/Core/FlattenedFactory.sol\":16691:16700  liquidity */\n              dup5\n                /* \"MAAL Blockchain/RamzSwap/Core/FlattenedFactory.sol\":16705:16713  balance0 */\n              dup8\n                /* \"MAAL Blockchain/RamzSwap/Core/FlattenedFactory.sol\":16691:16714  liquidity.mul(balance0) */\n              0xffffffff\n                /* \"MAAL Blockchain/RamzSwap/Core/FlattenedFactory.sol\":16691:16704  liquidity.mul */\n              tag_145\n                /* \"MAAL Blockchain/RamzSwap/Core/FlattenedFactory.sol\":16691:16714  liquidity.mul(balance0) */\n              and\n              jump\t// in\n            tag_212:\n                /* \"MAAL Blockchain/RamzSwap/Core/FlattenedFactory.sol\":16691:16729  liquidity.mul(balance0) / _totalSupply */\n              dup2\n              tag_213\n              jumpi\n              invalid\n            tag_213:\n              div\n              swap11\n              pop\n                /* \"MAAL Blockchain/RamzSwap/Core/FlattenedFactory.sol\":16824:16836  _totalSupply */\n              dup1\n                /* \"MAAL Blockchain/RamzSwap/Core/FlattenedFactory.sol\":16798:16821  liquidity.mul(balance1) */\n              tag_214\n                /* \"MAAL Blockchain/RamzSwap/Core/FlattenedFactory.sol\":16798:16807  liquidity */\n              dup5\n                /* \"MAAL Blockchain/RamzSwap/Core/FlattenedFactory.sol\":16812:16820  balance1 */\n              dup7\n                /* \"MAAL Blockchain/RamzSwap/Core/FlattenedFactory.sol\":16798:16821  liquidity.mul(balance1) */\n              0xffffffff\n                /* \"MAAL Blockchain/RamzSwap/Core/FlattenedFactory.sol\":16798:16811  liquidity.mul */\n              tag_145\n                /* \"MAAL Blockchain/RamzSwap/Core/FlattenedFactory.sol\":16798:16821  liquidity.mul(balance1) */\n              and\n              jump\t// in\n            tag_214:\n                /* \"MAAL Blockchain/RamzSwap/Core/FlattenedFactory.sol\":16798:16836  liquidity.mul(balance1) / _totalSupply */\n              dup2\n              tag_215\n              jumpi\n              invalid\n            tag_215:\n              div\n                /* \"MAAL Blockchain/RamzSwap/Core/FlattenedFactory.sol\":16788:16836  amount1 = liquidity.mul(balance1) / _totalSupply */\n              swap10\n              pop\n                /* \"MAAL Blockchain/RamzSwap/Core/FlattenedFactory.sol\":16913:16914  0 */\n              0x00\n                /* \"MAAL Blockchain/RamzSwap/Core/FlattenedFactory.sol\":16903:16910  amount0 */\n              dup12\n                /* \"MAAL Blockchain/RamzSwap/Core/FlattenedFactory.sol\":16903:16914  amount0 > 0 */\n              gt\n                /* \"MAAL Blockchain/RamzSwap/Core/FlattenedFactory.sol\":16903:16929  amount0 > 0 && amount1 > 0 */\n              dup1\n              iszero\n              tag_216\n              jumpi\n              pop\n                /* \"MAAL Blockchain/RamzSwap/Core/FlattenedFactory.sol\":16928:16929  0 */\n              0x00\n                /* \"MAAL Blockchain/RamzSwap/Core/FlattenedFactory.sol\":16918:16925  amount1 */\n              dup11\n                /* \"MAAL Blockchain/RamzSwap/Core/FlattenedFactory.sol\":16918:16929  amount1 > 0 */\n              gt\n                /* \"MAAL Blockchain/RamzSwap/Core/FlattenedFactory.sol\":16903:16929  amount0 > 0 && amount1 > 0 */\n            tag_216:\n                /* \"MAAL Blockchain/RamzSwap/Core/FlattenedFactory.sol\":16895:16973  require(amount0 > 0 && amount1 > 0, 'RamzSwap: INSUFFICIENT_LIQUIDITY_BURNED') */\n              tag_217\n              jumpi\n              mload(0x40)\n              shl(0xe5, 0x461bcd)\n              dup2\n              mstore\n              0x04\n              add\n              dup1\n              dup1\n              0x20\n              add\n              dup3\n              dup2\n              sub\n              dup3\n              mstore\n              0x27\n              dup2\n              mstore\n              0x20\n              add\n              dup1\n              data_ae8da0137d7dc276a9a8a9fdbaa95f17a864dd235027022d8e9dd82869b9d09c\n              0x27\n              swap2\n              codecopy\n              0x40\n              add\n              swap2\n              pop\n              pop\n              mload(0x40)\n              dup1\n              swap2\n              sub\n              swap1\n              revert\n            tag_217:\n                /* \"MAAL Blockchain/RamzSwap/Core/FlattenedFactory.sol\":16984:17015  _burn(address(this), liquidity) */\n              tag_218\n                /* \"MAAL Blockchain/RamzSwap/Core/FlattenedFactory.sol\":16998:17002  this */\n              address\n                /* \"MAAL Blockchain/RamzSwap/Core/FlattenedFactory.sol\":17005:17014  liquidity */\n              dup5\n                /* \"MAAL Blockchain/RamzSwap/Core/FlattenedFactory.sol\":16984:16989  _burn */\n              tag_219\n                /* \"MAAL Blockchain/RamzSwap/Core/FlattenedFactory.sol\":16984:17015  _burn(address(this), liquidity) */\n              jump\t// in\n            tag_218:\n                /* \"MAAL Blockchain/RamzSwap/Core/FlattenedFactory.sol\":17026:17061  _safeTransfer(_token0, to, amount0) */\n              tag_220\n                /* \"MAAL Blockchain/RamzSwap/Core/FlattenedFactory.sol\":17040:17047  _token0 */\n              dup8\n                /* \"MAAL Blockchain/RamzSwap/Core/FlattenedFactory.sol\":17049:17051  to */\n              dup14\n                /* \"MAAL Blockchain/RamzSwap/Core/FlattenedFactory.sol\":17053:17060  amount0 */\n              dup14\n                /* \"MAAL Blockchain/RamzSwap/Core/FlattenedFactory.sol\":17026:17039  _safeTransfer */\n              tag_125\n                /* \"MAAL Blockchain/RamzSwap/Core/FlattenedFactory.sol\":17026:17061  _safeTransfer(_token0, to, amount0) */\n              jump\t// in\n            tag_220:\n                /* \"MAAL Blockchain/RamzSwap/Core/FlattenedFactory.sol\":17072:17107  _safeTransfer(_token1, to, amount1) */\n              tag_221\n                /* \"MAAL Blockchain/RamzSwap/Core/FlattenedFactory.sol\":17086:17093  _token1 */\n              dup7\n                /* \"MAAL Blockchain/RamzSwap/Core/FlattenedFactory.sol\":17095:17097  to */\n              dup14\n                /* \"MAAL Blockchain/RamzSwap/Core/FlattenedFactory.sol\":17099:17106  amount1 */\n              dup13\n                /* \"MAAL Blockchain/RamzSwap/Core/FlattenedFactory.sol\":17072:17085  _safeTransfer */\n              tag_125\n                /* \"MAAL Blockchain/RamzSwap/Core/FlattenedFactory.sol\":17072:17107  _safeTransfer(_token1, to, amount1) */\n              jump\t// in\n            tag_221:\n                /* \"MAAL Blockchain/RamzSwap/Core/FlattenedFactory.sol\":17129:17170  IMAAL20(_token0).balanceOf(address(this)) */\n              0x40\n              dup1\n              mload\n              shl(0xe0, 0x70a08231)\n              dup2\n              mstore\n                /* \"MAAL Blockchain/RamzSwap/Core/FlattenedFactory.sol\":17164:17168  this */\n              address\n                /* \"MAAL Blockchain/RamzSwap/Core/FlattenedFactory.sol\":17129:17170  IMAAL20(_token0).balanceOf(address(this)) */\n              0x04\n              dup3\n              add\n              mstore\n              swap1\n              mload\n              sub(shl(0xa0, 0x01), 0x01)\n                /* \"MAAL Blockchain/RamzSwap/Core/FlattenedFactory.sol\":17129:17155  IMAAL20(_token0).balanceOf */\n              dup10\n              and\n              swap2\n              0x70a08231\n              swap2\n                /* \"MAAL Blockchain/RamzSwap/Core/FlattenedFactory.sol\":17129:17170  IMAAL20(_token0).balanceOf(address(this)) */\n              0x24\n              dup1\n              dup4\n              add\n              swap3\n              0x20\n              swap3\n              swap2\n              swap1\n              dup3\n              swap1\n              sub\n              add\n              dup2\n                /* \"MAAL Blockchain/RamzSwap/Core/FlattenedFactory.sol\":17129:17155  IMAAL20(_token0).balanceOf */\n              dup7\n                /* \"MAAL Blockchain/RamzSwap/Core/FlattenedFactory.sol\":17129:17170  IMAAL20(_token0).balanceOf(address(this)) */\n              dup1\n              extcodesize\n              iszero\n                /* \"--CODEGEN--\":5:7   */\n              dup1\n              iszero\n              tag_222\n              jumpi\n                /* \"--CODEGEN--\":30:31   */\n              0x00\n                /* \"--CODEGEN--\":27:28   */\n              dup1\n                /* \"--CODEGEN--\":20:32   */\n              revert\n                /* \"--CODEGEN--\":5:7   */\n            tag_222:\n                /* \"MAAL Blockchain/RamzSwap/Core/FlattenedFactory.sol\":17129:17170  IMAAL20(_token0).balanceOf(address(this)) */\n              pop\n              gas\n              staticcall\n              iszero\n                /* \"--CODEGEN--\":8:17   */\n              dup1\n                /* \"--CODEGEN--\":5:7   */\n              iszero\n              tag_223\n              jumpi\n                /* \"--CODEGEN--\":45:61   */\n              returndatasize\n                /* \"--CODEGEN--\":42:43   */\n              0x00\n                /* \"--CODEGEN--\":39:40   */\n              dup1\n                /* \"--CODEGEN--\":24:62   */\n              returndatacopy\n                /* \"--CODEGEN--\":77:93   */\n              returndatasize\n                /* \"--CODEGEN--\":74:75   */\n              0x00\n                /* \"--CODEGEN--\":67:94   */\n              revert\n                /* \"--CODEGEN--\":5:7   */\n            tag_223:\n                /* \"MAAL Blockchain/RamzSwap/Core/FlattenedFactory.sol\":17129:17170  IMAAL20(_token0).balanceOf(address(this)) */\n              pop\n              pop\n              pop\n              pop\n              mload(0x40)\n              returndatasize\n                /* \"--CODEGEN--\":13:15   */\n              0x20\n                /* \"--CODEGEN--\":8:11   */\n              dup2\n                /* \"--CODEGEN--\":5:16   */\n              lt\n                /* \"--CODEGEN--\":2:4   */\n              iszero\n              tag_224\n              jumpi\n                /* \"--CODEGEN--\":29:30   */\n              0x00\n                /* \"--CODEGEN--\":26:27   */\n              dup1\n                /* \"--CODEGEN--\":19:31   */\n              revert\n                /* \"--CODEGEN--\":2:4   */\n            tag_224:\n              pop\n                /* \"MAAL Blockchain/RamzSwap/Core/FlattenedFactory.sol\":17129:17170  IMAAL20(_token0).balanceOf(address(this)) */\n              mload\n                /* \"MAAL Blockchain/RamzSwap/Core/FlattenedFactory.sol\":17192:17233  IMAAL20(_token1).balanceOf(address(this)) */\n              0x40\n              dup1\n              mload\n              shl(0xe0, 0x70a08231)\n              dup2\n              mstore\n                /* \"MAAL Blockchain/RamzSwap/Core/FlattenedFactory.sol\":17227:17231  this */\n              address\n                /* \"MAAL Blockchain/RamzSwap/Core/FlattenedFactory.sol\":17192:17233  IMAAL20(_token1).balanceOf(address(this)) */\n              0x04\n              dup3\n              add\n              mstore\n              swap1\n              mload\n                /* \"MAAL Blockchain/RamzSwap/Core/FlattenedFactory.sol\":17129:17170  IMAAL20(_token0).balanceOf(address(this)) */\n              swap2\n              swap7\n              pop\n              sub(shl(0xa0, 0x01), 0x01)\n                /* \"MAAL Blockchain/RamzSwap/Core/FlattenedFactory.sol\":17192:17218  IMAAL20(_token1).balanceOf */\n              dup9\n              and\n              swap2\n              0x70a08231\n              swap2\n                /* \"MAAL Blockchain/RamzSwap/Core/FlattenedFactory.sol\":17192:17233  IMAAL20(_token1).balanceOf(address(this)) */\n              0x24\n              dup1\n              dup3\n              add\n              swap3\n                /* \"MAAL Blockchain/RamzSwap/Core/FlattenedFactory.sol\":17129:17170  IMAAL20(_token0).balanceOf(address(this)) */\n              0x20\n              swap3\n                /* \"MAAL Blockchain/RamzSwap/Core/FlattenedFactory.sol\":17192:17233  IMAAL20(_token1).balanceOf(address(this)) */\n              swap1\n              swap2\n              swap1\n              dup3\n              swap1\n              sub\n              add\n              dup2\n                /* \"MAAL Blockchain/RamzSwap/Core/FlattenedFactory.sol\":17192:17218  IMAAL20(_token1).balanceOf */\n              dup7\n                /* \"MAAL Blockchain/RamzSwap/Core/FlattenedFactory.sol\":17192:17233  IMAAL20(_token1).balanceOf(address(this)) */\n              dup1\n              extcodesize\n              iszero\n                /* \"--CODEGEN--\":5:7   */\n              dup1\n              iszero\n              tag_225\n              jumpi\n                /* \"--CODEGEN--\":30:31   */\n              0x00\n                /* \"--CODEGEN--\":27:28   */\n              dup1\n                /* \"--CODEGEN--\":20:32   */\n              revert\n                /* \"--CODEGEN--\":5:7   */\n            tag_225:\n                /* \"MAAL Blockchain/RamzSwap/Core/FlattenedFactory.sol\":17192:17233  IMAAL20(_token1).balanceOf(address(this)) */\n              pop\n              gas\n              staticcall\n              iszero\n                /* \"--CODEGEN--\":8:17   */\n              dup1\n                /* \"--CODEGEN--\":5:7   */\n              iszero\n              tag_226\n              jumpi\n                /* \"--CODEGEN--\":45:61   */\n              returndatasize\n                /* \"--CODEGEN--\":42:43   */\n              0x00\n                /* \"--CODEGEN--\":39:40   */\n              dup1\n                /* \"--CODEGEN--\":24:62   */\n              returndatacopy\n                /* \"--CODEGEN--\":77:93   */\n              returndatasize\n                /* \"--CODEGEN--\":74:75   */\n              0x00\n                /* \"--CODEGEN--\":67:94   */\n              revert\n                /* \"--CODEGEN--\":5:7   */\n            tag_226:\n                /* \"MAAL Blockchain/RamzSwap/Core/FlattenedFactory.sol\":17192:17233  IMAAL20(_token1).balanceOf(address(this)) */\n              pop\n              pop\n              pop\n              pop\n              mload(0x40)\n              returndatasize\n                /* \"--CODEGEN--\":13:15   */\n              0x20\n                /* \"--CODEGEN--\":8:11   */\n              dup2\n                /* \"--CODEGEN--\":5:16   */\n              lt\n                /* \"--CODEGEN--\":2:4   */\n              iszero\n              tag_227\n              jumpi\n                /* \"--CODEGEN--\":29:30   */\n              0x00\n                /* \"--CODEGEN--\":26:27   */\n              dup1\n                /* \"--CODEGEN--\":19:31   */\n              revert\n                /* \"--CODEGEN--\":2:4   */\n            tag_227:\n              pop\n                /* \"MAAL Blockchain/RamzSwap/Core/FlattenedFactory.sol\":17192:17233  IMAAL20(_token1).balanceOf(address(this)) */\n              mload\n              swap4\n              pop\n                /* \"MAAL Blockchain/RamzSwap/Core/FlattenedFactory.sol\":17246:17295  _update(balance0, balance1, _reserve0, _reserve1) */\n              tag_228\n                /* \"MAAL Blockchain/RamzSwap/Core/FlattenedFactory.sol\":17254:17262  balance0 */\n              dup6\n                /* \"MAAL Blockchain/RamzSwap/Core/FlattenedFactory.sol\":17192:17233  IMAAL20(_token1).balanceOf(address(this)) */\n              dup6\n                /* \"MAAL Blockchain/RamzSwap/Core/FlattenedFactory.sol\":17274:17283  _reserve0 */\n              dup12\n                /* \"MAAL Blockchain/RamzSwap/Core/FlattenedFactory.sol\":17285:17294  _reserve1 */\n              dup12\n                /* \"MAAL Blockchain/RamzSwap/Core/FlattenedFactory.sol\":17246:17253  _update */\n              tag_156\n                /* \"MAAL Blockchain/RamzSwap/Core/FlattenedFactory.sol\":17246:17295  _update(balance0, balance1, _reserve0, _reserve1) */\n              jump\t// in\n            tag_228:\n                /* \"MAAL Blockchain/RamzSwap/Core/FlattenedFactory.sol\":17310:17315  feeOn */\n              dup2\n                /* \"MAAL Blockchain/RamzSwap/Core/FlattenedFactory.sol\":17306:17353  if (feeOn) kLast = uint(reserve0).mul(reserve1) */\n              iszero\n              tag_229\n              jumpi\n                /* \"MAAL Blockchain/RamzSwap/Core/FlattenedFactory.sol\":17344:17352  reserve1 */\n              sload(0x08)\n                /* \"MAAL Blockchain/RamzSwap/Core/FlattenedFactory.sol\":17325:17353  uint(reserve0).mul(reserve1) */\n              tag_230\n              swap1\n              sub(shl(0x70, 0x01), 0x01)\n                /* \"MAAL Blockchain/RamzSwap/Core/FlattenedFactory.sol\":17330:17338  reserve0 */\n              dup1\n              dup3\n              and\n              swap2\n              shl(0x70, 0x01)\n                /* \"MAAL Blockchain/RamzSwap/Core/FlattenedFactory.sol\":17344:17352  reserve1 */\n              swap1\n              div\n              and\n                /* \"MAAL Blockchain/RamzSwap/Core/FlattenedFactory.sol\":17325:17343  uint(reserve0).mul */\n              tag_145\n                /* \"MAAL Blockchain/RamzSwap/Core/FlattenedFactory.sol\":17325:17353  uint(reserve0).mul(reserve1) */\n              jump\t// in\n            tag_230:\n                /* \"MAAL Blockchain/RamzSwap/Core/FlattenedFactory.sol\":17317:17322  kLast */\n              0x0b\n                /* \"MAAL Blockchain/RamzSwap/Core/FlattenedFactory.sol\":17317:17353  kLast = uint(reserve0).mul(reserve1) */\n              sstore\n                /* \"MAAL Blockchain/RamzSwap/Core/FlattenedFactory.sol\":17306:17353  if (feeOn) kLast = uint(reserve0).mul(reserve1) */\n            tag_229:\n                /* \"MAAL Blockchain/RamzSwap/Core/FlattenedFactory.sol\":17409:17447  Burn(msg.sender, amount0, amount1, to) */\n              0x40\n              dup1\n              mload\n              dup13\n              dup2\n              mstore\n              0x20\n              dup2\n              add\n              dup13\n              swap1\n              mstore\n              dup2\n              mload\n              sub(shl(0xa0, 0x01), 0x01)\n              dup16\n              and\n              swap3\n                /* \"MAAL Blockchain/RamzSwap/Core/FlattenedFactory.sol\":17414:17424  msg.sender */\n              caller\n              swap3\n                /* \"MAAL Blockchain/RamzSwap/Core/FlattenedFactory.sol\":17409:17447  Burn(msg.sender, amount0, amount1, to) */\n              0xdccd412f0b1252819cb1fd330b93224ca42612892bb3f4f789976e6d81936496\n              swap3\n              swap1\n              dup2\n              swap1\n              sub\n              swap1\n              swap2\n              add\n              swap1\n              log3\n                /* \"MAAL Blockchain/RamzSwap/Core/FlattenedFactory.sol\":11343:11344  _ */\n              pop\n              pop\n              pop\n              pop\n              pop\n              pop\n              pop\n              pop\n              pop\n                /* \"MAAL Blockchain/RamzSwap/Core/FlattenedFactory.sol\":11366:11367  1 */\n              0x01\n                /* \"MAAL Blockchain/RamzSwap/Core/FlattenedFactory.sol\":11355:11363  unlocked */\n              0x0c\n                /* \"MAAL Blockchain/RamzSwap/Core/FlattenedFactory.sol\":11355:11367  unlocked = 1 */\n              dup2\n              swap1\n              sstore\n              pop\n                /* \"MAAL Blockchain/RamzSwap/Core/FlattenedFactory.sol\":15986:17455  function burn(address to) external lock returns (uint amount0, uint amount1) {\r... */\n              swap2\n              pop\n              swap2\n              jump\t// out\n                /* \"MAAL Blockchain/RamzSwap/Core/FlattenedFactory.sol\":7078:7115  string public constant symbol = 'RMZ' */\n            tag_88:\n              0x40\n              dup1\n              mload\n              dup1\n              dup3\n              add\n              swap1\n              swap2\n              mstore\n              0x03\n              dup2\n              mstore\n              shl(0xe9, 0x2926ad)\n              0x20\n              dup3\n              add\n              mstore\n              dup2\n              jump\t// out\n                /* \"MAAL Blockchain/RamzSwap/Core/FlattenedFactory.sol\":9228:9367  function transfer(address to, uint value) external returns (bool) {\r... */\n            tag_95:\n                /* \"MAAL Blockchain/RamzSwap/Core/FlattenedFactory.sol\":9288:9292  bool */\n              0x00\n                /* \"MAAL Blockchain/RamzSwap/Core/FlattenedFactory.sol\":9305:9337  _transfer(msg.sender, to, value) */\n              tag_159\n                /* \"MAAL Blockchain/RamzSwap/Core/FlattenedFactory.sol\":9315:9325  msg.sender */\n              caller\n                /* \"MAAL Blockchain/RamzSwap/Core/FlattenedFactory.sol\":9327:9329  to */\n              dup5\n                /* \"MAAL Blockchain/RamzSwap/Core/FlattenedFactory.sol\":9331:9336  value */\n              dup5\n                /* \"MAAL Blockchain/RamzSwap/Core/FlattenedFactory.sol\":9305:9314  _transfer */\n              tag_165\n                /* \"MAAL Blockchain/RamzSwap/Core/FlattenedFactory.sol\":9305:9337  _transfer(msg.sender, to, value) */\n              jump\t// in\n                /* \"MAAL Blockchain/RamzSwap/Core/FlattenedFactory.sol\":10494:10540  uint public constant MINIMUM_LIQUIDITY = 10**3 */\n            tag_97:\n                /* \"MAAL Blockchain/RamzSwap/Core/FlattenedFactory.sol\":10535:10540  10**3 */\n              0x03e8\n                /* \"MAAL Blockchain/RamzSwap/Core/FlattenedFactory.sol\":10494:10540  uint public constant MINIMUM_LIQUIDITY = 10**3 */\n              dup2\n              jump\t// out\n                /* \"MAAL Blockchain/RamzSwap/Core/FlattenedFactory.sol\":19500:19836  function skim(address to) external lock {\r... */\n            tag_100:\n                /* \"MAAL Blockchain/RamzSwap/Core/FlattenedFactory.sol\":11275:11283  unlocked */\n              sload(0x0c)\n                /* \"MAAL Blockchain/RamzSwap/Core/FlattenedFactory.sol\":11287:11288  1 */\n              0x01\n                /* \"MAAL Blockchain/RamzSwap/Core/FlattenedFactory.sol\":11275:11288  unlocked == 1 */\n              eq\n                /* \"MAAL Blockchain/RamzSwap/Core/FlattenedFactory.sol\":11267:11309  require(unlocked == 1, 'RamzSwap: LOCKED') */\n              tag_234\n              jumpi\n              0x40\n              dup1\n              mload\n              shl(0xe5, 0x461bcd)\n              dup2\n              mstore\n              0x20\n              0x04\n              dup3\n              add\n              mstore\n              0x10\n              0x24\n              dup3\n              add\n              mstore\n              shl(0x82, 0x14985b5e94ddd85c0e881313d0d2d151)\n              0x44\n              dup3\n              add\n              mstore\n              swap1\n              mload\n              swap1\n              dup2\n              swap1\n              sub\n              0x64\n              add\n              swap1\n              revert\n            tag_234:\n                /* \"MAAL Blockchain/RamzSwap/Core/FlattenedFactory.sol\":11331:11332  0 */\n              0x00\n                /* \"MAAL Blockchain/RamzSwap/Core/FlattenedFactory.sol\":11320:11328  unlocked */\n              0x0c\n                /* \"MAAL Blockchain/RamzSwap/Core/FlattenedFactory.sol\":11320:11332  unlocked = 0 */\n              sstore\n                /* \"MAAL Blockchain/RamzSwap/Core/FlattenedFactory.sol\":19569:19575  token0 */\n              sload(0x06)\n                /* \"MAAL Blockchain/RamzSwap/Core/FlattenedFactory.sol\":19619:19625  token1 */\n              sload(0x07)\n                /* \"MAAL Blockchain/RamzSwap/Core/FlattenedFactory.sol\":19724:19732  reserve0 */\n              sload(0x08)\n                /* \"MAAL Blockchain/RamzSwap/Core/FlattenedFactory.sol\":19678:19719  IMAAL20(_token0).balanceOf(address(this)) */\n              0x40\n              dup1\n              mload\n              shl(0xe0, 0x70a08231)\n              dup2\n              mstore\n                /* \"MAAL Blockchain/RamzSwap/Core/FlattenedFactory.sol\":19713:19717  this */\n              address\n                /* \"MAAL Blockchain/RamzSwap/Core/FlattenedFactory.sol\":19678:19719  IMAAL20(_token0).balanceOf(address(this)) */\n              0x04\n              dup3\n              add\n              mstore\n              swap1\n              mload\n              sub(shl(0xa0, 0x01), 0x01)\n                /* \"MAAL Blockchain/RamzSwap/Core/FlattenedFactory.sol\":19569:19575  token0 */\n              swap5\n              dup6\n              and\n              swap5\n                /* \"MAAL Blockchain/RamzSwap/Core/FlattenedFactory.sol\":19619:19625  token1 */\n              swap1\n              swap4\n              and\n              swap3\n                /* \"MAAL Blockchain/RamzSwap/Core/FlattenedFactory.sol\":19651:19734  _safeTransfer(_token0, to, IMAAL20(_token0).balanceOf(address(this)).sub(reserve0)) */\n              tag_236\n              swap3\n                /* \"MAAL Blockchain/RamzSwap/Core/FlattenedFactory.sol\":19569:19575  token0 */\n              dup6\n              swap3\n                /* \"MAAL Blockchain/RamzSwap/Core/FlattenedFactory.sol\":19674:19676  to */\n              dup8\n              swap3\n                /* \"MAAL Blockchain/RamzSwap/Core/FlattenedFactory.sol\":19678:19733  IMAAL20(_token0).balanceOf(address(this)).sub(reserve0) */\n              tag_237\n              swap3\n              sub(shl(0x70, 0x01), 0x01)\n                /* \"MAAL Blockchain/RamzSwap/Core/FlattenedFactory.sol\":19724:19732  reserve0 */\n              and\n              swap2\n                /* \"MAAL Blockchain/RamzSwap/Core/FlattenedFactory.sol\":19569:19575  token0 */\n              dup6\n              swap2\n              0x70a08231\n              swap2\n                /* \"MAAL Blockchain/RamzSwap/Core/FlattenedFactory.sol\":19678:19719  IMAAL20(_token0).balanceOf(address(this)) */\n              0x24\n              dup1\n              dup3\n              add\n              swap3\n              0x20\n              swap3\n              swap1\n              swap2\n              swap1\n              dup3\n              swap1\n              sub\n              add\n              dup2\n                /* \"MAAL Blockchain/RamzSwap/Core/FlattenedFactory.sol\":19569:19575  token0 */\n              dup7\n                /* \"MAAL Blockchain/RamzSwap/Core/FlattenedFactory.sol\":19678:19719  IMAAL20(_token0).balanceOf(address(this)) */\n              dup1\n              extcodesize\n              iszero\n                /* \"--CODEGEN--\":5:7   */\n              dup1\n              iszero\n              tag_238\n              jumpi\n                /* \"--CODEGEN--\":30:31   */\n              0x00\n                /* \"--CODEGEN--\":27:28   */\n              dup1\n                /* \"--CODEGEN--\":20:32   */\n              revert\n                /* \"--CODEGEN--\":5:7   */\n            tag_238:\n                /* \"MAAL Blockchain/RamzSwap/Core/FlattenedFactory.sol\":19678:19719  IMAAL20(_token0).balanceOf(address(this)) */\n              pop\n              gas\n              staticcall\n              iszero\n                /* \"--CODEGEN--\":8:17   */\n              dup1\n                /* \"--CODEGEN--\":5:7   */\n              iszero\n              tag_239\n              jumpi\n                /* \"--CODEGEN--\":45:61   */\n              returndatasize\n                /* \"--CODEGEN--\":42:43   */\n              0x00\n                /* \"--CODEGEN--\":39:40   */\n              dup1\n                /* \"--CODEGEN--\":24:62   */\n              returndatacopy\n                /* \"--CODEGEN--\":77:93   */\n              returndatasize\n                /* \"--CODEGEN--\":74:75   */\n              0x00\n                /* \"--CODEGEN--\":67:94   */\n              revert\n                /* \"--CODEGEN--\":5:7   */\n            tag_239:\n                /* \"MAAL Blockchain/RamzSwap/Core/FlattenedFactory.sol\":19678:19719  IMAAL20(_token0).balanceOf(address(this)) */\n              pop\n              pop\n              pop\n              pop\n              mload(0x40)\n              returndatasize\n                /* \"--CODEGEN--\":13:15   */\n              0x20\n                /* \"--CODEGEN--\":8:11   */\n              dup2\n                /* \"--CODEGEN--\":5:16   */\n              lt\n                /* \"--CODEGEN--\":2:4   */\n              iszero\n              tag_240\n              jumpi\n                /* \"--CODEGEN--\":29:30   */\n              0x00\n                /* \"--CODEGEN--\":26:27   */\n              dup1\n                /* \"--CODEGEN--\":19:31   */\n              revert\n                /* \"--CODEGEN--\":2:4   */\n            tag_240:\n              pop\n                /* \"MAAL Blockchain/RamzSwap/Core/FlattenedFactory.sol\":19678:19719  IMAAL20(_token0).balanceOf(address(this)) */\n              mload\n              swap1\n                /* \"MAAL Blockchain/RamzSwap/Core/FlattenedFactory.sol\":19678:19733  IMAAL20(_token0).balanceOf(address(this)).sub(reserve0) */\n              0xffffffff\n                /* \"MAAL Blockchain/RamzSwap/Core/FlattenedFactory.sol\":19678:19723  IMAAL20(_token0).balanceOf(address(this)).sub */\n              tag_147\n                /* \"MAAL Blockchain/RamzSwap/Core/FlattenedFactory.sol\":19678:19733  IMAAL20(_token0).balanceOf(address(this)).sub(reserve0) */\n              and\n              jump\t// in\n            tag_237:\n                /* \"MAAL Blockchain/RamzSwap/Core/FlattenedFactory.sol\":19651:19664  _safeTransfer */\n              tag_125\n                /* \"MAAL Blockchain/RamzSwap/Core/FlattenedFactory.sol\":19651:19734  _safeTransfer(_token0, to, IMAAL20(_token0).balanceOf(address(this)).sub(reserve0)) */\n              jump\t// in\n            tag_236:\n                /* \"MAAL Blockchain/RamzSwap/Core/FlattenedFactory.sol\":19818:19826  reserve1 */\n              sload(0x08)\n                /* \"MAAL Blockchain/RamzSwap/Core/FlattenedFactory.sol\":19772:19813  IMAAL20(_token1).balanceOf(address(this)) */\n              0x40\n              dup1\n              mload\n              shl(0xe0, 0x70a08231)\n              dup2\n              mstore\n                /* \"MAAL Blockchain/RamzSwap/Core/FlattenedFactory.sol\":19807:19811  this */\n              address\n                /* \"MAAL Blockchain/RamzSwap/Core/FlattenedFactory.sol\":19772:19813  IMAAL20(_token1).balanceOf(address(this)) */\n              0x04\n              dup3\n              add\n              mstore\n              swap1\n              mload\n                /* \"MAAL Blockchain/RamzSwap/Core/FlattenedFactory.sol\":19745:19828  _safeTransfer(_token1, to, IMAAL20(_token1).balanceOf(address(this)).sub(reserve1)) */\n              tag_241\n              swap3\n                /* \"MAAL Blockchain/RamzSwap/Core/FlattenedFactory.sol\":19759:19766  _token1 */\n              dup5\n              swap3\n                /* \"MAAL Blockchain/RamzSwap/Core/FlattenedFactory.sol\":19768:19770  to */\n              dup8\n              swap3\n                /* \"MAAL Blockchain/RamzSwap/Core/FlattenedFactory.sol\":19772:19827  IMAAL20(_token1).balanceOf(address(this)).sub(reserve1) */\n              tag_237\n              swap3\n              shl(0x70, 0x01)\n                /* \"MAAL Blockchain/RamzSwap/Core/FlattenedFactory.sol\":19818:19826  reserve1 */\n              swap1\n              div\n              sub(shl(0x70, 0x01), 0x01)\n              and\n              swap2\n              sub(shl(0xa0, 0x01), 0x01)\n                /* \"MAAL Blockchain/RamzSwap/Core/FlattenedFactory.sol\":19772:19798  IMAAL20(_token1).balanceOf */\n              dup7\n              and\n              swap2\n              0x70a08231\n              swap2\n                /* \"MAAL Blockchain/RamzSwap/Core/FlattenedFactory.sol\":19772:19813  IMAAL20(_token1).balanceOf(address(this)) */\n              0x24\n              dup1\n              dup3\n              add\n              swap3\n              0x20\n              swap3\n              swap1\n              swap2\n              swap1\n              dup3\n              swap1\n              sub\n              add\n              dup2\n                /* \"MAAL Blockchain/RamzSwap/Core/FlattenedFactory.sol\":19772:19798  IMAAL20(_token1).balanceOf */\n              dup7\n                /* \"MAAL Blockchain/RamzSwap/Core/FlattenedFactory.sol\":19772:19813  IMAAL20(_token1).balanceOf(address(this)) */\n              dup1\n              extcodesize\n              iszero\n                /* \"--CODEGEN--\":5:7   */\n              dup1\n              iszero\n              tag_238\n              jumpi\n                /* \"--CODEGEN--\":30:31   */\n              0x00\n                /* \"--CODEGEN--\":27:28   */\n              dup1\n                /* \"--CODEGEN--\":20:32   */\n              revert\n                /* \"MAAL Blockchain/RamzSwap/Core/FlattenedFactory.sol\":19745:19828  _safeTransfer(_token1, to, IMAAL20(_token1).balanceOf(address(this)).sub(reserve1)) */\n            tag_241:\n              pop\n              pop\n                /* \"MAAL Blockchain/RamzSwap/Core/FlattenedFactory.sol\":11366:11367  1 */\n              0x01\n                /* \"MAAL Blockchain/RamzSwap/Core/FlattenedFactory.sol\":11355:11363  unlocked */\n              0x0c\n                /* \"MAAL Blockchain/RamzSwap/Core/FlattenedFactory.sol\":11355:11367  unlocked = 1 */\n              sstore\n              pop\n                /* \"MAAL Blockchain/RamzSwap/Core/FlattenedFactory.sol\":19500:19836  function skim(address to) external lock {\r... */\n              jump\t// out\n                /* \"MAAL Blockchain/RamzSwap/Core/FlattenedFactory.sol\":10644:10666  address public factory */\n            tag_102:\n              and(sub(shl(0xa0, 0x01), 0x01), sload(0x05))\n              dup2\n              jump\t// out\n                /* \"MAAL Blockchain/RamzSwap/Core/FlattenedFactory.sol\":10701:10722  address public token1 */\n            tag_104:\n              and(sub(shl(0xa0, 0x01), 0x01), sload(0x07))\n              dup2\n              jump\t// out\n                /* \"MAAL Blockchain/RamzSwap/Core/FlattenedFactory.sol\":9684:10358  function permit(address owner, address spender, uint value, uint deadline, uint8 v, bytes32 r, bytes32 s) external {\r... */\n            tag_107:\n                /* \"MAAL Blockchain/RamzSwap/Core/FlattenedFactory.sol\":9830:9845  block.timestamp */\n              timestamp\n                /* \"MAAL Blockchain/RamzSwap/Core/FlattenedFactory.sol\":9818:9826  deadline */\n              dup5\n                /* \"MAAL Blockchain/RamzSwap/Core/FlattenedFactory.sol\":9818:9845  deadline >= block.timestamp */\n              lt\n              iszero\n                /* \"MAAL Blockchain/RamzSwap/Core/FlattenedFactory.sol\":9810:9868  require(deadline >= block.timestamp, 'UniswapV2: EXPIRED') */\n              tag_247\n              jumpi\n              0x40\n              dup1\n              mload\n              shl(0xe5, 0x461bcd)\n              dup2\n              mstore\n              0x20\n              0x04\n              dup3\n              add\n              mstore\n              0x12\n              0x24\n              dup3\n              add\n              mstore\n              shl(0x72, 0x155b9a5cddd85c158c8e8811561412549151)\n              0x44\n              dup3\n              add\n              mstore\n              swap1\n              mload\n              swap1\n              dup2\n              swap1\n              sub\n              0x64\n              add\n              swap1\n              revert\n            tag_247:\n                /* \"MAAL Blockchain/RamzSwap/Core/FlattenedFactory.sol\":9984:10000  DOMAIN_SEPARATOR */\n              sload(0x03)\n              sub(shl(0xa0, 0x01), 0x01)\n                /* \"MAAL Blockchain/RamzSwap/Core/FlattenedFactory.sol\":10080:10093  nonces[owner] */\n              dup9\n              dup2\n              and\n                /* \"MAAL Blockchain/RamzSwap/Core/FlattenedFactory.sol\":9879:9893  bytes32 digest */\n              0x00\n                /* \"MAAL Blockchain/RamzSwap/Core/FlattenedFactory.sol\":10080:10093  nonces[owner] */\n              dup2\n              dup2\n              mstore\n                /* \"MAAL Blockchain/RamzSwap/Core/FlattenedFactory.sol\":10080:10086  nonces */\n              0x04\n                /* \"MAAL Blockchain/RamzSwap/Core/FlattenedFactory.sol\":10080:10093  nonces[owner] */\n              0x20\n              swap1\n              dup2\n              mstore\n              0x40\n              dup1\n              dup4\n              keccak256\n                /* \"MAAL Blockchain/RamzSwap/Core/FlattenedFactory.sol\":10080:10095  nonces[owner]++ */\n              dup1\n              sload\n              0x01\n              dup2\n              dup2\n              add\n              swap1\n              swap3\n              sstore\n                /* \"MAAL Blockchain/RamzSwap/Core/FlattenedFactory.sol\":10029:10106  abi.encode(PERMIT_TYPEHASH, owner, spender, value, nonces[owner]++, deadline) */\n              dup3\n              mload\n                /* \"MAAL Blockchain/RamzSwap/Core/FlattenedFactory.sol\":7498:7564  0x6e71edae12b1b97f4d1f60370fef10105fa2faae0126114a169c64845d6126c9 */\n              0x6e71edae12b1b97f4d1f60370fef10105fa2faae0126114a169c64845d6126c9\n                /* \"MAAL Blockchain/RamzSwap/Core/FlattenedFactory.sol\":10029:10106  abi.encode(PERMIT_TYPEHASH, owner, spender, value, nonces[owner]++, deadline) */\n              dup2\n              dup7\n              add\n              mstore\n              dup1\n              dup5\n              add\n              swap7\n              swap1\n              swap7\n              mstore\n              swap6\n              dup14\n              and\n              0x60\n              dup7\n              add\n              mstore\n              0x80\n              dup6\n              add\n              dup13\n              swap1\n              mstore\n              0xa0\n              dup6\n              add\n              swap6\n              swap1\n              swap6\n              mstore\n              0xc0\n              dup1\n              dup6\n              add\n              dup12\n              swap1\n              mstore\n              dup2\n              mload\n                /* \"--CODEGEN--\":26:47   */\n              dup1\n              dup7\n              sub\n                /* \"--CODEGEN--\":22:54   */\n              swap1\n              swap2\n              add\n                /* \"--CODEGEN--\":6:55   */\n              dup2\n              mstore\n                /* \"MAAL Blockchain/RamzSwap/Core/FlattenedFactory.sol\":10029:10106  abi.encode(PERMIT_TYPEHASH, owner, spender, value, nonces[owner]++, deadline) */\n              0xe0\n              dup6\n              add\n              dup3\n              mstore\n                /* \"MAAL Blockchain/RamzSwap/Core/FlattenedFactory.sol\":10019:10107  keccak256(abi.encode(PERMIT_TYPEHASH, owner, spender, value, nonces[owner]++, deadline)) */\n              dup1\n              mload\n              swap1\n              dup4\n              add\n              keccak256\n              shl(0xf0, 0x1901)\n                /* \"MAAL Blockchain/RamzSwap/Core/FlattenedFactory.sol\":9920:10122  abi.encodePacked(\r... */\n              0x0100\n              dup7\n              add\n              mstore\n              0x0102\n              dup6\n              add\n              swap7\n              swap1\n              swap7\n              mstore\n              0x0122\n              dup1\n              dup6\n              add\n              swap7\n              swap1\n              swap7\n              mstore\n              dup1\n              mload\n                /* \"--CODEGEN--\":26:47   */\n              dup1\n              dup6\n              sub\n                /* \"--CODEGEN--\":22:54   */\n              swap1\n              swap7\n              add\n                /* \"--CODEGEN--\":6:55   */\n              dup7\n              mstore\n                /* \"MAAL Blockchain/RamzSwap/Core/FlattenedFactory.sol\":9920:10122  abi.encodePacked(\r... */\n              0x0142\n              dup5\n              add\n              dup1\n              dup3\n              mstore\n                /* \"MAAL Blockchain/RamzSwap/Core/FlattenedFactory.sol\":9896:10133  keccak256(\r... */\n              dup7\n              mload\n              swap7\n              dup4\n              add\n              swap7\n              swap1\n              swap7\n              keccak256\n                /* \"MAAL Blockchain/RamzSwap/Core/FlattenedFactory.sol\":10171:10197  ecrecover(digest, v, r, s) */\n              swap6\n              dup4\n              swap1\n              mstore\n              0x0162\n              dup5\n              add\n              dup1\n              dup3\n              mstore\n              dup7\n              swap1\n              mstore\n              0xff\n              dup10\n              and\n              0x0182\n              dup6\n              add\n              mstore\n              0x01a2\n              dup5\n              add\n              dup9\n              swap1\n              mstore\n              0x01c2\n              dup5\n              add\n              dup8\n              swap1\n              mstore\n              mload\n                /* \"MAAL Blockchain/RamzSwap/Core/FlattenedFactory.sol\":9879:9893  bytes32 digest */\n              swap2\n              swap4\n              swap3\n                /* \"MAAL Blockchain/RamzSwap/Core/FlattenedFactory.sol\":10171:10197  ecrecover(digest, v, r, s) */\n              0x01e2\n              dup1\n              dup3\n              add\n              swap4\n              not(0x1f)\n              dup2\n              add\n              swap3\n              dup2\n              swap1\n              sub\n              swap1\n              swap2\n              add\n              swap1\n              dup6\n              gas\n              staticcall\n              iszero\n                /* \"--CODEGEN--\":8:17   */\n              dup1\n                /* \"--CODEGEN--\":5:7   */\n              iszero\n              tag_248\n              jumpi\n                /* \"--CODEGEN--\":45:61   */\n              returndatasize\n                /* \"--CODEGEN--\":42:43   */\n              0x00\n                /* \"--CODEGEN--\":39:40   */\n              dup1\n                /* \"--CODEGEN--\":24:62   */\n              returndatacopy\n                /* \"--CODEGEN--\":77:93   */\n              returndatasize\n                /* \"--CODEGEN--\":74:75   */\n              0x00\n                /* \"--CODEGEN--\":67:94   */\n              revert\n                /* \"--CODEGEN--\":5:7   */\n            tag_248:\n              pop\n              pop\n                /* \"MAAL Blockchain/RamzSwap/Core/FlattenedFactory.sol\":10171:10197  ecrecover(digest, v, r, s) */\n              mload(add(not(0x1f), mload(0x40)))\n              swap2\n              pop\n              pop\n              sub(shl(0xa0, 0x01), 0x01)\n                /* \"MAAL Blockchain/RamzSwap/Core/FlattenedFactory.sol\":10216:10246  recoveredAddress != address(0) */\n              dup2\n              and\n              iszero\n              dup1\n              iszero\n              swap1\n                /* \"MAAL Blockchain/RamzSwap/Core/FlattenedFactory.sol\":10216:10275  recoveredAddress != address(0) && recoveredAddress == owner */\n              tag_249\n              jumpi\n              pop\n              sub(shl(0xa0, 0x01), 0x01)\n                /* \"MAAL Blockchain/RamzSwap/Core/FlattenedFactory.sol\":10250:10275  recoveredAddress == owner */\n              dup2\n              dup2\n              and\n              swap1\n              dup11\n              and\n              eq\n                /* \"MAAL Blockchain/RamzSwap/Core/FlattenedFactory.sol\":10216:10275  recoveredAddress != address(0) && recoveredAddress == owner */\n            tag_249:\n                /* \"MAAL Blockchain/RamzSwap/Core/FlattenedFactory.sol\":10208:10308  require(recoveredAddress != address(0) && recoveredAddress == owner, 'UniswapV2: INVALID_SIGNATURE') */\n              tag_250\n              jumpi\n              0x40\n              dup1\n              mload\n              shl(0xe5, 0x461bcd)\n              dup2\n              mstore\n              0x20\n              0x04\n              dup3\n              add\n              mstore\n              0x1c\n              0x24\n              dup3\n              add\n              mstore\n              0x556e697377617056323a20494e56414c49445f5349474e415455524500000000\n              0x44\n              dup3\n              add\n              mstore\n              swap1\n              mload\n              swap1\n              dup2\n              swap1\n              sub\n              0x64\n              add\n              swap1\n              revert\n            tag_250:\n                /* \"MAAL Blockchain/RamzSwap/Core/FlattenedFactory.sol\":10319:10350  _approve(owner, spender, value) */\n              tag_251\n                /* \"MAAL Blockchain/RamzSwap/Core/FlattenedFactory.sol\":10328:10333  owner */\n              dup10\n                /* \"MAAL Blockchain/RamzSwap/Core/FlattenedFactory.sol\":10335:10342  spender */\n              dup10\n                /* \"MAAL Blockchain/RamzSwap/Core/FlattenedFactory.sol\":10344:10349  value */\n              dup10\n                /* \"MAAL Blockchain/RamzSwap/Core/FlattenedFactory.sol\":10319:10327  _approve */\n              tag_160\n                /* \"MAAL Blockchain/RamzSwap/Core/FlattenedFactory.sol\":10319:10350  _approve(owner, spender, value) */\n              jump\t// in\n            tag_251:\n                /* \"MAAL Blockchain/RamzSwap/Core/FlattenedFactory.sol\":9684:10358  function permit(address owner, address spender, uint value, uint deadline, uint8 v, bytes32 r, bytes32 s) external {\r... */\n              pop\n              pop\n              pop\n              pop\n              pop\n              pop\n              pop\n              pop\n              pop\n              jump\t// out\n                /* \"MAAL Blockchain/RamzSwap/Core/FlattenedFactory.sol\":7243:7304  mapping(address => mapping(address => uint)) public allowance */\n            tag_110:\n              0x02\n              0x20\n              swap1\n              dup2\n              mstore\n              0x00\n              swap3\n              dup4\n              mstore\n              0x40\n              dup1\n              dup5\n              keccak256\n              swap1\n              swap2\n              mstore\n              swap1\n              dup3\n              mstore\n              swap1\n              keccak256\n              sload\n              dup2\n              jump\t// out\n                /* \"MAAL Blockchain/RamzSwap/Core/FlattenedFactory.sol\":19885:20045  function sync() external lock {\r... */\n            tag_112:\n                /* \"MAAL Blockchain/RamzSwap/Core/FlattenedFactory.sol\":11275:11283  unlocked */\n              sload(0x0c)\n                /* \"MAAL Blockchain/RamzSwap/Core/FlattenedFactory.sol\":11287:11288  1 */\n              0x01\n                /* \"MAAL Blockchain/RamzSwap/Core/FlattenedFactory.sol\":11275:11288  unlocked == 1 */\n              eq\n                /* \"MAAL Blockchain/RamzSwap/Core/FlattenedFactory.sol\":11267:11309  require(unlocked == 1, 'RamzSwap: LOCKED') */\n              tag_253\n              jumpi\n              0x40\n              dup1\n              mload\n              shl(0xe5, 0x461bcd)\n              dup2\n              mstore\n              0x20\n              0x04\n              dup3\n              add\n              mstore\n              0x10\n              0x24\n              dup3\n              add\n              mstore\n              shl(0x82, 0x14985b5e94ddd85c0e881313d0d2d151)\n              0x44\n              dup3\n              add\n              mstore\n              swap1\n              mload\n              swap1\n              dup2\n              swap1\n              sub\n              0x64\n              add\n              swap1\n              revert\n            tag_253:\n                /* \"MAAL Blockchain/RamzSwap/Core/FlattenedFactory.sol\":11331:11332  0 */\n              0x00\n                /* \"MAAL Blockchain/RamzSwap/Core/FlattenedFactory.sol\":11320:11328  unlocked */\n              0x0c\n                /* \"MAAL Blockchain/RamzSwap/Core/FlattenedFactory.sol\":11320:11332  unlocked = 0 */\n              sstore\n                /* \"MAAL Blockchain/RamzSwap/Core/FlattenedFactory.sol\":19942:19948  token0 */\n              sload(0x06)\n                /* \"MAAL Blockchain/RamzSwap/Core/FlattenedFactory.sol\":19934:19974  IMAAL20(token0).balanceOf(address(this)) */\n              0x40\n              dup1\n              mload\n              shl(0xe0, 0x70a08231)\n              dup2\n              mstore\n                /* \"MAAL Blockchain/RamzSwap/Core/FlattenedFactory.sol\":19968:19972  this */\n              address\n                /* \"MAAL Blockchain/RamzSwap/Core/FlattenedFactory.sol\":19934:19974  IMAAL20(token0).balanceOf(address(this)) */\n              0x04\n              dup3\n              add\n              mstore\n              swap1\n              mload\n                /* \"MAAL Blockchain/RamzSwap/Core/FlattenedFactory.sol\":19926:20037  _update(IMAAL20(token0).balanceOf(address(this)), IMAAL20(token1).balanceOf(address(this)), reserve0, reserve1) */\n              tag_255\n              swap3\n              sub(shl(0xa0, 0x01), 0x01)\n                /* \"MAAL Blockchain/RamzSwap/Core/FlattenedFactory.sol\":19942:19948  token0 */\n              and\n              swap2\n              0x70a08231\n              swap2\n                /* \"MAAL Blockchain/RamzSwap/Core/FlattenedFactory.sol\":19934:19974  IMAAL20(token0).balanceOf(address(this)) */\n              0x24\n              dup1\n              dup4\n              add\n              swap3\n              0x20\n              swap3\n              swap2\n              swap1\n              dup3\n              swap1\n              sub\n              add\n              dup2\n                /* \"MAAL Blockchain/RamzSwap/Core/FlattenedFactory.sol\":19942:19948  token0 */\n              dup7\n                /* \"MAAL Blockchain/RamzSwap/Core/FlattenedFactory.sol\":19934:19974  IMAAL20(token0).balanceOf(address(this)) */\n              dup1\n              extcodesize\n              iszero\n                /* \"--CODEGEN--\":5:7   */\n              dup1\n              iszero\n              tag_256\n              jumpi\n                /* \"--CODEGEN--\":30:31   */\n              0x00\n                /* \"--CODEGEN--\":27:28   */\n              dup1\n                /* \"--CODEGEN--\":20:32   */\n              revert\n                /* \"--CODEGEN--\":5:7   */\n            tag_256:\n                /* \"MAAL Blockchain/RamzSwap/Core/FlattenedFactory.sol\":19934:19974  IMAAL20(token0).balanceOf(address(this)) */\n              pop\n              gas\n              staticcall\n              iszero\n                /* \"--CODEGEN--\":8:17   */\n              dup1\n                /* \"--CODEGEN--\":5:7   */\n              iszero\n              tag_257\n              jumpi\n                /* \"--CODEGEN--\":45:61   */\n              returndatasize\n                /* \"--CODEGEN--\":42:43   */\n              0x00\n                /* \"--CODEGEN--\":39:40   */\n              dup1\n                /* \"--CODEGEN--\":24:62   */\n              returndatacopy\n                /* \"--CODEGEN--\":77:93   */\n              returndatasize\n                /* \"--CODEGEN--\":74:75   */\n              0x00\n                /* \"--CODEGEN--\":67:94   */\n              revert\n                /* \"--CODEGEN--\":5:7   */\n            tag_257:\n                /* \"MAAL Blockchain/RamzSwap/Core/FlattenedFactory.sol\":19934:19974  IMAAL20(token0).balanceOf(address(this)) */\n              pop\n              pop\n              pop\n              pop\n              mload(0x40)\n              returndatasize\n                /* \"--CODEGEN--\":13:15   */\n              0x20\n                /* \"--CODEGEN--\":8:11   */\n              dup2\n                /* \"--CODEGEN--\":5:16   */\n              lt\n                /* \"--CODEGEN--\":2:4   */\n              iszero\n              tag_258\n              jumpi\n                /* \"--CODEGEN--\":29:30   */\n              0x00\n                /* \"--CODEGEN--\":26:27   */\n              dup1\n                /* \"--CODEGEN--\":19:31   */\n              revert\n                /* \"--CODEGEN--\":2:4   */\n            tag_258:\n              pop\n                /* \"MAAL Blockchain/RamzSwap/Core/FlattenedFactory.sol\":19934:19974  IMAAL20(token0).balanceOf(address(this)) */\n              mload\n                /* \"MAAL Blockchain/RamzSwap/Core/FlattenedFactory.sol\":19984:19990  token1 */\n              sload(0x07)\n                /* \"MAAL Blockchain/RamzSwap/Core/FlattenedFactory.sol\":19976:20016  IMAAL20(token1).balanceOf(address(this)) */\n              0x40\n              dup1\n              mload\n              shl(0xe0, 0x70a08231)\n              dup2\n              mstore\n                /* \"MAAL Blockchain/RamzSwap/Core/FlattenedFactory.sol\":20010:20014  this */\n              address\n                /* \"MAAL Blockchain/RamzSwap/Core/FlattenedFactory.sol\":19976:20016  IMAAL20(token1).balanceOf(address(this)) */\n              0x04\n              dup3\n              add\n              mstore\n              swap1\n              mload\n              sub(shl(0xa0, 0x01), 0x01)\n                /* \"MAAL Blockchain/RamzSwap/Core/FlattenedFactory.sol\":19984:19990  token1 */\n              swap1\n              swap3\n              and\n              swap2\n              0x70a08231\n              swap2\n                /* \"MAAL Blockchain/RamzSwap/Core/FlattenedFactory.sol\":19976:20016  IMAAL20(token1).balanceOf(address(this)) */\n              0x24\n              dup1\n              dup3\n              add\n              swap3\n                /* \"MAAL Blockchain/RamzSwap/Core/FlattenedFactory.sol\":19934:19974  IMAAL20(token0).balanceOf(address(this)) */\n              0x20\n              swap3\n                /* \"MAAL Blockchain/RamzSwap/Core/FlattenedFactory.sol\":19976:20016  IMAAL20(token1).balanceOf(address(this)) */\n              swap1\n              swap2\n              swap1\n              dup3\n              swap1\n              sub\n              add\n              dup2\n                /* \"MAAL Blockchain/RamzSwap/Core/FlattenedFactory.sol\":19984:19990  token1 */\n              dup7\n                /* \"MAAL Blockchain/RamzSwap/Core/FlattenedFactory.sol\":19976:20016  IMAAL20(token1).balanceOf(address(this)) */\n              dup1\n              extcodesize\n              iszero\n                /* \"--CODEGEN--\":5:7   */\n              dup1\n              iszero\n              tag_259\n              jumpi\n                /* \"--CODEGEN--\":30:31   */\n              0x00\n                /* \"--CODEGEN--\":27:28   */\n              dup1\n                /* \"--CODEGEN--\":20:32   */\n              revert\n                /* \"--CODEGEN--\":5:7   */\n            tag_259:\n                /* \"MAAL Blockchain/RamzSwap/Core/FlattenedFactory.sol\":19976:20016  IMAAL20(token1).balanceOf(address(this)) */\n              pop\n              gas\n              staticcall\n              iszero\n                /* \"--CODEGEN--\":8:17   */\n              dup1\n                /* \"--CODEGEN--\":5:7   */\n              iszero\n              tag_260\n              jumpi\n                /* \"--CODEGEN--\":45:61   */\n              returndatasize\n                /* \"--CODEGEN--\":42:43   */\n              0x00\n                /* \"--CODEGEN--\":39:40   */\n              dup1\n                /* \"--CODEGEN--\":24:62   */\n              returndatacopy\n                /* \"--CODEGEN--\":77:93   */\n              returndatasize\n                /* \"--CODEGEN--\":74:75   */\n              0x00\n                /* \"--CODEGEN--\":67:94   */\n              revert\n                /* \"--CODEGEN--\":5:7   */\n            tag_260:\n                /* \"MAAL Blockchain/RamzSwap/Core/FlattenedFactory.sol\":19976:20016  IMAAL20(token1).balanceOf(address(this)) */\n              pop\n              pop\n              pop\n              pop\n              mload(0x40)\n              returndatasize\n                /* \"--CODEGEN--\":13:15   */\n              0x20\n                /* \"--CODEGEN--\":8:11   */\n              dup2\n                /* \"--CODEGEN--\":5:16   */\n              lt\n                /* \"--CODEGEN--\":2:4   */\n              iszero\n              tag_261\n              jumpi\n                /* \"--CODEGEN--\":29:30   */\n              0x00\n                /* \"--CODEGEN--\":26:27   */\n              dup1\n                /* \"--CODEGEN--\":19:31   */\n              revert\n                /* \"--CODEGEN--\":2:4   */\n            tag_261:\n              pop\n                /* \"MAAL Blockchain/RamzSwap/Core/FlattenedFactory.sol\":19976:20016  IMAAL20(token1).balanceOf(address(this)) */\n              mload\n                /* \"MAAL Blockchain/RamzSwap/Core/FlattenedFactory.sol\":20018:20026  reserve0 */\n              sload(0x08)\n              sub(shl(0x70, 0x01), 0x01)\n              dup1\n              dup3\n              and\n              swap2\n              shl(0x70, 0x01)\n                /* \"MAAL Blockchain/RamzSwap/Core/FlattenedFactory.sol\":20028:20036  reserve1 */\n              swap1\n              div\n              and\n                /* \"MAAL Blockchain/RamzSwap/Core/FlattenedFactory.sol\":19926:19933  _update */\n              tag_156\n                /* \"MAAL Blockchain/RamzSwap/Core/FlattenedFactory.sol\":19926:20037  _update(IMAAL20(token0).balanceOf(address(this)), IMAAL20(token1).balanceOf(address(this)), reserve0, reserve1) */\n              jump\t// in\n            tag_255:\n                /* \"MAAL Blockchain/RamzSwap/Core/FlattenedFactory.sol\":11366:11367  1 */\n              0x01\n                /* \"MAAL Blockchain/RamzSwap/Core/FlattenedFactory.sol\":11355:11363  unlocked */\n              0x0c\n                /* \"MAAL Blockchain/RamzSwap/Core/FlattenedFactory.sol\":11355:11367  unlocked = 1 */\n              sstore\n                /* \"MAAL Blockchain/RamzSwap/Core/FlattenedFactory.sol\":19885:20045  function sync() external lock {\r... */\n              jump\t// out\n                /* \"MAAL Blockchain/RamzSwap/Core/FlattenedFactory.sol\":11622:11908  function _safeTransfer(address token, address to, uint value) private {\r... */\n            tag_125:\n                /* \"MAAL Blockchain/RamzSwap/Core/FlattenedFactory.sol\":10599:10633  bytes('transfer(address,uint256)') */\n              0x40\n              dup1\n              mload\n              dup1\n              dup3\n              add\n              dup3\n              mstore\n              0x19\n              dup2\n              mstore\n              0x7472616e7366657228616464726573732c75696e743235362900000000000000\n              0x20\n              swap2\n              dup3\n              add\n              mstore\n                /* \"MAAL Blockchain/RamzSwap/Core/FlattenedFactory.sol\":11750:11793  abi.encodeWithSelector(SELECTOR, to, value) */\n              dup2\n              mload\n              sub(shl(0xa0, 0x01), 0x01)\n              dup6\n              dup2\n              and\n              0x24\n              dup4\n              add\n              mstore\n              0x44\n              dup1\n              dup4\n              add\n              dup7\n              swap1\n              mstore\n              dup5\n              mload\n                /* \"--CODEGEN--\":26:47   */\n              dup1\n              dup5\n              sub\n                /* \"--CODEGEN--\":22:54   */\n              swap1\n              swap2\n              add\n                /* \"--CODEGEN--\":6:55   */\n              dup2\n              mstore\n                /* \"MAAL Blockchain/RamzSwap/Core/FlattenedFactory.sol\":11750:11793  abi.encodeWithSelector(SELECTOR, to, value) */\n              0x64\n              swap1\n              swap3\n              add\n              dup5\n              mstore\n                /* \"--CODEGEN--\":25:43   */\n              swap2\n              dup2\n              add\n                /* \"--CODEGEN--\":61:78   */\n              dup1\n              mload\n              sub(shl(0xe0, 0x01), 0x01)\n                /* \"--CODEGEN--\":182:197   */\n              and\n              shl(0xe0, 0xa9059cbb)\n                /* \"--CODEGEN--\":179:208   */\n              or\n                /* \"--CODEGEN--\":160:209   */\n              dup2\n              mstore\n                /* \"MAAL Blockchain/RamzSwap/Core/FlattenedFactory.sol\":11739:11794  token.call(abi.encodeWithSelector(SELECTOR, to, value)) */\n              swap3\n              mload\n              dup2\n              mload\n              0x00\n              swap5\n                /* \"MAAL Blockchain/RamzSwap/Core/FlattenedFactory.sol\":11718:11735  bytes memory data */\n              0x60\n              swap5\n                /* \"MAAL Blockchain/RamzSwap/Core/FlattenedFactory.sol\":11739:11749  token.call */\n              dup10\n              and\n              swap4\n                /* \"MAAL Blockchain/RamzSwap/Core/FlattenedFactory.sol\":11750:11793  abi.encodeWithSelector(SELECTOR, to, value) */\n              swap3\n                /* \"MAAL Blockchain/RamzSwap/Core/FlattenedFactory.sol\":11739:11794  token.call(abi.encodeWithSelector(SELECTOR, to, value)) */\n              swap2\n              dup3\n              swap2\n                /* \"--CODEGEN--\":25:43   */\n              swap1\n                /* \"MAAL Blockchain/RamzSwap/Core/FlattenedFactory.sol\":11739:11794  token.call(abi.encodeWithSelector(SELECTOR, to, value)) */\n              dup1\n              dup4\n                /* \"--CODEGEN--\":25:43   */\n              dup4\n                /* \"--CODEGEN--\":36:189   */\n            tag_263:\n                /* \"--CODEGEN--\":66:68   */\n              0x20\n                /* \"--CODEGEN--\":61:64   */\n              dup4\n                /* \"--CODEGEN--\":58:69   */\n              lt\n                /* \"--CODEGEN--\":36:189   */\n              tag_265\n              jumpi\n                /* \"--CODEGEN--\":176:186   */\n              dup1\n              mload\n                /* \"--CODEGEN--\":164:187   */\n              dup3\n              mstore\n              not(0x1f)\n                /* \"--CODEGEN--\":139:151   */\n              swap1\n              swap3\n              add\n              swap2\n                /* \"--CODEGEN--\":98:100   */\n              0x20\n                /* \"--CODEGEN--\":89:101   */\n              swap2\n              dup3\n              add\n              swap2\n                /* \"--CODEGEN--\":114:126   */\n              add\n                /* \"--CODEGEN--\":36:189   */\n              jump(tag_263)\n            tag_265:\n                /* \"--CODEGEN--\":274:275   */\n              0x01\n                /* \"--CODEGEN--\":267:270   */\n              dup4\n                /* \"--CODEGEN--\":263:265   */\n              0x20\n                /* \"--CODEGEN--\":259:271   */\n              sub\n                /* \"--CODEGEN--\":254:257   */\n              0x0100\n                /* \"--CODEGEN--\":250:272   */\n              exp\n                /* \"--CODEGEN--\":246:276   */\n              sub\n                /* \"--CODEGEN--\":315:319   */\n              dup1\n                /* \"--CODEGEN--\":311:320   */\n              not\n                /* \"--CODEGEN--\":305:308   */\n              dup3\n                /* \"--CODEGEN--\":299:309   */\n              mload\n                /* \"--CODEGEN--\":295:321   */\n              and\n                /* \"--CODEGEN--\":356:360   */\n              dup2\n                /* \"--CODEGEN--\":350:353   */\n              dup5\n                /* \"--CODEGEN--\":344:354   */\n              mload\n                /* \"--CODEGEN--\":340:361   */\n              and\n                /* \"--CODEGEN--\":389:396   */\n              dup1\n                /* \"--CODEGEN--\":380:387   */\n              dup3\n                /* \"--CODEGEN--\":377:397   */\n              or\n                /* \"--CODEGEN--\":372:375   */\n              dup6\n                /* \"--CODEGEN--\":365:398   */\n              mstore\n                /* \"--CODEGEN--\":3:402   */\n              pop\n              pop\n              pop\n                /* \"MAAL Blockchain/RamzSwap/Core/FlattenedFactory.sol\":11739:11794  token.call(abi.encodeWithSelector(SELECTOR, to, value)) */\n              pop\n              pop\n              pop\n              swap1\n              pop\n              add\n              swap2\n              pop\n              pop\n              0x00\n              mload(0x40)\n              dup1\n              dup4\n              sub\n              dup2\n              0x00\n              dup7\n              gas\n              call\n              swap2\n              pop\n              pop\n              returndatasize\n                /* \"--CODEGEN--\":14:15   */\n              dup1\n                /* \"--CODEGEN--\":21:22   */\n              0x00\n                /* \"--CODEGEN--\":16:47   */\n              dup2\n              eq\n              tag_267\n              jumpi\n                /* \"--CODEGEN--\":75:79   */\n              0x40\n                /* \"--CODEGEN--\":69:80   */\n              mload\n                /* \"--CODEGEN--\":64:80   */\n              swap2\n              pop\n                /* \"--CODEGEN--\":144:148   */\n              0x1f\n                /* \"--CODEGEN--\":140:149   */\n              not\n                /* \"--CODEGEN--\":133:137   */\n              0x3f\n                /* \"--CODEGEN--\":115:131   */\n              returndatasize\n                /* \"--CODEGEN--\":111:138   */\n              add\n                /* \"--CODEGEN--\":107:150   */\n              and\n                /* \"--CODEGEN--\":104:105   */\n              dup3\n                /* \"--CODEGEN--\":100:151   */\n              add\n                /* \"--CODEGEN--\":94:98   */\n              0x40\n                /* \"--CODEGEN--\":87:152   */\n              mstore\n                /* \"--CODEGEN--\":169:185   */\n              returndatasize\n                /* \"--CODEGEN--\":166:167   */\n              dup3\n                /* \"--CODEGEN--\":159:186   */\n              mstore\n                /* \"--CODEGEN--\":225:241   */\n              returndatasize\n                /* \"--CODEGEN--\":222:223   */\n              0x00\n                /* \"--CODEGEN--\":215:219   */\n              0x20\n                /* \"--CODEGEN--\":212:213   */\n              dup5\n                /* \"--CODEGEN--\":208:220   */\n              add\n                /* \"--CODEGEN--\":193:242   */\n              returndatacopy\n                /* \"--CODEGEN--\":7:249   */\n              jump(tag_266)\n                /* \"--CODEGEN--\":16:47   */\n            tag_267:\n                /* \"--CODEGEN--\":36:40   */\n              0x60\n                /* \"--CODEGEN--\":31:40   */\n              swap2\n              pop\n                /* \"--CODEGEN--\":7:249   */\n            tag_266:\n              pop\n                /* \"MAAL Blockchain/RamzSwap/Core/FlattenedFactory.sol\":11703:11794  (bool success, bytes memory data) = token.call(abi.encodeWithSelector(SELECTOR, to, value)) */\n              swap2\n              pop\n              swap2\n              pop\n                /* \"MAAL Blockchain/RamzSwap/Core/FlattenedFactory.sol\":11813:11820  success */\n              dup2\n                /* \"MAAL Blockchain/RamzSwap/Core/FlattenedFactory.sol\":11813:11870  success && (data.length == 0 || abi.decode(data, (bool))) */\n              dup1\n              iszero\n              tag_269\n              jumpi\n              pop\n                /* \"MAAL Blockchain/RamzSwap/Core/FlattenedFactory.sol\":11825:11836  data.length */\n              dup1\n              mload\n                /* \"MAAL Blockchain/RamzSwap/Core/FlattenedFactory.sol\":11825:11841  data.length == 0 */\n              iszero\n              dup1\n                /* \"MAAL Blockchain/RamzSwap/Core/FlattenedFactory.sol\":11825:11869  data.length == 0 || abi.decode(data, (bool)) */\n              tag_269\n              jumpi\n              pop\n                /* \"MAAL Blockchain/RamzSwap/Core/FlattenedFactory.sol\":11856:11860  data */\n              dup1\n                /* \"MAAL Blockchain/RamzSwap/Core/FlattenedFactory.sol\":11845:11869  abi.decode(data, (bool)) */\n              dup1\n              0x20\n              add\n              swap1\n              mload\n                /* \"--CODEGEN--\":13:15   */\n              0x20\n                /* \"--CODEGEN--\":8:11   */\n              dup2\n                /* \"--CODEGEN--\":5:16   */\n              lt\n                /* \"--CODEGEN--\":2:4   */\n              iszero\n              tag_270\n              jumpi\n                /* \"--CODEGEN--\":29:30   */\n              0x00\n                /* \"--CODEGEN--\":26:27   */\n              dup1\n                /* \"--CODEGEN--\":19:31   */\n              revert\n                /* \"--CODEGEN--\":2:4   */\n            tag_270:\n              pop\n                /* \"MAAL Blockchain/RamzSwap/Core/FlattenedFactory.sol\":11845:11869  abi.decode(data, (bool)) */\n              mload\n                /* \"MAAL Blockchain/RamzSwap/Core/FlattenedFactory.sol\":11825:11869  data.length == 0 || abi.decode(data, (bool)) */\n            tag_269:\n                /* \"MAAL Blockchain/RamzSwap/Core/FlattenedFactory.sol\":11805:11900  require(success && (data.length == 0 || abi.decode(data, (bool))), 'RamzSwap: TRANSFER_FAILED') */\n              tag_271\n              jumpi\n              0x40\n              dup1\n              mload\n              shl(0xe5, 0x461bcd)\n              dup2\n              mstore\n              0x20\n              0x04\n              dup3\n              add\n              mstore\n              0x19\n              0x24\n              dup3\n              add\n              mstore\n              0x52616d7a537761703a205452414e534645525f4641494c454400000000000000\n              0x44\n              dup3\n              add\n              mstore\n              swap1\n              mload\n              swap1\n              dup2\n              swap1\n              sub\n              0x64\n              add\n              swap1\n              revert\n            tag_271:\n                /* \"MAAL Blockchain/RamzSwap/Core/FlattenedFactory.sol\":11622:11908  function _safeTransfer(address token, address to, uint value) private {\r... */\n              pop\n              pop\n              pop\n              pop\n              pop\n              jump\t// out\n                /* \"MAAL Blockchain/RamzSwap/Core/FlattenedFactory.sol\":1032:1174  function mul(uint x, uint y) internal pure returns (uint z) {\r... */\n            tag_145:\n                /* \"MAAL Blockchain/RamzSwap/Core/FlattenedFactory.sol\":1084:1090  uint z */\n              0x00\n                /* \"MAAL Blockchain/RamzSwap/Core/FlattenedFactory.sol\":1111:1117  y == 0 */\n              dup2\n              iszero\n              dup1\n                /* \"MAAL Blockchain/RamzSwap/Core/FlattenedFactory.sol\":1111:1141  y == 0 || (z = x * y) / y == x */\n              tag_273\n              jumpi\n              pop\n              pop\n                /* \"MAAL Blockchain/RamzSwap/Core/FlattenedFactory.sol\":1126:1131  x * y */\n              dup1\n              dup3\n              mul\n                /* \"MAAL Blockchain/RamzSwap/Core/FlattenedFactory.sol\":1140:1141  x */\n              dup3\n                /* \"MAAL Blockchain/RamzSwap/Core/FlattenedFactory.sol\":1135:1136  y */\n              dup3\n                /* \"MAAL Blockchain/RamzSwap/Core/FlattenedFactory.sol\":1126:1131  x * y */\n              dup3\n                /* \"MAAL Blockchain/RamzSwap/Core/FlattenedFactory.sol\":1135:1136  y */\n              dup2\n                /* \"MAAL Blockchain/RamzSwap/Core/FlattenedFactory.sol\":1121:1136  (z = x * y) / y */\n              tag_274\n              jumpi\n              invalid\n            tag_274:\n              div\n                /* \"MAAL Blockchain/RamzSwap/Core/FlattenedFactory.sol\":1121:1141  (z = x * y) / y == x */\n              eq\n                /* \"MAAL Blockchain/RamzSwap/Core/FlattenedFactory.sol\":1111:1141  y == 0 || (z = x * y) / y == x */\n            tag_273:\n                /* \"MAAL Blockchain/RamzSwap/Core/FlattenedFactory.sol\":1103:1166  require(y == 0 || (z = x * y) / y == x, 'ds-math-mul-overflow') */\n              tag_158\n              jumpi\n              0x40\n              dup1\n              mload\n              shl(0xe5, 0x461bcd)\n              dup2\n              mstore\n              0x20\n              0x04\n              dup3\n              add\n              mstore\n              0x14\n              0x24\n              dup3\n              add\n              mstore\n              shl(0x60, 0x64732d6d6174682d6d756c2d6f766572666c6f77)\n              0x44\n              dup3\n              add\n              mstore\n              swap1\n              mload\n              swap1\n              dup2\n              swap1\n              sub\n              0x64\n              add\n              swap1\n              revert\n                /* \"MAAL Blockchain/RamzSwap/Core/FlattenedFactory.sol\":895:1024  function sub(uint x, uint y) internal pure returns (uint z) {\r... */\n            tag_147:\n                /* \"MAAL Blockchain/RamzSwap/Core/FlattenedFactory.sol\":979:984  x - y */\n              dup1\n              dup3\n              sub\n                /* \"MAAL Blockchain/RamzSwap/Core/FlattenedFactory.sol\":974:990  (z = x - y) <= x */\n              dup3\n              dup2\n              gt\n              iszero\n                /* \"MAAL Blockchain/RamzSwap/Core/FlattenedFactory.sol\":966:1016  require((z = x - y) <= x, 'ds-math-sub-underflow') */\n              tag_158\n              jumpi\n              0x40\n              dup1\n              mload\n              shl(0xe5, 0x461bcd)\n              dup2\n              mstore\n              0x20\n              0x04\n              dup3\n              add\n              mstore\n              0x15\n              0x24\n              dup3\n              add\n              mstore\n              shl(0x58, 0x64732d6d6174682d7375622d756e646572666c6f77)\n              0x44\n              dup3\n              add\n              mstore\n              swap1\n              mload\n              swap1\n              dup2\n              swap1\n              sub\n              0x64\n              add\n              swap1\n              revert\n                /* \"MAAL Blockchain/RamzSwap/Core/FlattenedFactory.sol\":12736:13595  function _update(uint balance0, uint balance1, uint112 _reserve0, uint112 _reserve1) private {\r... */\n            tag_156:\n              sub(shl(0x70, 0x01), 0x01)\n                /* \"MAAL Blockchain/RamzSwap/Core/FlattenedFactory.sol\":12848:12871  balance0 <= uint112(-1) */\n              dup5\n              gt\n              dup1\n              iszero\n              swap1\n                /* \"MAAL Blockchain/RamzSwap/Core/FlattenedFactory.sol\":12848:12898  balance0 <= uint112(-1) && balance1 <= uint112(-1) */\n              tag_279\n              jumpi\n              pop\n              sub(shl(0x70, 0x01), 0x01)\n                /* \"MAAL Blockchain/RamzSwap/Core/FlattenedFactory.sol\":12875:12898  balance1 <= uint112(-1) */\n              dup4\n              gt\n              iszero\n                /* \"MAAL Blockchain/RamzSwap/Core/FlattenedFactory.sol\":12848:12898  balance0 <= uint112(-1) && balance1 <= uint112(-1) */\n            tag_279:\n                /* \"MAAL Blockchain/RamzSwap/Core/FlattenedFactory.sol\":12840:12921  require(balance0 <= uint112(-1) && balance1 <= uint112(-1), 'RamzSwap: OVERFLOW') */\n              tag_280\n              jumpi\n              0x40\n              dup1\n              mload\n              shl(0xe5, 0x461bcd)\n              dup2\n              mstore\n              0x20\n              0x04\n              dup3\n              add\n              mstore\n              0x12\n              0x24\n              dup3\n              add\n              mstore\n              shl(0x70, 0x52616d7a537761703a204f564552464c4f57)\n              0x44\n              dup3\n              add\n              mstore\n              swap1\n              mload\n              swap1\n              dup2\n              swap1\n              sub\n              0x64\n              add\n              swap1\n              revert\n            tag_280:\n                /* \"MAAL Blockchain/RamzSwap/Core/FlattenedFactory.sol\":13036:13054  blockTimestampLast */\n              sload(0x08)\n                /* \"MAAL Blockchain/RamzSwap/Core/FlattenedFactory.sol\":12963:12986  block.timestamp % 2**32 */\n              0xffffffff\n                /* \"MAAL Blockchain/RamzSwap/Core/FlattenedFactory.sol\":12963:12978  block.timestamp */\n              timestamp\n                /* \"MAAL Blockchain/RamzSwap/Core/FlattenedFactory.sol\":12963:12986  block.timestamp % 2**32 */\n              dup2\n              and\n              swap2\n              shl(0xe0, 0x01)\n                /* \"MAAL Blockchain/RamzSwap/Core/FlattenedFactory.sol\":13036:13054  blockTimestampLast */\n              swap1\n              div\n              dup2\n              and\n                /* \"MAAL Blockchain/RamzSwap/Core/FlattenedFactory.sol\":13019:13054  blockTimestamp - blockTimestampLast */\n              dup3\n              sub\n              swap1\n                /* \"MAAL Blockchain/RamzSwap/Core/FlattenedFactory.sol\":13092:13107  timeElapsed > 0 */\n              dup2\n              and\n              iszero\n              dup1\n              iszero\n              swap1\n                /* \"MAAL Blockchain/RamzSwap/Core/FlattenedFactory.sol\":13092:13125  timeElapsed > 0 && _reserve0 != 0 */\n              tag_282\n              jumpi\n              pop\n              sub(shl(0x70, 0x01), 0x01)\n                /* \"MAAL Blockchain/RamzSwap/Core/FlattenedFactory.sol\":13111:13125  _reserve0 != 0 */\n              dup5\n              and\n              iszero\n              iszero\n                /* \"MAAL Blockchain/RamzSwap/Core/FlattenedFactory.sol\":13092:13125  timeElapsed > 0 && _reserve0 != 0 */\n            tag_282:\n                /* \"MAAL Blockchain/RamzSwap/Core/FlattenedFactory.sol\":13092:13143  timeElapsed > 0 && _reserve0 != 0 && _reserve1 != 0 */\n              dup1\n              iszero\n              tag_283\n              jumpi\n              pop\n              sub(shl(0x70, 0x01), 0x01)\n                /* \"MAAL Blockchain/RamzSwap/Core/FlattenedFactory.sol\":13129:13143  _reserve1 != 0 */\n              dup4\n              and\n              iszero\n              iszero\n                /* \"MAAL Blockchain/RamzSwap/Core/FlattenedFactory.sol\":13092:13143  timeElapsed > 0 && _reserve0 != 0 && _reserve1 != 0 */\n            tag_283:\n                /* \"MAAL Blockchain/RamzSwap/Core/FlattenedFactory.sol\":13088:13424  if (timeElapsed > 0 && _reserve0 != 0 && _reserve1 != 0) {\r... */\n              iszero\n              tag_284\n              jumpi\n                /* \"MAAL Blockchain/RamzSwap/Core/FlattenedFactory.sol\":13298:13309  timeElapsed */\n              dup1\n                /* \"MAAL Blockchain/RamzSwap/Core/FlattenedFactory.sol\":13245:13309  uint(UQ112x112.encode(_reserve1).uqdiv(_reserve0)) * timeElapsed */\n              0xffffffff\n              and\n                /* \"MAAL Blockchain/RamzSwap/Core/FlattenedFactory.sol\":13250:13294  UQ112x112.encode(_reserve1).uqdiv(_reserve0) */\n              tag_285\n                /* \"MAAL Blockchain/RamzSwap/Core/FlattenedFactory.sol\":13284:13293  _reserve0 */\n              dup6\n                /* \"MAAL Blockchain/RamzSwap/Core/FlattenedFactory.sol\":13250:13277  UQ112x112.encode(_reserve1) */\n              tag_286\n                /* \"MAAL Blockchain/RamzSwap/Core/FlattenedFactory.sol\":13267:13276  _reserve1 */\n              dup7\n                /* \"MAAL Blockchain/RamzSwap/Core/FlattenedFactory.sol\":13250:13266  UQ112x112.encode */\n              tag_287\n                /* \"MAAL Blockchain/RamzSwap/Core/FlattenedFactory.sol\":13250:13277  UQ112x112.encode(_reserve1) */\n              jump\t// in\n            tag_286:\n              sub(shl(0xe0, 0x01), 0x01)\n                /* \"MAAL Blockchain/RamzSwap/Core/FlattenedFactory.sol\":13250:13283  UQ112x112.encode(_reserve1).uqdiv */\n              and\n              swap1\n              tag_288\n                /* \"MAAL Blockchain/RamzSwap/Core/FlattenedFactory.sol\":13250:13294  UQ112x112.encode(_reserve1).uqdiv(_reserve0) */\n              jump\t// in\n            tag_285:\n                /* \"MAAL Blockchain/RamzSwap/Core/FlattenedFactory.sol\":13221:13241  price0CumulativeLast */\n              0x09\n                /* \"MAAL Blockchain/RamzSwap/Core/FlattenedFactory.sol\":13221:13309  price0CumulativeLast += uint(UQ112x112.encode(_reserve1).uqdiv(_reserve0)) * timeElapsed */\n              dup1\n              sload\n              sub(shl(0xe0, 0x01), 0x01)\n                /* \"MAAL Blockchain/RamzSwap/Core/FlattenedFactory.sol\":13245:13295  uint(UQ112x112.encode(_reserve1).uqdiv(_reserve0)) */\n              swap3\n              swap1\n              swap3\n              and\n                /* \"MAAL Blockchain/RamzSwap/Core/FlattenedFactory.sol\":13245:13309  uint(UQ112x112.encode(_reserve1).uqdiv(_reserve0)) * timeElapsed */\n              swap3\n              swap1\n              swap3\n              mul\n                /* \"MAAL Blockchain/RamzSwap/Core/FlattenedFactory.sol\":13221:13309  price0CumulativeLast += uint(UQ112x112.encode(_reserve1).uqdiv(_reserve0)) * timeElapsed */\n              add\n              swap1\n              sstore\n                /* \"MAAL Blockchain/RamzSwap/Core/FlattenedFactory.sol\":13348:13412  uint(UQ112x112.encode(_reserve0).uqdiv(_reserve1)) * timeElapsed */\n              0xffffffff\n              dup2\n              and\n                /* \"MAAL Blockchain/RamzSwap/Core/FlattenedFactory.sol\":13353:13397  UQ112x112.encode(_reserve0).uqdiv(_reserve1) */\n              tag_289\n                /* \"MAAL Blockchain/RamzSwap/Core/FlattenedFactory.sol\":13387:13396  _reserve1 */\n              dup5\n                /* \"MAAL Blockchain/RamzSwap/Core/FlattenedFactory.sol\":13353:13380  UQ112x112.encode(_reserve0) */\n              tag_286\n                /* \"MAAL Blockchain/RamzSwap/Core/FlattenedFactory.sol\":13370:13379  _reserve0 */\n              dup8\n                /* \"MAAL Blockchain/RamzSwap/Core/FlattenedFactory.sol\":13353:13369  UQ112x112.encode */\n              tag_287\n                /* \"MAAL Blockchain/RamzSwap/Core/FlattenedFactory.sol\":13353:13380  UQ112x112.encode(_reserve0) */\n              jump\t// in\n                /* \"MAAL Blockchain/RamzSwap/Core/FlattenedFactory.sol\":13353:13397  UQ112x112.encode(_reserve0).uqdiv(_reserve1) */\n            tag_289:\n                /* \"MAAL Blockchain/RamzSwap/Core/FlattenedFactory.sol\":13324:13344  price1CumulativeLast */\n              0x0a\n                /* \"MAAL Blockchain/RamzSwap/Core/FlattenedFactory.sol\":13324:13412  price1CumulativeLast += uint(UQ112x112.encode(_reserve0).uqdiv(_reserve1)) * timeElapsed */\n              dup1\n              sload\n              sub(shl(0xe0, 0x01), 0x01)\n                /* \"MAAL Blockchain/RamzSwap/Core/FlattenedFactory.sol\":13348:13398  uint(UQ112x112.encode(_reserve0).uqdiv(_reserve1)) */\n              swap3\n              swap1\n              swap3\n              and\n                /* \"MAAL Blockchain/RamzSwap/Core/FlattenedFactory.sol\":13348:13412  uint(UQ112x112.encode(_reserve0).uqdiv(_reserve1)) * timeElapsed */\n              swap3\n              swap1\n              swap3\n              mul\n                /* \"MAAL Blockchain/RamzSwap/Core/FlattenedFactory.sol\":13324:13412  price1CumulativeLast += uint(UQ112x112.encode(_reserve0).uqdiv(_reserve1)) * timeElapsed */\n              add\n              swap1\n              sstore\n                /* \"MAAL Blockchain/RamzSwap/Core/FlattenedFactory.sol\":13088:13424  if (timeElapsed > 0 && _reserve0 != 0 && _reserve1 != 0) {\r... */\n            tag_284:\n                /* \"MAAL Blockchain/RamzSwap/Core/FlattenedFactory.sol\":13434:13442  reserve0 */\n              0x08\n                /* \"MAAL Blockchain/RamzSwap/Core/FlattenedFactory.sol\":13434:13462  reserve0 = uint112(balance0) */\n              dup1\n              sload\n              not(0xffffffffffffffffffffffffffff)\n              and\n              sub(shl(0x70, 0x01), 0x01)\n              dup9\n              dup2\n              and\n              swap2\n              swap1\n              swap2\n              or\n              not(shl(0x70, 0xffffffffffffffffffffffffffff))\n                /* \"MAAL Blockchain/RamzSwap/Core/FlattenedFactory.sol\":13473:13501  reserve1 = uint112(balance1) */\n              and\n              shl(0x70, 0x01)\n              dup9\n              dup4\n              and\n              dup2\n              mul\n              swap2\n              swap1\n              swap2\n              or\n              sub(shl(0xe0, 0x01), 0x01)\n                /* \"MAAL Blockchain/RamzSwap/Core/FlattenedFactory.sol\":13512:13547  blockTimestampLast = blockTimestamp */\n              and\n              shl(0xe0, 0x01)\n              0xffffffff\n              dup8\n              and\n              mul\n              or\n              swap3\n              dup4\n              swap1\n              sstore\n                /* \"MAAL Blockchain/RamzSwap/Core/FlattenedFactory.sol\":13563:13587  Sync(reserve0, reserve1) */\n              0x40\n              dup1\n              mload\n                /* \"MAAL Blockchain/RamzSwap/Core/FlattenedFactory.sol\":13568:13576  reserve0 */\n              dup5\n              dup5\n              and\n                /* \"MAAL Blockchain/RamzSwap/Core/FlattenedFactory.sol\":13563:13587  Sync(reserve0, reserve1) */\n              dup2\n              mstore\n                /* \"MAAL Blockchain/RamzSwap/Core/FlattenedFactory.sol\":13578:13586  reserve1 */\n              swap2\n              swap1\n              swap4\n              div\n              swap1\n              swap2\n              and\n                /* \"MAAL Blockchain/RamzSwap/Core/FlattenedFactory.sol\":13563:13587  Sync(reserve0, reserve1) */\n              0x20\n              dup3\n              add\n              mstore\n              dup2\n              mload\n              0x1c411e9a96e071241c2f21f7726b17ae89e3cab4c78be50e062b03a9fffbbad1\n              swap3\n              swap2\n              dup2\n              swap1\n              sub\n              swap1\n              swap2\n              add\n              swap1\n              log1\n                /* \"MAAL Blockchain/RamzSwap/Core/FlattenedFactory.sol\":12736:13595  function _update(uint balance0, uint balance1, uint112 _reserve0, uint112 _reserve1) private {\r... */\n              pop\n              pop\n              pop\n              pop\n              pop\n              pop\n              jump\t// out\n                /* \"MAAL Blockchain/RamzSwap/Core/FlattenedFactory.sol\":8668:8837  function _approve(address owner, address spender, uint value) private {\r... */\n            tag_160:\n              sub(shl(0xa0, 0x01), 0x01)\n                /* \"MAAL Blockchain/RamzSwap/Core/FlattenedFactory.sol\":8749:8765  allowance[owner] */\n              dup4\n              dup2\n              and\n              0x00\n              dup2\n              dup2\n              mstore\n                /* \"MAAL Blockchain/RamzSwap/Core/FlattenedFactory.sol\":8749:8758  allowance */\n              0x02\n                /* \"MAAL Blockchain/RamzSwap/Core/FlattenedFactory.sol\":8749:8765  allowance[owner] */\n              0x20\n              swap1\n              dup2\n              mstore\n              0x40\n              dup1\n              dup4\n              keccak256\n                /* \"MAAL Blockchain/RamzSwap/Core/FlattenedFactory.sol\":8749:8774  allowance[owner][spender] */\n              swap5\n              dup8\n              and\n              dup1\n              dup5\n              mstore\n              swap5\n              dup3\n              mstore\n              swap2\n              dup3\n              swap1\n              keccak256\n                /* \"MAAL Blockchain/RamzSwap/Core/FlattenedFactory.sol\":8749:8782  allowance[owner][spender] = value */\n              dup6\n              swap1\n              sstore\n                /* \"MAAL Blockchain/RamzSwap/Core/FlattenedFactory.sol\":8798:8829  Approval(owner, spender, value) */\n              dup2\n              mload\n              dup6\n              dup2\n              mstore\n              swap2\n              mload\n              0x8c5be1e5ebec7d5bd14f71427d1e84f3dd0314c0f7b2291e5b200ac8c7c3b925\n              swap3\n              dup2\n              swap1\n              sub\n              swap1\n              swap2\n              add\n              swap1\n              log3\n                /* \"MAAL Blockchain/RamzSwap/Core/FlattenedFactory.sol\":8668:8837  function _approve(address owner, address spender, uint value) private {\r... */\n              pop\n              pop\n              pop\n              jump\t// out\n                /* \"MAAL Blockchain/RamzSwap/Core/FlattenedFactory.sol\":8845:9065  function _transfer(address from, address to, uint value) private {\r... */\n            tag_165:\n              sub(shl(0xa0, 0x01), 0x01)\n                /* \"MAAL Blockchain/RamzSwap/Core/FlattenedFactory.sol\":8939:8954  balanceOf[from] */\n              dup4\n              and\n              0x00\n              swap1\n              dup2\n              mstore\n              mstore(0x20, 0x01)\n              0x40\n              swap1\n              keccak256\n              sload\n                /* \"MAAL Blockchain/RamzSwap/Core/FlattenedFactory.sol\":8939:8965  balanceOf[from].sub(value) */\n              tag_293\n              swap1\n                /* \"MAAL Blockchain/RamzSwap/Core/FlattenedFactory.sol\":8959:8964  value */\n              dup3\n                /* \"MAAL Blockchain/RamzSwap/Core/FlattenedFactory.sol\":8939:8958  balanceOf[from].sub */\n              tag_147\n                /* \"MAAL Blockchain/RamzSwap/Core/FlattenedFactory.sol\":8939:8965  balanceOf[from].sub(value) */\n              jump\t// in\n            tag_293:\n              sub(shl(0xa0, 0x01), 0x01)\n                /* \"MAAL Blockchain/RamzSwap/Core/FlattenedFactory.sol\":8921:8936  balanceOf[from] */\n              dup5\n              dup2\n              and\n              0x00\n              swap1\n              dup2\n              mstore\n              mstore(0x20, 0x01)\n              0x40\n              dup1\n              dup3\n              keccak256\n                /* \"MAAL Blockchain/RamzSwap/Core/FlattenedFactory.sol\":8921:8965  balanceOf[from] = balanceOf[from].sub(value) */\n              swap4\n              swap1\n              swap4\n              sstore\n                /* \"MAAL Blockchain/RamzSwap/Core/FlattenedFactory.sol\":8992:9005  balanceOf[to] */\n              swap1\n              dup5\n              and\n              dup2\n              mstore\n              keccak256\n              sload\n                /* \"MAAL Blockchain/RamzSwap/Core/FlattenedFactory.sol\":8992:9016  balanceOf[to].add(value) */\n              tag_294\n              swap1\n                /* \"MAAL Blockchain/RamzSwap/Core/FlattenedFactory.sol\":9010:9015  value */\n              dup3\n                /* \"MAAL Blockchain/RamzSwap/Core/FlattenedFactory.sol\":8992:9009  balanceOf[to].add */\n              tag_295\n                /* \"MAAL Blockchain/RamzSwap/Core/FlattenedFactory.sol\":8992:9016  balanceOf[to].add(value) */\n              jump\t// in\n            tag_294:\n              sub(shl(0xa0, 0x01), 0x01)\n                /* \"MAAL Blockchain/RamzSwap/Core/FlattenedFactory.sol\":8976:8989  balanceOf[to] */\n              dup4\n              dup2\n              and\n              0x00\n              dup2\n              dup2\n              mstore\n              0x01\n              0x20\n              swap1\n              dup2\n              mstore\n              0x40\n              swap2\n              dup3\n              swap1\n              keccak256\n                /* \"MAAL Blockchain/RamzSwap/Core/FlattenedFactory.sol\":8976:9016  balanceOf[to] = balanceOf[to].add(value) */\n              swap5\n              swap1\n              swap5\n              sstore\n                /* \"MAAL Blockchain/RamzSwap/Core/FlattenedFactory.sol\":9032:9057  Transfer(from, to, value) */\n              dup1\n              mload\n              dup6\n              dup2\n              mstore\n              swap1\n              mload\n                /* \"MAAL Blockchain/RamzSwap/Core/FlattenedFactory.sol\":8976:8989  balanceOf[to] */\n              swap2\n              swap4\n                /* \"MAAL Blockchain/RamzSwap/Core/FlattenedFactory.sol\":9032:9057  Transfer(from, to, value) */\n              swap3\n              dup8\n              and\n              swap3\n              0xddf252ad1be2c89b69c2b068fc378daa952ba7f163c4a11628f55a4df523b3ef\n              swap3\n              swap2\n              dup3\n              swap1\n              sub\n              add\n              swap1\n              log3\n                /* \"MAAL Blockchain/RamzSwap/Core/FlattenedFactory.sol\":8845:9065  function _transfer(address from, address to, uint value) private {\r... */\n              pop\n              pop\n              pop\n              jump\t// out\n                /* \"MAAL Blockchain/RamzSwap/Core/FlattenedFactory.sol\":13685:14521  function _mintFee(uint112 _reserve0, uint112 _reserve1) private returns (bool feeOn) {\r... */\n            tag_181:\n                /* \"MAAL Blockchain/RamzSwap/Core/FlattenedFactory.sol\":13814:13821  factory */\n              sload(0x05)\n                /* \"MAAL Blockchain/RamzSwap/Core/FlattenedFactory.sol\":13797:13830  IRamzSwapFactory(factory).feeTo() */\n              0x40\n              dup1\n              mload\n              shl(0xe3, 0x2fcfcb)\n              dup2\n              mstore\n              swap1\n              mload\n                /* \"MAAL Blockchain/RamzSwap/Core/FlattenedFactory.sol\":13758:13768  bool feeOn */\n              0x00\n              swap3\n              dup4\n              swap3\n              sub(shl(0xa0, 0x01), 0x01)\n                /* \"MAAL Blockchain/RamzSwap/Core/FlattenedFactory.sol\":13814:13821  factory */\n              swap1\n              swap2\n              and\n              swap2\n                /* \"MAAL Blockchain/RamzSwap/Core/FlattenedFactory.sol\":13797:13828  IRamzSwapFactory(factory).feeTo */\n              0x017e7e58\n              swap2\n                /* \"MAAL Blockchain/RamzSwap/Core/FlattenedFactory.sol\":13797:13830  IRamzSwapFactory(factory).feeTo() */\n              0x04\n              dup1\n              dup3\n              add\n              swap3\n              0x20\n              swap3\n              swap1\n              swap2\n              swap1\n              dup3\n              swap1\n              sub\n              add\n              dup2\n                /* \"MAAL Blockchain/RamzSwap/Core/FlattenedFactory.sol\":13814:13821  factory */\n              dup7\n                /* \"MAAL Blockchain/RamzSwap/Core/FlattenedFactory.sol\":13797:13830  IRamzSwapFactory(factory).feeTo() */\n              dup1\n              extcodesize\n              iszero\n                /* \"--CODEGEN--\":5:7   */\n              dup1\n              iszero\n              tag_297\n              jumpi\n                /* \"--CODEGEN--\":30:31   */\n              0x00\n                /* \"--CODEGEN--\":27:28   */\n              dup1\n                /* \"--CODEGEN--\":20:32   */\n              revert\n                /* \"--CODEGEN--\":5:7   */\n            tag_297:\n                /* \"MAAL Blockchain/RamzSwap/Core/FlattenedFactory.sol\":13797:13830  IRamzSwapFactory(factory).feeTo() */\n              pop\n              gas\n              staticcall\n              iszero\n                /* \"--CODEGEN--\":8:17   */\n              dup1\n                /* \"--CODEGEN--\":5:7   */\n              iszero\n              tag_298\n              jumpi\n                /* \"--CODEGEN--\":45:61   */\n              returndatasize\n                /* \"--CODEGEN--\":42:43   */\n              0x00\n                /* \"--CODEGEN--\":39:40   */\n              dup1\n                /* \"--CODEGEN--\":24:62   */\n              returndatacopy\n                /* \"--CODEGEN--\":77:93   */\n              returndatasize\n                /* \"--CODEGEN--\":74:75   */\n              0x00\n                /* \"--CODEGEN--\":67:94   */\n              revert\n                /* \"--CODEGEN--\":5:7   */\n            tag_298:\n                /* \"MAAL Blockchain/RamzSwap/Core/FlattenedFactory.sol\":13797:13830  IRamzSwapFactory(factory).feeTo() */\n              pop\n              pop\n              pop\n              pop\n              mload(0x40)\n              returndatasize\n                /* \"--CODEGEN--\":13:15   */\n              0x20\n                /* \"--CODEGEN--\":8:11   */\n              dup2\n                /* \"--CODEGEN--\":5:16   */\n              lt\n                /* \"--CODEGEN--\":2:4   */\n              iszero\n              tag_299\n              jumpi\n                /* \"--CODEGEN--\":29:30   */\n              0x00\n                /* \"--CODEGEN--\":26:27   */\n              dup1\n                /* \"--CODEGEN--\":19:31   */\n              revert\n                /* \"--CODEGEN--\":2:4   */\n            tag_299:\n              pop\n                /* \"MAAL Blockchain/RamzSwap/Core/FlattenedFactory.sol\":13797:13830  IRamzSwapFactory(factory).feeTo() */\n              mload\n                /* \"MAAL Blockchain/RamzSwap/Core/FlattenedFactory.sol\":13893:13898  kLast */\n              sload(0x0b)\n              sub(shl(0xa0, 0x01), 0x01)\n                /* \"MAAL Blockchain/RamzSwap/Core/FlattenedFactory.sol\":13849:13868  feeTo != address(0) */\n              dup3\n              and\n              iszero\n              dup1\n              iszero\n              swap5\n              pop\n                /* \"MAAL Blockchain/RamzSwap/Core/FlattenedFactory.sol\":13797:13830  IRamzSwapFactory(factory).feeTo() */\n              swap2\n              swap3\n              pop\n                /* \"MAAL Blockchain/RamzSwap/Core/FlattenedFactory.sol\":13893:13898  kLast */\n              swap1\n                /* \"MAAL Blockchain/RamzSwap/Core/FlattenedFactory.sol\":13924:14514  if (feeOn) {\r... */\n              tag_300\n              jumpi\n                /* \"MAAL Blockchain/RamzSwap/Core/FlattenedFactory.sol\":13954:13965  _kLast != 0 */\n              dup1\n              iszero\n                /* \"MAAL Blockchain/RamzSwap/Core/FlattenedFactory.sol\":13950:14444  if (_kLast != 0) {\r... */\n              tag_301\n              jumpi\n                /* \"MAAL Blockchain/RamzSwap/Core/FlattenedFactory.sol\":13986:13996  uint rootK */\n              0x00\n                /* \"MAAL Blockchain/RamzSwap/Core/FlattenedFactory.sol\":13999:14040  Math.sqrt(uint(_reserve0).mul(_reserve1)) */\n              tag_302\n                /* \"MAAL Blockchain/RamzSwap/Core/FlattenedFactory.sol\":14009:14039  uint(_reserve0).mul(_reserve1) */\n              tag_185\n              sub(shl(0x70, 0x01), 0x01)\n                /* \"MAAL Blockchain/RamzSwap/Core/FlattenedFactory.sol\":14009:14024  uint(_reserve0) */\n              dup9\n              dup2\n              and\n              swap1\n                /* \"MAAL Blockchain/RamzSwap/Core/FlattenedFactory.sol\":14009:14039  uint(_reserve0).mul(_reserve1) */\n              dup9\n              and\n                /* \"MAAL Blockchain/RamzSwap/Core/FlattenedFactory.sol\":14009:14028  uint(_reserve0).mul */\n              tag_145\n                /* \"MAAL Blockchain/RamzSwap/Core/FlattenedFactory.sol\":14009:14039  uint(_reserve0).mul(_reserve1) */\n              jump\t// in\n                /* \"MAAL Blockchain/RamzSwap/Core/FlattenedFactory.sol\":13999:14040  Math.sqrt(uint(_reserve0).mul(_reserve1)) */\n            tag_302:\n                /* \"MAAL Blockchain/RamzSwap/Core/FlattenedFactory.sol\":13986:14040  uint rootK = Math.sqrt(uint(_reserve0).mul(_reserve1)) */\n              swap1\n              pop\n                /* \"MAAL Blockchain/RamzSwap/Core/FlattenedFactory.sol\":14059:14073  uint rootKLast */\n              0x00\n                /* \"MAAL Blockchain/RamzSwap/Core/FlattenedFactory.sol\":14076:14093  Math.sqrt(_kLast) */\n              tag_304\n                /* \"MAAL Blockchain/RamzSwap/Core/FlattenedFactory.sol\":14086:14092  _kLast */\n              dup4\n                /* \"MAAL Blockchain/RamzSwap/Core/FlattenedFactory.sol\":14076:14085  Math.sqrt */\n              tag_186\n                /* \"MAAL Blockchain/RamzSwap/Core/FlattenedFactory.sol\":14076:14093  Math.sqrt(_kLast) */\n              jump\t// in\n            tag_304:\n                /* \"MAAL Blockchain/RamzSwap/Core/FlattenedFactory.sol\":14059:14093  uint rootKLast = Math.sqrt(_kLast) */\n              swap1\n              pop\n                /* \"MAAL Blockchain/RamzSwap/Core/FlattenedFactory.sol\":14124:14133  rootKLast */\n              dup1\n                /* \"MAAL Blockchain/RamzSwap/Core/FlattenedFactory.sol\":14116:14121  rootK */\n              dup3\n                /* \"MAAL Blockchain/RamzSwap/Core/FlattenedFactory.sol\":14116:14133  rootK > rootKLast */\n              gt\n                /* \"MAAL Blockchain/RamzSwap/Core/FlattenedFactory.sol\":14112:14429  if (rootK > rootKLast) {\r... */\n              iszero\n              tag_305\n              jumpi\n                /* \"MAAL Blockchain/RamzSwap/Core/FlattenedFactory.sol\":14158:14172  uint numerator */\n              0x00\n                /* \"MAAL Blockchain/RamzSwap/Core/FlattenedFactory.sol\":14175:14212  totalSupply.mul(rootK.sub(rootKLast)) */\n              tag_306\n                /* \"MAAL Blockchain/RamzSwap/Core/FlattenedFactory.sol\":14191:14211  rootK.sub(rootKLast) */\n              tag_307\n                /* \"MAAL Blockchain/RamzSwap/Core/FlattenedFactory.sol\":14191:14196  rootK */\n              dup5\n                /* \"MAAL Blockchain/RamzSwap/Core/FlattenedFactory.sol\":14201:14210  rootKLast */\n              dup5\n                /* \"MAAL Blockchain/RamzSwap/Core/FlattenedFactory.sol\":14191:14211  rootK.sub(rootKLast) */\n              0xffffffff\n                /* \"MAAL Blockchain/RamzSwap/Core/FlattenedFactory.sol\":14191:14200  rootK.sub */\n              tag_147\n                /* \"MAAL Blockchain/RamzSwap/Core/FlattenedFactory.sol\":14191:14211  rootK.sub(rootKLast) */\n              and\n              jump\t// in\n            tag_307:\n                /* \"MAAL Blockchain/RamzSwap/Core/FlattenedFactory.sol\":14175:14186  totalSupply */\n              sload(0x00)\n              swap1\n                /* \"MAAL Blockchain/RamzSwap/Core/FlattenedFactory.sol\":14175:14212  totalSupply.mul(rootK.sub(rootKLast)) */\n              0xffffffff\n                /* \"MAAL Blockchain/RamzSwap/Core/FlattenedFactory.sol\":14175:14190  totalSupply.mul */\n              tag_145\n                /* \"MAAL Blockchain/RamzSwap/Core/FlattenedFactory.sol\":14175:14212  totalSupply.mul(rootK.sub(rootKLast)) */\n              and\n              jump\t// in\n            tag_306:\n                /* \"MAAL Blockchain/RamzSwap/Core/FlattenedFactory.sol\":14158:14212  uint numerator = totalSupply.mul(rootK.sub(rootKLast)) */\n              swap1\n              pop\n                /* \"MAAL Blockchain/RamzSwap/Core/FlattenedFactory.sol\":14235:14251  uint denominator */\n              0x00\n                /* \"MAAL Blockchain/RamzSwap/Core/FlattenedFactory.sol\":14254:14281  rootK.mul(5).add(rootKLast) */\n              tag_308\n                /* \"MAAL Blockchain/RamzSwap/Core/FlattenedFactory.sol\":14271:14280  rootKLast */\n              dup4\n                /* \"MAAL Blockchain/RamzSwap/Core/FlattenedFactory.sol\":14254:14266  rootK.mul(5) */\n              tag_309\n                /* \"MAAL Blockchain/RamzSwap/Core/FlattenedFactory.sol\":14254:14259  rootK */\n              dup7\n                /* \"MAAL Blockchain/RamzSwap/Core/FlattenedFactory.sol\":14264:14265  5 */\n              0x05\n                /* \"MAAL Blockchain/RamzSwap/Core/FlattenedFactory.sol\":14254:14266  rootK.mul(5) */\n              0xffffffff\n                /* \"MAAL Blockchain/RamzSwap/Core/FlattenedFactory.sol\":14254:14263  rootK.mul */\n              tag_145\n                /* \"MAAL Blockchain/RamzSwap/Core/FlattenedFactory.sol\":14254:14266  rootK.mul(5) */\n              and\n              jump\t// in\n            tag_309:\n                /* \"MAAL Blockchain/RamzSwap/Core/FlattenedFactory.sol\":14254:14270  rootK.mul(5).add */\n              swap1\n                /* \"MAAL Blockchain/RamzSwap/Core/FlattenedFactory.sol\":14254:14281  rootK.mul(5).add(rootKLast) */\n              0xffffffff\n                /* \"MAAL Blockchain/RamzSwap/Core/FlattenedFactory.sol\":14254:14270  rootK.mul(5).add */\n              tag_295\n                /* \"MAAL Blockchain/RamzSwap/Core/FlattenedFactory.sol\":14254:14281  rootK.mul(5).add(rootKLast) */\n              and\n              jump\t// in\n            tag_308:\n                /* \"MAAL Blockchain/RamzSwap/Core/FlattenedFactory.sol\":14235:14281  uint denominator = rootK.mul(5).add(rootKLast) */\n              swap1\n              pop\n                /* \"MAAL Blockchain/RamzSwap/Core/FlattenedFactory.sol\":14304:14318  uint liquidity */\n              0x00\n                /* \"MAAL Blockchain/RamzSwap/Core/FlattenedFactory.sol\":14333:14344  denominator */\n              dup2\n                /* \"MAAL Blockchain/RamzSwap/Core/FlattenedFactory.sol\":14321:14330  numerator */\n              dup4\n                /* \"MAAL Blockchain/RamzSwap/Core/FlattenedFactory.sol\":14321:14344  numerator / denominator */\n              dup2\n              tag_310\n              jumpi\n              invalid\n            tag_310:\n              div\n              swap1\n              pop\n                /* \"MAAL Blockchain/RamzSwap/Core/FlattenedFactory.sol\":14371:14384  liquidity > 0 */\n              dup1\n              iszero\n                /* \"MAAL Blockchain/RamzSwap/Core/FlattenedFactory.sol\":14367:14409  if (liquidity > 0) _mint(feeTo, liquidity) */\n              tag_312\n              jumpi\n                /* \"MAAL Blockchain/RamzSwap/Core/FlattenedFactory.sol\":14386:14409  _mint(feeTo, liquidity) */\n              tag_312\n                /* \"MAAL Blockchain/RamzSwap/Core/FlattenedFactory.sol\":14392:14397  feeTo */\n              dup8\n                /* \"MAAL Blockchain/RamzSwap/Core/FlattenedFactory.sol\":14399:14408  liquidity */\n              dup3\n                /* \"MAAL Blockchain/RamzSwap/Core/FlattenedFactory.sol\":14386:14391  _mint */\n              tag_188\n                /* \"MAAL Blockchain/RamzSwap/Core/FlattenedFactory.sol\":14386:14409  _mint(feeTo, liquidity) */\n              jump\t// in\n            tag_312:\n                /* \"MAAL Blockchain/RamzSwap/Core/FlattenedFactory.sol\":14112:14429  if (rootK > rootKLast) {\r... */\n              pop\n              pop\n              pop\n            tag_305:\n                /* \"MAAL Blockchain/RamzSwap/Core/FlattenedFactory.sol\":13950:14444  if (_kLast != 0) {\r... */\n              pop\n              pop\n            tag_301:\n                /* \"MAAL Blockchain/RamzSwap/Core/FlattenedFactory.sol\":13924:14514  if (feeOn) {\r... */\n              jump(tag_314)\n            tag_300:\n                /* \"MAAL Blockchain/RamzSwap/Core/FlattenedFactory.sol\":14465:14476  _kLast != 0 */\n              dup1\n              iszero\n                /* \"MAAL Blockchain/RamzSwap/Core/FlattenedFactory.sol\":14461:14514  if (_kLast != 0) {\r... */\n              tag_314\n              jumpi\n                /* \"MAAL Blockchain/RamzSwap/Core/FlattenedFactory.sol\":14501:14502  0 */\n              0x00\n                /* \"MAAL Blockchain/RamzSwap/Core/FlattenedFactory.sol\":14493:14498  kLast */\n              0x0b\n                /* \"MAAL Blockchain/RamzSwap/Core/FlattenedFactory.sol\":14493:14502  kLast = 0 */\n              sstore\n                /* \"MAAL Blockchain/RamzSwap/Core/FlattenedFactory.sol\":14461:14514  if (_kLast != 0) {\r... */\n            tag_314:\n                /* \"MAAL Blockchain/RamzSwap/Core/FlattenedFactory.sol\":13685:14521  function _mintFee(uint112 _reserve0, uint112 _reserve1) private returns (bool feeOn) {\r... */\n              pop\n              pop\n              swap3\n              swap2\n              pop\n              pop\n              jump\t// out\n                /* \"MAAL Blockchain/RamzSwap/Core/FlattenedFactory.sol\":317:620  function sqrt(uint y) internal pure returns (uint z) {\r... */\n            tag_186:\n                /* \"MAAL Blockchain/RamzSwap/Core/FlattenedFactory.sol\":362:368  uint z */\n              0x00\n                /* \"MAAL Blockchain/RamzSwap/Core/FlattenedFactory.sol\":389:390  3 */\n              0x03\n                /* \"MAAL Blockchain/RamzSwap/Core/FlattenedFactory.sol\":385:386  y */\n              dup3\n                /* \"MAAL Blockchain/RamzSwap/Core/FlattenedFactory.sol\":385:390  y > 3 */\n              gt\n                /* \"MAAL Blockchain/RamzSwap/Core/FlattenedFactory.sol\":381:613  if (y > 3) {\r... */\n              iszero\n              tag_316\n              jumpi\n              pop\n                /* \"MAAL Blockchain/RamzSwap/Core/FlattenedFactory.sol\":411:412  y */\n              dup1\n                /* \"MAAL Blockchain/RamzSwap/Core/FlattenedFactory.sol\":444:445  1 */\n              0x01\n                /* \"MAAL Blockchain/RamzSwap/Core/FlattenedFactory.sol\":440:441  2 */\n              0x02\n                /* \"MAAL Blockchain/RamzSwap/Core/FlattenedFactory.sol\":436:441  y / 2 */\n              dup3\n              div\n                /* \"MAAL Blockchain/RamzSwap/Core/FlattenedFactory.sol\":436:445  y / 2 + 1 */\n              add\n                /* \"MAAL Blockchain/RamzSwap/Core/FlattenedFactory.sol\":460:552  while (x < z) {\r... */\n            tag_318:\n                /* \"MAAL Blockchain/RamzSwap/Core/FlattenedFactory.sol\":471:472  z */\n              dup2\n                /* \"MAAL Blockchain/RamzSwap/Core/FlattenedFactory.sol\":467:468  x */\n              dup2\n                /* \"MAAL Blockchain/RamzSwap/Core/FlattenedFactory.sol\":467:472  x < z */\n              lt\n                /* \"MAAL Blockchain/RamzSwap/Core/FlattenedFactory.sol\":460:552  while (x < z) {\r... */\n              iszero\n              tag_319\n              jumpi\n                /* \"MAAL Blockchain/RamzSwap/Core/FlattenedFactory.sol\":497:498  x */\n              dup1\n                /* \"MAAL Blockchain/RamzSwap/Core/FlattenedFactory.sol\":493:498  z = x */\n              swap2\n              pop\n                /* \"MAAL Blockchain/RamzSwap/Core/FlattenedFactory.sol\":535:536  2 */\n              0x02\n                /* \"MAAL Blockchain/RamzSwap/Core/FlattenedFactory.sol\":530:531  x */\n              dup2\n                /* \"MAAL Blockchain/RamzSwap/Core/FlattenedFactory.sol\":526:527  x */\n              dup3\n                /* \"MAAL Blockchain/RamzSwap/Core/FlattenedFactory.sol\":522:523  y */\n              dup6\n                /* \"MAAL Blockchain/RamzSwap/Core/FlattenedFactory.sol\":522:527  y / x */\n              dup2\n              tag_320\n              jumpi\n              invalid\n            tag_320:\n              div\n                /* \"MAAL Blockchain/RamzSwap/Core/FlattenedFactory.sol\":522:531  y / x + x */\n              add\n                /* \"MAAL Blockchain/RamzSwap/Core/FlattenedFactory.sol\":521:536  (y / x + x) / 2 */\n              dup2\n              tag_321\n              jumpi\n              invalid\n            tag_321:\n              div\n                /* \"MAAL Blockchain/RamzSwap/Core/FlattenedFactory.sol\":517:536  x = (y / x + x) / 2 */\n              swap1\n              pop\n                /* \"MAAL Blockchain/RamzSwap/Core/FlattenedFactory.sol\":460:552  while (x < z) {\r... */\n              jump(tag_318)\n            tag_319:\n                /* \"MAAL Blockchain/RamzSwap/Core/FlattenedFactory.sol\":381:613  if (y > 3) {\r... */\n              pop\n              jump(tag_323)\n            tag_316:\n                /* \"MAAL Blockchain/RamzSwap/Core/FlattenedFactory.sol\":573:579  y != 0 */\n              dup2\n              iszero\n                /* \"MAAL Blockchain/RamzSwap/Core/FlattenedFactory.sol\":569:613  if (y != 0) {\r... */\n              tag_323\n              jumpi\n              pop\n                /* \"MAAL Blockchain/RamzSwap/Core/FlattenedFactory.sol\":600:601  1 */\n              0x01\n                /* \"MAAL Blockchain/RamzSwap/Core/FlattenedFactory.sol\":569:613  if (y != 0) {\r... */\n            tag_323:\n                /* \"MAAL Blockchain/RamzSwap/Core/FlattenedFactory.sol\":317:620  function sqrt(uint y) internal pure returns (uint z) {\r... */\n              swap2\n              swap1\n              pop\n              jump\t// out\n                /* \"MAAL Blockchain/RamzSwap/Core/FlattenedFactory.sol\":8242:8443  function _mint(address to, uint value) internal {\r... */\n            tag_188:\n                /* \"MAAL Blockchain/RamzSwap/Core/FlattenedFactory.sol\":8315:8326  totalSupply */\n              sload(0x00)\n                /* \"MAAL Blockchain/RamzSwap/Core/FlattenedFactory.sol\":8315:8337  totalSupply.add(value) */\n              tag_325\n              swap1\n                /* \"MAAL Blockchain/RamzSwap/Core/FlattenedFactory.sol\":8331:8336  value */\n              dup3\n                /* \"MAAL Blockchain/RamzSwap/Core/FlattenedFactory.sol\":8315:8337  totalSupply.add(value) */\n              0xffffffff\n                /* \"MAAL Blockchain/RamzSwap/Core/FlattenedFactory.sol\":8315:8330  totalSupply.add */\n              tag_295\n                /* \"MAAL Blockchain/RamzSwap/Core/FlattenedFactory.sol\":8315:8337  totalSupply.add(value) */\n              and\n              jump\t// in\n            tag_325:\n                /* \"MAAL Blockchain/RamzSwap/Core/FlattenedFactory.sol\":8301:8312  totalSupply */\n              0x00\n                /* \"MAAL Blockchain/RamzSwap/Core/FlattenedFactory.sol\":8301:8337  totalSupply = totalSupply.add(value) */\n              swap1\n              dup2\n              sstore\n              sub(shl(0xa0, 0x01), 0x01)\n                /* \"MAAL Blockchain/RamzSwap/Core/FlattenedFactory.sol\":8364:8377  balanceOf[to] */\n              dup4\n              and\n              dup2\n              mstore\n              mstore(0x20, 0x01)\n              0x40\n              swap1\n              keccak256\n              sload\n                /* \"MAAL Blockchain/RamzSwap/Core/FlattenedFactory.sol\":8364:8388  balanceOf[to].add(value) */\n              tag_326\n              swap1\n                /* \"MAAL Blockchain/RamzSwap/Core/FlattenedFactory.sol\":8382:8387  value */\n              dup3\n                /* \"MAAL Blockchain/RamzSwap/Core/FlattenedFactory.sol\":8364:8381  balanceOf[to].add */\n              tag_295\n                /* \"MAAL Blockchain/RamzSwap/Core/FlattenedFactory.sol\":8364:8388  balanceOf[to].add(value) */\n              jump\t// in\n            tag_326:\n              sub(shl(0xa0, 0x01), 0x01)\n                /* \"MAAL Blockchain/RamzSwap/Core/FlattenedFactory.sol\":8348:8361  balanceOf[to] */\n              dup4\n              and\n              0x00\n              dup2\n              dup2\n              mstore\n              0x01\n              0x20\n              swap1\n              dup2\n              mstore\n              0x40\n              dup1\n              dup4\n              keccak256\n                /* \"MAAL Blockchain/RamzSwap/Core/FlattenedFactory.sol\":8348:8388  balanceOf[to] = balanceOf[to].add(value) */\n              swap5\n              swap1\n              swap5\n              sstore\n                /* \"MAAL Blockchain/RamzSwap/Core/FlattenedFactory.sol\":8404:8435  Transfer(address(0), to, value) */\n              dup4\n              mload\n              dup6\n              dup2\n              mstore\n              swap4\n              mload\n                /* \"MAAL Blockchain/RamzSwap/Core/FlattenedFactory.sol\":8348:8361  balanceOf[to] */\n              swap3\n              swap4\n              swap2\n              swap3\n                /* \"MAAL Blockchain/RamzSwap/Core/FlattenedFactory.sol\":8404:8435  Transfer(address(0), to, value) */\n              0xddf252ad1be2c89b69c2b068fc378daa952ba7f163c4a11628f55a4df523b3ef\n              swap3\n              dup2\n              swap1\n              sub\n              swap1\n              swap2\n              add\n              swap1\n              log3\n                /* \"MAAL Blockchain/RamzSwap/Core/FlattenedFactory.sol\":8242:8443  function _mint(address to, uint value) internal {\r... */\n              pop\n              pop\n              jump\t// out\n                /* \"MAAL Blockchain/RamzSwap/Core/FlattenedFactory.sol\":103:199  function min(uint x, uint y) internal pure returns (uint z) {\r... */\n            tag_195:\n                /* \"MAAL Blockchain/RamzSwap/Core/FlattenedFactory.sol\":155:161  uint z */\n              0x00\n                /* \"MAAL Blockchain/RamzSwap/Core/FlattenedFactory.sol\":182:183  y */\n              dup2\n                /* \"MAAL Blockchain/RamzSwap/Core/FlattenedFactory.sol\":178:179  x */\n              dup4\n                /* \"MAAL Blockchain/RamzSwap/Core/FlattenedFactory.sol\":178:183  x < y */\n              lt\n                /* \"MAAL Blockchain/RamzSwap/Core/FlattenedFactory.sol\":178:191  x < y ? x : y */\n              tag_328\n              jumpi\n                /* \"MAAL Blockchain/RamzSwap/Core/FlattenedFactory.sol\":190:191  y */\n              dup2\n                /* \"MAAL Blockchain/RamzSwap/Core/FlattenedFactory.sol\":178:191  x < y ? x : y */\n              jump(tag_329)\n            tag_328:\n                /* \"MAAL Blockchain/RamzSwap/Core/FlattenedFactory.sol\":186:187  x */\n              dup3\n                /* \"MAAL Blockchain/RamzSwap/Core/FlattenedFactory.sol\":178:191  x < y ? x : y */\n            tag_329:\n                /* \"MAAL Blockchain/RamzSwap/Core/FlattenedFactory.sol\":174:191  z = x < y ? x : y */\n              swap4\n                /* \"MAAL Blockchain/RamzSwap/Core/FlattenedFactory.sol\":103:199  function min(uint x, uint y) internal pure returns (uint z) {\r... */\n              swap3\n              pop\n              pop\n              pop\n              jump\t// out\n                /* \"MAAL Blockchain/RamzSwap/Core/FlattenedFactory.sol\":8451:8660  function _burn(address from, uint value) internal {\r... */\n            tag_219:\n              sub(shl(0xa0, 0x01), 0x01)\n                /* \"MAAL Blockchain/RamzSwap/Core/FlattenedFactory.sol\":8530:8545  balanceOf[from] */\n              dup3\n              and\n              0x00\n              swap1\n              dup2\n              mstore\n              mstore(0x20, 0x01)\n              0x40\n              swap1\n              keccak256\n              sload\n                /* \"MAAL Blockchain/RamzSwap/Core/FlattenedFactory.sol\":8530:8556  balanceOf[from].sub(value) */\n              tag_331\n              swap1\n                /* \"MAAL Blockchain/RamzSwap/Core/FlattenedFactory.sol\":8550:8555  value */\n              dup3\n                /* \"MAAL Blockchain/RamzSwap/Core/FlattenedFactory.sol\":8530:8549  balanceOf[from].sub */\n              tag_147\n                /* \"MAAL Blockchain/RamzSwap/Core/FlattenedFactory.sol\":8530:8556  balanceOf[from].sub(value) */\n              jump\t// in\n            tag_331:\n              sub(shl(0xa0, 0x01), 0x01)\n                /* \"MAAL Blockchain/RamzSwap/Core/FlattenedFactory.sol\":8512:8527  balanceOf[from] */\n              dup4\n              and\n              0x00\n              swap1\n              dup2\n              mstore\n              mstore(0x20, 0x01)\n              0x40\n              dup2\n              keccak256\n                /* \"MAAL Blockchain/RamzSwap/Core/FlattenedFactory.sol\":8512:8556  balanceOf[from] = balanceOf[from].sub(value) */\n              swap2\n              swap1\n              swap2\n              sstore\n                /* \"MAAL Blockchain/RamzSwap/Core/FlattenedFactory.sol\":8581:8592  totalSupply */\n              sload\n                /* \"MAAL Blockchain/RamzSwap/Core/FlattenedFactory.sol\":8581:8603  totalSupply.sub(value) */\n              tag_332\n              swap1\n                /* \"MAAL Blockchain/RamzSwap/Core/FlattenedFactory.sol\":8597:8602  value */\n              dup3\n                /* \"MAAL Blockchain/RamzSwap/Core/FlattenedFactory.sol\":8581:8596  totalSupply.sub */\n              tag_147\n                /* \"MAAL Blockchain/RamzSwap/Core/FlattenedFactory.sol\":8581:8603  totalSupply.sub(value) */\n              jump\t// in\n            tag_332:\n                /* \"MAAL Blockchain/RamzSwap/Core/FlattenedFactory.sol\":8567:8578  totalSupply */\n              0x00\n                /* \"MAAL Blockchain/RamzSwap/Core/FlattenedFactory.sol\":8567:8603  totalSupply = totalSupply.sub(value) */\n              swap1\n              dup2\n              sstore\n                /* \"MAAL Blockchain/RamzSwap/Core/FlattenedFactory.sol\":8619:8652  Transfer(from, address(0), value) */\n              0x40\n              dup1\n              mload\n              dup4\n              dup2\n              mstore\n              swap1\n              mload\n              sub(shl(0xa0, 0x01), 0x01)\n              dup6\n              and\n              swap2\n              0xddf252ad1be2c89b69c2b068fc378daa952ba7f163c4a11628f55a4df523b3ef\n              swap2\n              swap1\n              dup2\n              swap1\n              sub\n              0x20\n              add\n              swap1\n              log3\n                /* \"MAAL Blockchain/RamzSwap/Core/FlattenedFactory.sol\":8451:8660  function _burn(address from, uint value) internal {\r... */\n              pop\n              pop\n              jump\t// out\n                /* \"MAAL Blockchain/RamzSwap/Core/FlattenedFactory.sol\":1447:1567  function encode(uint112 y) internal pure returns (uint224 z) {\r... */\n            tag_287:\n              sub(shl(0x70, 0x01), 0x01)\n                /* \"MAAL Blockchain/RamzSwap/Core/FlattenedFactory.sol\":1523:1533  uint224(y) */\n              and\n              shl(0x70, 0x01)\n                /* \"MAAL Blockchain/RamzSwap/Core/FlattenedFactory.sol\":1523:1540  uint224(y) * Q112 */\n              mul\n              swap1\n                /* \"MAAL Blockchain/RamzSwap/Core/FlattenedFactory.sol\":1447:1567  function encode(uint112 y) internal pure returns (uint224 z) {\r... */\n              jump\t// out\n                /* \"MAAL Blockchain/RamzSwap/Core/FlattenedFactory.sol\":1638:1746  function uqdiv(uint224 x, uint112 y) internal pure returns (uint224 z) {\r... */\n            tag_288:\n                /* \"MAAL Blockchain/RamzSwap/Core/FlattenedFactory.sol\":1698:1707  uint224 z */\n              0x00\n              sub(shl(0x70, 0x01), 0x01)\n                /* \"MAAL Blockchain/RamzSwap/Core/FlattenedFactory.sol\":1728:1738  uint224(y) */\n              dup3\n              and\n              sub(shl(0xe0, 0x01), 0x01)\n                /* \"MAAL Blockchain/RamzSwap/Core/FlattenedFactory.sol\":1724:1738  x / uint224(y) */\n              dup5\n              and\n                /* \"MAAL Blockchain/RamzSwap/Core/FlattenedFactory.sol\":1728:1738  uint224(y) */\n              dup2\n                /* \"MAAL Blockchain/RamzSwap/Core/FlattenedFactory.sol\":1724:1738  x / uint224(y) */\n              tag_335\n              jumpi\n              invalid\n            tag_335:\n              div\n              swap4\n                /* \"MAAL Blockchain/RamzSwap/Core/FlattenedFactory.sol\":1638:1746  function uqdiv(uint224 x, uint112 y) internal pure returns (uint224 z) {\r... */\n              swap3\n              pop\n              pop\n              pop\n              jump\t// out\n                /* \"MAAL Blockchain/RamzSwap/Core/FlattenedFactory.sol\":759:887  function add(uint x, uint y) internal pure returns (uint z) {\r... */\n            tag_295:\n                /* \"MAAL Blockchain/RamzSwap/Core/FlattenedFactory.sol\":843:848  x + y */\n              dup1\n              dup3\n              add\n                /* \"MAAL Blockchain/RamzSwap/Core/FlattenedFactory.sol\":838:854  (z = x + y) >= x */\n              dup3\n              dup2\n              lt\n              iszero\n                /* \"MAAL Blockchain/RamzSwap/Core/FlattenedFactory.sol\":830:879  require((z = x + y) >= x, 'ds-math-add-overflow') */\n              tag_158\n              jumpi\n              0x40\n              dup1\n              mload\n              shl(0xe5, 0x461bcd)\n              dup2\n              mstore\n              0x20\n              0x04\n              dup3\n              add\n              mstore\n              0x14\n              0x24\n              dup3\n              add\n              mstore\n              shl(0x60, 0x64732d6d6174682d6164642d6f766572666c6f77)\n              0x44\n              dup3\n              add\n              mstore\n              swap1\n              mload\n              swap1\n              dup2\n              swap1\n              sub\n              0x64\n              add\n              swap1\n              revert\n            stop\n            data_1eb94293c4a4d5674559e3ad3f859618f3acd1a153b8eb64c8afa2f321bcad53 52616d7a537761703a20494e53554646494349454e545f4f55545055545f414d4f554e54\n            data_277c3e2f1dcc54da905f7856762c87b5d64ceb92f76273e040b34904c30c8540 52616d7a537761703a20494e53554646494349454e545f4c49515549444954595f4d494e544544\n            data_3bd6b098c4c374111b4a092599b3fc3e18787fa69d92c90b514698058bc80e7d 52616d7a537761703a20494e53554646494349454e545f494e5055545f414d4f554e54\n            data_ae8da0137d7dc276a9a8a9fdbaa95f17a864dd235027022d8e9dd82869b9d09c 52616d7a537761703a20494e53554646494349454e545f4c49515549444954595f4255524e4544\n\n            auxdata: 0xa265627a7a723158203f609a5bf6f30af19a3601d91173f5e1f849f02d3cd50c49cc4d18c78d4f76a564736f6c63430005100032\n        }\n    }\n\n    auxdata: 0xa265627a7a723158201240cef65a3d40849ecbb7eb7cfbe94598809d11c470ae52acfd1c30ccd9969864736f6c63430005100032\n}\n",
				"bytecode": {
					"linkReferences": {},
					"object": "608060405234801561001057600080fd5b50604051612b26380380612b268339818101604052602081101561003357600080fd5b5051600180546001600160a01b0319166001600160a01b03909216919091179055612ac3806100636000396000f3fe608060405234801561001057600080fd5b50600436106100935760003560e01c80635855a25a116100665780635855a25a146100fb578063a2e74af614610103578063c9c653961461012b578063e6a4390514610159578063f46901ed1461018757610093565b8063017e7e5814610098578063094b7415146100bc5780631e3dd18b146100c4578063574f2ba3146100e1575b600080fd5b6100a06101ad565b604080516001600160a01b039092168252519081900360200190f35b6100a06101bc565b6100a0600480360360208110156100da57600080fd5b50356101cb565b6100e96101f2565b60408051918252519081900360200190f35b6100e96101f8565b6101296004803603602081101561011957600080fd5b50356001600160a01b031661028b565b005b6100a06004803603604081101561014157600080fd5b506001600160a01b0381358116916020013516610302565b6100a06004803603604081101561016f57600080fd5b506001600160a01b038135811691602001351661062b565b6101296004803603602081101561019d57600080fd5b50356001600160a01b0316610651565b6000546001600160a01b031681565b6001546001600160a01b031681565b600381815481106101d857fe5b6000918252602090912001546001600160a01b0316905081565b60035490565b604051610207602082016106c8565b6020820181038252601f19601f820116604052506040516020018082805190602001908083835b6020831061024d5780518252601f19909201916020918201910161022e565b6001836020036101000a0380198251168184511680821785525050505050509050019150506040516020818303038152906040528051906020012081565b6001546001600160a01b031633146102e0576040805162461bcd60e51b81526020600482015260136024820152722930b6bd29bbb0b81d102327a92124a22222a760691b604482015290519081900360640190fd5b600180546001600160a01b0319166001600160a01b0392909216919091179055565b6000816001600160a01b0316836001600160a01b0316141561036b576040805162461bcd60e51b815260206004820152601d60248201527f52616d7a537761703a204944454e544943414c5f414444524553534553000000604482015290519081900360640190fd5b600080836001600160a01b0316856001600160a01b03161061038e578385610391565b84845b90925090506001600160a01b0382166103ea576040805162461bcd60e51b815260206004820152601660248201527552616d7a537761703a205a45524f5f4144445245535360501b604482015290519081900360640190fd5b6001600160a01b0382811660009081526002602090815260408083208585168452909152902054161561045c576040805162461bcd60e51b815260206004820152601560248201527452616d7a537761703a20504149525f45584953545360581b604482015290519081900360640190fd5b60606040518060200161046e906106c8565b6020820181038252601f19601f8201166040525090506000838360405160200180836001600160a01b03166001600160a01b031660601b8152601401826001600160a01b03166001600160a01b031660601b815260140192505050604051602081830303815290604052805190602001209050808251602084016000f56040805163485cc95560e01b81526001600160a01b038781166004830152868116602483015291519297509087169163485cc9559160448082019260009290919082900301818387803b15801561054157600080fd5b505af1158015610555573d6000803e3d6000fd5b505050506001600160a01b0384811660008181526002602081815260408084208987168086529083528185208054978d166001600160a01b031998891681179091559383528185208686528352818520805488168517905560038054600181018255958190527fc2575a0e9e593c00f959f8c92f12db2869c3395a3b0502d05e2516446f71f85b90950180549097168417909655925483519283529082015281517f0d3648bd0f6ba80134a33ba9275ac585d9d315f0ad8355cddefde31afa28d0e9929181900390910190a35050505092915050565b60026020908152600092835260408084209091529082529020546001600160a01b031681565b6001546001600160a01b031633146106a6576040805162461bcd60e51b81526020600482015260136024820152722930b6bd29bbb0b81d102327a92124a22222a760691b604482015290519081900360640190fd5b600080546001600160a01b0319166001600160a01b0392909216919091179055565b6123b9806106d68339019056fe60806040526001600c5534801561001557600080fd5b50604051469080605261236782396040805191829003605201822082820182526008835267052616d7a537761760c41b6020938401528151808301835260018152603160f81b908401528151808401919091527f0fdad714b9ded567f809e1228e3c4209948d0b55cf816b97124955a286699019818301527fc89efdaa54c0f20c7adf612882df0950f5a951637e0307cdcb4c672f298b8bc6606082015260808101949094523060a0808601919091528151808603909101815260c09094019052825192019190912060035550600580546001600160a01b03191633179055612264806101036000396000f3fe608060405234801561001057600080fd5b50600436106101a95760003560e01c80636a627842116100f9578063ba9a7a5611610097578063d21220a711610071578063d21220a714610534578063d505accf1461053c578063dd62ed3e1461058d578063fff6cae9146105bb576101a9565b8063ba9a7a56146104fe578063bc25cf7714610506578063c45a01551461052c576101a9565b80637ecebe00116100d35780637ecebe001461046557806389afcb441461048b57806395d89b41146104ca578063a9059cbb146104d2576101a9565b80636a6278421461041157806370a08231146104375780637464fc3d1461045d576101a9565b806323b872dd116101665780633644e515116101405780633644e515146103cb578063485cc955146103d35780635909c0d5146104015780635a3d549314610409576101a9565b806323b872dd1461036f57806330adf81f146103a5578063313ce567146103ad576101a9565b8063022c0d9f146101ae57806306fdde031461023c5780630902f1ac146102b9578063095ea7b3146102f15780630dfe16811461033157806318160ddd14610355575b600080fd5b61023a600480360360808110156101c457600080fd5b8135916020810135916001600160a01b0360408301351691908101906080810160608201356401000000008111156101fb57600080fd5b82018360208201111561020d57600080fd5b8035906020019184600183028401116401000000008311171561022f57600080fd5b5090925090506105c3565b005b610244610b11565b6040805160208082528351818301528351919283929083019185019080838360005b8381101561027e578181015183820152602001610266565b50505050905090810190601f1680156102ab5780820380516001836020036101000a031916815260200191505b509250505060405180910390f35b6102c1610b35565b604080516001600160701b03948516815292909316602083015263ffffffff168183015290519081900360600190f35b61031d6004803603604081101561030757600080fd5b506001600160a01b038135169060200135610b5f565b604080519115158252519081900360200190f35b610339610b76565b604080516001600160a01b039092168252519081900360200190f35b61035d610b85565b60408051918252519081900360200190f35b61031d6004803603606081101561038557600080fd5b506001600160a01b03813581169160208101359091169060400135610b8b565b61035d610c25565b6103b5610c49565b6040805160ff9092168252519081900360200190f35b61035d610c4e565b61023a600480360360408110156103e957600080fd5b506001600160a01b0381358116916020013516610c54565b61035d610cd7565b61035d610cdd565b61035d6004803603602081101561042757600080fd5b50356001600160a01b0316610ce3565b61035d6004803603602081101561044d57600080fd5b50356001600160a01b0316610fe2565b61035d610ff4565b61035d6004803603602081101561047b57600080fd5b50356001600160a01b0316610ffa565b6104b1600480360360208110156104a157600080fd5b50356001600160a01b031661100c565b6040805192835260208301919091528051918290030190f35b6102446113b1565b61031d600480360360408110156104e857600080fd5b506001600160a01b0381351690602001356113d0565b61035d6113dd565b61023a6004803603602081101561051c57600080fd5b50356001600160a01b03166113e3565b61033961154d565b61033961155c565b61023a600480360360e081101561055257600080fd5b506001600160a01b03813581169160208101359091169060408101359060608101359060ff6080820135169060a08101359060c0013561156b565b61035d600480360360408110156105a357600080fd5b506001600160a01b038135811691602001351661176d565b61023a61178a565b600c5460011461060d576040805162461bcd60e51b815260206004820152601060248201526f14985b5e94ddd85c0e881313d0d2d15160821b604482015290519081900360640190fd5b6000600c55841515806106205750600084115b61065b5760405162461bcd60e51b815260040180806020018281038252602481526020018061219b6024913960400191505060405180910390fd5b600080610666610b35565b5091509150816001600160701b03168710801561068b5750806001600160701b031686105b6106dc576040805162461bcd60e51b815260206004820181905260248201527f52616d7a537761703a20494e53554646494349454e545f4c4951554944495459604482015290519081900360640190fd5b60065460075460009182916001600160a01b0391821691908116908916821480159061071a5750806001600160a01b0316896001600160a01b031614155b610762576040805162461bcd60e51b815260206004820152601460248201527352616d7a537761703a20494e56414c49445f544f60601b604482015290519081900360640190fd5b8a1561077357610773828a8d6118eb565b891561078457610784818a8c6118eb565b861561083f57886001600160a01b031663b66bf2ea338d8d8c8c6040518663ffffffff1660e01b815260040180866001600160a01b03166001600160a01b03168152602001858152602001848152602001806020018281038252848482818152602001925080828437600081840152601f19601f8201169050808301925050509650505050505050600060405180830381600087803b15801561082657600080fd5b505af115801561083a573d6000803e3d6000fd5b505050505b604080516370a0823160e01b815230600482015290516001600160a01b038416916370a08231916024808301926020929190829003018186803b15801561088557600080fd5b505afa158015610899573d6000803e3d6000fd5b505050506040513d60208110156108af57600080fd5b5051604080516370a0823160e01b815230600482015290519195506001600160a01b038316916370a0823191602480820192602092909190829003018186803b1580156108fb57600080fd5b505afa15801561090f573d6000803e3d6000fd5b505050506040513d602081101561092557600080fd5b5051925060009150506001600160701b0385168a90038311610948576000610957565b89856001600160701b03160383035b9050600089856001600160701b0316038311610974576000610983565b89856001600160701b03160383035b905060008211806109945750600081115b6109cf5760405162461bcd60e51b81526004018080602001828103825260238152602001806121e66023913960400191505060405180910390fd5b6000610a036109e584600363ffffffff611a8516565b6109f7876103e863ffffffff611a8516565b9063ffffffff611ae816565b90506000610a1b6109e584600363ffffffff611a8516565b9050610a4c620f4240610a406001600160701b038b8116908b1663ffffffff611a8516565b9063ffffffff611a8516565b610a5c838363ffffffff611a8516565b1015610a9d576040805162461bcd60e51b815260206004820152600b60248201526a52616d7a537761703a204b60a81b604482015290519081900360640190fd5b5050610aab84848888611b38565b60408051838152602081018390528082018d9052606081018c905290516001600160a01b038b169133917fd78ad95fa46c994b6551d0da85fc275fe613ce37657fb8d5e3d130840159d8229181900360800190a350506001600c55505050505050505050565b60405180604001604052806008815260200167052616d7a537761760c41b81525081565b6008546001600160701b0380821692600160701b830490911691600160e01b900463ffffffff1690565b6000610b6c338484611cfc565b5060015b92915050565b6006546001600160a01b031681565b60005481565b6001600160a01b038316600090815260026020908152604080832033845290915281205460001914610c10576001600160a01b0384166000908152600260209081526040808320338452909152902054610beb908363ffffffff611ae816565b6001600160a01b03851660009081526002602090815260408083203384529091529020555b610c1b848484611d5e565b5060019392505050565b7f6e71edae12b1b97f4d1f60370fef10105fa2faae0126114a169c64845d6126c981565b601281565b60035481565b6005546001600160a01b03163314610ca9576040805162461bcd60e51b81526020600482015260136024820152722930b6bd29bbb0b81d102327a92124a22222a760691b604482015290519081900360640190fd5b600680546001600160a01b039384166001600160a01b03199182161790915560078054929093169116179055565b60095481565b600a5481565b6000600c54600114610d2f576040805162461bcd60e51b815260206004820152601060248201526f14985b5e94ddd85c0e881313d0d2d15160821b604482015290519081900360640190fd5b6000600c81905580610d3f610b35565b50600654604080516370a0823160e01b815230600482015290519395509193506000926001600160a01b03909116916370a08231916024808301926020929190829003018186803b158015610d9357600080fd5b505afa158015610da7573d6000803e3d6000fd5b505050506040513d6020811015610dbd57600080fd5b5051600754604080516370a0823160e01b815230600482015290519293506000926001600160a01b03909216916370a0823191602480820192602092909190829003018186803b158015610e1057600080fd5b505afa158015610e24573d6000803e3d6000fd5b505050506040513d6020811015610e3a57600080fd5b505190506000610e59836001600160701b03871663ffffffff611ae816565b90506000610e76836001600160701b03871663ffffffff611ae816565b90506000610e848787611e18565b60005490915080610ec157610ead6103e86109f7610ea8878763ffffffff611a8516565b611f76565b9850610ebc60006103e8611fc8565b610f10565b610f0d6001600160701b038916610ede868463ffffffff611a8516565b81610ee557fe5b046001600160701b038916610f00868563ffffffff611a8516565b81610f0757fe5b0461205e565b98505b60008911610f4f5760405162461bcd60e51b81526004018080602001828103825260278152602001806121bf6027913960400191505060405180910390fd5b610f598a8a611fc8565b610f6586868a8a611b38565b8115610f9557600854610f91906001600160701b0380821691600160701b90041663ffffffff611a8516565b600b555b6040805185815260208101859052815133927f4c209b5fc8ad50758f13e2e1088ba56a560dff690a1c6fef26394f4c03821c4f928290030190a250506001600c5550949695505050505050565b60016020526000908152604090205481565b600b5481565b60046020526000908152604090205481565b600080600c54600114611059576040805162461bcd60e51b815260206004820152601060248201526f14985b5e94ddd85c0e881313d0d2d15160821b604482015290519081900360640190fd5b6000600c81905580611069610b35565b50600654600754604080516370a0823160e01b815230600482015290519496509294506001600160a01b039182169391169160009184916370a08231916024808301926020929190829003018186803b1580156110c557600080fd5b505afa1580156110d9573d6000803e3d6000fd5b505050506040513d60208110156110ef57600080fd5b5051604080516370a0823160e01b815230600482015290519192506000916001600160a01b038516916370a08231916024808301926020929190829003018186803b15801561113d57600080fd5b505afa158015611151573d6000803e3d6000fd5b505050506040513d602081101561116757600080fd5b5051306000908152600160205260408120549192506111868888611e18565b6000549091508061119d848763ffffffff611a8516565b816111a457fe5b049a50806111b8848663ffffffff611a8516565b816111bf57fe5b04995060008b1180156111d2575060008a115b61120d5760405162461bcd60e51b81526004018080602001828103825260278152602001806122096027913960400191505060405180910390fd5b6112173084612076565b611222878d8d6118eb565b61122d868d8c6118eb565b604080516370a0823160e01b815230600482015290516001600160a01b038916916370a08231916024808301926020929190829003018186803b15801561127357600080fd5b505afa158015611287573d6000803e3d6000fd5b505050506040513d602081101561129d57600080fd5b5051604080516370a0823160e01b815230600482015290519196506001600160a01b038816916370a0823191602480820192602092909190829003018186803b1580156112e957600080fd5b505afa1580156112fd573d6000803e3d6000fd5b505050506040513d602081101561131357600080fd5b5051935061132385858b8b611b38565b81156113535760085461134f906001600160701b0380821691600160701b90041663ffffffff611a8516565b600b555b604080518c8152602081018c905281516001600160a01b038f169233927fdccd412f0b1252819cb1fd330b93224ca42612892bb3f4f789976e6d81936496929081900390910190a35050505050505050506001600c81905550915091565b604051806040016040528060038152602001622926ad60e91b81525081565b6000610b6c338484611d5e565b6103e881565b600c5460011461142d576040805162461bcd60e51b815260206004820152601060248201526f14985b5e94ddd85c0e881313d0d2d15160821b604482015290519081900360640190fd5b6000600c55600654600754600854604080516370a0823160e01b815230600482015290516001600160a01b0394851694909316926114dc92859287926114d7926001600160701b03169185916370a0823191602480820192602092909190829003018186803b15801561149f57600080fd5b505afa1580156114b3573d6000803e3d6000fd5b505050506040513d60208110156114c957600080fd5b50519063ffffffff611ae816565b6118eb565b600854604080516370a0823160e01b8152306004820152905161154392849287926114d792600160701b90046001600160701b0316916001600160a01b038616916370a0823191602480820192602092909190829003018186803b15801561149f57600080fd5b50506001600c5550565b6005546001600160a01b031681565b6007546001600160a01b031681565b428410156115b5576040805162461bcd60e51b8152602060048201526012602482015271155b9a5cddd85c158c8e881156141254915160721b604482015290519081900360640190fd5b6003546001600160a01b0380891660008181526004602090815260408083208054600180820190925582517f6e71edae12b1b97f4d1f60370fef10105fa2faae0126114a169c64845d6126c98186015280840196909652958d166060860152608085018c905260a085019590955260c08085018b90528151808603909101815260e08501825280519083012061190160f01b6101008601526101028501969096526101228085019690965280518085039096018652610142840180825286519683019690962095839052610162840180825286905260ff89166101828501526101a284018890526101c28401879052519193926101e280820193601f1981019281900390910190855afa1580156116d0573d6000803e3d6000fd5b5050604051601f1901519150506001600160a01b038116158015906117065750886001600160a01b0316816001600160a01b0316145b611757576040805162461bcd60e51b815260206004820152601c60248201527f556e697377617056323a20494e56414c49445f5349474e415455524500000000604482015290519081900360640190fd5b611762898989611cfc565b505050505050505050565b600260209081526000928352604080842090915290825290205481565b600c546001146117d4576040805162461bcd60e51b815260206004820152601060248201526f14985b5e94ddd85c0e881313d0d2d15160821b604482015290519081900360640190fd5b6000600c55600654604080516370a0823160e01b815230600482015290516118e4926001600160a01b0316916370a08231916024808301926020929190829003018186803b15801561182557600080fd5b505afa158015611839573d6000803e3d6000fd5b505050506040513d602081101561184f57600080fd5b5051600754604080516370a0823160e01b815230600482015290516001600160a01b03909216916370a0823191602480820192602092909190829003018186803b15801561189c57600080fd5b505afa1580156118b0573d6000803e3d6000fd5b505050506040513d60208110156118c657600080fd5b50516008546001600160701b0380821691600160701b900416611b38565b6001600c55565b604080518082018252601981527f7472616e7366657228616464726573732c75696e74323536290000000000000060209182015281516001600160a01b0385811660248301526044808301869052845180840390910181526064909201845291810180516001600160e01b031663a9059cbb60e01b1781529251815160009460609489169392918291908083835b602083106119985780518252601f199092019160209182019101611979565b6001836020036101000a0380198251168184511680821785525050505050509050019150506000604051808303816000865af19150503d80600081146119fa576040519150601f19603f3d011682016040523d82523d6000602084013e6119ff565b606091505b5091509150818015611a2d575080511580611a2d5750808060200190516020811015611a2a57600080fd5b50515b611a7e576040805162461bcd60e51b815260206004820152601960248201527f52616d7a537761703a205452414e534645525f4641494c454400000000000000604482015290519081900360640190fd5b5050505050565b6000811580611aa057505080820282828281611a9d57fe5b04145b610b70576040805162461bcd60e51b815260206004820152601460248201527364732d6d6174682d6d756c2d6f766572666c6f7760601b604482015290519081900360640190fd5b80820382811115610b70576040805162461bcd60e51b815260206004820152601560248201527464732d6d6174682d7375622d756e646572666c6f7760581b604482015290519081900360640190fd5b6001600160701b038411801590611b5657506001600160701b038311155b611b9c576040805162461bcd60e51b815260206004820152601260248201527152616d7a537761703a204f564552464c4f5760701b604482015290519081900360640190fd5b60085463ffffffff42811691600160e01b90048116820390811615801590611bcc57506001600160701b03841615155b8015611be057506001600160701b03831615155b15611c51578063ffffffff16611c0e85611bf986612114565b6001600160e01b03169063ffffffff61212616565b600980546001600160e01b03929092169290920201905563ffffffff8116611c3984611bf987612114565b600a80546001600160e01b0392909216929092020190555b600880546dffffffffffffffffffffffffffff19166001600160701b03888116919091176dffffffffffffffffffffffffffff60701b1916600160701b8883168102919091176001600160e01b0316600160e01b63ffffffff871602179283905560408051848416815291909304909116602082015281517f1c411e9a96e071241c2f21f7726b17ae89e3cab4c78be50e062b03a9fffbbad1929181900390910190a1505050505050565b6001600160a01b03808416600081815260026020908152604080832094871680845294825291829020859055815185815291517f8c5be1e5ebec7d5bd14f71427d1e84f3dd0314c0f7b2291e5b200ac8c7c3b9259281900390910190a3505050565b6001600160a01b038316600090815260016020526040902054611d87908263ffffffff611ae816565b6001600160a01b038085166000908152600160205260408082209390935590841681522054611dbc908263ffffffff61214b16565b6001600160a01b0380841660008181526001602090815260409182902094909455805185815290519193928716927fddf252ad1be2c89b69c2b068fc378daa952ba7f163c4a11628f55a4df523b3ef92918290030190a3505050565b600080600560009054906101000a90046001600160a01b03166001600160a01b031663017e7e586040518163ffffffff1660e01b815260040160206040518083038186803b158015611e6957600080fd5b505afa158015611e7d573d6000803e3d6000fd5b505050506040513d6020811015611e9357600080fd5b5051600b546001600160a01b038216158015945091925090611f62578015611f5d576000611ed6610ea86001600160701b0388811690881663ffffffff611a8516565b90506000611ee383611f76565b905080821115611f5a576000611f11611f02848463ffffffff611ae816565b6000549063ffffffff611a8516565b90506000611f3683611f2a86600563ffffffff611a8516565b9063ffffffff61214b16565b90506000818381611f4357fe5b0490508015611f5657611f568782611fc8565b5050505b50505b611f6e565b8015611f6e576000600b555b505092915050565b60006003821115611fb9575080600160028204015b81811015611fb357809150600281828581611fa257fe5b040181611fab57fe5b049050611f8b565b50611fc3565b8115611fc3575060015b919050565b600054611fdb908263ffffffff61214b16565b60009081556001600160a01b038316815260016020526040902054612006908263ffffffff61214b16565b6001600160a01b03831660008181526001602090815260408083209490945583518581529351929391927fddf252ad1be2c89b69c2b068fc378daa952ba7f163c4a11628f55a4df523b3ef9281900390910190a35050565b600081831061206d578161206f565b825b9392505050565b6001600160a01b03821660009081526001602052604090205461209f908263ffffffff611ae816565b6001600160a01b038316600090815260016020526040812091909155546120cc908263ffffffff611ae816565b60009081556040805183815290516001600160a01b038516917fddf252ad1be2c89b69c2b068fc378daa952ba7f163c4a11628f55a4df523b3ef919081900360200190a35050565b6001600160701b0316600160701b0290565b60006001600160701b0382166001600160e01b0384168161214357fe5b049392505050565b80820182811015610b70576040805162461bcd60e51b815260206004820152601460248201527364732d6d6174682d6164642d6f766572666c6f7760601b604482015290519081900360640190fdfe52616d7a537761703a20494e53554646494349454e545f4f55545055545f414d4f554e5452616d7a537761703a20494e53554646494349454e545f4c49515549444954595f4d494e54454452616d7a537761703a20494e53554646494349454e545f494e5055545f414d4f554e5452616d7a537761703a20494e53554646494349454e545f4c49515549444954595f4255524e4544a265627a7a723158203f609a5bf6f30af19a3601d91173f5e1f849f02d3cd50c49cc4d18c78d4f76a564736f6c63430005100032454950373132446f6d61696e28737472696e67206e616d652c737472696e672076657273696f6e2c75696e7432353620636861696e49642c6164647265737320766572696679696e67436f6e747261637429a265627a7a723158201240cef65a3d40849ecbb7eb7cfbe94598809d11c470ae52acfd1c30ccd9969864736f6c63430005100032",
					"opcodes": "PUSH1 0x80 PUSH1 0x40 MSTORE CALLVALUE DUP1 ISZERO PUSH2 0x10 JUMPI PUSH1 0x0 DUP1 REVERT JUMPDEST POP PUSH1 0x40 MLOAD PUSH2 0x2B26 CODESIZE SUB DUP1 PUSH2 0x2B26 DUP4 CODECOPY DUP2 DUP2 ADD PUSH1 0x40 MSTORE PUSH1 0x20 DUP2 LT ISZERO PUSH2 0x33 JUMPI PUSH1 0x0 DUP1 REVERT JUMPDEST POP MLOAD PUSH1 0x1 DUP1 SLOAD PUSH1 0x1 PUSH1 0x1 PUSH1 0xA0 SHL SUB NOT AND PUSH1 0x1 PUSH1 0x1 PUSH1 0xA0 SHL SUB SWAP1 SWAP3 AND SWAP2 SWAP1 SWAP2 OR SWAP1 SSTORE PUSH2 0x2AC3 DUP1 PUSH2 0x63 PUSH1 0x0 CODECOPY PUSH1 0x0 RETURN INVALID PUSH1 0x80 PUSH1 0x40 MSTORE CALLVALUE DUP1 ISZERO PUSH2 0x10 JUMPI PUSH1 0x0 DUP1 REVERT JUMPDEST POP PUSH1 0x4 CALLDATASIZE LT PUSH2 0x93 JUMPI PUSH1 0x0 CALLDATALOAD PUSH1 0xE0 SHR DUP1 PUSH4 0x5855A25A GT PUSH2 0x66 JUMPI DUP1 PUSH4 0x5855A25A EQ PUSH2 0xFB JUMPI DUP1 PUSH4 0xA2E74AF6 EQ PUSH2 0x103 JUMPI DUP1 PUSH4 0xC9C65396 EQ PUSH2 0x12B JUMPI DUP1 PUSH4 0xE6A43905 EQ PUSH2 0x159 JUMPI DUP1 PUSH4 0xF46901ED EQ PUSH2 0x187 JUMPI PUSH2 0x93 JUMP JUMPDEST DUP1 PUSH4 0x17E7E58 EQ PUSH2 0x98 JUMPI DUP1 PUSH4 0x94B7415 EQ PUSH2 0xBC JUMPI DUP1 PUSH4 0x1E3DD18B EQ PUSH2 0xC4 JUMPI DUP1 PUSH4 0x574F2BA3 EQ PUSH2 0xE1 JUMPI JUMPDEST PUSH1 0x0 DUP1 REVERT JUMPDEST PUSH2 0xA0 PUSH2 0x1AD JUMP JUMPDEST PUSH1 0x40 DUP1 MLOAD PUSH1 0x1 PUSH1 0x1 PUSH1 0xA0 SHL SUB SWAP1 SWAP3 AND DUP3 MSTORE MLOAD SWAP1 DUP2 SWAP1 SUB PUSH1 0x20 ADD SWAP1 RETURN JUMPDEST PUSH2 0xA0 PUSH2 0x1BC JUMP JUMPDEST PUSH2 0xA0 PUSH1 0x4 DUP1 CALLDATASIZE SUB PUSH1 0x20 DUP2 LT ISZERO PUSH2 0xDA JUMPI PUSH1 0x0 DUP1 REVERT JUMPDEST POP CALLDATALOAD PUSH2 0x1CB JUMP JUMPDEST PUSH2 0xE9 PUSH2 0x1F2 JUMP JUMPDEST PUSH1 0x40 DUP1 MLOAD SWAP2 DUP3 MSTORE MLOAD SWAP1 DUP2 SWAP1 SUB PUSH1 0x20 ADD SWAP1 RETURN JUMPDEST PUSH2 0xE9 PUSH2 0x1F8 JUMP JUMPDEST PUSH2 0x129 PUSH1 0x4 DUP1 CALLDATASIZE SUB PUSH1 0x20 DUP2 LT ISZERO PUSH2 0x119 JUMPI PUSH1 0x0 DUP1 REVERT JUMPDEST POP CALLDATALOAD PUSH1 0x1 PUSH1 0x1 PUSH1 0xA0 SHL SUB AND PUSH2 0x28B JUMP JUMPDEST STOP JUMPDEST PUSH2 0xA0 PUSH1 0x4 DUP1 CALLDATASIZE SUB PUSH1 0x40 DUP2 LT ISZERO PUSH2 0x141 JUMPI PUSH1 0x0 DUP1 REVERT JUMPDEST POP PUSH1 0x1 PUSH1 0x1 PUSH1 0xA0 SHL SUB DUP2 CALLDATALOAD DUP2 AND SWAP2 PUSH1 0x20 ADD CALLDATALOAD AND PUSH2 0x302 JUMP JUMPDEST PUSH2 0xA0 PUSH1 0x4 DUP1 CALLDATASIZE SUB PUSH1 0x40 DUP2 LT ISZERO PUSH2 0x16F JUMPI PUSH1 0x0 DUP1 REVERT JUMPDEST POP PUSH1 0x1 PUSH1 0x1 PUSH1 0xA0 SHL SUB DUP2 CALLDATALOAD DUP2 AND SWAP2 PUSH1 0x20 ADD CALLDATALOAD AND PUSH2 0x62B JUMP JUMPDEST PUSH2 0x129 PUSH1 0x4 DUP1 CALLDATASIZE SUB PUSH1 0x20 DUP2 LT ISZERO PUSH2 0x19D JUMPI PUSH1 0x0 DUP1 REVERT JUMPDEST POP CALLDATALOAD PUSH1 0x1 PUSH1 0x1 PUSH1 0xA0 SHL SUB AND PUSH2 0x651 JUMP JUMPDEST PUSH1 0x0 SLOAD PUSH1 0x1 PUSH1 0x1 PUSH1 0xA0 SHL SUB AND DUP2 JUMP JUMPDEST PUSH1 0x1 SLOAD PUSH1 0x1 PUSH1 0x1 PUSH1 0xA0 SHL SUB AND DUP2 JUMP JUMPDEST PUSH1 0x3 DUP2 DUP2 SLOAD DUP2 LT PUSH2 0x1D8 JUMPI INVALID JUMPDEST PUSH1 0x0 SWAP2 DUP3 MSTORE PUSH1 0x20 SWAP1 SWAP2 KECCAK256 ADD SLOAD PUSH1 0x1 PUSH1 0x1 PUSH1 0xA0 SHL SUB AND SWAP1 POP DUP2 JUMP JUMPDEST PUSH1 0x3 SLOAD SWAP1 JUMP JUMPDEST PUSH1 0x40 MLOAD PUSH2 0x207 PUSH1 0x20 DUP3 ADD PUSH2 0x6C8 JUMP JUMPDEST PUSH1 0x20 DUP3 ADD DUP2 SUB DUP3 MSTORE PUSH1 0x1F NOT PUSH1 0x1F DUP3 ADD AND PUSH1 0x40 MSTORE POP PUSH1 0x40 MLOAD PUSH1 0x20 ADD DUP1 DUP3 DUP1 MLOAD SWAP1 PUSH1 0x20 ADD SWAP1 DUP1 DUP4 DUP4 JUMPDEST PUSH1 0x20 DUP4 LT PUSH2 0x24D JUMPI DUP1 MLOAD DUP3 MSTORE PUSH1 0x1F NOT SWAP1 SWAP3 ADD SWAP2 PUSH1 0x20 SWAP2 DUP3 ADD SWAP2 ADD PUSH2 0x22E JUMP JUMPDEST PUSH1 0x1 DUP4 PUSH1 0x20 SUB PUSH2 0x100 EXP SUB DUP1 NOT DUP3 MLOAD AND DUP2 DUP5 MLOAD AND DUP1 DUP3 OR DUP6 MSTORE POP POP POP POP POP POP SWAP1 POP ADD SWAP2 POP POP PUSH1 0x40 MLOAD PUSH1 0x20 DUP2 DUP4 SUB SUB DUP2 MSTORE SWAP1 PUSH1 0x40 MSTORE DUP1 MLOAD SWAP1 PUSH1 0x20 ADD KECCAK256 DUP2 JUMP JUMPDEST PUSH1 0x1 SLOAD PUSH1 0x1 PUSH1 0x1 PUSH1 0xA0 SHL SUB AND CALLER EQ PUSH2 0x2E0 JUMPI PUSH1 0x40 DUP1 MLOAD PUSH3 0x461BCD PUSH1 0xE5 SHL DUP2 MSTORE PUSH1 0x20 PUSH1 0x4 DUP3 ADD MSTORE PUSH1 0x13 PUSH1 0x24 DUP3 ADD MSTORE PUSH19 0x2930B6BD29BBB0B81D102327A92124A22222A7 PUSH1 0x69 SHL PUSH1 0x44 DUP3 ADD MSTORE SWAP1 MLOAD SWAP1 DUP2 SWAP1 SUB PUSH1 0x64 ADD SWAP1 REVERT JUMPDEST PUSH1 0x1 DUP1 SLOAD PUSH1 0x1 PUSH1 0x1 PUSH1 0xA0 SHL SUB NOT AND PUSH1 0x1 PUSH1 0x1 PUSH1 0xA0 SHL SUB SWAP3 SWAP1 SWAP3 AND SWAP2 SWAP1 SWAP2 OR SWAP1 SSTORE JUMP JUMPDEST PUSH1 0x0 DUP2 PUSH1 0x1 PUSH1 0x1 PUSH1 0xA0 SHL SUB AND DUP4 PUSH1 0x1 PUSH1 0x1 PUSH1 0xA0 SHL SUB AND EQ ISZERO PUSH2 0x36B JUMPI PUSH1 0x40 DUP1 MLOAD PUSH3 0x461BCD PUSH1 0xE5 SHL DUP2 MSTORE PUSH1 0x20 PUSH1 0x4 DUP3 ADD MSTORE PUSH1 0x1D PUSH1 0x24 DUP3 ADD MSTORE PUSH32 0x52616D7A537761703A204944454E544943414C5F414444524553534553000000 PUSH1 0x44 DUP3 ADD MSTORE SWAP1 MLOAD SWAP1 DUP2 SWAP1 SUB PUSH1 0x64 ADD SWAP1 REVERT JUMPDEST PUSH1 0x0 DUP1 DUP4 PUSH1 0x1 PUSH1 0x1 PUSH1 0xA0 SHL SUB AND DUP6 PUSH1 0x1 PUSH1 0x1 PUSH1 0xA0 SHL SUB AND LT PUSH2 0x38E JUMPI DUP4 DUP6 PUSH2 0x391 JUMP JUMPDEST DUP5 DUP5 JUMPDEST SWAP1 SWAP3 POP SWAP1 POP PUSH1 0x1 PUSH1 0x1 PUSH1 0xA0 SHL SUB DUP3 AND PUSH2 0x3EA JUMPI PUSH1 0x40 DUP1 MLOAD PUSH3 0x461BCD PUSH1 0xE5 SHL DUP2 MSTORE PUSH1 0x20 PUSH1 0x4 DUP3 ADD MSTORE PUSH1 0x16 PUSH1 0x24 DUP3 ADD MSTORE PUSH22 0x52616D7A537761703A205A45524F5F41444452455353 PUSH1 0x50 SHL PUSH1 0x44 DUP3 ADD MSTORE SWAP1 MLOAD SWAP1 DUP2 SWAP1 SUB PUSH1 0x64 ADD SWAP1 REVERT JUMPDEST PUSH1 0x1 PUSH1 0x1 PUSH1 0xA0 SHL SUB DUP3 DUP2 AND PUSH1 0x0 SWAP1 DUP2 MSTORE PUSH1 0x2 PUSH1 0x20 SWAP1 DUP2 MSTORE PUSH1 0x40 DUP1 DUP4 KECCAK256 DUP6 DUP6 AND DUP5 MSTORE SWAP1 SWAP2 MSTORE SWAP1 KECCAK256 SLOAD AND ISZERO PUSH2 0x45C JUMPI PUSH1 0x40 DUP1 MLOAD PUSH3 0x461BCD PUSH1 0xE5 SHL DUP2 MSTORE PUSH1 0x20 PUSH1 0x4 DUP3 ADD MSTORE PUSH1 0x15 PUSH1 0x24 DUP3 ADD MSTORE PUSH21 0x52616D7A537761703A20504149525F455849535453 PUSH1 0x58 SHL PUSH1 0x44 DUP3 ADD MSTORE SWAP1 MLOAD SWAP1 DUP2 SWAP1 SUB PUSH1 0x64 ADD SWAP1 REVERT JUMPDEST PUSH1 0x60 PUSH1 0x40 MLOAD DUP1 PUSH1 0x20 ADD PUSH2 0x46E SWAP1 PUSH2 0x6C8 JUMP JUMPDEST PUSH1 0x20 DUP3 ADD DUP2 SUB DUP3 MSTORE PUSH1 0x1F NOT PUSH1 0x1F DUP3 ADD AND PUSH1 0x40 MSTORE POP SWAP1 POP PUSH1 0x0 DUP4 DUP4 PUSH1 0x40 MLOAD PUSH1 0x20 ADD DUP1 DUP4 PUSH1 0x1 PUSH1 0x1 PUSH1 0xA0 SHL SUB AND PUSH1 0x1 PUSH1 0x1 PUSH1 0xA0 SHL SUB AND PUSH1 0x60 SHL DUP2 MSTORE PUSH1 0x14 ADD DUP3 PUSH1 0x1 PUSH1 0x1 PUSH1 0xA0 SHL SUB AND PUSH1 0x1 PUSH1 0x1 PUSH1 0xA0 SHL SUB AND PUSH1 0x60 SHL DUP2 MSTORE PUSH1 0x14 ADD SWAP3 POP POP POP PUSH1 0x40 MLOAD PUSH1 0x20 DUP2 DUP4 SUB SUB DUP2 MSTORE SWAP1 PUSH1 0x40 MSTORE DUP1 MLOAD SWAP1 PUSH1 0x20 ADD KECCAK256 SWAP1 POP DUP1 DUP3 MLOAD PUSH1 0x20 DUP5 ADD PUSH1 0x0 CREATE2 PUSH1 0x40 DUP1 MLOAD PUSH4 0x485CC955 PUSH1 0xE0 SHL DUP2 MSTORE PUSH1 0x1 PUSH1 0x1 PUSH1 0xA0 SHL SUB DUP8 DUP2 AND PUSH1 0x4 DUP4 ADD MSTORE DUP7 DUP2 AND PUSH1 0x24 DUP4 ADD MSTORE SWAP2 MLOAD SWAP3 SWAP8 POP SWAP1 DUP8 AND SWAP2 PUSH4 0x485CC955 SWAP2 PUSH1 0x44 DUP1 DUP3 ADD SWAP3 PUSH1 0x0 SWAP3 SWAP1 SWAP2 SWAP1 DUP3 SWAP1 SUB ADD DUP2 DUP4 DUP8 DUP1 EXTCODESIZE ISZERO DUP1 ISZERO PUSH2 0x541 JUMPI PUSH1 0x0 DUP1 REVERT JUMPDEST POP GAS CALL ISZERO DUP1 ISZERO PUSH2 0x555 JUMPI RETURNDATASIZE PUSH1 0x0 DUP1 RETURNDATACOPY RETURNDATASIZE PUSH1 0x0 REVERT JUMPDEST POP POP POP POP PUSH1 0x1 PUSH1 0x1 PUSH1 0xA0 SHL SUB DUP5 DUP2 AND PUSH1 0x0 DUP2 DUP2 MSTORE PUSH1 0x2 PUSH1 0x20 DUP2 DUP2 MSTORE PUSH1 0x40 DUP1 DUP5 KECCAK256 DUP10 DUP8 AND DUP1 DUP7 MSTORE SWAP1 DUP4 MSTORE DUP2 DUP6 KECCAK256 DUP1 SLOAD SWAP8 DUP14 AND PUSH1 0x1 PUSH1 0x1 PUSH1 0xA0 SHL SUB NOT SWAP9 DUP10 AND DUP2 OR SWAP1 SWAP2 SSTORE SWAP4 DUP4 MSTORE DUP2 DUP6 KECCAK256 DUP7 DUP7 MSTORE DUP4 MSTORE DUP2 DUP6 KECCAK256 DUP1 SLOAD DUP9 AND DUP6 OR SWAP1 SSTORE PUSH1 0x3 DUP1 SLOAD PUSH1 0x1 DUP2 ADD DUP3 SSTORE SWAP6 DUP2 SWAP1 MSTORE PUSH32 0xC2575A0E9E593C00F959F8C92F12DB2869C3395A3B0502D05E2516446F71F85B SWAP1 SWAP6 ADD DUP1 SLOAD SWAP1 SWAP8 AND DUP5 OR SWAP1 SWAP7 SSTORE SWAP3 SLOAD DUP4 MLOAD SWAP3 DUP4 MSTORE SWAP1 DUP3 ADD MSTORE DUP2 MLOAD PUSH32 0xD3648BD0F6BA80134A33BA9275AC585D9D315F0AD8355CDDEFDE31AFA28D0E9 SWAP3 SWAP2 DUP2 SWAP1 SUB SWAP1 SWAP2 ADD SWAP1 LOG3 POP POP POP POP SWAP3 SWAP2 POP POP JUMP JUMPDEST PUSH1 0x2 PUSH1 0x20 SWAP1 DUP2 MSTORE PUSH1 0x0 SWAP3 DUP4 MSTORE PUSH1 0x40 DUP1 DUP5 KECCAK256 SWAP1 SWAP2 MSTORE SWAP1 DUP3 MSTORE SWAP1 KECCAK256 SLOAD PUSH1 0x1 PUSH1 0x1 PUSH1 0xA0 SHL SUB AND DUP2 JUMP JUMPDEST PUSH1 0x1 SLOAD PUSH1 0x1 PUSH1 0x1 PUSH1 0xA0 SHL SUB AND CALLER EQ PUSH2 0x6A6 JUMPI PUSH1 0x40 DUP1 MLOAD PUSH3 0x461BCD PUSH1 0xE5 SHL DUP2 MSTORE PUSH1 0x20 PUSH1 0x4 DUP3 ADD MSTORE PUSH1 0x13 PUSH1 0x24 DUP3 ADD MSTORE PUSH19 0x2930B6BD29BBB0B81D102327A92124A22222A7 PUSH1 0x69 SHL PUSH1 0x44 DUP3 ADD MSTORE SWAP1 MLOAD SWAP1 DUP2 SWAP1 SUB PUSH1 0x64 ADD SWAP1 REVERT JUMPDEST PUSH1 0x0 DUP1 SLOAD PUSH1 0x1 PUSH1 0x1 PUSH1 0xA0 SHL SUB NOT AND PUSH1 0x1 PUSH1 0x1 PUSH1 0xA0 SHL SUB SWAP3 SWAP1 SWAP3 AND SWAP2 SWAP1 SWAP2 OR SWAP1 SSTORE JUMP JUMPDEST PUSH2 0x23B9 DUP1 PUSH2 0x6D6 DUP4 CODECOPY ADD SWAP1 JUMP INVALID PUSH1 0x80 PUSH1 0x40 MSTORE PUSH1 0x1 PUSH1 0xC SSTORE CALLVALUE DUP1 ISZERO PUSH2 0x15 JUMPI PUSH1 0x0 DUP1 REVERT JUMPDEST POP PUSH1 0x40 MLOAD CHAINID SWAP1 DUP1 PUSH1 0x52 PUSH2 0x2367 DUP3 CODECOPY PUSH1 0x40 DUP1 MLOAD SWAP2 DUP3 SWAP1 SUB PUSH1 0x52 ADD DUP3 KECCAK256 DUP3 DUP3 ADD DUP3 MSTORE PUSH1 0x8 DUP4 MSTORE PUSH8 0x52616D7A5377617 PUSH1 0xC4 SHL PUSH1 0x20 SWAP4 DUP5 ADD MSTORE DUP2 MLOAD DUP1 DUP4 ADD DUP4 MSTORE PUSH1 0x1 DUP2 MSTORE PUSH1 0x31 PUSH1 0xF8 SHL SWAP1 DUP5 ADD MSTORE DUP2 MLOAD DUP1 DUP5 ADD SWAP2 SWAP1 SWAP2 MSTORE PUSH32 0xFDAD714B9DED567F809E1228E3C4209948D0B55CF816B97124955A286699019 DUP2 DUP4 ADD MSTORE PUSH32 0xC89EFDAA54C0F20C7ADF612882DF0950F5A951637E0307CDCB4C672F298B8BC6 PUSH1 0x60 DUP3 ADD MSTORE PUSH1 0x80 DUP2 ADD SWAP5 SWAP1 SWAP5 MSTORE ADDRESS PUSH1 0xA0 DUP1 DUP7 ADD SWAP2 SWAP1 SWAP2 MSTORE DUP2 MLOAD DUP1 DUP7 SUB SWAP1 SWAP2 ADD DUP2 MSTORE PUSH1 0xC0 SWAP1 SWAP5 ADD SWAP1 MSTORE DUP3 MLOAD SWAP3 ADD SWAP2 SWAP1 SWAP2 KECCAK256 PUSH1 0x3 SSTORE POP PUSH1 0x5 DUP1 SLOAD PUSH1 0x1 PUSH1 0x1 PUSH1 0xA0 SHL SUB NOT AND CALLER OR SWAP1 SSTORE PUSH2 0x2264 DUP1 PUSH2 0x103 PUSH1 0x0 CODECOPY PUSH1 0x0 RETURN INVALID PUSH1 0x80 PUSH1 0x40 MSTORE CALLVALUE DUP1 ISZERO PUSH2 0x10 JUMPI PUSH1 0x0 DUP1 REVERT JUMPDEST POP PUSH1 0x4 CALLDATASIZE LT PUSH2 0x1A9 JUMPI PUSH1 0x0 CALLDATALOAD PUSH1 0xE0 SHR DUP1 PUSH4 0x6A627842 GT PUSH2 0xF9 JUMPI DUP1 PUSH4 0xBA9A7A56 GT PUSH2 0x97 JUMPI DUP1 PUSH4 0xD21220A7 GT PUSH2 0x71 JUMPI DUP1 PUSH4 0xD21220A7 EQ PUSH2 0x534 JUMPI DUP1 PUSH4 0xD505ACCF EQ PUSH2 0x53C JUMPI DUP1 PUSH4 0xDD62ED3E EQ PUSH2 0x58D JUMPI DUP1 PUSH4 0xFFF6CAE9 EQ PUSH2 0x5BB JUMPI PUSH2 0x1A9 JUMP JUMPDEST DUP1 PUSH4 0xBA9A7A56 EQ PUSH2 0x4FE JUMPI DUP1 PUSH4 0xBC25CF77 EQ PUSH2 0x506 JUMPI DUP1 PUSH4 0xC45A0155 EQ PUSH2 0x52C JUMPI PUSH2 0x1A9 JUMP JUMPDEST DUP1 PUSH4 0x7ECEBE00 GT PUSH2 0xD3 JUMPI DUP1 PUSH4 0x7ECEBE00 EQ PUSH2 0x465 JUMPI DUP1 PUSH4 0x89AFCB44 EQ PUSH2 0x48B JUMPI DUP1 PUSH4 0x95D89B41 EQ PUSH2 0x4CA JUMPI DUP1 PUSH4 0xA9059CBB EQ PUSH2 0x4D2 JUMPI PUSH2 0x1A9 JUMP JUMPDEST DUP1 PUSH4 0x6A627842 EQ PUSH2 0x411 JUMPI DUP1 PUSH4 0x70A08231 EQ PUSH2 0x437 JUMPI DUP1 PUSH4 0x7464FC3D EQ PUSH2 0x45D JUMPI PUSH2 0x1A9 JUMP JUMPDEST DUP1 PUSH4 0x23B872DD GT PUSH2 0x166 JUMPI DUP1 PUSH4 0x3644E515 GT PUSH2 0x140 JUMPI DUP1 PUSH4 0x3644E515 EQ PUSH2 0x3CB JUMPI DUP1 PUSH4 0x485CC955 EQ PUSH2 0x3D3 JUMPI DUP1 PUSH4 0x5909C0D5 EQ PUSH2 0x401 JUMPI DUP1 PUSH4 0x5A3D5493 EQ PUSH2 0x409 JUMPI PUSH2 0x1A9 JUMP JUMPDEST DUP1 PUSH4 0x23B872DD EQ PUSH2 0x36F JUMPI DUP1 PUSH4 0x30ADF81F EQ PUSH2 0x3A5 JUMPI DUP1 PUSH4 0x313CE567 EQ PUSH2 0x3AD JUMPI PUSH2 0x1A9 JUMP JUMPDEST DUP1 PUSH4 0x22C0D9F EQ PUSH2 0x1AE JUMPI DUP1 PUSH4 0x6FDDE03 EQ PUSH2 0x23C JUMPI DUP1 PUSH4 0x902F1AC EQ PUSH2 0x2B9 JUMPI DUP1 PUSH4 0x95EA7B3 EQ PUSH2 0x2F1 JUMPI DUP1 PUSH4 0xDFE1681 EQ PUSH2 0x331 JUMPI DUP1 PUSH4 0x18160DDD EQ PUSH2 0x355 JUMPI JUMPDEST PUSH1 0x0 DUP1 REVERT JUMPDEST PUSH2 0x23A PUSH1 0x4 DUP1 CALLDATASIZE SUB PUSH1 0x80 DUP2 LT ISZERO PUSH2 0x1C4 JUMPI PUSH1 0x0 DUP1 REVERT JUMPDEST DUP2 CALLDATALOAD SWAP2 PUSH1 0x20 DUP2 ADD CALLDATALOAD SWAP2 PUSH1 0x1 PUSH1 0x1 PUSH1 0xA0 SHL SUB PUSH1 0x40 DUP4 ADD CALLDATALOAD AND SWAP2 SWAP1 DUP2 ADD SWAP1 PUSH1 0x80 DUP2 ADD PUSH1 0x60 DUP3 ADD CALLDATALOAD PUSH5 0x100000000 DUP2 GT ISZERO PUSH2 0x1FB JUMPI PUSH1 0x0 DUP1 REVERT JUMPDEST DUP3 ADD DUP4 PUSH1 0x20 DUP3 ADD GT ISZERO PUSH2 0x20D JUMPI PUSH1 0x0 DUP1 REVERT JUMPDEST DUP1 CALLDATALOAD SWAP1 PUSH1 0x20 ADD SWAP2 DUP5 PUSH1 0x1 DUP4 MUL DUP5 ADD GT PUSH5 0x100000000 DUP4 GT OR ISZERO PUSH2 0x22F JUMPI PUSH1 0x0 DUP1 REVERT JUMPDEST POP SWAP1 SWAP3 POP SWAP1 POP PUSH2 0x5C3 JUMP JUMPDEST STOP JUMPDEST PUSH2 0x244 PUSH2 0xB11 JUMP JUMPDEST PUSH1 0x40 DUP1 MLOAD PUSH1 0x20 DUP1 DUP3 MSTORE DUP4 MLOAD DUP2 DUP4 ADD MSTORE DUP4 MLOAD SWAP2 SWAP3 DUP4 SWAP3 SWAP1 DUP4 ADD SWAP2 DUP6 ADD SWAP1 DUP1 DUP4 DUP4 PUSH1 0x0 JUMPDEST DUP4 DUP2 LT ISZERO PUSH2 0x27E JUMPI DUP2 DUP2 ADD MLOAD DUP4 DUP3 ADD MSTORE PUSH1 0x20 ADD PUSH2 0x266 JUMP JUMPDEST POP POP POP POP SWAP1 POP SWAP1 DUP2 ADD SWAP1 PUSH1 0x1F AND DUP1 ISZERO PUSH2 0x2AB JUMPI DUP1 DUP3 SUB DUP1 MLOAD PUSH1 0x1 DUP4 PUSH1 0x20 SUB PUSH2 0x100 EXP SUB NOT AND DUP2 MSTORE PUSH1 0x20 ADD SWAP2 POP JUMPDEST POP SWAP3 POP POP POP PUSH1 0x40 MLOAD DUP1 SWAP2 SUB SWAP1 RETURN JUMPDEST PUSH2 0x2C1 PUSH2 0xB35 JUMP JUMPDEST PUSH1 0x40 DUP1 MLOAD PUSH1 0x1 PUSH1 0x1 PUSH1 0x70 SHL SUB SWAP5 DUP6 AND DUP2 MSTORE SWAP3 SWAP1 SWAP4 AND PUSH1 0x20 DUP4 ADD MSTORE PUSH4 0xFFFFFFFF AND DUP2 DUP4 ADD MSTORE SWAP1 MLOAD SWAP1 DUP2 SWAP1 SUB PUSH1 0x60 ADD SWAP1 RETURN JUMPDEST PUSH2 0x31D PUSH1 0x4 DUP1 CALLDATASIZE SUB PUSH1 0x40 DUP2 LT ISZERO PUSH2 0x307 JUMPI PUSH1 0x0 DUP1 REVERT JUMPDEST POP PUSH1 0x1 PUSH1 0x1 PUSH1 0xA0 SHL SUB DUP2 CALLDATALOAD AND SWAP1 PUSH1 0x20 ADD CALLDATALOAD PUSH2 0xB5F JUMP JUMPDEST PUSH1 0x40 DUP1 MLOAD SWAP2 ISZERO ISZERO DUP3 MSTORE MLOAD SWAP1 DUP2 SWAP1 SUB PUSH1 0x20 ADD SWAP1 RETURN JUMPDEST PUSH2 0x339 PUSH2 0xB76 JUMP JUMPDEST PUSH1 0x40 DUP1 MLOAD PUSH1 0x1 PUSH1 0x1 PUSH1 0xA0 SHL SUB SWAP1 SWAP3 AND DUP3 MSTORE MLOAD SWAP1 DUP2 SWAP1 SUB PUSH1 0x20 ADD SWAP1 RETURN JUMPDEST PUSH2 0x35D PUSH2 0xB85 JUMP JUMPDEST PUSH1 0x40 DUP1 MLOAD SWAP2 DUP3 MSTORE MLOAD SWAP1 DUP2 SWAP1 SUB PUSH1 0x20 ADD SWAP1 RETURN JUMPDEST PUSH2 0x31D PUSH1 0x4 DUP1 CALLDATASIZE SUB PUSH1 0x60 DUP2 LT ISZERO PUSH2 0x385 JUMPI PUSH1 0x0 DUP1 REVERT JUMPDEST POP PUSH1 0x1 PUSH1 0x1 PUSH1 0xA0 SHL SUB DUP2 CALLDATALOAD DUP2 AND SWAP2 PUSH1 0x20 DUP2 ADD CALLDATALOAD SWAP1 SWAP2 AND SWAP1 PUSH1 0x40 ADD CALLDATALOAD PUSH2 0xB8B JUMP JUMPDEST PUSH2 0x35D PUSH2 0xC25 JUMP JUMPDEST PUSH2 0x3B5 PUSH2 0xC49 JUMP JUMPDEST PUSH1 0x40 DUP1 MLOAD PUSH1 0xFF SWAP1 SWAP3 AND DUP3 MSTORE MLOAD SWAP1 DUP2 SWAP1 SUB PUSH1 0x20 ADD SWAP1 RETURN JUMPDEST PUSH2 0x35D PUSH2 0xC4E JUMP JUMPDEST PUSH2 0x23A PUSH1 0x4 DUP1 CALLDATASIZE SUB PUSH1 0x40 DUP2 LT ISZERO PUSH2 0x3E9 JUMPI PUSH1 0x0 DUP1 REVERT JUMPDEST POP PUSH1 0x1 PUSH1 0x1 PUSH1 0xA0 SHL SUB DUP2 CALLDATALOAD DUP2 AND SWAP2 PUSH1 0x20 ADD CALLDATALOAD AND PUSH2 0xC54 JUMP JUMPDEST PUSH2 0x35D PUSH2 0xCD7 JUMP JUMPDEST PUSH2 0x35D PUSH2 0xCDD JUMP JUMPDEST PUSH2 0x35D PUSH1 0x4 DUP1 CALLDATASIZE SUB PUSH1 0x20 DUP2 LT ISZERO PUSH2 0x427 JUMPI PUSH1 0x0 DUP1 REVERT JUMPDEST POP CALLDATALOAD PUSH1 0x1 PUSH1 0x1 PUSH1 0xA0 SHL SUB AND PUSH2 0xCE3 JUMP JUMPDEST PUSH2 0x35D PUSH1 0x4 DUP1 CALLDATASIZE SUB PUSH1 0x20 DUP2 LT ISZERO PUSH2 0x44D JUMPI PUSH1 0x0 DUP1 REVERT JUMPDEST POP CALLDATALOAD PUSH1 0x1 PUSH1 0x1 PUSH1 0xA0 SHL SUB AND PUSH2 0xFE2 JUMP JUMPDEST PUSH2 0x35D PUSH2 0xFF4 JUMP JUMPDEST PUSH2 0x35D PUSH1 0x4 DUP1 CALLDATASIZE SUB PUSH1 0x20 DUP2 LT ISZERO PUSH2 0x47B JUMPI PUSH1 0x0 DUP1 REVERT JUMPDEST POP CALLDATALOAD PUSH1 0x1 PUSH1 0x1 PUSH1 0xA0 SHL SUB AND PUSH2 0xFFA JUMP JUMPDEST PUSH2 0x4B1 PUSH1 0x4 DUP1 CALLDATASIZE SUB PUSH1 0x20 DUP2 LT ISZERO PUSH2 0x4A1 JUMPI PUSH1 0x0 DUP1 REVERT JUMPDEST POP CALLDATALOAD PUSH1 0x1 PUSH1 0x1 PUSH1 0xA0 SHL SUB AND PUSH2 0x100C JUMP JUMPDEST PUSH1 0x40 DUP1 MLOAD SWAP3 DUP4 MSTORE PUSH1 0x20 DUP4 ADD SWAP2 SWAP1 SWAP2 MSTORE DUP1 MLOAD SWAP2 DUP3 SWAP1 SUB ADD SWAP1 RETURN JUMPDEST PUSH2 0x244 PUSH2 0x13B1 JUMP JUMPDEST PUSH2 0x31D PUSH1 0x4 DUP1 CALLDATASIZE SUB PUSH1 0x40 DUP2 LT ISZERO PUSH2 0x4E8 JUMPI PUSH1 0x0 DUP1 REVERT JUMPDEST POP PUSH1 0x1 PUSH1 0x1 PUSH1 0xA0 SHL SUB DUP2 CALLDATALOAD AND SWAP1 PUSH1 0x20 ADD CALLDATALOAD PUSH2 0x13D0 JUMP JUMPDEST PUSH2 0x35D PUSH2 0x13DD JUMP JUMPDEST PUSH2 0x23A PUSH1 0x4 DUP1 CALLDATASIZE SUB PUSH1 0x20 DUP2 LT ISZERO PUSH2 0x51C JUMPI PUSH1 0x0 DUP1 REVERT JUMPDEST POP CALLDATALOAD PUSH1 0x1 PUSH1 0x1 PUSH1 0xA0 SHL SUB AND PUSH2 0x13E3 JUMP JUMPDEST PUSH2 0x339 PUSH2 0x154D JUMP JUMPDEST PUSH2 0x339 PUSH2 0x155C JUMP JUMPDEST PUSH2 0x23A PUSH1 0x4 DUP1 CALLDATASIZE SUB PUSH1 0xE0 DUP2 LT ISZERO PUSH2 0x552 JUMPI PUSH1 0x0 DUP1 REVERT JUMPDEST POP PUSH1 0x1 PUSH1 0x1 PUSH1 0xA0 SHL SUB DUP2 CALLDATALOAD DUP2 AND SWAP2 PUSH1 0x20 DUP2 ADD CALLDATALOAD SWAP1 SWAP2 AND SWAP1 PUSH1 0x40 DUP2 ADD CALLDATALOAD SWAP1 PUSH1 0x60 DUP2 ADD CALLDATALOAD SWAP1 PUSH1 0xFF PUSH1 0x80 DUP3 ADD CALLDATALOAD AND SWAP1 PUSH1 0xA0 DUP2 ADD CALLDATALOAD SWAP1 PUSH1 0xC0 ADD CALLDATALOAD PUSH2 0x156B JUMP JUMPDEST PUSH2 0x35D PUSH1 0x4 DUP1 CALLDATASIZE SUB PUSH1 0x40 DUP2 LT ISZERO PUSH2 0x5A3 JUMPI PUSH1 0x0 DUP1 REVERT JUMPDEST POP PUSH1 0x1 PUSH1 0x1 PUSH1 0xA0 SHL SUB DUP2 CALLDATALOAD DUP2 AND SWAP2 PUSH1 0x20 ADD CALLDATALOAD AND PUSH2 0x176D JUMP JUMPDEST PUSH2 0x23A PUSH2 0x178A JUMP JUMPDEST PUSH1 0xC SLOAD PUSH1 0x1 EQ PUSH2 0x60D JUMPI PUSH1 0x40 DUP1 MLOAD PUSH3 0x461BCD PUSH1 0xE5 SHL DUP2 MSTORE PUSH1 0x20 PUSH1 0x4 DUP3 ADD MSTORE PUSH1 0x10 PUSH1 0x24 DUP3 ADD MSTORE PUSH16 0x14985B5E94DDD85C0E881313D0D2D151 PUSH1 0x82 SHL PUSH1 0x44 DUP3 ADD MSTORE SWAP1 MLOAD SWAP1 DUP2 SWAP1 SUB PUSH1 0x64 ADD SWAP1 REVERT JUMPDEST PUSH1 0x0 PUSH1 0xC SSTORE DUP5 ISZERO ISZERO DUP1 PUSH2 0x620 JUMPI POP PUSH1 0x0 DUP5 GT JUMPDEST PUSH2 0x65B JUMPI PUSH1 0x40 MLOAD PUSH3 0x461BCD PUSH1 0xE5 SHL DUP2 MSTORE PUSH1 0x4 ADD DUP1 DUP1 PUSH1 0x20 ADD DUP3 DUP2 SUB DUP3 MSTORE PUSH1 0x24 DUP2 MSTORE PUSH1 0x20 ADD DUP1 PUSH2 0x219B PUSH1 0x24 SWAP2 CODECOPY PUSH1 0x40 ADD SWAP2 POP POP PUSH1 0x40 MLOAD DUP1 SWAP2 SUB SWAP1 REVERT JUMPDEST PUSH1 0x0 DUP1 PUSH2 0x666 PUSH2 0xB35 JUMP JUMPDEST POP SWAP2 POP SWAP2 POP DUP2 PUSH1 0x1 PUSH1 0x1 PUSH1 0x70 SHL SUB AND DUP8 LT DUP1 ISZERO PUSH2 0x68B JUMPI POP DUP1 PUSH1 0x1 PUSH1 0x1 PUSH1 0x70 SHL SUB AND DUP7 LT JUMPDEST PUSH2 0x6DC JUMPI PUSH1 0x40 DUP1 MLOAD PUSH3 0x461BCD PUSH1 0xE5 SHL DUP2 MSTORE PUSH1 0x20 PUSH1 0x4 DUP3 ADD DUP2 SWAP1 MSTORE PUSH1 0x24 DUP3 ADD MSTORE PUSH32 0x52616D7A537761703A20494E53554646494349454E545F4C4951554944495459 PUSH1 0x44 DUP3 ADD MSTORE SWAP1 MLOAD SWAP1 DUP2 SWAP1 SUB PUSH1 0x64 ADD SWAP1 REVERT JUMPDEST PUSH1 0x6 SLOAD PUSH1 0x7 SLOAD PUSH1 0x0 SWAP2 DUP3 SWAP2 PUSH1 0x1 PUSH1 0x1 PUSH1 0xA0 SHL SUB SWAP2 DUP3 AND SWAP2 SWAP1 DUP2 AND SWAP1 DUP10 AND DUP3 EQ DUP1 ISZERO SWAP1 PUSH2 0x71A JUMPI POP DUP1 PUSH1 0x1 PUSH1 0x1 PUSH1 0xA0 SHL SUB AND DUP10 PUSH1 0x1 PUSH1 0x1 PUSH1 0xA0 SHL SUB AND EQ ISZERO JUMPDEST PUSH2 0x762 JUMPI PUSH1 0x40 DUP1 MLOAD PUSH3 0x461BCD PUSH1 0xE5 SHL DUP2 MSTORE PUSH1 0x20 PUSH1 0x4 DUP3 ADD MSTORE PUSH1 0x14 PUSH1 0x24 DUP3 ADD MSTORE PUSH20 0x52616D7A537761703A20494E56414C49445F544F PUSH1 0x60 SHL PUSH1 0x44 DUP3 ADD MSTORE SWAP1 MLOAD SWAP1 DUP2 SWAP1 SUB PUSH1 0x64 ADD SWAP1 REVERT JUMPDEST DUP11 ISZERO PUSH2 0x773 JUMPI PUSH2 0x773 DUP3 DUP11 DUP14 PUSH2 0x18EB JUMP JUMPDEST DUP10 ISZERO PUSH2 0x784 JUMPI PUSH2 0x784 DUP2 DUP11 DUP13 PUSH2 0x18EB JUMP JUMPDEST DUP7 ISZERO PUSH2 0x83F JUMPI DUP9 PUSH1 0x1 PUSH1 0x1 PUSH1 0xA0 SHL SUB AND PUSH4 0xB66BF2EA CALLER DUP14 DUP14 DUP13 DUP13 PUSH1 0x40 MLOAD DUP7 PUSH4 0xFFFFFFFF AND PUSH1 0xE0 SHL DUP2 MSTORE PUSH1 0x4 ADD DUP1 DUP7 PUSH1 0x1 PUSH1 0x1 PUSH1 0xA0 SHL SUB AND PUSH1 0x1 PUSH1 0x1 PUSH1 0xA0 SHL SUB AND DUP2 MSTORE PUSH1 0x20 ADD DUP6 DUP2 MSTORE PUSH1 0x20 ADD DUP5 DUP2 MSTORE PUSH1 0x20 ADD DUP1 PUSH1 0x20 ADD DUP3 DUP2 SUB DUP3 MSTORE DUP5 DUP5 DUP3 DUP2 DUP2 MSTORE PUSH1 0x20 ADD SWAP3 POP DUP1 DUP3 DUP5 CALLDATACOPY PUSH1 0x0 DUP2 DUP5 ADD MSTORE PUSH1 0x1F NOT PUSH1 0x1F DUP3 ADD AND SWAP1 POP DUP1 DUP4 ADD SWAP3 POP POP POP SWAP7 POP POP POP POP POP POP POP PUSH1 0x0 PUSH1 0x40 MLOAD DUP1 DUP4 SUB DUP2 PUSH1 0x0 DUP8 DUP1 EXTCODESIZE ISZERO DUP1 ISZERO PUSH2 0x826 JUMPI PUSH1 0x0 DUP1 REVERT JUMPDEST POP GAS CALL ISZERO DUP1 ISZERO PUSH2 0x83A JUMPI RETURNDATASIZE PUSH1 0x0 DUP1 RETURNDATACOPY RETURNDATASIZE PUSH1 0x0 REVERT JUMPDEST POP POP POP POP JUMPDEST PUSH1 0x40 DUP1 MLOAD PUSH4 0x70A08231 PUSH1 0xE0 SHL DUP2 MSTORE ADDRESS PUSH1 0x4 DUP3 ADD MSTORE SWAP1 MLOAD PUSH1 0x1 PUSH1 0x1 PUSH1 0xA0 SHL SUB DUP5 AND SWAP2 PUSH4 0x70A08231 SWAP2 PUSH1 0x24 DUP1 DUP4 ADD SWAP3 PUSH1 0x20 SWAP3 SWAP2 SWAP1 DUP3 SWAP1 SUB ADD DUP2 DUP7 DUP1 EXTCODESIZE ISZERO DUP1 ISZERO PUSH2 0x885 JUMPI PUSH1 0x0 DUP1 REVERT JUMPDEST POP GAS STATICCALL ISZERO DUP1 ISZERO PUSH2 0x899 JUMPI RETURNDATASIZE PUSH1 0x0 DUP1 RETURNDATACOPY RETURNDATASIZE PUSH1 0x0 REVERT JUMPDEST POP POP POP POP PUSH1 0x40 MLOAD RETURNDATASIZE PUSH1 0x20 DUP2 LT ISZERO PUSH2 0x8AF JUMPI PUSH1 0x0 DUP1 REVERT JUMPDEST POP MLOAD PUSH1 0x40 DUP1 MLOAD PUSH4 0x70A08231 PUSH1 0xE0 SHL DUP2 MSTORE ADDRESS PUSH1 0x4 DUP3 ADD MSTORE SWAP1 MLOAD SWAP2 SWAP6 POP PUSH1 0x1 PUSH1 0x1 PUSH1 0xA0 SHL SUB DUP4 AND SWAP2 PUSH4 0x70A08231 SWAP2 PUSH1 0x24 DUP1 DUP3 ADD SWAP3 PUSH1 0x20 SWAP3 SWAP1 SWAP2 SWAP1 DUP3 SWAP1 SUB ADD DUP2 DUP7 DUP1 EXTCODESIZE ISZERO DUP1 ISZERO PUSH2 0x8FB JUMPI PUSH1 0x0 DUP1 REVERT JUMPDEST POP GAS STATICCALL ISZERO DUP1 ISZERO PUSH2 0x90F JUMPI RETURNDATASIZE PUSH1 0x0 DUP1 RETURNDATACOPY RETURNDATASIZE PUSH1 0x0 REVERT JUMPDEST POP POP POP POP PUSH1 0x40 MLOAD RETURNDATASIZE PUSH1 0x20 DUP2 LT ISZERO PUSH2 0x925 JUMPI PUSH1 0x0 DUP1 REVERT JUMPDEST POP MLOAD SWAP3 POP PUSH1 0x0 SWAP2 POP POP PUSH1 0x1 PUSH1 0x1 PUSH1 0x70 SHL SUB DUP6 AND DUP11 SWAP1 SUB DUP4 GT PUSH2 0x948 JUMPI PUSH1 0x0 PUSH2 0x957 JUMP JUMPDEST DUP10 DUP6 PUSH1 0x1 PUSH1 0x1 PUSH1 0x70 SHL SUB AND SUB DUP4 SUB JUMPDEST SWAP1 POP PUSH1 0x0 DUP10 DUP6 PUSH1 0x1 PUSH1 0x1 PUSH1 0x70 SHL SUB AND SUB DUP4 GT PUSH2 0x974 JUMPI PUSH1 0x0 PUSH2 0x983 JUMP JUMPDEST DUP10 DUP6 PUSH1 0x1 PUSH1 0x1 PUSH1 0x70 SHL SUB AND SUB DUP4 SUB JUMPDEST SWAP1 POP PUSH1 0x0 DUP3 GT DUP1 PUSH2 0x994 JUMPI POP PUSH1 0x0 DUP2 GT JUMPDEST PUSH2 0x9CF JUMPI PUSH1 0x40 MLOAD PUSH3 0x461BCD PUSH1 0xE5 SHL DUP2 MSTORE PUSH1 0x4 ADD DUP1 DUP1 PUSH1 0x20 ADD DUP3 DUP2 SUB DUP3 MSTORE PUSH1 0x23 DUP2 MSTORE PUSH1 0x20 ADD DUP1 PUSH2 0x21E6 PUSH1 0x23 SWAP2 CODECOPY PUSH1 0x40 ADD SWAP2 POP POP PUSH1 0x40 MLOAD DUP1 SWAP2 SUB SWAP1 REVERT JUMPDEST PUSH1 0x0 PUSH2 0xA03 PUSH2 0x9E5 DUP5 PUSH1 0x3 PUSH4 0xFFFFFFFF PUSH2 0x1A85 AND JUMP JUMPDEST PUSH2 0x9F7 DUP8 PUSH2 0x3E8 PUSH4 0xFFFFFFFF PUSH2 0x1A85 AND JUMP JUMPDEST SWAP1 PUSH4 0xFFFFFFFF PUSH2 0x1AE8 AND JUMP JUMPDEST SWAP1 POP PUSH1 0x0 PUSH2 0xA1B PUSH2 0x9E5 DUP5 PUSH1 0x3 PUSH4 0xFFFFFFFF PUSH2 0x1A85 AND JUMP JUMPDEST SWAP1 POP PUSH2 0xA4C PUSH3 0xF4240 PUSH2 0xA40 PUSH1 0x1 PUSH1 0x1 PUSH1 0x70 SHL SUB DUP12 DUP2 AND SWAP1 DUP12 AND PUSH4 0xFFFFFFFF PUSH2 0x1A85 AND JUMP JUMPDEST SWAP1 PUSH4 0xFFFFFFFF PUSH2 0x1A85 AND JUMP JUMPDEST PUSH2 0xA5C DUP4 DUP4 PUSH4 0xFFFFFFFF PUSH2 0x1A85 AND JUMP JUMPDEST LT ISZERO PUSH2 0xA9D JUMPI PUSH1 0x40 DUP1 MLOAD PUSH3 0x461BCD PUSH1 0xE5 SHL DUP2 MSTORE PUSH1 0x20 PUSH1 0x4 DUP3 ADD MSTORE PUSH1 0xB PUSH1 0x24 DUP3 ADD MSTORE PUSH11 0x52616D7A537761703A204B PUSH1 0xA8 SHL PUSH1 0x44 DUP3 ADD MSTORE SWAP1 MLOAD SWAP1 DUP2 SWAP1 SUB PUSH1 0x64 ADD SWAP1 REVERT JUMPDEST POP POP PUSH2 0xAAB DUP5 DUP5 DUP9 DUP9 PUSH2 0x1B38 JUMP JUMPDEST PUSH1 0x40 DUP1 MLOAD DUP4 DUP2 MSTORE PUSH1 0x20 DUP2 ADD DUP4 SWAP1 MSTORE DUP1 DUP3 ADD DUP14 SWAP1 MSTORE PUSH1 0x60 DUP2 ADD DUP13 SWAP1 MSTORE SWAP1 MLOAD PUSH1 0x1 PUSH1 0x1 PUSH1 0xA0 SHL SUB DUP12 AND SWAP2 CALLER SWAP2 PUSH32 0xD78AD95FA46C994B6551D0DA85FC275FE613CE37657FB8D5E3D130840159D822 SWAP2 DUP2 SWAP1 SUB PUSH1 0x80 ADD SWAP1 LOG3 POP POP PUSH1 0x1 PUSH1 0xC SSTORE POP POP POP POP POP POP POP POP POP JUMP JUMPDEST PUSH1 0x40 MLOAD DUP1 PUSH1 0x40 ADD PUSH1 0x40 MSTORE DUP1 PUSH1 0x8 DUP2 MSTORE PUSH1 0x20 ADD PUSH8 0x52616D7A5377617 PUSH1 0xC4 SHL DUP2 MSTORE POP DUP2 JUMP JUMPDEST PUSH1 0x8 SLOAD PUSH1 0x1 PUSH1 0x1 PUSH1 0x70 SHL SUB DUP1 DUP3 AND SWAP3 PUSH1 0x1 PUSH1 0x70 SHL DUP4 DIV SWAP1 SWAP2 AND SWAP2 PUSH1 0x1 PUSH1 0xE0 SHL SWAP1 DIV PUSH4 0xFFFFFFFF AND SWAP1 JUMP JUMPDEST PUSH1 0x0 PUSH2 0xB6C CALLER DUP5 DUP5 PUSH2 0x1CFC JUMP JUMPDEST POP PUSH1 0x1 JUMPDEST SWAP3 SWAP2 POP POP JUMP JUMPDEST PUSH1 0x6 SLOAD PUSH1 0x1 PUSH1 0x1 PUSH1 0xA0 SHL SUB AND DUP2 JUMP JUMPDEST PUSH1 0x0 SLOAD DUP2 JUMP JUMPDEST PUSH1 0x1 PUSH1 0x1 PUSH1 0xA0 SHL SUB DUP4 AND PUSH1 0x0 SWAP1 DUP2 MSTORE PUSH1 0x2 PUSH1 0x20 SWAP1 DUP2 MSTORE PUSH1 0x40 DUP1 DUP4 KECCAK256 CALLER DUP5 MSTORE SWAP1 SWAP2 MSTORE DUP2 KECCAK256 SLOAD PUSH1 0x0 NOT EQ PUSH2 0xC10 JUMPI PUSH1 0x1 PUSH1 0x1 PUSH1 0xA0 SHL SUB DUP5 AND PUSH1 0x0 SWAP1 DUP2 MSTORE PUSH1 0x2 PUSH1 0x20 SWAP1 DUP2 MSTORE PUSH1 0x40 DUP1 DUP4 KECCAK256 CALLER DUP5 MSTORE SWAP1 SWAP2 MSTORE SWAP1 KECCAK256 SLOAD PUSH2 0xBEB SWAP1 DUP4 PUSH4 0xFFFFFFFF PUSH2 0x1AE8 AND JUMP JUMPDEST PUSH1 0x1 PUSH1 0x1 PUSH1 0xA0 SHL SUB DUP6 AND PUSH1 0x0 SWAP1 DUP2 MSTORE PUSH1 0x2 PUSH1 0x20 SWAP1 DUP2 MSTORE PUSH1 0x40 DUP1 DUP4 KECCAK256 CALLER DUP5 MSTORE SWAP1 SWAP2 MSTORE SWAP1 KECCAK256 SSTORE JUMPDEST PUSH2 0xC1B DUP5 DUP5 DUP5 PUSH2 0x1D5E JUMP JUMPDEST POP PUSH1 0x1 SWAP4 SWAP3 POP POP POP JUMP JUMPDEST PUSH32 0x6E71EDAE12B1B97F4D1F60370FEF10105FA2FAAE0126114A169C64845D6126C9 DUP2 JUMP JUMPDEST PUSH1 0x12 DUP2 JUMP JUMPDEST PUSH1 0x3 SLOAD DUP2 JUMP JUMPDEST PUSH1 0x5 SLOAD PUSH1 0x1 PUSH1 0x1 PUSH1 0xA0 SHL SUB AND CALLER EQ PUSH2 0xCA9 JUMPI PUSH1 0x40 DUP1 MLOAD PUSH3 0x461BCD PUSH1 0xE5 SHL DUP2 MSTORE PUSH1 0x20 PUSH1 0x4 DUP3 ADD MSTORE PUSH1 0x13 PUSH1 0x24 DUP3 ADD MSTORE PUSH19 0x2930B6BD29BBB0B81D102327A92124A22222A7 PUSH1 0x69 SHL PUSH1 0x44 DUP3 ADD MSTORE SWAP1 MLOAD SWAP1 DUP2 SWAP1 SUB PUSH1 0x64 ADD SWAP1 REVERT JUMPDEST PUSH1 0x6 DUP1 SLOAD PUSH1 0x1 PUSH1 0x1 PUSH1 0xA0 SHL SUB SWAP4 DUP5 AND PUSH1 0x1 PUSH1 0x1 PUSH1 0xA0 SHL SUB NOT SWAP2 DUP3 AND OR SWAP1 SWAP2 SSTORE PUSH1 0x7 DUP1 SLOAD SWAP3 SWAP1 SWAP4 AND SWAP2 AND OR SWAP1 SSTORE JUMP JUMPDEST PUSH1 0x9 SLOAD DUP2 JUMP JUMPDEST PUSH1 0xA SLOAD DUP2 JUMP JUMPDEST PUSH1 0x0 PUSH1 0xC SLOAD PUSH1 0x1 EQ PUSH2 0xD2F JUMPI PUSH1 0x40 DUP1 MLOAD PUSH3 0x461BCD PUSH1 0xE5 SHL DUP2 MSTORE PUSH1 0x20 PUSH1 0x4 DUP3 ADD MSTORE PUSH1 0x10 PUSH1 0x24 DUP3 ADD MSTORE PUSH16 0x14985B5E94DDD85C0E881313D0D2D151 PUSH1 0x82 SHL PUSH1 0x44 DUP3 ADD MSTORE SWAP1 MLOAD SWAP1 DUP2 SWAP1 SUB PUSH1 0x64 ADD SWAP1 REVERT JUMPDEST PUSH1 0x0 PUSH1 0xC DUP2 SWAP1 SSTORE DUP1 PUSH2 0xD3F PUSH2 0xB35 JUMP JUMPDEST POP PUSH1 0x6 SLOAD PUSH1 0x40 DUP1 MLOAD PUSH4 0x70A08231 PUSH1 0xE0 SHL DUP2 MSTORE ADDRESS PUSH1 0x4 DUP3 ADD MSTORE SWAP1 MLOAD SWAP4 SWAP6 POP SWAP2 SWAP4 POP PUSH1 0x0 SWAP3 PUSH1 0x1 PUSH1 0x1 PUSH1 0xA0 SHL SUB SWAP1 SWAP2 AND SWAP2 PUSH4 0x70A08231 SWAP2 PUSH1 0x24 DUP1 DUP4 ADD SWAP3 PUSH1 0x20 SWAP3 SWAP2 SWAP1 DUP3 SWAP1 SUB ADD DUP2 DUP7 DUP1 EXTCODESIZE ISZERO DUP1 ISZERO PUSH2 0xD93 JUMPI PUSH1 0x0 DUP1 REVERT JUMPDEST POP GAS STATICCALL ISZERO DUP1 ISZERO PUSH2 0xDA7 JUMPI RETURNDATASIZE PUSH1 0x0 DUP1 RETURNDATACOPY RETURNDATASIZE PUSH1 0x0 REVERT JUMPDEST POP POP POP POP PUSH1 0x40 MLOAD RETURNDATASIZE PUSH1 0x20 DUP2 LT ISZERO PUSH2 0xDBD JUMPI PUSH1 0x0 DUP1 REVERT JUMPDEST POP MLOAD PUSH1 0x7 SLOAD PUSH1 0x40 DUP1 MLOAD PUSH4 0x70A08231 PUSH1 0xE0 SHL DUP2 MSTORE ADDRESS PUSH1 0x4 DUP3 ADD MSTORE SWAP1 MLOAD SWAP3 SWAP4 POP PUSH1 0x0 SWAP3 PUSH1 0x1 PUSH1 0x1 PUSH1 0xA0 SHL SUB SWAP1 SWAP3 AND SWAP2 PUSH4 0x70A08231 SWAP2 PUSH1 0x24 DUP1 DUP3 ADD SWAP3 PUSH1 0x20 SWAP3 SWAP1 SWAP2 SWAP1 DUP3 SWAP1 SUB ADD DUP2 DUP7 DUP1 EXTCODESIZE ISZERO DUP1 ISZERO PUSH2 0xE10 JUMPI PUSH1 0x0 DUP1 REVERT JUMPDEST POP GAS STATICCALL ISZERO DUP1 ISZERO PUSH2 0xE24 JUMPI RETURNDATASIZE PUSH1 0x0 DUP1 RETURNDATACOPY RETURNDATASIZE PUSH1 0x0 REVERT JUMPDEST POP POP POP POP PUSH1 0x40 MLOAD RETURNDATASIZE PUSH1 0x20 DUP2 LT ISZERO PUSH2 0xE3A JUMPI PUSH1 0x0 DUP1 REVERT JUMPDEST POP MLOAD SWAP1 POP PUSH1 0x0 PUSH2 0xE59 DUP4 PUSH1 0x1 PUSH1 0x1 PUSH1 0x70 SHL SUB DUP8 AND PUSH4 0xFFFFFFFF PUSH2 0x1AE8 AND JUMP JUMPDEST SWAP1 POP PUSH1 0x0 PUSH2 0xE76 DUP4 PUSH1 0x1 PUSH1 0x1 PUSH1 0x70 SHL SUB DUP8 AND PUSH4 0xFFFFFFFF PUSH2 0x1AE8 AND JUMP JUMPDEST SWAP1 POP PUSH1 0x0 PUSH2 0xE84 DUP8 DUP8 PUSH2 0x1E18 JUMP JUMPDEST PUSH1 0x0 SLOAD SWAP1 SWAP2 POP DUP1 PUSH2 0xEC1 JUMPI PUSH2 0xEAD PUSH2 0x3E8 PUSH2 0x9F7 PUSH2 0xEA8 DUP8 DUP8 PUSH4 0xFFFFFFFF PUSH2 0x1A85 AND JUMP JUMPDEST PUSH2 0x1F76 JUMP JUMPDEST SWAP9 POP PUSH2 0xEBC PUSH1 0x0 PUSH2 0x3E8 PUSH2 0x1FC8 JUMP JUMPDEST PUSH2 0xF10 JUMP JUMPDEST PUSH2 0xF0D PUSH1 0x1 PUSH1 0x1 PUSH1 0x70 SHL SUB DUP10 AND PUSH2 0xEDE DUP7 DUP5 PUSH4 0xFFFFFFFF PUSH2 0x1A85 AND JUMP JUMPDEST DUP2 PUSH2 0xEE5 JUMPI INVALID JUMPDEST DIV PUSH1 0x1 PUSH1 0x1 PUSH1 0x70 SHL SUB DUP10 AND PUSH2 0xF00 DUP7 DUP6 PUSH4 0xFFFFFFFF PUSH2 0x1A85 AND JUMP JUMPDEST DUP2 PUSH2 0xF07 JUMPI INVALID JUMPDEST DIV PUSH2 0x205E JUMP JUMPDEST SWAP9 POP JUMPDEST PUSH1 0x0 DUP10 GT PUSH2 0xF4F JUMPI PUSH1 0x40 MLOAD PUSH3 0x461BCD PUSH1 0xE5 SHL DUP2 MSTORE PUSH1 0x4 ADD DUP1 DUP1 PUSH1 0x20 ADD DUP3 DUP2 SUB DUP3 MSTORE PUSH1 0x27 DUP2 MSTORE PUSH1 0x20 ADD DUP1 PUSH2 0x21BF PUSH1 0x27 SWAP2 CODECOPY PUSH1 0x40 ADD SWAP2 POP POP PUSH1 0x40 MLOAD DUP1 SWAP2 SUB SWAP1 REVERT JUMPDEST PUSH2 0xF59 DUP11 DUP11 PUSH2 0x1FC8 JUMP JUMPDEST PUSH2 0xF65 DUP7 DUP7 DUP11 DUP11 PUSH2 0x1B38 JUMP JUMPDEST DUP2 ISZERO PUSH2 0xF95 JUMPI PUSH1 0x8 SLOAD PUSH2 0xF91 SWAP1 PUSH1 0x1 PUSH1 0x1 PUSH1 0x70 SHL SUB DUP1 DUP3 AND SWAP2 PUSH1 0x1 PUSH1 0x70 SHL SWAP1 DIV AND PUSH4 0xFFFFFFFF PUSH2 0x1A85 AND JUMP JUMPDEST PUSH1 0xB SSTORE JUMPDEST PUSH1 0x40 DUP1 MLOAD DUP6 DUP2 MSTORE PUSH1 0x20 DUP2 ADD DUP6 SWAP1 MSTORE DUP2 MLOAD CALLER SWAP3 PUSH32 0x4C209B5FC8AD50758F13E2E1088BA56A560DFF690A1C6FEF26394F4C03821C4F SWAP3 DUP3 SWAP1 SUB ADD SWAP1 LOG2 POP POP PUSH1 0x1 PUSH1 0xC SSTORE POP SWAP5 SWAP7 SWAP6 POP POP POP POP POP POP JUMP JUMPDEST PUSH1 0x1 PUSH1 0x20 MSTORE PUSH1 0x0 SWAP1 DUP2 MSTORE PUSH1 0x40 SWAP1 KECCAK256 SLOAD DUP2 JUMP JUMPDEST PUSH1 0xB SLOAD DUP2 JUMP JUMPDEST PUSH1 0x4 PUSH1 0x20 MSTORE PUSH1 0x0 SWAP1 DUP2 MSTORE PUSH1 0x40 SWAP1 KECCAK256 SLOAD DUP2 JUMP JUMPDEST PUSH1 0x0 DUP1 PUSH1 0xC SLOAD PUSH1 0x1 EQ PUSH2 0x1059 JUMPI PUSH1 0x40 DUP1 MLOAD PUSH3 0x461BCD PUSH1 0xE5 SHL DUP2 MSTORE PUSH1 0x20 PUSH1 0x4 DUP3 ADD MSTORE PUSH1 0x10 PUSH1 0x24 DUP3 ADD MSTORE PUSH16 0x14985B5E94DDD85C0E881313D0D2D151 PUSH1 0x82 SHL PUSH1 0x44 DUP3 ADD MSTORE SWAP1 MLOAD SWAP1 DUP2 SWAP1 SUB PUSH1 0x64 ADD SWAP1 REVERT JUMPDEST PUSH1 0x0 PUSH1 0xC DUP2 SWAP1 SSTORE DUP1 PUSH2 0x1069 PUSH2 0xB35 JUMP JUMPDEST POP PUSH1 0x6 SLOAD PUSH1 0x7 SLOAD PUSH1 0x40 DUP1 MLOAD PUSH4 0x70A08231 PUSH1 0xE0 SHL DUP2 MSTORE ADDRESS PUSH1 0x4 DUP3 ADD MSTORE SWAP1 MLOAD SWAP5 SWAP7 POP SWAP3 SWAP5 POP PUSH1 0x1 PUSH1 0x1 PUSH1 0xA0 SHL SUB SWAP2 DUP3 AND SWAP4 SWAP2 AND SWAP2 PUSH1 0x0 SWAP2 DUP5 SWAP2 PUSH4 0x70A08231 SWAP2 PUSH1 0x24 DUP1 DUP4 ADD SWAP3 PUSH1 0x20 SWAP3 SWAP2 SWAP1 DUP3 SWAP1 SUB ADD DUP2 DUP7 DUP1 EXTCODESIZE ISZERO DUP1 ISZERO PUSH2 0x10C5 JUMPI PUSH1 0x0 DUP1 REVERT JUMPDEST POP GAS STATICCALL ISZERO DUP1 ISZERO PUSH2 0x10D9 JUMPI RETURNDATASIZE PUSH1 0x0 DUP1 RETURNDATACOPY RETURNDATASIZE PUSH1 0x0 REVERT JUMPDEST POP POP POP POP PUSH1 0x40 MLOAD RETURNDATASIZE PUSH1 0x20 DUP2 LT ISZERO PUSH2 0x10EF JUMPI PUSH1 0x0 DUP1 REVERT JUMPDEST POP MLOAD PUSH1 0x40 DUP1 MLOAD PUSH4 0x70A08231 PUSH1 0xE0 SHL DUP2 MSTORE ADDRESS PUSH1 0x4 DUP3 ADD MSTORE SWAP1 MLOAD SWAP2 SWAP3 POP PUSH1 0x0 SWAP2 PUSH1 0x1 PUSH1 0x1 PUSH1 0xA0 SHL SUB DUP6 AND SWAP2 PUSH4 0x70A08231 SWAP2 PUSH1 0x24 DUP1 DUP4 ADD SWAP3 PUSH1 0x20 SWAP3 SWAP2 SWAP1 DUP3 SWAP1 SUB ADD DUP2 DUP7 DUP1 EXTCODESIZE ISZERO DUP1 ISZERO PUSH2 0x113D JUMPI PUSH1 0x0 DUP1 REVERT JUMPDEST POP GAS STATICCALL ISZERO DUP1 ISZERO PUSH2 0x1151 JUMPI RETURNDATASIZE PUSH1 0x0 DUP1 RETURNDATACOPY RETURNDATASIZE PUSH1 0x0 REVERT JUMPDEST POP POP POP POP PUSH1 0x40 MLOAD RETURNDATASIZE PUSH1 0x20 DUP2 LT ISZERO PUSH2 0x1167 JUMPI PUSH1 0x0 DUP1 REVERT JUMPDEST POP MLOAD ADDRESS PUSH1 0x0 SWAP1 DUP2 MSTORE PUSH1 0x1 PUSH1 0x20 MSTORE PUSH1 0x40 DUP2 KECCAK256 SLOAD SWAP2 SWAP3 POP PUSH2 0x1186 DUP9 DUP9 PUSH2 0x1E18 JUMP JUMPDEST PUSH1 0x0 SLOAD SWAP1 SWAP2 POP DUP1 PUSH2 0x119D DUP5 DUP8 PUSH4 0xFFFFFFFF PUSH2 0x1A85 AND JUMP JUMPDEST DUP2 PUSH2 0x11A4 JUMPI INVALID JUMPDEST DIV SWAP11 POP DUP1 PUSH2 0x11B8 DUP5 DUP7 PUSH4 0xFFFFFFFF PUSH2 0x1A85 AND JUMP JUMPDEST DUP2 PUSH2 0x11BF JUMPI INVALID JUMPDEST DIV SWAP10 POP PUSH1 0x0 DUP12 GT DUP1 ISZERO PUSH2 0x11D2 JUMPI POP PUSH1 0x0 DUP11 GT JUMPDEST PUSH2 0x120D JUMPI PUSH1 0x40 MLOAD PUSH3 0x461BCD PUSH1 0xE5 SHL DUP2 MSTORE PUSH1 0x4 ADD DUP1 DUP1 PUSH1 0x20 ADD DUP3 DUP2 SUB DUP3 MSTORE PUSH1 0x27 DUP2 MSTORE PUSH1 0x20 ADD DUP1 PUSH2 0x2209 PUSH1 0x27 SWAP2 CODECOPY PUSH1 0x40 ADD SWAP2 POP POP PUSH1 0x40 MLOAD DUP1 SWAP2 SUB SWAP1 REVERT JUMPDEST PUSH2 0x1217 ADDRESS DUP5 PUSH2 0x2076 JUMP JUMPDEST PUSH2 0x1222 DUP8 DUP14 DUP14 PUSH2 0x18EB JUMP JUMPDEST PUSH2 0x122D DUP7 DUP14 DUP13 PUSH2 0x18EB JUMP JUMPDEST PUSH1 0x40 DUP1 MLOAD PUSH4 0x70A08231 PUSH1 0xE0 SHL DUP2 MSTORE ADDRESS PUSH1 0x4 DUP3 ADD MSTORE SWAP1 MLOAD PUSH1 0x1 PUSH1 0x1 PUSH1 0xA0 SHL SUB DUP10 AND SWAP2 PUSH4 0x70A08231 SWAP2 PUSH1 0x24 DUP1 DUP4 ADD SWAP3 PUSH1 0x20 SWAP3 SWAP2 SWAP1 DUP3 SWAP1 SUB ADD DUP2 DUP7 DUP1 EXTCODESIZE ISZERO DUP1 ISZERO PUSH2 0x1273 JUMPI PUSH1 0x0 DUP1 REVERT JUMPDEST POP GAS STATICCALL ISZERO DUP1 ISZERO PUSH2 0x1287 JUMPI RETURNDATASIZE PUSH1 0x0 DUP1 RETURNDATACOPY RETURNDATASIZE PUSH1 0x0 REVERT JUMPDEST POP POP POP POP PUSH1 0x40 MLOAD RETURNDATASIZE PUSH1 0x20 DUP2 LT ISZERO PUSH2 0x129D JUMPI PUSH1 0x0 DUP1 REVERT JUMPDEST POP MLOAD PUSH1 0x40 DUP1 MLOAD PUSH4 0x70A08231 PUSH1 0xE0 SHL DUP2 MSTORE ADDRESS PUSH1 0x4 DUP3 ADD MSTORE SWAP1 MLOAD SWAP2 SWAP7 POP PUSH1 0x1 PUSH1 0x1 PUSH1 0xA0 SHL SUB DUP9 AND SWAP2 PUSH4 0x70A08231 SWAP2 PUSH1 0x24 DUP1 DUP3 ADD SWAP3 PUSH1 0x20 SWAP3 SWAP1 SWAP2 SWAP1 DUP3 SWAP1 SUB ADD DUP2 DUP7 DUP1 EXTCODESIZE ISZERO DUP1 ISZERO PUSH2 0x12E9 JUMPI PUSH1 0x0 DUP1 REVERT JUMPDEST POP GAS STATICCALL ISZERO DUP1 ISZERO PUSH2 0x12FD JUMPI RETURNDATASIZE PUSH1 0x0 DUP1 RETURNDATACOPY RETURNDATASIZE PUSH1 0x0 REVERT JUMPDEST POP POP POP POP PUSH1 0x40 MLOAD RETURNDATASIZE PUSH1 0x20 DUP2 LT ISZERO PUSH2 0x1313 JUMPI PUSH1 0x0 DUP1 REVERT JUMPDEST POP MLOAD SWAP4 POP PUSH2 0x1323 DUP6 DUP6 DUP12 DUP12 PUSH2 0x1B38 JUMP JUMPDEST DUP2 ISZERO PUSH2 0x1353 JUMPI PUSH1 0x8 SLOAD PUSH2 0x134F SWAP1 PUSH1 0x1 PUSH1 0x1 PUSH1 0x70 SHL SUB DUP1 DUP3 AND SWAP2 PUSH1 0x1 PUSH1 0x70 SHL SWAP1 DIV AND PUSH4 0xFFFFFFFF PUSH2 0x1A85 AND JUMP JUMPDEST PUSH1 0xB SSTORE JUMPDEST PUSH1 0x40 DUP1 MLOAD DUP13 DUP2 MSTORE PUSH1 0x20 DUP2 ADD DUP13 SWAP1 MSTORE DUP2 MLOAD PUSH1 0x1 PUSH1 0x1 PUSH1 0xA0 SHL SUB DUP16 AND SWAP3 CALLER SWAP3 PUSH32 0xDCCD412F0B1252819CB1FD330B93224CA42612892BB3F4F789976E6D81936496 SWAP3 SWAP1 DUP2 SWAP1 SUB SWAP1 SWAP2 ADD SWAP1 LOG3 POP POP POP POP POP POP POP POP POP PUSH1 0x1 PUSH1 0xC DUP2 SWAP1 SSTORE POP SWAP2 POP SWAP2 JUMP JUMPDEST PUSH1 0x40 MLOAD DUP1 PUSH1 0x40 ADD PUSH1 0x40 MSTORE DUP1 PUSH1 0x3 DUP2 MSTORE PUSH1 0x20 ADD PUSH3 0x2926AD PUSH1 0xE9 SHL DUP2 MSTORE POP DUP2 JUMP JUMPDEST PUSH1 0x0 PUSH2 0xB6C CALLER DUP5 DUP5 PUSH2 0x1D5E JUMP JUMPDEST PUSH2 0x3E8 DUP2 JUMP JUMPDEST PUSH1 0xC SLOAD PUSH1 0x1 EQ PUSH2 0x142D JUMPI PUSH1 0x40 DUP1 MLOAD PUSH3 0x461BCD PUSH1 0xE5 SHL DUP2 MSTORE PUSH1 0x20 PUSH1 0x4 DUP3 ADD MSTORE PUSH1 0x10 PUSH1 0x24 DUP3 ADD MSTORE PUSH16 0x14985B5E94DDD85C0E881313D0D2D151 PUSH1 0x82 SHL PUSH1 0x44 DUP3 ADD MSTORE SWAP1 MLOAD SWAP1 DUP2 SWAP1 SUB PUSH1 0x64 ADD SWAP1 REVERT JUMPDEST PUSH1 0x0 PUSH1 0xC SSTORE PUSH1 0x6 SLOAD PUSH1 0x7 SLOAD PUSH1 0x8 SLOAD PUSH1 0x40 DUP1 MLOAD PUSH4 0x70A08231 PUSH1 0xE0 SHL DUP2 MSTORE ADDRESS PUSH1 0x4 DUP3 ADD MSTORE SWAP1 MLOAD PUSH1 0x1 PUSH1 0x1 PUSH1 0xA0 SHL SUB SWAP5 DUP6 AND SWAP5 SWAP1 SWAP4 AND SWAP3 PUSH2 0x14DC SWAP3 DUP6 SWAP3 DUP8 SWAP3 PUSH2 0x14D7 SWAP3 PUSH1 0x1 PUSH1 0x1 PUSH1 0x70 SHL SUB AND SWAP2 DUP6 SWAP2 PUSH4 0x70A08231 SWAP2 PUSH1 0x24 DUP1 DUP3 ADD SWAP3 PUSH1 0x20 SWAP3 SWAP1 SWAP2 SWAP1 DUP3 SWAP1 SUB ADD DUP2 DUP7 DUP1 EXTCODESIZE ISZERO DUP1 ISZERO PUSH2 0x149F JUMPI PUSH1 0x0 DUP1 REVERT JUMPDEST POP GAS STATICCALL ISZERO DUP1 ISZERO PUSH2 0x14B3 JUMPI RETURNDATASIZE PUSH1 0x0 DUP1 RETURNDATACOPY RETURNDATASIZE PUSH1 0x0 REVERT JUMPDEST POP POP POP POP PUSH1 0x40 MLOAD RETURNDATASIZE PUSH1 0x20 DUP2 LT ISZERO PUSH2 0x14C9 JUMPI PUSH1 0x0 DUP1 REVERT JUMPDEST POP MLOAD SWAP1 PUSH4 0xFFFFFFFF PUSH2 0x1AE8 AND JUMP JUMPDEST PUSH2 0x18EB JUMP JUMPDEST PUSH1 0x8 SLOAD PUSH1 0x40 DUP1 MLOAD PUSH4 0x70A08231 PUSH1 0xE0 SHL DUP2 MSTORE ADDRESS PUSH1 0x4 DUP3 ADD MSTORE SWAP1 MLOAD PUSH2 0x1543 SWAP3 DUP5 SWAP3 DUP8 SWAP3 PUSH2 0x14D7 SWAP3 PUSH1 0x1 PUSH1 0x70 SHL SWAP1 DIV PUSH1 0x1 PUSH1 0x1 PUSH1 0x70 SHL SUB AND SWAP2 PUSH1 0x1 PUSH1 0x1 PUSH1 0xA0 SHL SUB DUP7 AND SWAP2 PUSH4 0x70A08231 SWAP2 PUSH1 0x24 DUP1 DUP3 ADD SWAP3 PUSH1 0x20 SWAP3 SWAP1 SWAP2 SWAP1 DUP3 SWAP1 SUB ADD DUP2 DUP7 DUP1 EXTCODESIZE ISZERO DUP1 ISZERO PUSH2 0x149F JUMPI PUSH1 0x0 DUP1 REVERT JUMPDEST POP POP PUSH1 0x1 PUSH1 0xC SSTORE POP JUMP JUMPDEST PUSH1 0x5 SLOAD PUSH1 0x1 PUSH1 0x1 PUSH1 0xA0 SHL SUB AND DUP2 JUMP JUMPDEST PUSH1 0x7 SLOAD PUSH1 0x1 PUSH1 0x1 PUSH1 0xA0 SHL SUB AND DUP2 JUMP JUMPDEST TIMESTAMP DUP5 LT ISZERO PUSH2 0x15B5 JUMPI PUSH1 0x40 DUP1 MLOAD PUSH3 0x461BCD PUSH1 0xE5 SHL DUP2 MSTORE PUSH1 0x20 PUSH1 0x4 DUP3 ADD MSTORE PUSH1 0x12 PUSH1 0x24 DUP3 ADD MSTORE PUSH18 0x155B9A5CDDD85C158C8E8811561412549151 PUSH1 0x72 SHL PUSH1 0x44 DUP3 ADD MSTORE SWAP1 MLOAD SWAP1 DUP2 SWAP1 SUB PUSH1 0x64 ADD SWAP1 REVERT JUMPDEST PUSH1 0x3 SLOAD PUSH1 0x1 PUSH1 0x1 PUSH1 0xA0 SHL SUB DUP1 DUP10 AND PUSH1 0x0 DUP2 DUP2 MSTORE PUSH1 0x4 PUSH1 0x20 SWAP1 DUP2 MSTORE PUSH1 0x40 DUP1 DUP4 KECCAK256 DUP1 SLOAD PUSH1 0x1 DUP1 DUP3 ADD SWAP1 SWAP3 SSTORE DUP3 MLOAD PUSH32 0x6E71EDAE12B1B97F4D1F60370FEF10105FA2FAAE0126114A169C64845D6126C9 DUP2 DUP7 ADD MSTORE DUP1 DUP5 ADD SWAP7 SWAP1 SWAP7 MSTORE SWAP6 DUP14 AND PUSH1 0x60 DUP7 ADD MSTORE PUSH1 0x80 DUP6 ADD DUP13 SWAP1 MSTORE PUSH1 0xA0 DUP6 ADD SWAP6 SWAP1 SWAP6 MSTORE PUSH1 0xC0 DUP1 DUP6 ADD DUP12 SWAP1 MSTORE DUP2 MLOAD DUP1 DUP7 SUB SWAP1 SWAP2 ADD DUP2 MSTORE PUSH1 0xE0 DUP6 ADD DUP3 MSTORE DUP1 MLOAD SWAP1 DUP4 ADD KECCAK256 PUSH2 0x1901 PUSH1 0xF0 SHL PUSH2 0x100 DUP7 ADD MSTORE PUSH2 0x102 DUP6 ADD SWAP7 SWAP1 SWAP7 MSTORE PUSH2 0x122 DUP1 DUP6 ADD SWAP7 SWAP1 SWAP7 MSTORE DUP1 MLOAD DUP1 DUP6 SUB SWAP1 SWAP7 ADD DUP7 MSTORE PUSH2 0x142 DUP5 ADD DUP1 DUP3 MSTORE DUP7 MLOAD SWAP7 DUP4 ADD SWAP7 SWAP1 SWAP7 KECCAK256 SWAP6 DUP4 SWAP1 MSTORE PUSH2 0x162 DUP5 ADD DUP1 DUP3 MSTORE DUP7 SWAP1 MSTORE PUSH1 0xFF DUP10 AND PUSH2 0x182 DUP6 ADD MSTORE PUSH2 0x1A2 DUP5 ADD DUP9 SWAP1 MSTORE PUSH2 0x1C2 DUP5 ADD DUP8 SWAP1 MSTORE MLOAD SWAP2 SWAP4 SWAP3 PUSH2 0x1E2 DUP1 DUP3 ADD SWAP4 PUSH1 0x1F NOT DUP2 ADD SWAP3 DUP2 SWAP1 SUB SWAP1 SWAP2 ADD SWAP1 DUP6 GAS STATICCALL ISZERO DUP1 ISZERO PUSH2 0x16D0 JUMPI RETURNDATASIZE PUSH1 0x0 DUP1 RETURNDATACOPY RETURNDATASIZE PUSH1 0x0 REVERT JUMPDEST POP POP PUSH1 0x40 MLOAD PUSH1 0x1F NOT ADD MLOAD SWAP2 POP POP PUSH1 0x1 PUSH1 0x1 PUSH1 0xA0 SHL SUB DUP2 AND ISZERO DUP1 ISZERO SWAP1 PUSH2 0x1706 JUMPI POP DUP9 PUSH1 0x1 PUSH1 0x1 PUSH1 0xA0 SHL SUB AND DUP2 PUSH1 0x1 PUSH1 0x1 PUSH1 0xA0 SHL SUB AND EQ JUMPDEST PUSH2 0x1757 JUMPI PUSH1 0x40 DUP1 MLOAD PUSH3 0x461BCD PUSH1 0xE5 SHL DUP2 MSTORE PUSH1 0x20 PUSH1 0x4 DUP3 ADD MSTORE PUSH1 0x1C PUSH1 0x24 DUP3 ADD MSTORE PUSH32 0x556E697377617056323A20494E56414C49445F5349474E415455524500000000 PUSH1 0x44 DUP3 ADD MSTORE SWAP1 MLOAD SWAP1 DUP2 SWAP1 SUB PUSH1 0x64 ADD SWAP1 REVERT JUMPDEST PUSH2 0x1762 DUP10 DUP10 DUP10 PUSH2 0x1CFC JUMP JUMPDEST POP POP POP POP POP POP POP POP POP JUMP JUMPDEST PUSH1 0x2 PUSH1 0x20 SWAP1 DUP2 MSTORE PUSH1 0x0 SWAP3 DUP4 MSTORE PUSH1 0x40 DUP1 DUP5 KECCAK256 SWAP1 SWAP2 MSTORE SWAP1 DUP3 MSTORE SWAP1 KECCAK256 SLOAD DUP2 JUMP JUMPDEST PUSH1 0xC SLOAD PUSH1 0x1 EQ PUSH2 0x17D4 JUMPI PUSH1 0x40 DUP1 MLOAD PUSH3 0x461BCD PUSH1 0xE5 SHL DUP2 MSTORE PUSH1 0x20 PUSH1 0x4 DUP3 ADD MSTORE PUSH1 0x10 PUSH1 0x24 DUP3 ADD MSTORE PUSH16 0x14985B5E94DDD85C0E881313D0D2D151 PUSH1 0x82 SHL PUSH1 0x44 DUP3 ADD MSTORE SWAP1 MLOAD SWAP1 DUP2 SWAP1 SUB PUSH1 0x64 ADD SWAP1 REVERT JUMPDEST PUSH1 0x0 PUSH1 0xC SSTORE PUSH1 0x6 SLOAD PUSH1 0x40 DUP1 MLOAD PUSH4 0x70A08231 PUSH1 0xE0 SHL DUP2 MSTORE ADDRESS PUSH1 0x4 DUP3 ADD MSTORE SWAP1 MLOAD PUSH2 0x18E4 SWAP3 PUSH1 0x1 PUSH1 0x1 PUSH1 0xA0 SHL SUB AND SWAP2 PUSH4 0x70A08231 SWAP2 PUSH1 0x24 DUP1 DUP4 ADD SWAP3 PUSH1 0x20 SWAP3 SWAP2 SWAP1 DUP3 SWAP1 SUB ADD DUP2 DUP7 DUP1 EXTCODESIZE ISZERO DUP1 ISZERO PUSH2 0x1825 JUMPI PUSH1 0x0 DUP1 REVERT JUMPDEST POP GAS STATICCALL ISZERO DUP1 ISZERO PUSH2 0x1839 JUMPI RETURNDATASIZE PUSH1 0x0 DUP1 RETURNDATACOPY RETURNDATASIZE PUSH1 0x0 REVERT JUMPDEST POP POP POP POP PUSH1 0x40 MLOAD RETURNDATASIZE PUSH1 0x20 DUP2 LT ISZERO PUSH2 0x184F JUMPI PUSH1 0x0 DUP1 REVERT JUMPDEST POP MLOAD PUSH1 0x7 SLOAD PUSH1 0x40 DUP1 MLOAD PUSH4 0x70A08231 PUSH1 0xE0 SHL DUP2 MSTORE ADDRESS PUSH1 0x4 DUP3 ADD MSTORE SWAP1 MLOAD PUSH1 0x1 PUSH1 0x1 PUSH1 0xA0 SHL SUB SWAP1 SWAP3 AND SWAP2 PUSH4 0x70A08231 SWAP2 PUSH1 0x24 DUP1 DUP3 ADD SWAP3 PUSH1 0x20 SWAP3 SWAP1 SWAP2 SWAP1 DUP3 SWAP1 SUB ADD DUP2 DUP7 DUP1 EXTCODESIZE ISZERO DUP1 ISZERO PUSH2 0x189C JUMPI PUSH1 0x0 DUP1 REVERT JUMPDEST POP GAS STATICCALL ISZERO DUP1 ISZERO PUSH2 0x18B0 JUMPI RETURNDATASIZE PUSH1 0x0 DUP1 RETURNDATACOPY RETURNDATASIZE PUSH1 0x0 REVERT JUMPDEST POP POP POP POP PUSH1 0x40 MLOAD RETURNDATASIZE PUSH1 0x20 DUP2 LT ISZERO PUSH2 0x18C6 JUMPI PUSH1 0x0 DUP1 REVERT JUMPDEST POP MLOAD PUSH1 0x8 SLOAD PUSH1 0x1 PUSH1 0x1 PUSH1 0x70 SHL SUB DUP1 DUP3 AND SWAP2 PUSH1 0x1 PUSH1 0x70 SHL SWAP1 DIV AND PUSH2 0x1B38 JUMP JUMPDEST PUSH1 0x1 PUSH1 0xC SSTORE JUMP JUMPDEST PUSH1 0x40 DUP1 MLOAD DUP1 DUP3 ADD DUP3 MSTORE PUSH1 0x19 DUP2 MSTORE PUSH32 0x7472616E7366657228616464726573732C75696E743235362900000000000000 PUSH1 0x20 SWAP2 DUP3 ADD MSTORE DUP2 MLOAD PUSH1 0x1 PUSH1 0x1 PUSH1 0xA0 SHL SUB DUP6 DUP2 AND PUSH1 0x24 DUP4 ADD MSTORE PUSH1 0x44 DUP1 DUP4 ADD DUP7 SWAP1 MSTORE DUP5 MLOAD DUP1 DUP5 SUB SWAP1 SWAP2 ADD DUP2 MSTORE PUSH1 0x64 SWAP1 SWAP3 ADD DUP5 MSTORE SWAP2 DUP2 ADD DUP1 MLOAD PUSH1 0x1 PUSH1 0x1 PUSH1 0xE0 SHL SUB AND PUSH4 0xA9059CBB PUSH1 0xE0 SHL OR DUP2 MSTORE SWAP3 MLOAD DUP2 MLOAD PUSH1 0x0 SWAP5 PUSH1 0x60 SWAP5 DUP10 AND SWAP4 SWAP3 SWAP2 DUP3 SWAP2 SWAP1 DUP1 DUP4 DUP4 JUMPDEST PUSH1 0x20 DUP4 LT PUSH2 0x1998 JUMPI DUP1 MLOAD DUP3 MSTORE PUSH1 0x1F NOT SWAP1 SWAP3 ADD SWAP2 PUSH1 0x20 SWAP2 DUP3 ADD SWAP2 ADD PUSH2 0x1979 JUMP JUMPDEST PUSH1 0x1 DUP4 PUSH1 0x20 SUB PUSH2 0x100 EXP SUB DUP1 NOT DUP3 MLOAD AND DUP2 DUP5 MLOAD AND DUP1 DUP3 OR DUP6 MSTORE POP POP POP POP POP POP SWAP1 POP ADD SWAP2 POP POP PUSH1 0x0 PUSH1 0x40 MLOAD DUP1 DUP4 SUB DUP2 PUSH1 0x0 DUP7 GAS CALL SWAP2 POP POP RETURNDATASIZE DUP1 PUSH1 0x0 DUP2 EQ PUSH2 0x19FA JUMPI PUSH1 0x40 MLOAD SWAP2 POP PUSH1 0x1F NOT PUSH1 0x3F RETURNDATASIZE ADD AND DUP3 ADD PUSH1 0x40 MSTORE RETURNDATASIZE DUP3 MSTORE RETURNDATASIZE PUSH1 0x0 PUSH1 0x20 DUP5 ADD RETURNDATACOPY PUSH2 0x19FF JUMP JUMPDEST PUSH1 0x60 SWAP2 POP JUMPDEST POP SWAP2 POP SWAP2 POP DUP2 DUP1 ISZERO PUSH2 0x1A2D JUMPI POP DUP1 MLOAD ISZERO DUP1 PUSH2 0x1A2D JUMPI POP DUP1 DUP1 PUSH1 0x20 ADD SWAP1 MLOAD PUSH1 0x20 DUP2 LT ISZERO PUSH2 0x1A2A JUMPI PUSH1 0x0 DUP1 REVERT JUMPDEST POP MLOAD JUMPDEST PUSH2 0x1A7E JUMPI PUSH1 0x40 DUP1 MLOAD PUSH3 0x461BCD PUSH1 0xE5 SHL DUP2 MSTORE PUSH1 0x20 PUSH1 0x4 DUP3 ADD MSTORE PUSH1 0x19 PUSH1 0x24 DUP3 ADD MSTORE PUSH32 0x52616D7A537761703A205452414E534645525F4641494C454400000000000000 PUSH1 0x44 DUP3 ADD MSTORE SWAP1 MLOAD SWAP1 DUP2 SWAP1 SUB PUSH1 0x64 ADD SWAP1 REVERT JUMPDEST POP POP POP POP POP JUMP JUMPDEST PUSH1 0x0 DUP2 ISZERO DUP1 PUSH2 0x1AA0 JUMPI POP POP DUP1 DUP3 MUL DUP3 DUP3 DUP3 DUP2 PUSH2 0x1A9D JUMPI INVALID JUMPDEST DIV EQ JUMPDEST PUSH2 0xB70 JUMPI PUSH1 0x40 DUP1 MLOAD PUSH3 0x461BCD PUSH1 0xE5 SHL DUP2 MSTORE PUSH1 0x20 PUSH1 0x4 DUP3 ADD MSTORE PUSH1 0x14 PUSH1 0x24 DUP3 ADD MSTORE PUSH20 0x64732D6D6174682D6D756C2D6F766572666C6F77 PUSH1 0x60 SHL PUSH1 0x44 DUP3 ADD MSTORE SWAP1 MLOAD SWAP1 DUP2 SWAP1 SUB PUSH1 0x64 ADD SWAP1 REVERT JUMPDEST DUP1 DUP3 SUB DUP3 DUP2 GT ISZERO PUSH2 0xB70 JUMPI PUSH1 0x40 DUP1 MLOAD PUSH3 0x461BCD PUSH1 0xE5 SHL DUP2 MSTORE PUSH1 0x20 PUSH1 0x4 DUP3 ADD MSTORE PUSH1 0x15 PUSH1 0x24 DUP3 ADD MSTORE PUSH21 0x64732D6D6174682D7375622D756E646572666C6F77 PUSH1 0x58 SHL PUSH1 0x44 DUP3 ADD MSTORE SWAP1 MLOAD SWAP1 DUP2 SWAP1 SUB PUSH1 0x64 ADD SWAP1 REVERT JUMPDEST PUSH1 0x1 PUSH1 0x1 PUSH1 0x70 SHL SUB DUP5 GT DUP1 ISZERO SWAP1 PUSH2 0x1B56 JUMPI POP PUSH1 0x1 PUSH1 0x1 PUSH1 0x70 SHL SUB DUP4 GT ISZERO JUMPDEST PUSH2 0x1B9C JUMPI PUSH1 0x40 DUP1 MLOAD PUSH3 0x461BCD PUSH1 0xE5 SHL DUP2 MSTORE PUSH1 0x20 PUSH1 0x4 DUP3 ADD MSTORE PUSH1 0x12 PUSH1 0x24 DUP3 ADD MSTORE PUSH18 0x52616D7A537761703A204F564552464C4F57 PUSH1 0x70 SHL PUSH1 0x44 DUP3 ADD MSTORE SWAP1 MLOAD SWAP1 DUP2 SWAP1 SUB PUSH1 0x64 ADD SWAP1 REVERT JUMPDEST PUSH1 0x8 SLOAD PUSH4 0xFFFFFFFF TIMESTAMP DUP2 AND SWAP2 PUSH1 0x1 PUSH1 0xE0 SHL SWAP1 DIV DUP2 AND DUP3 SUB SWAP1 DUP2 AND ISZERO DUP1 ISZERO SWAP1 PUSH2 0x1BCC JUMPI POP PUSH1 0x1 PUSH1 0x1 PUSH1 0x70 SHL SUB DUP5 AND ISZERO ISZERO JUMPDEST DUP1 ISZERO PUSH2 0x1BE0 JUMPI POP PUSH1 0x1 PUSH1 0x1 PUSH1 0x70 SHL SUB DUP4 AND ISZERO ISZERO JUMPDEST ISZERO PUSH2 0x1C51 JUMPI DUP1 PUSH4 0xFFFFFFFF AND PUSH2 0x1C0E DUP6 PUSH2 0x1BF9 DUP7 PUSH2 0x2114 JUMP JUMPDEST PUSH1 0x1 PUSH1 0x1 PUSH1 0xE0 SHL SUB AND SWAP1 PUSH4 0xFFFFFFFF PUSH2 0x2126 AND JUMP JUMPDEST PUSH1 0x9 DUP1 SLOAD PUSH1 0x1 PUSH1 0x1 PUSH1 0xE0 SHL SUB SWAP3 SWAP1 SWAP3 AND SWAP3 SWAP1 SWAP3 MUL ADD SWAP1 SSTORE PUSH4 0xFFFFFFFF DUP2 AND PUSH2 0x1C39 DUP5 PUSH2 0x1BF9 DUP8 PUSH2 0x2114 JUMP JUMPDEST PUSH1 0xA DUP1 SLOAD PUSH1 0x1 PUSH1 0x1 PUSH1 0xE0 SHL SUB SWAP3 SWAP1 SWAP3 AND SWAP3 SWAP1 SWAP3 MUL ADD SWAP1 SSTORE JUMPDEST PUSH1 0x8 DUP1 SLOAD PUSH14 0xFFFFFFFFFFFFFFFFFFFFFFFFFFFF NOT AND PUSH1 0x1 PUSH1 0x1 PUSH1 0x70 SHL SUB DUP9 DUP2 AND SWAP2 SWAP1 SWAP2 OR PUSH14 0xFFFFFFFFFFFFFFFFFFFFFFFFFFFF PUSH1 0x70 SHL NOT AND PUSH1 0x1 PUSH1 0x70 SHL DUP9 DUP4 AND DUP2 MUL SWAP2 SWAP1 SWAP2 OR PUSH1 0x1 PUSH1 0x1 PUSH1 0xE0 SHL SUB AND PUSH1 0x1 PUSH1 0xE0 SHL PUSH4 0xFFFFFFFF DUP8 AND MUL OR SWAP3 DUP4 SWAP1 SSTORE PUSH1 0x40 DUP1 MLOAD DUP5 DUP5 AND DUP2 MSTORE SWAP2 SWAP1 SWAP4 DIV SWAP1 SWAP2 AND PUSH1 0x20 DUP3 ADD MSTORE DUP2 MLOAD PUSH32 0x1C411E9A96E071241C2F21F7726B17AE89E3CAB4C78BE50E062B03A9FFFBBAD1 SWAP3 SWAP2 DUP2 SWAP1 SUB SWAP1 SWAP2 ADD SWAP1 LOG1 POP POP POP POP POP POP JUMP JUMPDEST PUSH1 0x1 PUSH1 0x1 PUSH1 0xA0 SHL SUB DUP1 DUP5 AND PUSH1 0x0 DUP2 DUP2 MSTORE PUSH1 0x2 PUSH1 0x20 SWAP1 DUP2 MSTORE PUSH1 0x40 DUP1 DUP4 KECCAK256 SWAP5 DUP8 AND DUP1 DUP5 MSTORE SWAP5 DUP3 MSTORE SWAP2 DUP3 SWAP1 KECCAK256 DUP6 SWAP1 SSTORE DUP2 MLOAD DUP6 DUP2 MSTORE SWAP2 MLOAD PUSH32 0x8C5BE1E5EBEC7D5BD14F71427D1E84F3DD0314C0F7B2291E5B200AC8C7C3B925 SWAP3 DUP2 SWAP1 SUB SWAP1 SWAP2 ADD SWAP1 LOG3 POP POP POP JUMP JUMPDEST PUSH1 0x1 PUSH1 0x1 PUSH1 0xA0 SHL SUB DUP4 AND PUSH1 0x0 SWAP1 DUP2 MSTORE PUSH1 0x1 PUSH1 0x20 MSTORE PUSH1 0x40 SWAP1 KECCAK256 SLOAD PUSH2 0x1D87 SWAP1 DUP3 PUSH4 0xFFFFFFFF PUSH2 0x1AE8 AND JUMP JUMPDEST PUSH1 0x1 PUSH1 0x1 PUSH1 0xA0 SHL SUB DUP1 DUP6 AND PUSH1 0x0 SWAP1 DUP2 MSTORE PUSH1 0x1 PUSH1 0x20 MSTORE PUSH1 0x40 DUP1 DUP3 KECCAK256 SWAP4 SWAP1 SWAP4 SSTORE SWAP1 DUP5 AND DUP2 MSTORE KECCAK256 SLOAD PUSH2 0x1DBC SWAP1 DUP3 PUSH4 0xFFFFFFFF PUSH2 0x214B AND JUMP JUMPDEST PUSH1 0x1 PUSH1 0x1 PUSH1 0xA0 SHL SUB DUP1 DUP5 AND PUSH1 0x0 DUP2 DUP2 MSTORE PUSH1 0x1 PUSH1 0x20 SWAP1 DUP2 MSTORE PUSH1 0x40 SWAP2 DUP3 SWAP1 KECCAK256 SWAP5 SWAP1 SWAP5 SSTORE DUP1 MLOAD DUP6 DUP2 MSTORE SWAP1 MLOAD SWAP2 SWAP4 SWAP3 DUP8 AND SWAP3 PUSH32 0xDDF252AD1BE2C89B69C2B068FC378DAA952BA7F163C4A11628F55A4DF523B3EF SWAP3 SWAP2 DUP3 SWAP1 SUB ADD SWAP1 LOG3 POP POP POP JUMP JUMPDEST PUSH1 0x0 DUP1 PUSH1 0x5 PUSH1 0x0 SWAP1 SLOAD SWAP1 PUSH2 0x100 EXP SWAP1 DIV PUSH1 0x1 PUSH1 0x1 PUSH1 0xA0 SHL SUB AND PUSH1 0x1 PUSH1 0x1 PUSH1 0xA0 SHL SUB AND PUSH4 0x17E7E58 PUSH1 0x40 MLOAD DUP2 PUSH4 0xFFFFFFFF AND PUSH1 0xE0 SHL DUP2 MSTORE PUSH1 0x4 ADD PUSH1 0x20 PUSH1 0x40 MLOAD DUP1 DUP4 SUB DUP2 DUP7 DUP1 EXTCODESIZE ISZERO DUP1 ISZERO PUSH2 0x1E69 JUMPI PUSH1 0x0 DUP1 REVERT JUMPDEST POP GAS STATICCALL ISZERO DUP1 ISZERO PUSH2 0x1E7D JUMPI RETURNDATASIZE PUSH1 0x0 DUP1 RETURNDATACOPY RETURNDATASIZE PUSH1 0x0 REVERT JUMPDEST POP POP POP POP PUSH1 0x40 MLOAD RETURNDATASIZE PUSH1 0x20 DUP2 LT ISZERO PUSH2 0x1E93 JUMPI PUSH1 0x0 DUP1 REVERT JUMPDEST POP MLOAD PUSH1 0xB SLOAD PUSH1 0x1 PUSH1 0x1 PUSH1 0xA0 SHL SUB DUP3 AND ISZERO DUP1 ISZERO SWAP5 POP SWAP2 SWAP3 POP SWAP1 PUSH2 0x1F62 JUMPI DUP1 ISZERO PUSH2 0x1F5D JUMPI PUSH1 0x0 PUSH2 0x1ED6 PUSH2 0xEA8 PUSH1 0x1 PUSH1 0x1 PUSH1 0x70 SHL SUB DUP9 DUP2 AND SWAP1 DUP9 AND PUSH4 0xFFFFFFFF PUSH2 0x1A85 AND JUMP JUMPDEST SWAP1 POP PUSH1 0x0 PUSH2 0x1EE3 DUP4 PUSH2 0x1F76 JUMP JUMPDEST SWAP1 POP DUP1 DUP3 GT ISZERO PUSH2 0x1F5A JUMPI PUSH1 0x0 PUSH2 0x1F11 PUSH2 0x1F02 DUP5 DUP5 PUSH4 0xFFFFFFFF PUSH2 0x1AE8 AND JUMP JUMPDEST PUSH1 0x0 SLOAD SWAP1 PUSH4 0xFFFFFFFF PUSH2 0x1A85 AND JUMP JUMPDEST SWAP1 POP PUSH1 0x0 PUSH2 0x1F36 DUP4 PUSH2 0x1F2A DUP7 PUSH1 0x5 PUSH4 0xFFFFFFFF PUSH2 0x1A85 AND JUMP JUMPDEST SWAP1 PUSH4 0xFFFFFFFF PUSH2 0x214B AND JUMP JUMPDEST SWAP1 POP PUSH1 0x0 DUP2 DUP4 DUP2 PUSH2 0x1F43 JUMPI INVALID JUMPDEST DIV SWAP1 POP DUP1 ISZERO PUSH2 0x1F56 JUMPI PUSH2 0x1F56 DUP8 DUP3 PUSH2 0x1FC8 JUMP JUMPDEST POP POP POP JUMPDEST POP POP JUMPDEST PUSH2 0x1F6E JUMP JUMPDEST DUP1 ISZERO PUSH2 0x1F6E JUMPI PUSH1 0x0 PUSH1 0xB SSTORE JUMPDEST POP POP SWAP3 SWAP2 POP POP JUMP JUMPDEST PUSH1 0x0 PUSH1 0x3 DUP3 GT ISZERO PUSH2 0x1FB9 JUMPI POP DUP1 PUSH1 0x1 PUSH1 0x2 DUP3 DIV ADD JUMPDEST DUP2 DUP2 LT ISZERO PUSH2 0x1FB3 JUMPI DUP1 SWAP2 POP PUSH1 0x2 DUP2 DUP3 DUP6 DUP2 PUSH2 0x1FA2 JUMPI INVALID JUMPDEST DIV ADD DUP2 PUSH2 0x1FAB JUMPI INVALID JUMPDEST DIV SWAP1 POP PUSH2 0x1F8B JUMP JUMPDEST POP PUSH2 0x1FC3 JUMP JUMPDEST DUP2 ISZERO PUSH2 0x1FC3 JUMPI POP PUSH1 0x1 JUMPDEST SWAP2 SWAP1 POP JUMP JUMPDEST PUSH1 0x0 SLOAD PUSH2 0x1FDB SWAP1 DUP3 PUSH4 0xFFFFFFFF PUSH2 0x214B AND JUMP JUMPDEST PUSH1 0x0 SWAP1 DUP2 SSTORE PUSH1 0x1 PUSH1 0x1 PUSH1 0xA0 SHL SUB DUP4 AND DUP2 MSTORE PUSH1 0x1 PUSH1 0x20 MSTORE PUSH1 0x40 SWAP1 KECCAK256 SLOAD PUSH2 0x2006 SWAP1 DUP3 PUSH4 0xFFFFFFFF PUSH2 0x214B AND JUMP JUMPDEST PUSH1 0x1 PUSH1 0x1 PUSH1 0xA0 SHL SUB DUP4 AND PUSH1 0x0 DUP2 DUP2 MSTORE PUSH1 0x1 PUSH1 0x20 SWAP1 DUP2 MSTORE PUSH1 0x40 DUP1 DUP4 KECCAK256 SWAP5 SWAP1 SWAP5 SSTORE DUP4 MLOAD DUP6 DUP2 MSTORE SWAP4 MLOAD SWAP3 SWAP4 SWAP2 SWAP3 PUSH32 0xDDF252AD1BE2C89B69C2B068FC378DAA952BA7F163C4A11628F55A4DF523B3EF SWAP3 DUP2 SWAP1 SUB SWAP1 SWAP2 ADD SWAP1 LOG3 POP POP JUMP JUMPDEST PUSH1 0x0 DUP2 DUP4 LT PUSH2 0x206D JUMPI DUP2 PUSH2 0x206F JUMP JUMPDEST DUP3 JUMPDEST SWAP4 SWAP3 POP POP POP JUMP JUMPDEST PUSH1 0x1 PUSH1 0x1 PUSH1 0xA0 SHL SUB DUP3 AND PUSH1 0x0 SWAP1 DUP2 MSTORE PUSH1 0x1 PUSH1 0x20 MSTORE PUSH1 0x40 SWAP1 KECCAK256 SLOAD PUSH2 0x209F SWAP1 DUP3 PUSH4 0xFFFFFFFF PUSH2 0x1AE8 AND JUMP JUMPDEST PUSH1 0x1 PUSH1 0x1 PUSH1 0xA0 SHL SUB DUP4 AND PUSH1 0x0 SWAP1 DUP2 MSTORE PUSH1 0x1 PUSH1 0x20 MSTORE PUSH1 0x40 DUP2 KECCAK256 SWAP2 SWAP1 SWAP2 SSTORE SLOAD PUSH2 0x20CC SWAP1 DUP3 PUSH4 0xFFFFFFFF PUSH2 0x1AE8 AND JUMP JUMPDEST PUSH1 0x0 SWAP1 DUP2 SSTORE PUSH1 0x40 DUP1 MLOAD DUP4 DUP2 MSTORE SWAP1 MLOAD PUSH1 0x1 PUSH1 0x1 PUSH1 0xA0 SHL SUB DUP6 AND SWAP2 PUSH32 0xDDF252AD1BE2C89B69C2B068FC378DAA952BA7F163C4A11628F55A4DF523B3EF SWAP2 SWAP1 DUP2 SWAP1 SUB PUSH1 0x20 ADD SWAP1 LOG3 POP POP JUMP JUMPDEST PUSH1 0x1 PUSH1 0x1 PUSH1 0x70 SHL SUB AND PUSH1 0x1 PUSH1 0x70 SHL MUL SWAP1 JUMP JUMPDEST PUSH1 0x0 PUSH1 0x1 PUSH1 0x1 PUSH1 0x70 SHL SUB DUP3 AND PUSH1 0x1 PUSH1 0x1 PUSH1 0xE0 SHL SUB DUP5 AND DUP2 PUSH2 0x2143 JUMPI INVALID JUMPDEST DIV SWAP4 SWAP3 POP POP POP JUMP JUMPDEST DUP1 DUP3 ADD DUP3 DUP2 LT ISZERO PUSH2 0xB70 JUMPI PUSH1 0x40 DUP1 MLOAD PUSH3 0x461BCD PUSH1 0xE5 SHL DUP2 MSTORE PUSH1 0x20 PUSH1 0x4 DUP3 ADD MSTORE PUSH1 0x14 PUSH1 0x24 DUP3 ADD MSTORE PUSH20 0x64732D6D6174682D6164642D6F766572666C6F77 PUSH1 0x60 SHL PUSH1 0x44 DUP3 ADD MSTORE SWAP1 MLOAD SWAP1 DUP2 SWAP1 SUB PUSH1 0x64 ADD SWAP1 REVERT INVALID MSTORE PUSH2 0x6D7A MSTORE8 PUSH24 0x61703A20494E53554646494349454E545F4F55545055545F COINBASE 0x4D 0x4F SSTORE 0x4E SLOAD MSTORE PUSH2 0x6D7A MSTORE8 PUSH24 0x61703A20494E53554646494349454E545F4C495155494449 SLOAD MSIZE 0x5F 0x4D 0x49 0x4E SLOAD GASLIMIT DIFFICULTY MSTORE PUSH2 0x6D7A MSTORE8 PUSH24 0x61703A20494E53554646494349454E545F494E5055545F41 0x4D 0x4F SSTORE 0x4E SLOAD MSTORE PUSH2 0x6D7A MSTORE8 PUSH24 0x61703A20494E53554646494349454E545F4C495155494449 SLOAD MSIZE 0x5F TIMESTAMP SSTORE MSTORE 0x4E GASLIMIT DIFFICULTY LOG2 PUSH6 0x627A7A723158 KECCAK256 EXTCODEHASH PUSH1 0x9A JUMPDEST 0xF6 RETURN EXP CALL SWAP11 CALLDATASIZE ADD 0xD9 GT PUSH20 0xF5E1F849F02D3CD50C49CC4D18C78D4F76A56473 PUSH16 0x6C63430005100032454950373132446F PUSH14 0x61696E28737472696E67206E616D PUSH6 0x2C737472696E PUSH8 0x2076657273696F6E 0x2C PUSH22 0x696E7432353620636861696E49642C61646472657373 KECCAK256 PUSH23 0x6572696679696E67436F6E747261637429A265627A7A72 BALANCE PC KECCAK256 SLT BLOCKHASH 0xCE 0xF6 GAS RETURNDATASIZE BLOCKHASH DUP5 SWAP15 0xCB 0xB7 0xEB PUSH29 0xFBE94598809D11C470AE52ACFD1C30CCD9969864736F6C634300051000 ORIGIN "
				},
				"gasEstimates": {
					"creation": {
						"codeDepositCost": "2189400",
						"executionCost": "infinite",
						"totalCost": "infinite"
					},
					"external": {
						"INIT_CODE_PAIR_HASH()": "infinite",
						"allPairs(uint256)": "2015",
						"allPairsLength()": "1065",
						"createPair(address,address)": "infinite",
						"feeTo()": "1038",
						"feeToSetter()": "1060",
						"getPair(address,address)": "1322",
						"setFeeTo(address)": "22001",
						"setFeeToSetter(address)": "21935"
					}
				},
				"methodIdentifiers": {
					"INIT_CODE_PAIR_HASH()": "5855a25a",
					"allPairs(uint256)": "1e3dd18b",
					"allPairsLength()": "574f2ba3",
					"createPair(address,address)": "c9c65396",
					"feeTo()": "017e7e58",
					"feeToSetter()": "094b7415",
					"getPair(address,address)": "e6a43905",
					"setFeeTo(address)": "f46901ed",
					"setFeeToSetter(address)": "a2e74af6"
				}
			},
			"storageLayout": {
				"storage": [
					{
						"astId": 2116,
						"contract": "MAAL Blockchain/RamzSwap/Core/FlattenedFactory.sol:RamzSwapFactory",
						"label": "feeTo",
						"offset": 0,
						"slot": "0",
						"type": "t_address"
					},
					{
						"astId": 2118,
						"contract": "MAAL Blockchain/RamzSwap/Core/FlattenedFactory.sol:RamzSwapFactory",
						"label": "feeToSetter",
						"offset": 0,
						"slot": "1",
						"type": "t_address"
					},
					{
						"astId": 2135,
						"contract": "MAAL Blockchain/RamzSwap/Core/FlattenedFactory.sol:RamzSwapFactory",
						"label": "getPair",
						"offset": 0,
						"slot": "2",
						"type": "t_mapping(t_address,t_mapping(t_address,t_address))"
					},
					{
						"astId": 2138,
						"contract": "MAAL Blockchain/RamzSwap/Core/FlattenedFactory.sol:RamzSwapFactory",
						"label": "allPairs",
						"offset": 0,
						"slot": "3",
						"type": "t_array(t_address)dyn_storage"
					}
				],
				"types": {
					"t_address": {
						"encoding": "inplace",
						"label": "address",
						"numberOfBytes": "20"
					},
					"t_array(t_address)dyn_storage": {
						"base": "t_address",
						"encoding": "dynamic_array",
						"label": "address[]",
						"numberOfBytes": "32"
					},
					"t_mapping(t_address,t_address)": {
						"encoding": "mapping",
						"key": "t_address",
						"label": "mapping(address => address)",
						"numberOfBytes": "32",
						"value": "t_address"
					},
					"t_mapping(t_address,t_mapping(t_address,t_address))": {
						"encoding": "mapping",
						"key": "t_address",
						"label": "mapping(address => mapping(address => address))",
						"numberOfBytes": "32",
						"value": "t_mapping(t_address,t_address)"
					}
				}
			},
			"userdoc": {
				"methods": {}
			}
		}
	}
}