{
	"MAAL Blockchain/RamzSwap/Core/RamzSwapMAAL20.sol": {
		"RamzSwapMAAL20": {
			"abi": [
				{
					"inputs": [],
					"payable": false,
					"stateMutability": "nonpayable",
					"type": "constructor"
				},
				{
					"anonymous": false,
					"inputs": [
						{
							"indexed": true,
							"internalType": "address",
							"name": "owner",
							"type": "address"
						},
						{
							"indexed": true,
							"internalType": "address",
							"name": "spender",
							"type": "address"
						},
						{
							"indexed": false,
							"internalType": "uint256",
							"name": "value",
							"type": "uint256"
						}
					],
					"name": "Approval",
					"type": "event"
				},
				{
					"anonymous": false,
					"inputs": [
						{
							"indexed": true,
							"internalType": "address",
							"name": "from",
							"type": "address"
						},
						{
							"indexed": true,
							"internalType": "address",
							"name": "to",
							"type": "address"
						},
						{
							"indexed": false,
							"internalType": "uint256",
							"name": "value",
							"type": "uint256"
						}
					],
					"name": "Transfer",
					"type": "event"
				},
				{
					"constant": true,
					"inputs": [],
					"name": "DOMAIN_SEPARATOR",
					"outputs": [
						{
							"internalType": "bytes32",
							"name": "",
							"type": "bytes32"
						}
					],
					"payable": false,
					"stateMutability": "view",
					"type": "function"
				},
				{
					"constant": true,
					"inputs": [],
					"name": "PERMIT_TYPEHASH",
					"outputs": [
						{
							"internalType": "bytes32",
							"name": "",
							"type": "bytes32"
						}
					],
					"payable": false,
					"stateMutability": "view",
					"type": "function"
				},
				{
					"constant": true,
					"inputs": [
						{
							"internalType": "address",
							"name": "",
							"type": "address"
						},
						{
							"internalType": "address",
							"name": "",
							"type": "address"
						}
					],
					"name": "allowance",
					"outputs": [
						{
							"internalType": "uint256",
							"name": "",
							"type": "uint256"
						}
					],
					"payable": false,
					"stateMutability": "view",
					"type": "function"
				},
				{
					"constant": false,
					"inputs": [
						{
							"internalType": "address",
							"name": "spender",
							"type": "address"
						},
						{
							"internalType": "uint256",
							"name": "value",
							"type": "uint256"
						}
					],
					"name": "approve",
					"outputs": [
						{
							"internalType": "bool",
							"name": "",
							"type": "bool"
						}
					],
					"payable": false,
					"stateMutability": "nonpayable",
					"type": "function"
				},
				{
					"constant": true,
					"inputs": [
						{
							"internalType": "address",
							"name": "",
							"type": "address"
						}
					],
					"name": "balanceOf",
					"outputs": [
						{
							"internalType": "uint256",
							"name": "",
							"type": "uint256"
						}
					],
					"payable": false,
					"stateMutability": "view",
					"type": "function"
				},
				{
					"constant": true,
					"inputs": [],
					"name": "decimals",
					"outputs": [
						{
							"internalType": "uint8",
							"name": "",
							"type": "uint8"
						}
					],
					"payable": false,
					"stateMutability": "view",
					"type": "function"
				},
				{
					"constant": true,
					"inputs": [],
					"name": "name",
					"outputs": [
						{
							"internalType": "string",
							"name": "",
							"type": "string"
						}
					],
					"payable": false,
					"stateMutability": "view",
					"type": "function"
				},
				{
					"constant": true,
					"inputs": [
						{
							"internalType": "address",
							"name": "",
							"type": "address"
						}
					],
					"name": "nonces",
					"outputs": [
						{
							"internalType": "uint256",
							"name": "",
							"type": "uint256"
						}
					],
					"payable": false,
					"stateMutability": "view",
					"type": "function"
				},
				{
					"constant": false,
					"inputs": [
						{
							"internalType": "address",
							"name": "owner",
							"type": "address"
						},
						{
							"internalType": "address",
							"name": "spender",
							"type": "address"
						},
						{
							"internalType": "uint256",
							"name": "value",
							"type": "uint256"
						},
						{
							"internalType": "uint256",
							"name": "deadline",
							"type": "uint256"
						},
						{
							"internalType": "uint8",
							"name": "v",
							"type": "uint8"
						},
						{
							"internalType": "bytes32",
							"name": "r",
							"type": "bytes32"
						},
						{
							"internalType": "bytes32",
							"name": "s",
							"type": "bytes32"
						}
					],
					"name": "permit",
					"outputs": [],
					"payable": false,
					"stateMutability": "nonpayable",
					"type": "function"
				},
				{
					"constant": true,
					"inputs": [],
					"name": "symbol",
					"outputs": [
						{
							"internalType": "string",
							"name": "",
							"type": "string"
						}
					],
					"payable": false,
					"stateMutability": "view",
					"type": "function"
				},
				{
					"constant": true,
					"inputs": [],
					"name": "totalSupply",
					"outputs": [
						{
							"internalType": "uint256",
							"name": "",
							"type": "uint256"
						}
					],
					"payable": false,
					"stateMutability": "view",
					"type": "function"
				},
				{
					"constant": false,
					"inputs": [
						{
							"internalType": "address",
							"name": "to",
							"type": "address"
						},
						{
							"internalType": "uint256",
							"name": "value",
							"type": "uint256"
						}
					],
					"name": "transfer",
					"outputs": [
						{
							"internalType": "bool",
							"name": "",
							"type": "bool"
						}
					],
					"payable": false,
					"stateMutability": "nonpayable",
					"type": "function"
				},
				{
					"constant": false,
					"inputs": [
						{
							"internalType": "address",
							"name": "from",
							"type": "address"
						},
						{
							"internalType": "address",
							"name": "to",
							"type": "address"
						},
						{
							"internalType": "uint256",
							"name": "value",
							"type": "uint256"
						}
					],
					"name": "transferFrom",
					"outputs": [
						{
							"internalType": "bool",
							"name": "",
							"type": "bool"
						}
					],
					"payable": false,
					"stateMutability": "nonpayable",
					"type": "function"
				}
			],
			"devdoc": {
				"methods": {}
			},
			"evm": {
				"assembly": "    /* \"MAAL Blockchain/RamzSwap/Core/RamzSwapMAAL20.sol\":105:3429  contract RamzSwapMAAL20 is IRamzSwapMAAL20 {... */\n  mstore(0x40, 0x80)\n    /* \"MAAL Blockchain/RamzSwap/Core/RamzSwapMAAL20.sol\":914:1358  constructor() public {... */\n  callvalue\n    /* \"--CODEGEN--\":8:17   */\n  dup1\n    /* \"--CODEGEN--\":5:7   */\n  iszero\n  tag_1\n  jumpi\n    /* \"--CODEGEN--\":30:31   */\n  0x00\n    /* \"--CODEGEN--\":27:28   */\n  dup1\n    /* \"--CODEGEN--\":20:32   */\n  revert\n    /* \"--CODEGEN--\":5:7   */\ntag_1:\n  pop\n    /* \"MAAL Blockchain/RamzSwap/Core/RamzSwapMAAL20.sol\":1097:1192  keccak256('EIP712Domain(string name,string version,uint256 chainId,address verifyingContract)') */\n  mload(0x40)\n    /* \"MAAL Blockchain/RamzSwap/Core/RamzSwapMAAL20.sol\":1001:1008  chainid */\n  chainid\n  swap1\n    /* \"MAAL Blockchain/RamzSwap/Core/RamzSwapMAAL20.sol\":1097:1192  keccak256('EIP712Domain(string name,string version,uint256 chainId,address verifyingContract)') */\n  dup1\n  0x52\n  data_8b73c3c69bb8fe3d512ecc4cf759cc79239f7b179b0ffacaa9a75d522b39400f\n  dup3\n  codecopy\n  0x40\n  dup1\n  mload\n  swap2\n  dup3\n  swap1\n  sub\n  0x52\n  add\n  dup3\n  keccak256\n    /* \"MAAL Blockchain/RamzSwap/Core/RamzSwapMAAL20.sol\":1226:1230  name */\n  dup3\n  dup3\n  add\n  dup3\n  mstore\n  0x08\n  dup4\n  mstore\n  shl(0xc4, 0x052616d7a5377617)\n  0x20\n  swap4\n  dup5\n  add\n  mstore\n    /* \"MAAL Blockchain/RamzSwap/Core/RamzSwapMAAL20.sol\":1260:1270  bytes('1') */\n  dup2\n  mload\n  dup1\n  dup4\n  add\n  dup4\n  mstore\n  0x01\n  dup2\n  mstore\n  shl(0xf8, 0x31)\n  swap1\n  dup5\n  add\n  mstore\n    /* \"MAAL Blockchain/RamzSwap/Core/RamzSwapMAAL20.sol\":1069:1341  abi.encode(... */\n  dup2\n  mload\n  dup1\n  dup5\n  add\n  swap2\n  swap1\n  swap2\n  mstore\n    /* \"MAAL Blockchain/RamzSwap/Core/RamzSwapMAAL20.sol\":1210:1232  keccak256(bytes(name)) */\n  0x0fdad714b9ded567f809e1228e3c4209948d0b55cf816b97124955a286699019\n    /* \"MAAL Blockchain/RamzSwap/Core/RamzSwapMAAL20.sol\":1069:1341  abi.encode(... */\n  dup2\n  dup4\n  add\n  mstore\n    /* \"MAAL Blockchain/RamzSwap/Core/RamzSwapMAAL20.sol\":1250:1271  keccak256(bytes('1')) */\n  0xc89efdaa54c0f20c7adf612882df0950f5a951637e0307cdcb4c672f298b8bc6\n    /* \"MAAL Blockchain/RamzSwap/Core/RamzSwapMAAL20.sol\":1069:1341  abi.encode(... */\n  0x60\n  dup3\n  add\n  mstore\n  0x80\n  dup2\n  add\n  swap5\n  swap1\n  swap5\n  mstore\n    /* \"MAAL Blockchain/RamzSwap/Core/RamzSwapMAAL20.sol\":1322:1326  this */\n  address\n    /* \"MAAL Blockchain/RamzSwap/Core/RamzSwapMAAL20.sol\":1069:1341  abi.encode(... */\n  0xa0\n  dup1\n  dup7\n  add\n  swap2\n  swap1\n  swap2\n  mstore\n  dup2\n  mload\n    /* \"--CODEGEN--\":26:47   */\n  dup1\n  dup7\n  sub\n    /* \"--CODEGEN--\":22:54   */\n  swap1\n  swap2\n  add\n    /* \"--CODEGEN--\":6:55   */\n  dup2\n  mstore\n    /* \"MAAL Blockchain/RamzSwap/Core/RamzSwapMAAL20.sol\":1069:1341  abi.encode(... */\n  0xc0\n  swap1\n  swap5\n  add\n  swap1\n  mstore\n    /* \"MAAL Blockchain/RamzSwap/Core/RamzSwapMAAL20.sol\":1046:1351  keccak256(... */\n  dup3\n  mload\n  swap3\n  add\n  swap2\n  swap1\n  swap2\n  keccak256\n    /* \"MAAL Blockchain/RamzSwap/Core/RamzSwapMAAL20.sol\":1027:1043  DOMAIN_SEPARATOR */\n  0x03\n    /* \"MAAL Blockchain/RamzSwap/Core/RamzSwapMAAL20.sol\":1027:1351  DOMAIN_SEPARATOR = keccak256(... */\n  sstore\n  pop\n    /* \"MAAL Blockchain/RamzSwap/Core/RamzSwapMAAL20.sol\":105:3429  contract RamzSwapMAAL20 is IRamzSwapMAAL20 {... */\n  dataSize(sub_0)\n  dup1\n  dataOffset(sub_0)\n  0x00\n  codecopy\n  0x00\n  return\nstop\ndata_8b73c3c69bb8fe3d512ecc4cf759cc79239f7b179b0ffacaa9a75d522b39400f 454950373132446f6d61696e28737472696e67206e616d652c737472696e672076657273696f6e2c75696e7432353620636861696e49642c6164647265737320766572696679696e67436f6e747261637429\n\nsub_0: assembly {\n        /* \"MAAL Blockchain/RamzSwap/Core/RamzSwapMAAL20.sol\":105:3429  contract RamzSwapMAAL20 is IRamzSwapMAAL20 {... */\n      mstore(0x40, 0x80)\n      callvalue\n        /* \"--CODEGEN--\":8:17   */\n      dup1\n        /* \"--CODEGEN--\":5:7   */\n      iszero\n      tag_1\n      jumpi\n        /* \"--CODEGEN--\":30:31   */\n      0x00\n        /* \"--CODEGEN--\":27:28   */\n      dup1\n        /* \"--CODEGEN--\":20:32   */\n      revert\n        /* \"--CODEGEN--\":5:7   */\n    tag_1:\n        /* \"MAAL Blockchain/RamzSwap/Core/RamzSwapMAAL20.sol\":105:3429  contract RamzSwapMAAL20 is IRamzSwapMAAL20 {... */\n      pop\n      jumpi(tag_2, lt(calldatasize, 0x04))\n      shr(0xe0, calldataload(0x00))\n      dup1\n      0x3644e515\n      gt\n      tag_16\n      jumpi\n      dup1\n      0x95d89b41\n      gt\n      tag_17\n      jumpi\n      dup1\n      0x95d89b41\n      eq\n      tag_12\n      jumpi\n      dup1\n      0xa9059cbb\n      eq\n      tag_13\n      jumpi\n      dup1\n      0xd505accf\n      eq\n      tag_14\n      jumpi\n      dup1\n      0xdd62ed3e\n      eq\n      tag_15\n      jumpi\n      jump(tag_2)\n    tag_17:\n      dup1\n      0x3644e515\n      eq\n      tag_9\n      jumpi\n      dup1\n      0x70a08231\n      eq\n      tag_10\n      jumpi\n      dup1\n      0x7ecebe00\n      eq\n      tag_11\n      jumpi\n      jump(tag_2)\n    tag_16:\n      dup1\n      0x06fdde03\n      eq\n      tag_3\n      jumpi\n      dup1\n      0x095ea7b3\n      eq\n      tag_4\n      jumpi\n      dup1\n      0x18160ddd\n      eq\n      tag_5\n      jumpi\n      dup1\n      0x23b872dd\n      eq\n      tag_6\n      jumpi\n      dup1\n      0x30adf81f\n      eq\n      tag_7\n      jumpi\n      dup1\n      0x313ce567\n      eq\n      tag_8\n      jumpi\n    tag_2:\n      0x00\n      dup1\n      revert\n        /* \"MAAL Blockchain/RamzSwap/Core/RamzSwapMAAL20.sol\":184:224  string public constant name = 'RamzSwap' */\n    tag_3:\n      tag_18\n      tag_19\n      jump\t// in\n    tag_18:\n      0x40\n      dup1\n      mload\n      0x20\n      dup1\n      dup3\n      mstore\n      dup4\n      mload\n      dup2\n      dup4\n      add\n      mstore\n      dup4\n      mload\n      swap2\n      swap3\n      dup4\n      swap3\n      swap1\n      dup4\n      add\n      swap2\n      dup6\n      add\n      swap1\n      dup1\n      dup4\n      dup4\n      0x00\n        /* \"--CODEGEN--\":8:108   */\n    tag_20:\n        /* \"--CODEGEN--\":33:36   */\n      dup4\n        /* \"--CODEGEN--\":30:31   */\n      dup2\n        /* \"--CODEGEN--\":27:37   */\n      lt\n        /* \"--CODEGEN--\":8:108   */\n      iszero\n      tag_22\n      jumpi\n        /* \"--CODEGEN--\":90:101   */\n      dup2\n      dup2\n      add\n        /* \"--CODEGEN--\":84:102   */\n      mload\n        /* \"--CODEGEN--\":71:82   */\n      dup4\n      dup3\n      add\n        /* \"--CODEGEN--\":64:103   */\n      mstore\n        /* \"--CODEGEN--\":52:54   */\n      0x20\n        /* \"--CODEGEN--\":45:55   */\n      add\n        /* \"--CODEGEN--\":8:108   */\n      jump(tag_20)\n    tag_22:\n        /* \"--CODEGEN--\":12:26   */\n      pop\n        /* \"MAAL Blockchain/RamzSwap/Core/RamzSwapMAAL20.sol\":184:224  string public constant name = 'RamzSwap' */\n      pop\n      pop\n      pop\n      swap1\n      pop\n      swap1\n      dup2\n      add\n      swap1\n      0x1f\n      and\n      dup1\n      iszero\n      tag_23\n      jumpi\n      dup1\n      dup3\n      sub\n      dup1\n      mload\n      0x01\n      dup4\n      0x20\n      sub\n      0x0100\n      exp\n      sub\n      not\n      and\n      dup2\n      mstore\n      0x20\n      add\n      swap2\n      pop\n    tag_23:\n      pop\n      swap3\n      pop\n      pop\n      pop\n      mload(0x40)\n      dup1\n      swap2\n      sub\n      swap1\n      return\n        /* \"MAAL Blockchain/RamzSwap/Core/RamzSwapMAAL20.sol\":2172:2316  function approve(address spender, uint value) external returns (bool) {... */\n    tag_4:\n      tag_24\n      0x04\n      dup1\n      calldatasize\n      sub\n        /* \"--CODEGEN--\":13:15   */\n      0x40\n        /* \"--CODEGEN--\":8:11   */\n      dup2\n        /* \"--CODEGEN--\":5:16   */\n      lt\n        /* \"--CODEGEN--\":2:4   */\n      iszero\n      tag_25\n      jumpi\n        /* \"--CODEGEN--\":29:30   */\n      0x00\n        /* \"--CODEGEN--\":26:27   */\n      dup1\n        /* \"--CODEGEN--\":19:31   */\n      revert\n        /* \"--CODEGEN--\":2:4   */\n    tag_25:\n      pop\n      sub(shl(0xa0, 0x01), 0x01)\n        /* \"MAAL Blockchain/RamzSwap/Core/RamzSwapMAAL20.sol\":2172:2316  function approve(address spender, uint value) external returns (bool) {... */\n      dup2\n      calldataload\n      and\n      swap1\n      0x20\n      add\n      calldataload\n      tag_26\n      jump\t// in\n    tag_24:\n      0x40\n      dup1\n      mload\n      swap2\n      iszero\n      iszero\n      dup3\n      mstore\n      mload\n      swap1\n      dup2\n      swap1\n      sub\n      0x20\n      add\n      swap1\n      return\n        /* \"MAAL Blockchain/RamzSwap/Core/RamzSwapMAAL20.sol\":314:338  uint  public totalSupply */\n    tag_5:\n      tag_27\n      tag_28\n      jump\t// in\n    tag_27:\n      0x40\n      dup1\n      mload\n      swap2\n      dup3\n      mstore\n      mload\n      swap1\n      dup2\n      swap1\n      sub\n      0x20\n      add\n      swap1\n      return\n        /* \"MAAL Blockchain/RamzSwap/Core/RamzSwapMAAL20.sol\":2464:2759  function transferFrom(address from, address to, uint value) external returns (bool) {... */\n    tag_6:\n      tag_24\n      0x04\n      dup1\n      calldatasize\n      sub\n        /* \"--CODEGEN--\":13:15   */\n      0x60\n        /* \"--CODEGEN--\":8:11   */\n      dup2\n        /* \"--CODEGEN--\":5:16   */\n      lt\n        /* \"--CODEGEN--\":2:4   */\n      iszero\n      tag_30\n      jumpi\n        /* \"--CODEGEN--\":29:30   */\n      0x00\n        /* \"--CODEGEN--\":26:27   */\n      dup1\n        /* \"--CODEGEN--\":19:31   */\n      revert\n        /* \"--CODEGEN--\":2:4   */\n    tag_30:\n      pop\n      sub(shl(0xa0, 0x01), 0x01)\n        /* \"MAAL Blockchain/RamzSwap/Core/RamzSwapMAAL20.sol\":2464:2759  function transferFrom(address from, address to, uint value) external returns (bool) {... */\n      dup2\n      calldataload\n      dup2\n      and\n      swap2\n      0x20\n      dup2\n      add\n      calldataload\n      swap1\n      swap2\n      and\n      swap1\n      0x40\n      add\n      calldataload\n      tag_31\n      jump\t// in\n        /* \"MAAL Blockchain/RamzSwap/Core/RamzSwapMAAL20.sol\":600:708  bytes32 public constant PERMIT_TYPEHASH = 0x6e71edae12b1b97f4d1f60370fef10105fa2faae0126114a169c64845d6126c9 */\n    tag_7:\n      tag_27\n      tag_33\n      jump\t// in\n        /* \"MAAL Blockchain/RamzSwap/Core/RamzSwapMAAL20.sol\":273:308  uint8 public constant decimals = 18 */\n    tag_8:\n      tag_34\n      tag_35\n      jump\t// in\n    tag_34:\n      0x40\n      dup1\n      mload\n      0xff\n      swap1\n      swap3\n      and\n      dup3\n      mstore\n      mload\n      swap1\n      dup2\n      swap1\n      sub\n      0x20\n      add\n      swap1\n      return\n        /* \"MAAL Blockchain/RamzSwap/Core/RamzSwapMAAL20.sol\":459:490  bytes32 public DOMAIN_SEPARATOR */\n    tag_9:\n      tag_27\n      tag_37\n      jump\t// in\n        /* \"MAAL Blockchain/RamzSwap/Core/RamzSwapMAAL20.sol\":344:385  mapping(address => uint) public balanceOf */\n    tag_10:\n      tag_27\n      0x04\n      dup1\n      calldatasize\n      sub\n        /* \"--CODEGEN--\":13:15   */\n      0x20\n        /* \"--CODEGEN--\":8:11   */\n      dup2\n        /* \"--CODEGEN--\":5:16   */\n      lt\n        /* \"--CODEGEN--\":2:4   */\n      iszero\n      tag_39\n      jumpi\n        /* \"--CODEGEN--\":29:30   */\n      0x00\n        /* \"--CODEGEN--\":26:27   */\n      dup1\n        /* \"--CODEGEN--\":19:31   */\n      revert\n        /* \"--CODEGEN--\":2:4   */\n    tag_39:\n      pop\n        /* \"MAAL Blockchain/RamzSwap/Core/RamzSwapMAAL20.sol\":344:385  mapping(address => uint) public balanceOf */\n      calldataload\n      sub(shl(0xa0, 0x01), 0x01)\n      and\n      tag_40\n      jump\t// in\n        /* \"MAAL Blockchain/RamzSwap/Core/RamzSwapMAAL20.sol\":714:752  mapping(address => uint) public nonces */\n    tag_11:\n      tag_27\n      0x04\n      dup1\n      calldatasize\n      sub\n        /* \"--CODEGEN--\":13:15   */\n      0x20\n        /* \"--CODEGEN--\":8:11   */\n      dup2\n        /* \"--CODEGEN--\":5:16   */\n      lt\n        /* \"--CODEGEN--\":2:4   */\n      iszero\n      tag_42\n      jumpi\n        /* \"--CODEGEN--\":29:30   */\n      0x00\n        /* \"--CODEGEN--\":26:27   */\n      dup1\n        /* \"--CODEGEN--\":19:31   */\n      revert\n        /* \"--CODEGEN--\":2:4   */\n    tag_42:\n      pop\n        /* \"MAAL Blockchain/RamzSwap/Core/RamzSwapMAAL20.sol\":714:752  mapping(address => uint) public nonces */\n      calldataload\n      sub(shl(0xa0, 0x01), 0x01)\n      and\n      tag_43\n      jump\t// in\n        /* \"MAAL Blockchain/RamzSwap/Core/RamzSwapMAAL20.sol\":230:267  string public constant symbol = 'RMZ' */\n    tag_12:\n      tag_18\n      tag_45\n      jump\t// in\n        /* \"MAAL Blockchain/RamzSwap/Core/RamzSwapMAAL20.sol\":2322:2458  function transfer(address to, uint value) external returns (bool) {... */\n    tag_13:\n      tag_24\n      0x04\n      dup1\n      calldatasize\n      sub\n        /* \"--CODEGEN--\":13:15   */\n      0x40\n        /* \"--CODEGEN--\":8:11   */\n      dup2\n        /* \"--CODEGEN--\":5:16   */\n      lt\n        /* \"--CODEGEN--\":2:4   */\n      iszero\n      tag_51\n      jumpi\n        /* \"--CODEGEN--\":29:30   */\n      0x00\n        /* \"--CODEGEN--\":26:27   */\n      dup1\n        /* \"--CODEGEN--\":19:31   */\n      revert\n        /* \"--CODEGEN--\":2:4   */\n    tag_51:\n      pop\n      sub(shl(0xa0, 0x01), 0x01)\n        /* \"MAAL Blockchain/RamzSwap/Core/RamzSwapMAAL20.sol\":2322:2458  function transfer(address to, uint value) external returns (bool) {... */\n      dup2\n      calldataload\n      and\n      swap1\n      0x20\n      add\n      calldataload\n      tag_52\n      jump\t// in\n        /* \"MAAL Blockchain/RamzSwap/Core/RamzSwapMAAL20.sol\":2765:3427  function permit(address owner, address spender, uint value, uint deadline, uint8 v, bytes32 r, bytes32 s) external {... */\n    tag_14:\n      tag_53\n      0x04\n      dup1\n      calldatasize\n      sub\n        /* \"--CODEGEN--\":13:16   */\n      0xe0\n        /* \"--CODEGEN--\":8:11   */\n      dup2\n        /* \"--CODEGEN--\":5:17   */\n      lt\n        /* \"--CODEGEN--\":2:4   */\n      iszero\n      tag_54\n      jumpi\n        /* \"--CODEGEN--\":30:31   */\n      0x00\n        /* \"--CODEGEN--\":27:28   */\n      dup1\n        /* \"--CODEGEN--\":20:32   */\n      revert\n        /* \"--CODEGEN--\":2:4   */\n    tag_54:\n      pop\n      sub(shl(0xa0, 0x01), 0x01)\n        /* \"MAAL Blockchain/RamzSwap/Core/RamzSwapMAAL20.sol\":2765:3427  function permit(address owner, address spender, uint value, uint deadline, uint8 v, bytes32 r, bytes32 s) external {... */\n      dup2\n      calldataload\n      dup2\n      and\n      swap2\n      0x20\n      dup2\n      add\n      calldataload\n      swap1\n      swap2\n      and\n      swap1\n      0x40\n      dup2\n      add\n      calldataload\n      swap1\n      0x60\n      dup2\n      add\n      calldataload\n      swap1\n      0xff\n      0x80\n      dup3\n      add\n      calldataload\n      and\n      swap1\n      0xa0\n      dup2\n      add\n      calldataload\n      swap1\n      0xc0\n      add\n      calldataload\n      tag_55\n      jump\t// in\n    tag_53:\n      stop\n        /* \"MAAL Blockchain/RamzSwap/Core/RamzSwapMAAL20.sol\":391:452  mapping(address => mapping(address => uint)) public allowance */\n    tag_15:\n      tag_27\n      0x04\n      dup1\n      calldatasize\n      sub\n        /* \"--CODEGEN--\":13:15   */\n      0x40\n        /* \"--CODEGEN--\":8:11   */\n      dup2\n        /* \"--CODEGEN--\":5:16   */\n      lt\n        /* \"--CODEGEN--\":2:4   */\n      iszero\n      tag_57\n      jumpi\n        /* \"--CODEGEN--\":29:30   */\n      0x00\n        /* \"--CODEGEN--\":26:27   */\n      dup1\n        /* \"--CODEGEN--\":19:31   */\n      revert\n        /* \"--CODEGEN--\":2:4   */\n    tag_57:\n      pop\n      sub(shl(0xa0, 0x01), 0x01)\n        /* \"MAAL Blockchain/RamzSwap/Core/RamzSwapMAAL20.sol\":391:452  mapping(address => mapping(address => uint)) public allowance */\n      dup2\n      calldataload\n      dup2\n      and\n      swap2\n      0x20\n      add\n      calldataload\n      and\n      tag_58\n      jump\t// in\n        /* \"MAAL Blockchain/RamzSwap/Core/RamzSwapMAAL20.sol\":184:224  string public constant name = 'RamzSwap' */\n    tag_19:\n      mload(0x40)\n      dup1\n      0x40\n      add\n      0x40\n      mstore\n      dup1\n      0x08\n      dup2\n      mstore\n      0x20\n      add\n      shl(0xc4, 0x052616d7a5377617)\n      dup2\n      mstore\n      pop\n      dup2\n      jump\t// out\n        /* \"MAAL Blockchain/RamzSwap/Core/RamzSwapMAAL20.sol\":2172:2316  function approve(address spender, uint value) external returns (bool) {... */\n    tag_26:\n        /* \"MAAL Blockchain/RamzSwap/Core/RamzSwapMAAL20.sol\":2236:2240  bool */\n      0x00\n        /* \"MAAL Blockchain/RamzSwap/Core/RamzSwapMAAL20.sol\":2252:2288  _approve(msg.sender, spender, value) */\n      tag_60\n        /* \"MAAL Blockchain/RamzSwap/Core/RamzSwapMAAL20.sol\":2261:2271  msg.sender */\n      caller\n        /* \"MAAL Blockchain/RamzSwap/Core/RamzSwapMAAL20.sol\":2273:2280  spender */\n      dup5\n        /* \"MAAL Blockchain/RamzSwap/Core/RamzSwapMAAL20.sol\":2282:2287  value */\n      dup5\n        /* \"MAAL Blockchain/RamzSwap/Core/RamzSwapMAAL20.sol\":2252:2260  _approve */\n      tag_61\n        /* \"MAAL Blockchain/RamzSwap/Core/RamzSwapMAAL20.sol\":2252:2288  _approve(msg.sender, spender, value) */\n      jump\t// in\n    tag_60:\n      pop\n        /* \"MAAL Blockchain/RamzSwap/Core/RamzSwapMAAL20.sol\":2305:2309  true */\n      0x01\n        /* \"MAAL Blockchain/RamzSwap/Core/RamzSwapMAAL20.sol\":2172:2316  function approve(address spender, uint value) external returns (bool) {... */\n    tag_59:\n      swap3\n      swap2\n      pop\n      pop\n      jump\t// out\n        /* \"MAAL Blockchain/RamzSwap/Core/RamzSwapMAAL20.sol\":314:338  uint  public totalSupply */\n    tag_28:\n      sload(0x00)\n      dup2\n      jump\t// out\n        /* \"MAAL Blockchain/RamzSwap/Core/RamzSwapMAAL20.sol\":2464:2759  function transferFrom(address from, address to, uint value) external returns (bool) {... */\n    tag_31:\n      sub(shl(0xa0, 0x01), 0x01)\n        /* \"MAAL Blockchain/RamzSwap/Core/RamzSwapMAAL20.sol\":2562:2577  allowance[from] */\n      dup4\n      and\n        /* \"MAAL Blockchain/RamzSwap/Core/RamzSwapMAAL20.sol\":2542:2546  bool */\n      0x00\n        /* \"MAAL Blockchain/RamzSwap/Core/RamzSwapMAAL20.sol\":2562:2577  allowance[from] */\n      swap1\n      dup2\n      mstore\n        /* \"MAAL Blockchain/RamzSwap/Core/RamzSwapMAAL20.sol\":2562:2571  allowance */\n      0x02\n        /* \"MAAL Blockchain/RamzSwap/Core/RamzSwapMAAL20.sol\":2562:2577  allowance[from] */\n      0x20\n      swap1\n      dup2\n      mstore\n      0x40\n      dup1\n      dup4\n      keccak256\n        /* \"MAAL Blockchain/RamzSwap/Core/RamzSwapMAAL20.sol\":2578:2588  msg.sender */\n      caller\n        /* \"MAAL Blockchain/RamzSwap/Core/RamzSwapMAAL20.sol\":2562:2589  allowance[from][msg.sender] */\n      dup5\n      mstore\n      swap1\n      swap2\n      mstore\n      dup2\n      keccak256\n      sload\n      not(0x00)\n        /* \"MAAL Blockchain/RamzSwap/Core/RamzSwapMAAL20.sol\":2562:2601  allowance[from][msg.sender] != uint(-1) */\n      eq\n        /* \"MAAL Blockchain/RamzSwap/Core/RamzSwapMAAL20.sol\":2558:2696  if (allowance[from][msg.sender] != uint(-1)) {... */\n      tag_63\n      jumpi\n      sub(shl(0xa0, 0x01), 0x01)\n        /* \"MAAL Blockchain/RamzSwap/Core/RamzSwapMAAL20.sol\":2647:2662  allowance[from] */\n      dup5\n      and\n      0x00\n      swap1\n      dup2\n      mstore\n        /* \"MAAL Blockchain/RamzSwap/Core/RamzSwapMAAL20.sol\":2647:2656  allowance */\n      0x02\n        /* \"MAAL Blockchain/RamzSwap/Core/RamzSwapMAAL20.sol\":2647:2662  allowance[from] */\n      0x20\n      swap1\n      dup2\n      mstore\n      0x40\n      dup1\n      dup4\n      keccak256\n        /* \"MAAL Blockchain/RamzSwap/Core/RamzSwapMAAL20.sol\":2663:2673  msg.sender */\n      caller\n        /* \"MAAL Blockchain/RamzSwap/Core/RamzSwapMAAL20.sol\":2647:2674  allowance[from][msg.sender] */\n      dup5\n      mstore\n      swap1\n      swap2\n      mstore\n      swap1\n      keccak256\n      sload\n        /* \"MAAL Blockchain/RamzSwap/Core/RamzSwapMAAL20.sol\":2647:2685  allowance[from][msg.sender].sub(value) */\n      tag_64\n      swap1\n        /* \"MAAL Blockchain/RamzSwap/Core/RamzSwapMAAL20.sol\":2679:2684  value */\n      dup4\n        /* \"MAAL Blockchain/RamzSwap/Core/RamzSwapMAAL20.sol\":2647:2685  allowance[from][msg.sender].sub(value) */\n      0xffffffff\n        /* \"MAAL Blockchain/RamzSwap/Core/RamzSwapMAAL20.sol\":2647:2678  allowance[from][msg.sender].sub */\n      tag_65\n        /* \"MAAL Blockchain/RamzSwap/Core/RamzSwapMAAL20.sol\":2647:2685  allowance[from][msg.sender].sub(value) */\n      and\n      jump\t// in\n    tag_64:\n      sub(shl(0xa0, 0x01), 0x01)\n        /* \"MAAL Blockchain/RamzSwap/Core/RamzSwapMAAL20.sol\":2617:2632  allowance[from] */\n      dup6\n      and\n      0x00\n      swap1\n      dup2\n      mstore\n        /* \"MAAL Blockchain/RamzSwap/Core/RamzSwapMAAL20.sol\":2617:2626  allowance */\n      0x02\n        /* \"MAAL Blockchain/RamzSwap/Core/RamzSwapMAAL20.sol\":2617:2632  allowance[from] */\n      0x20\n      swap1\n      dup2\n      mstore\n      0x40\n      dup1\n      dup4\n      keccak256\n        /* \"MAAL Blockchain/RamzSwap/Core/RamzSwapMAAL20.sol\":2633:2643  msg.sender */\n      caller\n        /* \"MAAL Blockchain/RamzSwap/Core/RamzSwapMAAL20.sol\":2617:2644  allowance[from][msg.sender] */\n      dup5\n      mstore\n      swap1\n      swap2\n      mstore\n      swap1\n      keccak256\n        /* \"MAAL Blockchain/RamzSwap/Core/RamzSwapMAAL20.sol\":2617:2685  allowance[from][msg.sender] = allowance[from][msg.sender].sub(value) */\n      sstore\n        /* \"MAAL Blockchain/RamzSwap/Core/RamzSwapMAAL20.sol\":2558:2696  if (allowance[from][msg.sender] != uint(-1)) {... */\n    tag_63:\n        /* \"MAAL Blockchain/RamzSwap/Core/RamzSwapMAAL20.sol\":2705:2731  _transfer(from, to, value) */\n      tag_66\n        /* \"MAAL Blockchain/RamzSwap/Core/RamzSwapMAAL20.sol\":2715:2719  from */\n      dup5\n        /* \"MAAL Blockchain/RamzSwap/Core/RamzSwapMAAL20.sol\":2721:2723  to */\n      dup5\n        /* \"MAAL Blockchain/RamzSwap/Core/RamzSwapMAAL20.sol\":2725:2730  value */\n      dup5\n        /* \"MAAL Blockchain/RamzSwap/Core/RamzSwapMAAL20.sol\":2705:2714  _transfer */\n      tag_67\n        /* \"MAAL Blockchain/RamzSwap/Core/RamzSwapMAAL20.sol\":2705:2731  _transfer(from, to, value) */\n      jump\t// in\n    tag_66:\n      pop\n        /* \"MAAL Blockchain/RamzSwap/Core/RamzSwapMAAL20.sol\":2748:2752  true */\n      0x01\n        /* \"MAAL Blockchain/RamzSwap/Core/RamzSwapMAAL20.sol\":2464:2759  function transferFrom(address from, address to, uint value) external returns (bool) {... */\n      swap4\n      swap3\n      pop\n      pop\n      pop\n      jump\t// out\n        /* \"MAAL Blockchain/RamzSwap/Core/RamzSwapMAAL20.sol\":600:708  bytes32 public constant PERMIT_TYPEHASH = 0x6e71edae12b1b97f4d1f60370fef10105fa2faae0126114a169c64845d6126c9 */\n    tag_33:\n        /* \"MAAL Blockchain/RamzSwap/Core/RamzSwapMAAL20.sol\":642:708  0x6e71edae12b1b97f4d1f60370fef10105fa2faae0126114a169c64845d6126c9 */\n      0x6e71edae12b1b97f4d1f60370fef10105fa2faae0126114a169c64845d6126c9\n        /* \"MAAL Blockchain/RamzSwap/Core/RamzSwapMAAL20.sol\":600:708  bytes32 public constant PERMIT_TYPEHASH = 0x6e71edae12b1b97f4d1f60370fef10105fa2faae0126114a169c64845d6126c9 */\n      dup2\n      jump\t// out\n        /* \"MAAL Blockchain/RamzSwap/Core/RamzSwapMAAL20.sol\":273:308  uint8 public constant decimals = 18 */\n    tag_35:\n        /* \"MAAL Blockchain/RamzSwap/Core/RamzSwapMAAL20.sol\":306:308  18 */\n      0x12\n        /* \"MAAL Blockchain/RamzSwap/Core/RamzSwapMAAL20.sol\":273:308  uint8 public constant decimals = 18 */\n      dup2\n      jump\t// out\n        /* \"MAAL Blockchain/RamzSwap/Core/RamzSwapMAAL20.sol\":459:490  bytes32 public DOMAIN_SEPARATOR */\n    tag_37:\n      sload(0x03)\n      dup2\n      jump\t// out\n        /* \"MAAL Blockchain/RamzSwap/Core/RamzSwapMAAL20.sol\":344:385  mapping(address => uint) public balanceOf */\n    tag_40:\n      mstore(0x20, 0x01)\n      0x00\n      swap1\n      dup2\n      mstore\n      0x40\n      swap1\n      keccak256\n      sload\n      dup2\n      jump\t// out\n        /* \"MAAL Blockchain/RamzSwap/Core/RamzSwapMAAL20.sol\":714:752  mapping(address => uint) public nonces */\n    tag_43:\n      mstore(0x20, 0x04)\n      0x00\n      swap1\n      dup2\n      mstore\n      0x40\n      swap1\n      keccak256\n      sload\n      dup2\n      jump\t// out\n        /* \"MAAL Blockchain/RamzSwap/Core/RamzSwapMAAL20.sol\":230:267  string public constant symbol = 'RMZ' */\n    tag_45:\n      mload(0x40)\n      dup1\n      0x40\n      add\n      0x40\n      mstore\n      dup1\n      0x03\n      dup2\n      mstore\n      0x20\n      add\n      shl(0xe9, 0x2926ad)\n      dup2\n      mstore\n      pop\n      dup2\n      jump\t// out\n        /* \"MAAL Blockchain/RamzSwap/Core/RamzSwapMAAL20.sol\":2322:2458  function transfer(address to, uint value) external returns (bool) {... */\n    tag_52:\n        /* \"MAAL Blockchain/RamzSwap/Core/RamzSwapMAAL20.sol\":2382:2386  bool */\n      0x00\n        /* \"MAAL Blockchain/RamzSwap/Core/RamzSwapMAAL20.sol\":2398:2430  _transfer(msg.sender, to, value) */\n      tag_60\n        /* \"MAAL Blockchain/RamzSwap/Core/RamzSwapMAAL20.sol\":2408:2418  msg.sender */\n      caller\n        /* \"MAAL Blockchain/RamzSwap/Core/RamzSwapMAAL20.sol\":2420:2422  to */\n      dup5\n        /* \"MAAL Blockchain/RamzSwap/Core/RamzSwapMAAL20.sol\":2424:2429  value */\n      dup5\n        /* \"MAAL Blockchain/RamzSwap/Core/RamzSwapMAAL20.sol\":2398:2407  _transfer */\n      tag_67\n        /* \"MAAL Blockchain/RamzSwap/Core/RamzSwapMAAL20.sol\":2398:2430  _transfer(msg.sender, to, value) */\n      jump\t// in\n        /* \"MAAL Blockchain/RamzSwap/Core/RamzSwapMAAL20.sol\":2765:3427  function permit(address owner, address spender, uint value, uint deadline, uint8 v, bytes32 r, bytes32 s) external {... */\n    tag_55:\n        /* \"MAAL Blockchain/RamzSwap/Core/RamzSwapMAAL20.sol\":2910:2925  block.timestamp */\n      timestamp\n        /* \"MAAL Blockchain/RamzSwap/Core/RamzSwapMAAL20.sol\":2898:2906  deadline */\n      dup5\n        /* \"MAAL Blockchain/RamzSwap/Core/RamzSwapMAAL20.sol\":2898:2925  deadline >= block.timestamp */\n      lt\n      iszero\n        /* \"MAAL Blockchain/RamzSwap/Core/RamzSwapMAAL20.sol\":2890:2948  require(deadline >= block.timestamp, 'UniswapV2: EXPIRED') */\n      tag_71\n      jumpi\n      0x40\n      dup1\n      mload\n      shl(0xe5, 0x461bcd)\n      dup2\n      mstore\n      0x20\n      0x04\n      dup3\n      add\n      mstore\n      0x12\n      0x24\n      dup3\n      add\n      mstore\n      shl(0x72, 0x155b9a5cddd85c158c8e8811561412549151)\n      0x44\n      dup3\n      add\n      mstore\n      swap1\n      mload\n      swap1\n      dup2\n      swap1\n      sub\n      0x64\n      add\n      swap1\n      revert\n    tag_71:\n        /* \"MAAL Blockchain/RamzSwap/Core/RamzSwapMAAL20.sol\":3060:3076  DOMAIN_SEPARATOR */\n      sload(0x03)\n      sub(shl(0xa0, 0x01), 0x01)\n        /* \"MAAL Blockchain/RamzSwap/Core/RamzSwapMAAL20.sol\":3155:3168  nonces[owner] */\n      dup1\n      dup10\n      and\n        /* \"MAAL Blockchain/RamzSwap/Core/RamzSwapMAAL20.sol\":2958:2972  bytes32 digest */\n      0x00\n        /* \"MAAL Blockchain/RamzSwap/Core/RamzSwapMAAL20.sol\":3155:3168  nonces[owner] */\n      dup2\n      dup2\n      mstore\n        /* \"MAAL Blockchain/RamzSwap/Core/RamzSwapMAAL20.sol\":3155:3161  nonces */\n      0x04\n        /* \"MAAL Blockchain/RamzSwap/Core/RamzSwapMAAL20.sol\":3155:3168  nonces[owner] */\n      0x20\n      swap1\n      dup2\n      mstore\n      0x40\n      dup1\n      dup4\n      keccak256\n        /* \"MAAL Blockchain/RamzSwap/Core/RamzSwapMAAL20.sol\":3155:3170  nonces[owner]++ */\n      dup1\n      sload\n      0x01\n      dup1\n      dup3\n      add\n      swap1\n      swap3\n      sstore\n        /* \"MAAL Blockchain/RamzSwap/Core/RamzSwapMAAL20.sol\":3104:3181  abi.encode(PERMIT_TYPEHASH, owner, spender, value, nonces[owner]++, deadline) */\n      dup3\n      mload\n        /* \"MAAL Blockchain/RamzSwap/Core/RamzSwapMAAL20.sol\":642:708  0x6e71edae12b1b97f4d1f60370fef10105fa2faae0126114a169c64845d6126c9 */\n      0x6e71edae12b1b97f4d1f60370fef10105fa2faae0126114a169c64845d6126c9\n        /* \"MAAL Blockchain/RamzSwap/Core/RamzSwapMAAL20.sol\":3104:3181  abi.encode(PERMIT_TYPEHASH, owner, spender, value, nonces[owner]++, deadline) */\n      dup2\n      dup7\n      add\n      mstore\n      dup1\n      dup5\n      add\n      swap7\n      swap1\n      swap7\n      mstore\n      swap6\n      dup14\n      and\n      0x60\n      dup7\n      add\n      mstore\n      0x80\n      dup6\n      add\n      dup13\n      swap1\n      mstore\n      0xa0\n      dup6\n      add\n      swap6\n      swap1\n      swap6\n      mstore\n      0xc0\n      dup1\n      dup6\n      add\n      dup12\n      swap1\n      mstore\n      dup2\n      mload\n        /* \"--CODEGEN--\":26:47   */\n      dup1\n      dup7\n      sub\n        /* \"--CODEGEN--\":22:54   */\n      swap1\n      swap2\n      add\n        /* \"--CODEGEN--\":6:55   */\n      dup2\n      mstore\n        /* \"MAAL Blockchain/RamzSwap/Core/RamzSwapMAAL20.sol\":3104:3181  abi.encode(PERMIT_TYPEHASH, owner, spender, value, nonces[owner]++, deadline) */\n      0xe0\n      dup6\n      add\n      dup3\n      mstore\n        /* \"MAAL Blockchain/RamzSwap/Core/RamzSwapMAAL20.sol\":3094:3182  keccak256(abi.encode(PERMIT_TYPEHASH, owner, spender, value, nonces[owner]++, deadline)) */\n      dup1\n      mload\n      swap1\n      dup4\n      add\n      keccak256\n      shl(0xf0, 0x1901)\n        /* \"MAAL Blockchain/RamzSwap/Core/RamzSwapMAAL20.sol\":2998:3196  abi.encodePacked(... */\n      0x0100\n      dup7\n      add\n      mstore\n      0x0102\n      dup6\n      add\n      swap7\n      swap1\n      swap7\n      mstore\n      0x0122\n      dup1\n      dup6\n      add\n      swap7\n      swap1\n      swap7\n      mstore\n      dup1\n      mload\n        /* \"--CODEGEN--\":26:47   */\n      dup1\n      dup6\n      sub\n        /* \"--CODEGEN--\":22:54   */\n      swap1\n      swap7\n      add\n        /* \"--CODEGEN--\":6:55   */\n      dup7\n      mstore\n        /* \"MAAL Blockchain/RamzSwap/Core/RamzSwapMAAL20.sol\":2998:3196  abi.encodePacked(... */\n      0x0142\n      dup5\n      add\n      dup1\n      dup3\n      mstore\n        /* \"MAAL Blockchain/RamzSwap/Core/RamzSwapMAAL20.sol\":2975:3206  keccak256(... */\n      dup7\n      mload\n      swap7\n      dup4\n      add\n      swap7\n      swap1\n      swap7\n      keccak256\n        /* \"MAAL Blockchain/RamzSwap/Core/RamzSwapMAAL20.sol\":3243:3269  ecrecover(digest, v, r, s) */\n      swap6\n      dup4\n      swap1\n      mstore\n      0x0162\n      dup5\n      add\n      dup1\n      dup3\n      mstore\n      dup7\n      swap1\n      mstore\n      0xff\n      dup10\n      and\n      0x0182\n      dup6\n      add\n      mstore\n      0x01a2\n      dup5\n      add\n      dup9\n      swap1\n      mstore\n      0x01c2\n      dup5\n      add\n      dup8\n      swap1\n      mstore\n      mload\n        /* \"MAAL Blockchain/RamzSwap/Core/RamzSwapMAAL20.sol\":2958:2972  bytes32 digest */\n      swap2\n      swap4\n        /* \"MAAL Blockchain/RamzSwap/Core/RamzSwapMAAL20.sol\":3155:3170  nonces[owner]++ */\n      swap3\n        /* \"MAAL Blockchain/RamzSwap/Core/RamzSwapMAAL20.sol\":3243:3269  ecrecover(digest, v, r, s) */\n      0x01e2\n      dup1\n      dup3\n      add\n      swap4\n      not(0x1f)\n      dup2\n      add\n      swap3\n      dup2\n      swap1\n      sub\n      swap1\n      swap2\n      add\n      swap1\n        /* \"MAAL Blockchain/RamzSwap/Core/RamzSwapMAAL20.sol\":3155:3170  nonces[owner]++ */\n      dup6\n        /* \"MAAL Blockchain/RamzSwap/Core/RamzSwapMAAL20.sol\":3243:3269  ecrecover(digest, v, r, s) */\n      gas\n      staticcall\n      iszero\n        /* \"--CODEGEN--\":8:17   */\n      dup1\n        /* \"--CODEGEN--\":5:7   */\n      iszero\n      tag_72\n      jumpi\n        /* \"--CODEGEN--\":45:61   */\n      returndatasize\n        /* \"--CODEGEN--\":42:43   */\n      0x00\n        /* \"--CODEGEN--\":39:40   */\n      dup1\n        /* \"--CODEGEN--\":24:62   */\n      returndatacopy\n        /* \"--CODEGEN--\":77:93   */\n      returndatasize\n        /* \"--CODEGEN--\":74:75   */\n      0x00\n        /* \"--CODEGEN--\":67:94   */\n      revert\n        /* \"--CODEGEN--\":5:7   */\n    tag_72:\n      pop\n      pop\n        /* \"MAAL Blockchain/RamzSwap/Core/RamzSwapMAAL20.sol\":3243:3269  ecrecover(digest, v, r, s) */\n      mload(add(not(0x1f), mload(0x40)))\n      swap2\n      pop\n      pop\n      sub(shl(0xa0, 0x01), 0x01)\n        /* \"MAAL Blockchain/RamzSwap/Core/RamzSwapMAAL20.sol\":3287:3317  recoveredAddress != address(0) */\n      dup2\n      and\n      iszero\n      dup1\n      iszero\n      swap1\n        /* \"MAAL Blockchain/RamzSwap/Core/RamzSwapMAAL20.sol\":3287:3346  recoveredAddress != address(0) && recoveredAddress == owner */\n      tag_73\n      jumpi\n      pop\n        /* \"MAAL Blockchain/RamzSwap/Core/RamzSwapMAAL20.sol\":3341:3346  owner */\n      dup9\n      sub(shl(0xa0, 0x01), 0x01)\n        /* \"MAAL Blockchain/RamzSwap/Core/RamzSwapMAAL20.sol\":3321:3346  recoveredAddress == owner */\n      and\n        /* \"MAAL Blockchain/RamzSwap/Core/RamzSwapMAAL20.sol\":3321:3337  recoveredAddress */\n      dup2\n      sub(shl(0xa0, 0x01), 0x01)\n        /* \"MAAL Blockchain/RamzSwap/Core/RamzSwapMAAL20.sol\":3321:3346  recoveredAddress == owner */\n      and\n      eq\n        /* \"MAAL Blockchain/RamzSwap/Core/RamzSwapMAAL20.sol\":3287:3346  recoveredAddress != address(0) && recoveredAddress == owner */\n    tag_73:\n        /* \"MAAL Blockchain/RamzSwap/Core/RamzSwapMAAL20.sol\":3279:3379  require(recoveredAddress != address(0) && recoveredAddress == owner, 'UniswapV2: INVALID_SIGNATURE') */\n      tag_74\n      jumpi\n      0x40\n      dup1\n      mload\n      shl(0xe5, 0x461bcd)\n      dup2\n      mstore\n      0x20\n      0x04\n      dup3\n      add\n      mstore\n      0x1c\n      0x24\n      dup3\n      add\n      mstore\n      0x556e697377617056323a20494e56414c49445f5349474e415455524500000000\n      0x44\n      dup3\n      add\n      mstore\n      swap1\n      mload\n      swap1\n      dup2\n      swap1\n      sub\n      0x64\n      add\n      swap1\n      revert\n    tag_74:\n        /* \"MAAL Blockchain/RamzSwap/Core/RamzSwapMAAL20.sol\":3389:3420  _approve(owner, spender, value) */\n      tag_75\n        /* \"MAAL Blockchain/RamzSwap/Core/RamzSwapMAAL20.sol\":3398:3403  owner */\n      dup10\n        /* \"MAAL Blockchain/RamzSwap/Core/RamzSwapMAAL20.sol\":3405:3412  spender */\n      dup10\n        /* \"MAAL Blockchain/RamzSwap/Core/RamzSwapMAAL20.sol\":3414:3419  value */\n      dup10\n        /* \"MAAL Blockchain/RamzSwap/Core/RamzSwapMAAL20.sol\":3389:3397  _approve */\n      tag_61\n        /* \"MAAL Blockchain/RamzSwap/Core/RamzSwapMAAL20.sol\":3389:3420  _approve(owner, spender, value) */\n      jump\t// in\n    tag_75:\n        /* \"MAAL Blockchain/RamzSwap/Core/RamzSwapMAAL20.sol\":2765:3427  function permit(address owner, address spender, uint value, uint deadline, uint8 v, bytes32 r, bytes32 s) external {... */\n      pop\n      pop\n      pop\n      pop\n      pop\n      pop\n      pop\n      pop\n      pop\n      jump\t// out\n        /* \"MAAL Blockchain/RamzSwap/Core/RamzSwapMAAL20.sol\":391:452  mapping(address => mapping(address => uint)) public allowance */\n    tag_58:\n      0x02\n      0x20\n      swap1\n      dup2\n      mstore\n      0x00\n      swap3\n      dup4\n      mstore\n      0x40\n      dup1\n      dup5\n      keccak256\n      swap1\n      swap2\n      mstore\n      swap1\n      dup3\n      mstore\n      swap1\n      keccak256\n      sload\n      dup2\n      jump\t// out\n        /* \"MAAL Blockchain/RamzSwap/Core/RamzSwapMAAL20.sol\":1778:1944  function _approve(address owner, address spender, uint value) private {... */\n    tag_61:\n      sub(shl(0xa0, 0x01), 0x01)\n        /* \"MAAL Blockchain/RamzSwap/Core/RamzSwapMAAL20.sol\":1858:1874  allowance[owner] */\n      dup1\n      dup5\n      and\n      0x00\n      dup2\n      dup2\n      mstore\n        /* \"MAAL Blockchain/RamzSwap/Core/RamzSwapMAAL20.sol\":1858:1867  allowance */\n      0x02\n        /* \"MAAL Blockchain/RamzSwap/Core/RamzSwapMAAL20.sol\":1858:1874  allowance[owner] */\n      0x20\n      swap1\n      dup2\n      mstore\n      0x40\n      dup1\n      dup4\n      keccak256\n        /* \"MAAL Blockchain/RamzSwap/Core/RamzSwapMAAL20.sol\":1858:1883  allowance[owner][spender] */\n      swap5\n      dup8\n      and\n      dup1\n      dup5\n      mstore\n      swap5\n      dup3\n      mstore\n      swap2\n      dup3\n      swap1\n      keccak256\n        /* \"MAAL Blockchain/RamzSwap/Core/RamzSwapMAAL20.sol\":1858:1891  allowance[owner][spender] = value */\n      dup6\n      swap1\n      sstore\n        /* \"MAAL Blockchain/RamzSwap/Core/RamzSwapMAAL20.sol\":1906:1937  Approval(owner, spender, value) */\n      dup2\n      mload\n      dup6\n      dup2\n      mstore\n      swap2\n      mload\n      0x8c5be1e5ebec7d5bd14f71427d1e84f3dd0314c0f7b2291e5b200ac8c7c3b925\n      swap3\n      dup2\n      swap1\n      sub\n      swap1\n      swap2\n      add\n      swap1\n      log3\n        /* \"MAAL Blockchain/RamzSwap/Core/RamzSwapMAAL20.sol\":1778:1944  function _approve(address owner, address spender, uint value) private {... */\n      pop\n      pop\n      pop\n      jump\t// out\n        /* \"MAAL Blockchain/RamzSwap/Core/libraries/SafeMath.sol\":288:415  function sub(uint x, uint y) internal pure returns (uint z) {... */\n    tag_65:\n        /* \"MAAL Blockchain/RamzSwap/Core/libraries/SafeMath.sol\":371:376  x - y */\n      dup1\n      dup3\n      sub\n        /* \"MAAL Blockchain/RamzSwap/Core/libraries/SafeMath.sol\":366:382  (z = x - y) <= x */\n      dup3\n      dup2\n      gt\n      iszero\n        /* \"MAAL Blockchain/RamzSwap/Core/libraries/SafeMath.sol\":358:408  require((z = x - y) <= x, 'ds-math-sub-underflow') */\n      tag_59\n      jumpi\n      0x40\n      dup1\n      mload\n      shl(0xe5, 0x461bcd)\n      dup2\n      mstore\n      0x20\n      0x04\n      dup3\n      add\n      mstore\n      0x15\n      0x24\n      dup3\n      add\n      mstore\n      shl(0x58, 0x64732d6d6174682d7375622d756e646572666c6f77)\n      0x44\n      dup3\n      add\n      mstore\n      swap1\n      mload\n      swap1\n      dup2\n      swap1\n      sub\n      0x64\n      add\n      swap1\n      revert\n        /* \"MAAL Blockchain/RamzSwap/Core/RamzSwapMAAL20.sol\":1950:2166  function _transfer(address from, address to, uint value) private {... */\n    tag_67:\n      sub(shl(0xa0, 0x01), 0x01)\n        /* \"MAAL Blockchain/RamzSwap/Core/RamzSwapMAAL20.sol\":2043:2058  balanceOf[from] */\n      dup4\n      and\n      0x00\n      swap1\n      dup2\n      mstore\n        /* \"MAAL Blockchain/RamzSwap/Core/RamzSwapMAAL20.sol\":2043:2052  balanceOf */\n      0x01\n        /* \"MAAL Blockchain/RamzSwap/Core/RamzSwapMAAL20.sol\":2043:2058  balanceOf[from] */\n      0x20\n      mstore\n      0x40\n      swap1\n      keccak256\n      sload\n        /* \"MAAL Blockchain/RamzSwap/Core/RamzSwapMAAL20.sol\":2043:2069  balanceOf[from].sub(value) */\n      tag_80\n      swap1\n        /* \"MAAL Blockchain/RamzSwap/Core/RamzSwapMAAL20.sol\":2063:2068  value */\n      dup3\n        /* \"MAAL Blockchain/RamzSwap/Core/RamzSwapMAAL20.sol\":2043:2069  balanceOf[from].sub(value) */\n      0xffffffff\n        /* \"MAAL Blockchain/RamzSwap/Core/RamzSwapMAAL20.sol\":2043:2062  balanceOf[from].sub */\n      tag_65\n        /* \"MAAL Blockchain/RamzSwap/Core/RamzSwapMAAL20.sol\":2043:2069  balanceOf[from].sub(value) */\n      and\n      jump\t// in\n    tag_80:\n      sub(shl(0xa0, 0x01), 0x01)\n        /* \"MAAL Blockchain/RamzSwap/Core/RamzSwapMAAL20.sol\":2025:2040  balanceOf[from] */\n      dup1\n      dup6\n      and\n      0x00\n      swap1\n      dup2\n      mstore\n        /* \"MAAL Blockchain/RamzSwap/Core/RamzSwapMAAL20.sol\":2025:2034  balanceOf */\n      0x01\n        /* \"MAAL Blockchain/RamzSwap/Core/RamzSwapMAAL20.sol\":2025:2040  balanceOf[from] */\n      0x20\n      mstore\n      0x40\n      dup1\n      dup3\n      keccak256\n        /* \"MAAL Blockchain/RamzSwap/Core/RamzSwapMAAL20.sol\":2025:2069  balanceOf[from] = balanceOf[from].sub(value) */\n      swap4\n      swap1\n      swap4\n      sstore\n        /* \"MAAL Blockchain/RamzSwap/Core/RamzSwapMAAL20.sol\":2095:2108  balanceOf[to] */\n      swap1\n      dup5\n      and\n      dup2\n      mstore\n      keccak256\n      sload\n        /* \"MAAL Blockchain/RamzSwap/Core/RamzSwapMAAL20.sol\":2095:2119  balanceOf[to].add(value) */\n      tag_81\n      swap1\n        /* \"MAAL Blockchain/RamzSwap/Core/RamzSwapMAAL20.sol\":2113:2118  value */\n      dup3\n        /* \"MAAL Blockchain/RamzSwap/Core/RamzSwapMAAL20.sol\":2095:2119  balanceOf[to].add(value) */\n      0xffffffff\n        /* \"MAAL Blockchain/RamzSwap/Core/RamzSwapMAAL20.sol\":2095:2112  balanceOf[to].add */\n      tag_82\n        /* \"MAAL Blockchain/RamzSwap/Core/RamzSwapMAAL20.sol\":2095:2119  balanceOf[to].add(value) */\n      and\n      jump\t// in\n    tag_81:\n      sub(shl(0xa0, 0x01), 0x01)\n        /* \"MAAL Blockchain/RamzSwap/Core/RamzSwapMAAL20.sol\":2079:2092  balanceOf[to] */\n      dup1\n      dup5\n      and\n      0x00\n      dup2\n      dup2\n      mstore\n        /* \"MAAL Blockchain/RamzSwap/Core/RamzSwapMAAL20.sol\":2079:2088  balanceOf */\n      0x01\n        /* \"MAAL Blockchain/RamzSwap/Core/RamzSwapMAAL20.sol\":2079:2092  balanceOf[to] */\n      0x20\n      swap1\n      dup2\n      mstore\n      0x40\n      swap2\n      dup3\n      swap1\n      keccak256\n        /* \"MAAL Blockchain/RamzSwap/Core/RamzSwapMAAL20.sol\":2079:2119  balanceOf[to] = balanceOf[to].add(value) */\n      swap5\n      swap1\n      swap5\n      sstore\n        /* \"MAAL Blockchain/RamzSwap/Core/RamzSwapMAAL20.sol\":2134:2159  Transfer(from, to, value) */\n      dup1\n      mload\n      dup6\n      dup2\n      mstore\n      swap1\n      mload\n        /* \"MAAL Blockchain/RamzSwap/Core/RamzSwapMAAL20.sol\":2079:2092  balanceOf[to] */\n      swap2\n      swap4\n        /* \"MAAL Blockchain/RamzSwap/Core/RamzSwapMAAL20.sol\":2134:2159  Transfer(from, to, value) */\n      swap3\n      dup8\n      and\n      swap3\n      0xddf252ad1be2c89b69c2b068fc378daa952ba7f163c4a11628f55a4df523b3ef\n      swap3\n      swap2\n      dup3\n      swap1\n      sub\n      add\n      swap1\n      log3\n        /* \"MAAL Blockchain/RamzSwap/Core/RamzSwapMAAL20.sol\":1950:2166  function _transfer(address from, address to, uint value) private {... */\n      pop\n      pop\n      pop\n      jump\t// out\n        /* \"MAAL Blockchain/RamzSwap/Core/libraries/SafeMath.sol\":156:282  function add(uint x, uint y) internal pure returns (uint z) {... */\n    tag_82:\n        /* \"MAAL Blockchain/RamzSwap/Core/libraries/SafeMath.sol\":239:244  x + y */\n      dup1\n      dup3\n      add\n        /* \"MAAL Blockchain/RamzSwap/Core/libraries/SafeMath.sol\":234:250  (z = x + y) >= x */\n      dup3\n      dup2\n      lt\n      iszero\n        /* \"MAAL Blockchain/RamzSwap/Core/libraries/SafeMath.sol\":226:275  require((z = x + y) >= x, 'ds-math-add-overflow') */\n      tag_59\n      jumpi\n      0x40\n      dup1\n      mload\n      shl(0xe5, 0x461bcd)\n      dup2\n      mstore\n      0x20\n      0x04\n      dup3\n      add\n      mstore\n      0x14\n      0x24\n      dup3\n      add\n      mstore\n      shl(0x60, 0x64732d6d6174682d6164642d6f766572666c6f77)\n      0x44\n      dup3\n      add\n      mstore\n      swap1\n      mload\n      swap1\n      dup2\n      swap1\n      sub\n      0x64\n      add\n      swap1\n      revert\n\n    auxdata: 0xa265627a7a723158207f1ae1f8c51f741896a718c8ea03037d031724acecfa91194fa25cae9981b66e64736f6c63430005100032\n}\n",
				"bytecode": {
					"linkReferences": {},
					"object": "608060405234801561001057600080fd5b50604051469080605261096582396040805191829003605201822082820182526008835267052616d7a537761760c41b6020938401528151808301835260018152603160f81b908401528151808401919091527f0fdad714b9ded567f809e1228e3c4209948d0b55cf816b97124955a286699019818301527fc89efdaa54c0f20c7adf612882df0950f5a951637e0307cdcb4c672f298b8bc6606082015260808101949094523060a0808601919091528151808603909101815260c09094019052825192019190912060035550610879806100ec6000396000f3fe608060405234801561001057600080fd5b50600436106100cf5760003560e01c80633644e5151161008c57806395d89b411161006657806395d89b411461025b578063a9059cbb14610263578063d505accf1461028f578063dd62ed3e146102e2576100cf565b80633644e5151461020757806370a082311461020f5780637ecebe0014610235576100cf565b806306fdde03146100d4578063095ea7b31461015157806318160ddd1461019157806323b872dd146101ab57806330adf81f146101e1578063313ce567146101e9575b600080fd5b6100dc610310565b6040805160208082528351818301528351919283929083019185019080838360005b838110156101165781810151838201526020016100fe565b50505050905090810190601f1680156101435780820380516001836020036101000a031916815260200191505b509250505060405180910390f35b61017d6004803603604081101561016757600080fd5b506001600160a01b038135169060200135610334565b604080519115158252519081900360200190f35b61019961034b565b60408051918252519081900360200190f35b61017d600480360360608110156101c157600080fd5b506001600160a01b03813581169160208101359091169060400135610351565b6101996103eb565b6101f161040f565b6040805160ff9092168252519081900360200190f35b610199610414565b6101996004803603602081101561022557600080fd5b50356001600160a01b031661041a565b6101996004803603602081101561024b57600080fd5b50356001600160a01b031661042c565b6100dc61043e565b61017d6004803603604081101561027957600080fd5b506001600160a01b03813516906020013561045d565b6102e0600480360360e08110156102a557600080fd5b506001600160a01b03813581169160208101359091169060408101359060608101359060ff6080820135169060a08101359060c0013561046a565b005b610199600480360360408110156102f857600080fd5b506001600160a01b038135811691602001351661066c565b60405180604001604052806008815260200167052616d7a537761760c41b81525081565b6000610341338484610689565b5060015b92915050565b60005481565b6001600160a01b0383166000908152600260209081526040808320338452909152812054600019146103d6576001600160a01b03841660009081526002602090815260408083203384529091529020546103b1908363ffffffff6106eb16565b6001600160a01b03851660009081526002602090815260408083203384529091529020555b6103e184848461073b565b5060019392505050565b7f6e71edae12b1b97f4d1f60370fef10105fa2faae0126114a169c64845d6126c981565b601281565b60035481565b60016020526000908152604090205481565b60046020526000908152604090205481565b604051806040016040528060038152602001622926ad60e91b81525081565b600061034133848461073b565b428410156104b4576040805162461bcd60e51b8152602060048201526012602482015271155b9a5cddd85c158c8e881156141254915160721b604482015290519081900360640190fd5b6003546001600160a01b0380891660008181526004602090815260408083208054600180820190925582517f6e71edae12b1b97f4d1f60370fef10105fa2faae0126114a169c64845d6126c98186015280840196909652958d166060860152608085018c905260a085019590955260c08085018b90528151808603909101815260e08501825280519083012061190160f01b6101008601526101028501969096526101228085019690965280518085039096018652610142840180825286519683019690962095839052610162840180825286905260ff89166101828501526101a284018890526101c28401879052519193926101e280820193601f1981019281900390910190855afa1580156105cf573d6000803e3d6000fd5b5050604051601f1901519150506001600160a01b038116158015906106055750886001600160a01b0316816001600160a01b0316145b610656576040805162461bcd60e51b815260206004820152601c60248201527f556e697377617056323a20494e56414c49445f5349474e415455524500000000604482015290519081900360640190fd5b610661898989610689565b505050505050505050565b600260209081526000928352604080842090915290825290205481565b6001600160a01b03808416600081815260026020908152604080832094871680845294825291829020859055815185815291517f8c5be1e5ebec7d5bd14f71427d1e84f3dd0314c0f7b2291e5b200ac8c7c3b9259281900390910190a3505050565b80820382811115610345576040805162461bcd60e51b815260206004820152601560248201527464732d6d6174682d7375622d756e646572666c6f7760581b604482015290519081900360640190fd5b6001600160a01b038316600090815260016020526040902054610764908263ffffffff6106eb16565b6001600160a01b038085166000908152600160205260408082209390935590841681522054610799908263ffffffff6107f516565b6001600160a01b0380841660008181526001602090815260409182902094909455805185815290519193928716927fddf252ad1be2c89b69c2b068fc378daa952ba7f163c4a11628f55a4df523b3ef92918290030190a3505050565b80820182811015610345576040805162461bcd60e51b815260206004820152601460248201527364732d6d6174682d6164642d6f766572666c6f7760601b604482015290519081900360640190fdfea265627a7a723158207f1ae1f8c51f741896a718c8ea03037d031724acecfa91194fa25cae9981b66e64736f6c63430005100032454950373132446f6d61696e28737472696e67206e616d652c737472696e672076657273696f6e2c75696e7432353620636861696e49642c6164647265737320766572696679696e67436f6e747261637429",
					"opcodes": "PUSH1 0x80 PUSH1 0x40 MSTORE CALLVALUE DUP1 ISZERO PUSH2 0x10 JUMPI PUSH1 0x0 DUP1 REVERT JUMPDEST POP PUSH1 0x40 MLOAD CHAINID SWAP1 DUP1 PUSH1 0x52 PUSH2 0x965 DUP3 CODECOPY PUSH1 0x40 DUP1 MLOAD SWAP2 DUP3 SWAP1 SUB PUSH1 0x52 ADD DUP3 KECCAK256 DUP3 DUP3 ADD DUP3 MSTORE PUSH1 0x8 DUP4 MSTORE PUSH8 0x52616D7A5377617 PUSH1 0xC4 SHL PUSH1 0x20 SWAP4 DUP5 ADD MSTORE DUP2 MLOAD DUP1 DUP4 ADD DUP4 MSTORE PUSH1 0x1 DUP2 MSTORE PUSH1 0x31 PUSH1 0xF8 SHL SWAP1 DUP5 ADD MSTORE DUP2 MLOAD DUP1 DUP5 ADD SWAP2 SWAP1 SWAP2 MSTORE PUSH32 0xFDAD714B9DED567F809E1228E3C4209948D0B55CF816B97124955A286699019 DUP2 DUP4 ADD MSTORE PUSH32 0xC89EFDAA54C0F20C7ADF612882DF0950F5A951637E0307CDCB4C672F298B8BC6 PUSH1 0x60 DUP3 ADD MSTORE PUSH1 0x80 DUP2 ADD SWAP5 SWAP1 SWAP5 MSTORE ADDRESS PUSH1 0xA0 DUP1 DUP7 ADD SWAP2 SWAP1 SWAP2 MSTORE DUP2 MLOAD DUP1 DUP7 SUB SWAP1 SWAP2 ADD DUP2 MSTORE PUSH1 0xC0 SWAP1 SWAP5 ADD SWAP1 MSTORE DUP3 MLOAD SWAP3 ADD SWAP2 SWAP1 SWAP2 KECCAK256 PUSH1 0x3 SSTORE POP PUSH2 0x879 DUP1 PUSH2 0xEC PUSH1 0x0 CODECOPY PUSH1 0x0 RETURN INVALID PUSH1 0x80 PUSH1 0x40 MSTORE CALLVALUE DUP1 ISZERO PUSH2 0x10 JUMPI PUSH1 0x0 DUP1 REVERT JUMPDEST POP PUSH1 0x4 CALLDATASIZE LT PUSH2 0xCF JUMPI PUSH1 0x0 CALLDATALOAD PUSH1 0xE0 SHR DUP1 PUSH4 0x3644E515 GT PUSH2 0x8C JUMPI DUP1 PUSH4 0x95D89B41 GT PUSH2 0x66 JUMPI DUP1 PUSH4 0x95D89B41 EQ PUSH2 0x25B JUMPI DUP1 PUSH4 0xA9059CBB EQ PUSH2 0x263 JUMPI DUP1 PUSH4 0xD505ACCF EQ PUSH2 0x28F JUMPI DUP1 PUSH4 0xDD62ED3E EQ PUSH2 0x2E2 JUMPI PUSH2 0xCF JUMP JUMPDEST DUP1 PUSH4 0x3644E515 EQ PUSH2 0x207 JUMPI DUP1 PUSH4 0x70A08231 EQ PUSH2 0x20F JUMPI DUP1 PUSH4 0x7ECEBE00 EQ PUSH2 0x235 JUMPI PUSH2 0xCF JUMP JUMPDEST DUP1 PUSH4 0x6FDDE03 EQ PUSH2 0xD4 JUMPI DUP1 PUSH4 0x95EA7B3 EQ PUSH2 0x151 JUMPI DUP1 PUSH4 0x18160DDD EQ PUSH2 0x191 JUMPI DUP1 PUSH4 0x23B872DD EQ PUSH2 0x1AB JUMPI DUP1 PUSH4 0x30ADF81F EQ PUSH2 0x1E1 JUMPI DUP1 PUSH4 0x313CE567 EQ PUSH2 0x1E9 JUMPI JUMPDEST PUSH1 0x0 DUP1 REVERT JUMPDEST PUSH2 0xDC PUSH2 0x310 JUMP JUMPDEST PUSH1 0x40 DUP1 MLOAD PUSH1 0x20 DUP1 DUP3 MSTORE DUP4 MLOAD DUP2 DUP4 ADD MSTORE DUP4 MLOAD SWAP2 SWAP3 DUP4 SWAP3 SWAP1 DUP4 ADD SWAP2 DUP6 ADD SWAP1 DUP1 DUP4 DUP4 PUSH1 0x0 JUMPDEST DUP4 DUP2 LT ISZERO PUSH2 0x116 JUMPI DUP2 DUP2 ADD MLOAD DUP4 DUP3 ADD MSTORE PUSH1 0x20 ADD PUSH2 0xFE JUMP JUMPDEST POP POP POP POP SWAP1 POP SWAP1 DUP2 ADD SWAP1 PUSH1 0x1F AND DUP1 ISZERO PUSH2 0x143 JUMPI DUP1 DUP3 SUB DUP1 MLOAD PUSH1 0x1 DUP4 PUSH1 0x20 SUB PUSH2 0x100 EXP SUB NOT AND DUP2 MSTORE PUSH1 0x20 ADD SWAP2 POP JUMPDEST POP SWAP3 POP POP POP PUSH1 0x40 MLOAD DUP1 SWAP2 SUB SWAP1 RETURN JUMPDEST PUSH2 0x17D PUSH1 0x4 DUP1 CALLDATASIZE SUB PUSH1 0x40 DUP2 LT ISZERO PUSH2 0x167 JUMPI PUSH1 0x0 DUP1 REVERT JUMPDEST POP PUSH1 0x1 PUSH1 0x1 PUSH1 0xA0 SHL SUB DUP2 CALLDATALOAD AND SWAP1 PUSH1 0x20 ADD CALLDATALOAD PUSH2 0x334 JUMP JUMPDEST PUSH1 0x40 DUP1 MLOAD SWAP2 ISZERO ISZERO DUP3 MSTORE MLOAD SWAP1 DUP2 SWAP1 SUB PUSH1 0x20 ADD SWAP1 RETURN JUMPDEST PUSH2 0x199 PUSH2 0x34B JUMP JUMPDEST PUSH1 0x40 DUP1 MLOAD SWAP2 DUP3 MSTORE MLOAD SWAP1 DUP2 SWAP1 SUB PUSH1 0x20 ADD SWAP1 RETURN JUMPDEST PUSH2 0x17D PUSH1 0x4 DUP1 CALLDATASIZE SUB PUSH1 0x60 DUP2 LT ISZERO PUSH2 0x1C1 JUMPI PUSH1 0x0 DUP1 REVERT JUMPDEST POP PUSH1 0x1 PUSH1 0x1 PUSH1 0xA0 SHL SUB DUP2 CALLDATALOAD DUP2 AND SWAP2 PUSH1 0x20 DUP2 ADD CALLDATALOAD SWAP1 SWAP2 AND SWAP1 PUSH1 0x40 ADD CALLDATALOAD PUSH2 0x351 JUMP JUMPDEST PUSH2 0x199 PUSH2 0x3EB JUMP JUMPDEST PUSH2 0x1F1 PUSH2 0x40F JUMP JUMPDEST PUSH1 0x40 DUP1 MLOAD PUSH1 0xFF SWAP1 SWAP3 AND DUP3 MSTORE MLOAD SWAP1 DUP2 SWAP1 SUB PUSH1 0x20 ADD SWAP1 RETURN JUMPDEST PUSH2 0x199 PUSH2 0x414 JUMP JUMPDEST PUSH2 0x199 PUSH1 0x4 DUP1 CALLDATASIZE SUB PUSH1 0x20 DUP2 LT ISZERO PUSH2 0x225 JUMPI PUSH1 0x0 DUP1 REVERT JUMPDEST POP CALLDATALOAD PUSH1 0x1 PUSH1 0x1 PUSH1 0xA0 SHL SUB AND PUSH2 0x41A JUMP JUMPDEST PUSH2 0x199 PUSH1 0x4 DUP1 CALLDATASIZE SUB PUSH1 0x20 DUP2 LT ISZERO PUSH2 0x24B JUMPI PUSH1 0x0 DUP1 REVERT JUMPDEST POP CALLDATALOAD PUSH1 0x1 PUSH1 0x1 PUSH1 0xA0 SHL SUB AND PUSH2 0x42C JUMP JUMPDEST PUSH2 0xDC PUSH2 0x43E JUMP JUMPDEST PUSH2 0x17D PUSH1 0x4 DUP1 CALLDATASIZE SUB PUSH1 0x40 DUP2 LT ISZERO PUSH2 0x279 JUMPI PUSH1 0x0 DUP1 REVERT JUMPDEST POP PUSH1 0x1 PUSH1 0x1 PUSH1 0xA0 SHL SUB DUP2 CALLDATALOAD AND SWAP1 PUSH1 0x20 ADD CALLDATALOAD PUSH2 0x45D JUMP JUMPDEST PUSH2 0x2E0 PUSH1 0x4 DUP1 CALLDATASIZE SUB PUSH1 0xE0 DUP2 LT ISZERO PUSH2 0x2A5 JUMPI PUSH1 0x0 DUP1 REVERT JUMPDEST POP PUSH1 0x1 PUSH1 0x1 PUSH1 0xA0 SHL SUB DUP2 CALLDATALOAD DUP2 AND SWAP2 PUSH1 0x20 DUP2 ADD CALLDATALOAD SWAP1 SWAP2 AND SWAP1 PUSH1 0x40 DUP2 ADD CALLDATALOAD SWAP1 PUSH1 0x60 DUP2 ADD CALLDATALOAD SWAP1 PUSH1 0xFF PUSH1 0x80 DUP3 ADD CALLDATALOAD AND SWAP1 PUSH1 0xA0 DUP2 ADD CALLDATALOAD SWAP1 PUSH1 0xC0 ADD CALLDATALOAD PUSH2 0x46A JUMP JUMPDEST STOP JUMPDEST PUSH2 0x199 PUSH1 0x4 DUP1 CALLDATASIZE SUB PUSH1 0x40 DUP2 LT ISZERO PUSH2 0x2F8 JUMPI PUSH1 0x0 DUP1 REVERT JUMPDEST POP PUSH1 0x1 PUSH1 0x1 PUSH1 0xA0 SHL SUB DUP2 CALLDATALOAD DUP2 AND SWAP2 PUSH1 0x20 ADD CALLDATALOAD AND PUSH2 0x66C JUMP JUMPDEST PUSH1 0x40 MLOAD DUP1 PUSH1 0x40 ADD PUSH1 0x40 MSTORE DUP1 PUSH1 0x8 DUP2 MSTORE PUSH1 0x20 ADD PUSH8 0x52616D7A5377617 PUSH1 0xC4 SHL DUP2 MSTORE POP DUP2 JUMP JUMPDEST PUSH1 0x0 PUSH2 0x341 CALLER DUP5 DUP5 PUSH2 0x689 JUMP JUMPDEST POP PUSH1 0x1 JUMPDEST SWAP3 SWAP2 POP POP JUMP JUMPDEST PUSH1 0x0 SLOAD DUP2 JUMP JUMPDEST PUSH1 0x1 PUSH1 0x1 PUSH1 0xA0 SHL SUB DUP4 AND PUSH1 0x0 SWAP1 DUP2 MSTORE PUSH1 0x2 PUSH1 0x20 SWAP1 DUP2 MSTORE PUSH1 0x40 DUP1 DUP4 KECCAK256 CALLER DUP5 MSTORE SWAP1 SWAP2 MSTORE DUP2 KECCAK256 SLOAD PUSH1 0x0 NOT EQ PUSH2 0x3D6 JUMPI PUSH1 0x1 PUSH1 0x1 PUSH1 0xA0 SHL SUB DUP5 AND PUSH1 0x0 SWAP1 DUP2 MSTORE PUSH1 0x2 PUSH1 0x20 SWAP1 DUP2 MSTORE PUSH1 0x40 DUP1 DUP4 KECCAK256 CALLER DUP5 MSTORE SWAP1 SWAP2 MSTORE SWAP1 KECCAK256 SLOAD PUSH2 0x3B1 SWAP1 DUP4 PUSH4 0xFFFFFFFF PUSH2 0x6EB AND JUMP JUMPDEST PUSH1 0x1 PUSH1 0x1 PUSH1 0xA0 SHL SUB DUP6 AND PUSH1 0x0 SWAP1 DUP2 MSTORE PUSH1 0x2 PUSH1 0x20 SWAP1 DUP2 MSTORE PUSH1 0x40 DUP1 DUP4 KECCAK256 CALLER DUP5 MSTORE SWAP1 SWAP2 MSTORE SWAP1 KECCAK256 SSTORE JUMPDEST PUSH2 0x3E1 DUP5 DUP5 DUP5 PUSH2 0x73B JUMP JUMPDEST POP PUSH1 0x1 SWAP4 SWAP3 POP POP POP JUMP JUMPDEST PUSH32 0x6E71EDAE12B1B97F4D1F60370FEF10105FA2FAAE0126114A169C64845D6126C9 DUP2 JUMP JUMPDEST PUSH1 0x12 DUP2 JUMP JUMPDEST PUSH1 0x3 SLOAD DUP2 JUMP JUMPDEST PUSH1 0x1 PUSH1 0x20 MSTORE PUSH1 0x0 SWAP1 DUP2 MSTORE PUSH1 0x40 SWAP1 KECCAK256 SLOAD DUP2 JUMP JUMPDEST PUSH1 0x4 PUSH1 0x20 MSTORE PUSH1 0x0 SWAP1 DUP2 MSTORE PUSH1 0x40 SWAP1 KECCAK256 SLOAD DUP2 JUMP JUMPDEST PUSH1 0x40 MLOAD DUP1 PUSH1 0x40 ADD PUSH1 0x40 MSTORE DUP1 PUSH1 0x3 DUP2 MSTORE PUSH1 0x20 ADD PUSH3 0x2926AD PUSH1 0xE9 SHL DUP2 MSTORE POP DUP2 JUMP JUMPDEST PUSH1 0x0 PUSH2 0x341 CALLER DUP5 DUP5 PUSH2 0x73B JUMP JUMPDEST TIMESTAMP DUP5 LT ISZERO PUSH2 0x4B4 JUMPI PUSH1 0x40 DUP1 MLOAD PUSH3 0x461BCD PUSH1 0xE5 SHL DUP2 MSTORE PUSH1 0x20 PUSH1 0x4 DUP3 ADD MSTORE PUSH1 0x12 PUSH1 0x24 DUP3 ADD MSTORE PUSH18 0x155B9A5CDDD85C158C8E8811561412549151 PUSH1 0x72 SHL PUSH1 0x44 DUP3 ADD MSTORE SWAP1 MLOAD SWAP1 DUP2 SWAP1 SUB PUSH1 0x64 ADD SWAP1 REVERT JUMPDEST PUSH1 0x3 SLOAD PUSH1 0x1 PUSH1 0x1 PUSH1 0xA0 SHL SUB DUP1 DUP10 AND PUSH1 0x0 DUP2 DUP2 MSTORE PUSH1 0x4 PUSH1 0x20 SWAP1 DUP2 MSTORE PUSH1 0x40 DUP1 DUP4 KECCAK256 DUP1 SLOAD PUSH1 0x1 DUP1 DUP3 ADD SWAP1 SWAP3 SSTORE DUP3 MLOAD PUSH32 0x6E71EDAE12B1B97F4D1F60370FEF10105FA2FAAE0126114A169C64845D6126C9 DUP2 DUP7 ADD MSTORE DUP1 DUP5 ADD SWAP7 SWAP1 SWAP7 MSTORE SWAP6 DUP14 AND PUSH1 0x60 DUP7 ADD MSTORE PUSH1 0x80 DUP6 ADD DUP13 SWAP1 MSTORE PUSH1 0xA0 DUP6 ADD SWAP6 SWAP1 SWAP6 MSTORE PUSH1 0xC0 DUP1 DUP6 ADD DUP12 SWAP1 MSTORE DUP2 MLOAD DUP1 DUP7 SUB SWAP1 SWAP2 ADD DUP2 MSTORE PUSH1 0xE0 DUP6 ADD DUP3 MSTORE DUP1 MLOAD SWAP1 DUP4 ADD KECCAK256 PUSH2 0x1901 PUSH1 0xF0 SHL PUSH2 0x100 DUP7 ADD MSTORE PUSH2 0x102 DUP6 ADD SWAP7 SWAP1 SWAP7 MSTORE PUSH2 0x122 DUP1 DUP6 ADD SWAP7 SWAP1 SWAP7 MSTORE DUP1 MLOAD DUP1 DUP6 SUB SWAP1 SWAP7 ADD DUP7 MSTORE PUSH2 0x142 DUP5 ADD DUP1 DUP3 MSTORE DUP7 MLOAD SWAP7 DUP4 ADD SWAP7 SWAP1 SWAP7 KECCAK256 SWAP6 DUP4 SWAP1 MSTORE PUSH2 0x162 DUP5 ADD DUP1 DUP3 MSTORE DUP7 SWAP1 MSTORE PUSH1 0xFF DUP10 AND PUSH2 0x182 DUP6 ADD MSTORE PUSH2 0x1A2 DUP5 ADD DUP9 SWAP1 MSTORE PUSH2 0x1C2 DUP5 ADD DUP8 SWAP1 MSTORE MLOAD SWAP2 SWAP4 SWAP3 PUSH2 0x1E2 DUP1 DUP3 ADD SWAP4 PUSH1 0x1F NOT DUP2 ADD SWAP3 DUP2 SWAP1 SUB SWAP1 SWAP2 ADD SWAP1 DUP6 GAS STATICCALL ISZERO DUP1 ISZERO PUSH2 0x5CF JUMPI RETURNDATASIZE PUSH1 0x0 DUP1 RETURNDATACOPY RETURNDATASIZE PUSH1 0x0 REVERT JUMPDEST POP POP PUSH1 0x40 MLOAD PUSH1 0x1F NOT ADD MLOAD SWAP2 POP POP PUSH1 0x1 PUSH1 0x1 PUSH1 0xA0 SHL SUB DUP2 AND ISZERO DUP1 ISZERO SWAP1 PUSH2 0x605 JUMPI POP DUP9 PUSH1 0x1 PUSH1 0x1 PUSH1 0xA0 SHL SUB AND DUP2 PUSH1 0x1 PUSH1 0x1 PUSH1 0xA0 SHL SUB AND EQ JUMPDEST PUSH2 0x656 JUMPI PUSH1 0x40 DUP1 MLOAD PUSH3 0x461BCD PUSH1 0xE5 SHL DUP2 MSTORE PUSH1 0x20 PUSH1 0x4 DUP3 ADD MSTORE PUSH1 0x1C PUSH1 0x24 DUP3 ADD MSTORE PUSH32 0x556E697377617056323A20494E56414C49445F5349474E415455524500000000 PUSH1 0x44 DUP3 ADD MSTORE SWAP1 MLOAD SWAP1 DUP2 SWAP1 SUB PUSH1 0x64 ADD SWAP1 REVERT JUMPDEST PUSH2 0x661 DUP10 DUP10 DUP10 PUSH2 0x689 JUMP JUMPDEST POP POP POP POP POP POP POP POP POP JUMP JUMPDEST PUSH1 0x2 PUSH1 0x20 SWAP1 DUP2 MSTORE PUSH1 0x0 SWAP3 DUP4 MSTORE PUSH1 0x40 DUP1 DUP5 KECCAK256 SWAP1 SWAP2 MSTORE SWAP1 DUP3 MSTORE SWAP1 KECCAK256 SLOAD DUP2 JUMP JUMPDEST PUSH1 0x1 PUSH1 0x1 PUSH1 0xA0 SHL SUB DUP1 DUP5 AND PUSH1 0x0 DUP2 DUP2 MSTORE PUSH1 0x2 PUSH1 0x20 SWAP1 DUP2 MSTORE PUSH1 0x40 DUP1 DUP4 KECCAK256 SWAP5 DUP8 AND DUP1 DUP5 MSTORE SWAP5 DUP3 MSTORE SWAP2 DUP3 SWAP1 KECCAK256 DUP6 SWAP1 SSTORE DUP2 MLOAD DUP6 DUP2 MSTORE SWAP2 MLOAD PUSH32 0x8C5BE1E5EBEC7D5BD14F71427D1E84F3DD0314C0F7B2291E5B200AC8C7C3B925 SWAP3 DUP2 SWAP1 SUB SWAP1 SWAP2 ADD SWAP1 LOG3 POP POP POP JUMP JUMPDEST DUP1 DUP3 SUB DUP3 DUP2 GT ISZERO PUSH2 0x345 JUMPI PUSH1 0x40 DUP1 MLOAD PUSH3 0x461BCD PUSH1 0xE5 SHL DUP2 MSTORE PUSH1 0x20 PUSH1 0x4 DUP3 ADD MSTORE PUSH1 0x15 PUSH1 0x24 DUP3 ADD MSTORE PUSH21 0x64732D6D6174682D7375622D756E646572666C6F77 PUSH1 0x58 SHL PUSH1 0x44 DUP3 ADD MSTORE SWAP1 MLOAD SWAP1 DUP2 SWAP1 SUB PUSH1 0x64 ADD SWAP1 REVERT JUMPDEST PUSH1 0x1 PUSH1 0x1 PUSH1 0xA0 SHL SUB DUP4 AND PUSH1 0x0 SWAP1 DUP2 MSTORE PUSH1 0x1 PUSH1 0x20 MSTORE PUSH1 0x40 SWAP1 KECCAK256 SLOAD PUSH2 0x764 SWAP1 DUP3 PUSH4 0xFFFFFFFF PUSH2 0x6EB AND JUMP JUMPDEST PUSH1 0x1 PUSH1 0x1 PUSH1 0xA0 SHL SUB DUP1 DUP6 AND PUSH1 0x0 SWAP1 DUP2 MSTORE PUSH1 0x1 PUSH1 0x20 MSTORE PUSH1 0x40 DUP1 DUP3 KECCAK256 SWAP4 SWAP1 SWAP4 SSTORE SWAP1 DUP5 AND DUP2 MSTORE KECCAK256 SLOAD PUSH2 0x799 SWAP1 DUP3 PUSH4 0xFFFFFFFF PUSH2 0x7F5 AND JUMP JUMPDEST PUSH1 0x1 PUSH1 0x1 PUSH1 0xA0 SHL SUB DUP1 DUP5 AND PUSH1 0x0 DUP2 DUP2 MSTORE PUSH1 0x1 PUSH1 0x20 SWAP1 DUP2 MSTORE PUSH1 0x40 SWAP2 DUP3 SWAP1 KECCAK256 SWAP5 SWAP1 SWAP5 SSTORE DUP1 MLOAD DUP6 DUP2 MSTORE SWAP1 MLOAD SWAP2 SWAP4 SWAP3 DUP8 AND SWAP3 PUSH32 0xDDF252AD1BE2C89B69C2B068FC378DAA952BA7F163C4A11628F55A4DF523B3EF SWAP3 SWAP2 DUP3 SWAP1 SUB ADD SWAP1 LOG3 POP POP POP JUMP JUMPDEST DUP1 DUP3 ADD DUP3 DUP2 LT ISZERO PUSH2 0x345 JUMPI PUSH1 0x40 DUP1 MLOAD PUSH3 0x461BCD PUSH1 0xE5 SHL DUP2 MSTORE PUSH1 0x20 PUSH1 0x4 DUP3 ADD MSTORE PUSH1 0x14 PUSH1 0x24 DUP3 ADD MSTORE PUSH20 0x64732D6D6174682D6164642D6F766572666C6F77 PUSH1 0x60 SHL PUSH1 0x44 DUP3 ADD MSTORE SWAP1 MLOAD SWAP1 DUP2 SWAP1 SUB PUSH1 0x64 ADD SWAP1 REVERT INVALID LOG2 PUSH6 0x627A7A723158 KECCAK256 PUSH32 0x1AE1F8C51F741896A718C8EA03037D031724ACECFA91194FA25CAE9981B66E64 PUSH20 0x6F6C63430005100032454950373132446F6D6169 PUSH15 0x28737472696E67206E616D652C7374 PUSH19 0x696E672076657273696F6E2C75696E74323536 KECCAK256 PUSH4 0x6861696E 0x49 PUSH5 0x2C61646472 PUSH6 0x737320766572 PUSH10 0x6679696E67436F6E7472 PUSH2 0x6374 0x29 "
				},
				"gasEstimates": {
					"creation": {
						"codeDepositCost": "433800",
						"executionCost": "infinite",
						"totalCost": "infinite"
					},
					"external": {
						"DOMAIN_SEPARATOR()": "1021",
						"PERMIT_TYPEHASH()": "287",
						"allowance(address,address)": "1305",
						"approve(address,uint256)": "22343",
						"balanceOf(address)": "1169",
						"decimals()": "318",
						"name()": "infinite",
						"nonces(address)": "1191",
						"permit(address,address,uint256,uint256,uint8,bytes32,bytes32)": "infinite",
						"symbol()": "infinite",
						"totalSupply()": "1043",
						"transfer(address,uint256)": "infinite",
						"transferFrom(address,address,uint256)": "infinite"
					},
					"internal": {
						"_approve(address,address,uint256)": "infinite",
						"_burn(address,uint256)": "infinite",
						"_mint(address,uint256)": "infinite",
						"_transfer(address,address,uint256)": "infinite"
					}
				},
				"methodIdentifiers": {
					"DOMAIN_SEPARATOR()": "3644e515",
					"PERMIT_TYPEHASH()": "30adf81f",
					"allowance(address,address)": "dd62ed3e",
					"approve(address,uint256)": "095ea7b3",
					"balanceOf(address)": "70a08231",
					"decimals()": "313ce567",
					"name()": "06fdde03",
					"nonces(address)": "7ecebe00",
					"permit(address,address,uint256,uint256,uint8,bytes32,bytes32)": "d505accf",
					"symbol()": "95d89b41",
					"totalSupply()": "18160ddd",
					"transfer(address,uint256)": "a9059cbb",
					"transferFrom(address,address,uint256)": "23b872dd"
				}
			},
			"storageLayout": {
				"storage": [
					{
						"astId": 225,
						"contract": "MAAL Blockchain/RamzSwap/Core/RamzSwapMAAL20.sol:RamzSwapMAAL20",
						"label": "totalSupply",
						"offset": 0,
						"slot": "0",
						"type": "t_uint256"
					},
					{
						"astId": 229,
						"contract": "MAAL Blockchain/RamzSwap/Core/RamzSwapMAAL20.sol:RamzSwapMAAL20",
						"label": "balanceOf",
						"offset": 0,
						"slot": "1",
						"type": "t_mapping(t_address,t_uint256)"
					},
					{
						"astId": 235,
						"contract": "MAAL Blockchain/RamzSwap/Core/RamzSwapMAAL20.sol:RamzSwapMAAL20",
						"label": "allowance",
						"offset": 0,
						"slot": "2",
						"type": "t_mapping(t_address,t_mapping(t_address,t_uint256))"
					},
					{
						"astId": 237,
						"contract": "MAAL Blockchain/RamzSwap/Core/RamzSwapMAAL20.sol:RamzSwapMAAL20",
						"label": "DOMAIN_SEPARATOR",
						"offset": 0,
						"slot": "3",
						"type": "t_bytes32"
					},
					{
						"astId": 244,
						"contract": "MAAL Blockchain/RamzSwap/Core/RamzSwapMAAL20.sol:RamzSwapMAAL20",
						"label": "nonces",
						"offset": 0,
						"slot": "4",
						"type": "t_mapping(t_address,t_uint256)"
					}
				],
				"types": {
					"t_address": {
						"encoding": "inplace",
						"label": "address",
						"numberOfBytes": "20"
					},
					"t_bytes32": {
						"encoding": "inplace",
						"label": "bytes32",
						"numberOfBytes": "32"
					},
					"t_mapping(t_address,t_mapping(t_address,t_uint256))": {
						"encoding": "mapping",
						"key": "t_address",
						"label": "mapping(address => mapping(address => uint256))",
						"numberOfBytes": "32",
						"value": "t_mapping(t_address,t_uint256)"
					},
					"t_mapping(t_address,t_uint256)": {
						"encoding": "mapping",
						"key": "t_address",
						"label": "mapping(address => uint256)",
						"numberOfBytes": "32",
						"value": "t_uint256"
					},
					"t_uint256": {
						"encoding": "inplace",
						"label": "uint256",
						"numberOfBytes": "32"
					}
				}
			},
			"userdoc": {
				"methods": {}
			}
		}
	}
}